{
  "address": "0x242cd12579467983dc521D8aC46EB13936ab65De",
  "abi": [
    {
      "inputs": [
        {
          "internalType": "address",
          "name": "oneTokenFactory_",
          "type": "address"
        },
        {
          "internalType": "string",
          "name": "description_",
          "type": "string"
        },
        {
          "internalType": "address",
          "name": "indexToken_",
          "type": "address"
        }
      ],
      "stateMutability": "nonpayable",
      "type": "constructor"
    },
    {
      "anonymous": false,
      "inputs": [
        {
          "indexed": false,
          "internalType": "address",
          "name": "sender",
          "type": "address"
        },
        {
          "indexed": false,
          "internalType": "string",
          "name": "description",
          "type": "string"
        }
      ],
      "name": "DescriptionUpdated",
      "type": "event"
    },
    {
      "anonymous": false,
      "inputs": [
        {
          "indexed": false,
          "internalType": "address",
          "name": "sender",
          "type": "address"
        },
        {
          "indexed": false,
          "internalType": "enum InterfaceCommon.ModuleType",
          "name": "moduleType",
          "type": "uint8"
        },
        {
          "indexed": false,
          "internalType": "string",
          "name": "description",
          "type": "string"
        }
      ],
      "name": "ModuleDeployed",
      "type": "event"
    },
    {
      "anonymous": false,
      "inputs": [
        {
          "indexed": false,
          "internalType": "address",
          "name": "sender",
          "type": "address"
        },
        {
          "indexed": false,
          "internalType": "string",
          "name": "description",
          "type": "string"
        },
        {
          "indexed": false,
          "internalType": "address",
          "name": "indexToken",
          "type": "address"
        }
      ],
      "name": "OracleDeployed",
      "type": "event"
    },
    {
      "anonymous": false,
      "inputs": [
        {
          "indexed": false,
          "internalType": "address",
          "name": "sender",
          "type": "address"
        },
        {
          "indexed": false,
          "internalType": "address",
          "name": "baseToken",
          "type": "address"
        },
        {
          "indexed": false,
          "internalType": "address",
          "name": "indexToken",
          "type": "address"
        }
      ],
      "name": "OracleInitialized",
      "type": "event"
    },
    {
      "anonymous": false,
      "inputs": [
        {
          "indexed": true,
          "internalType": "address",
          "name": "previousOwner",
          "type": "address"
        },
        {
          "indexed": true,
          "internalType": "address",
          "name": "newOwner",
          "type": "address"
        }
      ],
      "name": "OwnershipTransferred",
      "type": "event"
    },
    {
      "anonymous": false,
      "inputs": [
        {
          "indexed": false,
          "internalType": "address",
          "name": "sender",
          "type": "address"
        },
        {
          "indexed": false,
          "internalType": "address",
          "name": "token",
          "type": "address"
        },
        {
          "indexed": false,
          "internalType": "address",
          "name": "oracle",
          "type": "address"
        }
      ],
      "name": "RegisterChainlinkOracle",
      "type": "event"
    },
    {
      "anonymous": false,
      "inputs": [
        {
          "indexed": false,
          "internalType": "address",
          "name": "sender",
          "type": "address"
        },
        {
          "indexed": false,
          "internalType": "address",
          "name": "token",
          "type": "address"
        }
      ],
      "name": "UnregisterChainlinkOracle",
      "type": "event"
    },
    {
      "anonymous": false,
      "inputs": [
        {
          "indexed": false,
          "internalType": "address",
          "name": "sender",
          "type": "address"
        },
        {
          "indexed": false,
          "internalType": "address",
          "name": "token",
          "type": "address"
        },
        {
          "indexed": false,
          "internalType": "address",
          "name": "oracle",
          "type": "address"
        }
      ],
      "name": "UpdateChainlinkOracle",
      "type": "event"
    },
    {
      "inputs": [],
      "name": "MODULE_TYPE",
      "outputs": [
        {
          "internalType": "bytes32",
          "name": "",
          "type": "bytes32"
        }
      ],
      "stateMutability": "view",
      "type": "function"
    },
    {
      "inputs": [
        {
          "internalType": "address",
          "name": "token",
          "type": "address"
        },
        {
          "internalType": "uint256",
          "name": "amountUsd",
          "type": "uint256"
        }
      ],
      "name": "amountRequired",
      "outputs": [
        {
          "internalType": "uint256",
          "name": "amountTokens",
          "type": "uint256"
        },
        {
          "internalType": "uint256",
          "name": "volatility",
          "type": "uint256"
        }
      ],
      "stateMutability": "view",
      "type": "function"
    },
    {
      "inputs": [
        {
          "internalType": "address",
          "name": "",
          "type": "address"
        }
      ],
      "name": "chainlinkOracles",
      "outputs": [
        {
          "internalType": "address",
          "name": "",
          "type": "address"
        }
      ],
      "stateMutability": "view",
      "type": "function"
    },
    {
      "inputs": [
        {
          "internalType": "address",
          "name": "token",
          "type": "address"
        }
      ],
      "name": "getThePrice",
      "outputs": [
        {
          "internalType": "uint256",
          "name": "price",
          "type": "uint256"
        }
      ],
      "stateMutability": "view",
      "type": "function"
    },
    {
      "inputs": [],
      "name": "indexToken",
      "outputs": [
        {
          "internalType": "address",
          "name": "",
          "type": "address"
        }
      ],
      "stateMutability": "view",
      "type": "function"
    },
    {
      "inputs": [
        {
          "internalType": "address",
          "name": "baseToken",
          "type": "address"
        }
      ],
      "name": "init",
      "outputs": [],
      "stateMutability": "nonpayable",
      "type": "function"
    },
    {
      "inputs": [],
      "name": "moduleDescription",
      "outputs": [
        {
          "internalType": "string",
          "name": "",
          "type": "string"
        }
      ],
      "stateMutability": "view",
      "type": "function"
    },
    {
      "inputs": [],
      "name": "moduleType",
      "outputs": [
        {
          "internalType": "enum InterfaceCommon.ModuleType",
          "name": "",
          "type": "uint8"
        }
      ],
      "stateMutability": "view",
      "type": "function"
    },
    {
      "inputs": [
        {
          "internalType": "address",
          "name": "token",
          "type": "address"
        },
        {
          "internalType": "uint256",
          "name": "amountNormal",
          "type": "uint256"
        }
      ],
      "name": "normalizedToTokens",
      "outputs": [
        {
          "internalType": "uint256",
          "name": "amountTokens",
          "type": "uint256"
        }
      ],
      "stateMutability": "view",
      "type": "function"
    },
    {
      "inputs": [],
      "name": "oneTokenFactory",
      "outputs": [
        {
          "internalType": "address",
          "name": "",
          "type": "address"
        }
      ],
      "stateMutability": "view",
      "type": "function"
    },
    {
      "inputs": [
        {
          "internalType": "uint256",
          "name": "index",
          "type": "uint256"
        }
      ],
      "name": "oracleAtIndex",
      "outputs": [
        {
          "internalType": "address",
          "name": "oracle",
          "type": "address"
        }
      ],
      "stateMutability": "view",
      "type": "function"
    },
    {
      "inputs": [],
      "name": "oraclesCount",
      "outputs": [
        {
          "internalType": "uint256",
          "name": "count",
          "type": "uint256"
        }
      ],
      "stateMutability": "view",
      "type": "function"
    },
    {
      "inputs": [],
      "name": "owner",
      "outputs": [
        {
          "internalType": "address",
          "name": "",
          "type": "address"
        }
      ],
      "stateMutability": "view",
      "type": "function"
    },
    {
      "inputs": [
        {
          "internalType": "address",
          "name": "token",
          "type": "address"
        },
        {
          "internalType": "uint256",
          "name": "amountTokens",
          "type": "uint256"
        }
      ],
      "name": "read",
      "outputs": [
        {
          "internalType": "uint256",
          "name": "amountUsd",
          "type": "uint256"
        },
        {
          "internalType": "uint256",
          "name": "volatility",
          "type": "uint256"
        }
      ],
      "stateMutability": "view",
      "type": "function"
    },
    {
      "inputs": [
        {
          "internalType": "address",
          "name": "token",
          "type": "address"
        },
        {
          "internalType": "address",
          "name": "oracle",
          "type": "address"
        }
      ],
      "name": "registerOracle",
      "outputs": [],
      "stateMutability": "nonpayable",
      "type": "function"
    },
    {
      "inputs": [],
      "name": "renounceOwnership",
      "outputs": [],
      "stateMutability": "nonpayable",
      "type": "function"
    },
    {
      "inputs": [
        {
          "internalType": "uint256",
          "name": "index",
          "type": "uint256"
        }
      ],
      "name": "tokenAtIndex",
      "outputs": [
        {
          "internalType": "address",
          "name": "token",
          "type": "address"
        }
      ],
      "stateMutability": "view",
      "type": "function"
    },
    {
      "inputs": [
        {
          "internalType": "address",
          "name": "token",
          "type": "address"
        },
        {
          "internalType": "uint256",
          "name": "amountTokens",
          "type": "uint256"
        }
      ],
      "name": "tokensToNormalized",
      "outputs": [
        {
          "internalType": "uint256",
          "name": "amountNormal",
          "type": "uint256"
        }
      ],
      "stateMutability": "view",
      "type": "function"
    },
    {
      "inputs": [
        {
          "internalType": "address",
          "name": "newOwner",
          "type": "address"
        }
      ],
      "name": "transferOwnership",
      "outputs": [],
      "stateMutability": "nonpayable",
      "type": "function"
    },
    {
      "inputs": [
        {
          "internalType": "address",
          "name": "token",
          "type": "address"
        }
      ],
      "name": "unregisterOracle",
      "outputs": [],
      "stateMutability": "nonpayable",
      "type": "function"
    },
    {
      "inputs": [
        {
          "internalType": "address",
          "name": "",
          "type": "address"
        }
      ],
      "name": "update",
      "outputs": [],
      "stateMutability": "nonpayable",
      "type": "function"
    },
    {
      "inputs": [
        {
          "internalType": "string",
          "name": "description",
          "type": "string"
        }
      ],
      "name": "updateDescription",
      "outputs": [],
      "stateMutability": "nonpayable",
      "type": "function"
    },
    {
      "inputs": [
        {
          "internalType": "address",
          "name": "token",
          "type": "address"
        },
        {
          "internalType": "address",
          "name": "oracle",
          "type": "address"
        }
      ],
      "name": "updateOracle",
      "outputs": [],
      "stateMutability": "nonpayable",
      "type": "function"
    }
  ],
  "transactionHash": "0xd8d3d57326882cb5a1312c55af207636db89f5d1d69284fa717c69be25aecf38",
  "args": [
    "0x101eB16BdbA37979a771c86e1CAAfbaDbABfc879",
    "Chainlink Oracle USD",
    "0x2791Bca1f2de4661ED88A30C99A7a9449Aa84174"
  ],
  "numDeployments": 1,
  "solcInputHash": "b3b903809dc4e7d25ac327ef3728c2bc",
  "bytecode": "0x60c06040523480156200001157600080fd5b5060405162001f8838038062001f88833981810160405260608110156200003757600080fd5b8151602083018051604051929492938301929190846401000000008211156200005f57600080fd5b9083019060208201858111156200007557600080fd5b82516401000000008111828201881017156200009057600080fd5b82525081516020918201929091019080838360005b83811015620000bf578181015183820152602001620000a5565b50505050905090810190601f168015620000ed5780820380516001836020036101000a031916815260200191505b506040526020015191508390508282826004836200010b33620003da565b6001600160a01b038316620001525760405162461bcd60e51b815260040180806020018281038252603181526020018062001f576031913960400191505060405180910390fd5b6000815111620001945760405162461bcd60e51b815260040180806020018281038252602d81526020018062001ed8602d913960400191505060405180910390fd5b6001600160601b0319606084901b1660a052816004811115620001b357fe5b6080816004811115620001c257fe5b60f81b9052508051620001dd9060019060208401906200047c565b507f2e09cb9dd254b20150f5e6b358e7aabf9802b241ddf84609686d8e4b0d2b96b833838360405180846001600160a01b031681526020018360048111156200022257fe5b815260200180602001828103825283818151815260200191508051906020019080838360005b838110156200026257818101518382015260200162000248565b50505050905090810190601f168015620002905780820380516001836020036101000a031916815260200191505b5094505050505060405180910390a15050506001600160a01b038116620002e95760405162461bcd60e51b815260040180806020018281038252602881526020018062001f2f6028913960400191505060405180910390fd5b80600260006101000a8154816001600160a01b0302191690836001600160a01b031602179055507f5ca37c59f6b6cafb39fb44368a097af590e5e220c2a015addc4b11977c34766b33838360405180846001600160a01b0316815260200180602001836001600160a01b03168152602001828103825284818151815260200191508051906020019080838360005b838110156200039157818101518382015260200162000377565b50505050905090810190601f168015620003bf5780820380516001836020036101000a031916815260200191505b5094505050505060405180910390a150505050505062000528565b6001600160a01b038116620004215760405162461bcd60e51b815260040180806020018281038252602a81526020018062001f05602a913960400191505060405180910390fd5b600080546040516001600160a01b03808516939216917f8be0079c531659141344cd1fd0a4f28419497f9722a3daafe3b4186f6b6457e091a3600080546001600160a01b0319166001600160a01b0392909216919091179055565b828054600181600116156101000203166002900490600052602060002090601f016020900481019282620004b45760008555620004ff565b82601f10620004cf57805160ff1916838001178555620004ff565b82800160010185558215620004ff579182015b82811115620004ff578251825591602001919060010190620004e2565b506200050d92915062000511565b5090565b5b808211156200050d576000815560010162000512565b60805160f81c60a05160601c61197c6200055c600039806105a352806106245280610e76525080610980525061197c6000f3fe608060405234801561001057600080fd5b506004361061014d5760003560e01c806376f70900116100c3578063b5966db81161007c578063b5966db81461039e578063b7b8bae41461041b578063e735b48a14610447578063e7d015f2146104ed578063f2fde38b146104f5578063fc28b2fb1461051b5761014d565b806376f709001461030d578063823cbc0d1461031557806383d998ae1461033257806388270e0c146103605780638da5cb5b1461038e578063a2729c23146103965761014d565b806344a11f651161011557806344a11f651461025c5780634d161865146102825780635775029f146102ae5780636465e69f146102b65780636a75aa66146102df578063715018a6146103055761014d565b8063014c2add1461015257806319ab453c146101975780631c1b8772146101bf57806327d3cb41146101e557806341f1afc714610223575b600080fd5b61017e6004803603604081101561016857600080fd5b506001600160a01b038135169060200135610541565b6040805192835260208301919091528051918290030190f35b6101bd600480360360208110156101ad57600080fd5b50356001600160a01b0316610583565b005b6101bd600480360360208110156101d557600080fd5b50356001600160a01b03166106cf565b610211600480360360408110156101fb57600080fd5b506001600160a01b0381351690602001356106d2565b60408051918252519081900360200190f35b6102406004803603602081101561023957600080fd5b50356107a9565b604080516001600160a01b039092168252519081900360200190f35b6102116004803603602081101561027257600080fd5b50356001600160a01b03166107fd565b61017e6004803603604081101561029857600080fd5b506001600160a01b038135169060200135610905565b610211610934565b6102be61097e565b604051808260048111156102ce57fe5b815260200191505060405180910390f35b610240600480360360208110156102f557600080fd5b50356001600160a01b03166109a2565b6101bd6109bd565b610211610a65565b6102406004803603602081101561032b57600080fd5b5035610a76565b6101bd6004803603604081101561034857600080fd5b506001600160a01b0381358116916020013516610af1565b6101bd6004803603604081101561037657600080fd5b506001600160a01b0381358116916020013516610cc6565b610240610e65565b610240610e74565b6103a6610e98565b6040805160208082528351818301528351919283929083019185019080838360005b838110156103e05781810151838201526020016103c8565b50505050905090810190601f16801561040d5780820380516001836020036101000a031916815260200191505b509250505060405180910390f35b6102116004803603604081101561043157600080fd5b506001600160a01b038135169060200135610f25565b6101bd6004803603602081101561045d57600080fd5b81019060208101813564010000000081111561047857600080fd5b82018360208201111561048a57600080fd5b803590602001918460018302840111640100000000831117156104ac57600080fd5b91908080601f016020809104026020016040519081016040528093929190818152602001838380828437600092019190915250929550611003945050505050565b610240611162565b6101bd6004803603602081101561050b57600080fd5b50356001600160a01b0316611171565b6101bd6004803603602081101561053157600080fd5b50356001600160a01b03166111d8565b600080600061055085856106d2565b9050610577670de0b6b3a764000061057161056a886107fd565b84906112dd565b90611336565b95600195509350505050565b604080516342f6e38960e01b815233600482015290516001600160a01b037f000000000000000000000000000000000000000000000000000000000000000016916342f6e389916024808301926020929190829003018186803b1580156105e957600080fd5b505afa1580156105fd573d6000803e3d6000fd5b505050506040513d602081101561061357600080fd5b505161068057336001600160a01b037f000000000000000000000000000000000000000000000000000000000000000016146106805760405162461bcd60e51b81526004018080602001828103825260528152602001806118c86052913960600191505060405180910390fd5b600254604080513381526001600160a01b03808516602083015290921682820152517f615e5388e077a0f73212d5edcf91ad20a6738753574b7a3749872baa98995be59181900360600190a150565b50565b6000808390506000816001600160a01b031663313ce5676040518163ffffffff1660e01b815260040160206040518083038186803b15801561071357600080fd5b505afa158015610727573d6000803e3d6000fd5b505050506040513d602081101561073d57600080fd5b505160ff16905060128111156107845760405162461bcd60e51b815260040180806020018281038252603b815260200180611819603b913960400191505060405180910390fd5b60128114156107975783925050506107a3565b601203600a0a83029150505b92915050565b6000816107b6600461139d565b116107f25760405162461bcd60e51b815260040180806020018281038252602981526020018061189f6029913960400191505060405180910390fd5b6107a36004836113a4565b600061080a6004836113d1565b61085b576040805162461bcd60e51b815260206004820152601e60248201527f436861696e6c696e6b4f7261636c653a20756e6b6e6f776e20746f6b656e0000604482015290519081900360640190fd5b6001600160a01b03808316600090815260036020526040808220548151633fabe5a360e21b815291519293169163feaf968c9160048082019260a092909190829003018186803b1580156108ae57600080fd5b505afa1580156108c2573d6000803e3d6000fd5b505050506040513d60a08110156108d857600080fd5b50602001519050600081136108ec57600080fd5b9050806108fe816402540be4006112dd565b9392505050565b6000806000610928610916866107fd565b61057186670de0b6b3a76400006112dd565b90506105778582610f25565b60405160200180807f49434849205631204f7261636c6520496d706c656d656e746174696f6e000000815250601d0190506040516020818303038152906040528051906020012081565b7f000000000000000000000000000000000000000000000000000000000000000081565b6003602052600090815260409020546001600160a01b031681565b6109c561142c565b6001600160a01b03166109d6610e65565b6001600160a01b031614610a1b5760405162461bcd60e51b81526004018080602001828103825260248152602001806117f56024913960400191505060405180910390fd5b600080546040516001600160a01b03909116907f8be0079c531659141344cd1fd0a4f28419497f9722a3daafe3b4186f6b6457e0908390a3600080546001600160a01b0319169055565b6000610a71600461139d565b905090565b600081610a83600461139d565b11610abf5760405162461bcd60e51b815260040180806020018281038252602981526020018061189f6029913960400191505060405180910390fd5b60036000610ace6004856113a4565b6001600160a01b0390811682526020820192909252604001600020541692915050565b610af961142c565b6001600160a01b0316610b0a610e65565b6001600160a01b031614610b4f5760405162461bcd60e51b81526004018080602001828103825260248152602001806117f56024913960400191505060405180910390fd5b610b5a6004836113d1565b610bab576040805162461bcd60e51b815260206004820152601e60248201527f436861696e6c696e6b4f7261636c653a20756e6b6e6f776e20746f6b656e0000604482015290519081900360640190fd5b806001600160a01b031663313ce5676040518163ffffffff1660e01b815260040160206040518083038186803b158015610be457600080fd5b505afa158015610bf8573d6000803e3d6000fd5b505050506040513d6020811015610c0e57600080fd5b505160ff16600814610c515760405162461bcd60e51b81526004018080602001828103825260328152602001806117c36032913960400191505060405180910390fd5b6001600160a01b0380831660008181526003602090815260409182902080549486166001600160a01b0319909516851790558151338152908101929092528181019290925290517f0cbd5cffcb8b9d797212b108817a8e2498059d3c2007654a23f2068d0b0608ca9181900360600190a15050565b610cce61142c565b6001600160a01b0316610cdf610e65565b6001600160a01b031614610d245760405162461bcd60e51b81526004018080602001828103825260248152602001806117f56024913960400191505060405180910390fd5b806001600160a01b031663313ce5676040518163ffffffff1660e01b815260040160206040518083038186803b158015610d5d57600080fd5b505afa158015610d71573d6000803e3d6000fd5b505050506040513d6020811015610d8757600080fd5b505160ff16600814610dca5760405162461bcd60e51b81526004018080602001828103825260328152602001806117c36032913960400191505060405180910390fd5b610df0826040518060600160405280602d815260200161191a602d913960049190611430565b6001600160a01b0380831660008181526003602090815260409182902080549486166001600160a01b0319909516851790558151338152908101929092528181019290925290517ff0fb32f6e8e924be15718421799e04259ca8fe912126ea45380ea31e53dac9809181900360600190a15050565b6000546001600160a01b031690565b7f000000000000000000000000000000000000000000000000000000000000000081565b60018054604080516020600284861615610100026000190190941693909304601f81018490048402820184019092528181529291830182828015610f1d5780601f10610ef257610100808354040283529160200191610f1d565b820191906000526020600020905b815481529060010190602001808311610f0057829003601f168201915b505050505081565b6000808390506000816001600160a01b031663313ce5676040518163ffffffff1660e01b815260040160206040518083038186803b158015610f6657600080fd5b505afa158015610f7a573d6000803e3d6000fd5b505050506040513d6020811015610f9057600080fd5b505160ff1690506012811115610fd75760405162461bcd60e51b815260040180806020018281038252603b815260200180611819603b913960400191505060405180910390fd5b6012811415610fea5783925050506107a3565b80601203600a0a8481610ff957fe5b0495945050505050565b61100b61142c565b6001600160a01b031661101c610e65565b6001600160a01b0316146110615760405162461bcd60e51b81526004018080602001828103825260248152602001806117f56024913960400191505060405180910390fd5b60008151116110a15760405162461bcd60e51b815260040180806020018281038252602d815260200180611796602d913960400191505060405180910390fd5b80516110b49060019060208401906116f4565b507f37cc8c6ced0cbc4d440fcfa810a2f09f40b8f0127c3656103edf26b3d93e0ec1338260405180836001600160a01b0316815260200180602001828103825283818151815260200191508051906020019080838360005b8381101561112457818101518382015260200161110c565b50505050905090810190601f1680156111515780820380516001836020036101000a031916815260200191505b50935050505060405180910390a150565b6002546001600160a01b031681565b61117961142c565b6001600160a01b031661118a610e65565b6001600160a01b0316146111cf5760405162461bcd60e51b81526004018080602001828103825260248152602001806117f56024913960400191505060405180910390fd5b6106cf81611514565b6111e061142c565b6001600160a01b03166111f1610e65565b6001600160a01b0316146112365760405162461bcd60e51b81526004018080602001828103825260248152602001806117f56024913960400191505060405180910390fd5b60408051808201909152601e81527f436861696e6c696e6b4f7261636c653a20756e6b6e6f776e20746f6b656e000060208201526112789060049083906115b4565b6001600160a01b03811660008181526003602090815260409182902080546001600160a01b031916905581513381529081019290925280517fc9f55f9bd93aeee106cb22510644e0103310f8cb06b17afd9db1a70b7500f0f89281900390910190a150565b6000826112ec575060006107a3565b828202828482816112f957fe5b04146108fe5760405162461bcd60e51b815260040180806020018281038252602181526020018061187e6021913960400191505060405180910390fd5b600080821161138c576040805162461bcd60e51b815260206004820152601a60248201527f536166654d6174683a206469766973696f6e206279207a65726f000000000000604482015290519081900360640190fd5b81838161139557fe5b049392505050565b6001015490565b60008260010182815481106113b557fe5b6000918252602090912001546001600160a01b03169392505050565b60018201546000906113e5575060006107a3565b6001600160a01b038216600081815260208590526040902054600185018054909190811061140f57fe5b6000918252602090912001546001600160a01b0316149392505050565b3390565b61143a83836113d1565b1581906114c55760405162461bcd60e51b81526004018080602001828103825283818151815260200191508051906020019080838360005b8381101561148a578181015183820152602001611472565b50505050905090810190601f1680156114b75780820380516001836020036101000a031916815260200191505b509250505060405180910390fd5b50506001828101805491820181556000818152602080822090930180546001600160a01b0319166001600160a01b03959095169485179055905492815292905260409091206000199091019055565b6001600160a01b0381166115595760405162461bcd60e51b815260040180806020018281038252602a815260200180611854602a913960400191505060405180910390fd5b600080546040516001600160a01b03808516939216917f8be0079c531659141344cd1fd0a4f28419497f9722a3daafe3b4186f6b6457e091a3600080546001600160a01b0319166001600160a01b0392909216919091179055565b6115be83836113d1565b819061160b5760405162461bcd60e51b815260206004820181815283516024840152835190928392604490910191908501908083836000831561148a578181015183820152602001611472565b50600060016116198561139d565b6001600160a01b038516600090815260208790526040812054600188018054949093039450929091908490811061164c57fe5b60009182526020808320909101546001600160a01b031680835290889052604090912083905560018701805491925082918490811061168757fe5b600091825260208083209190910180546001600160a01b0319166001600160a01b039485161790559187168152908790526040812055600186018054806116ca57fe5b600082815260209020810160001990810180546001600160a01b0319169055019055505050505050565b828054600181600116156101000203166002900490600052602060002090601f01602090048101928261172a5760008555611770565b82601f1061174357805160ff1916838001178555611770565b82800160010185558215611770579182015b82811115611770578251825591602001919060010190611755565b5061177c929150611780565b5090565b5b8082111561177c576000815560010161178156fe494348494d6f64756c65436f6d6d6f6e3a206465736372697074696f6e2063616e6e6f7420626520656d707479436861696e6c696e6b4f7261636c653a20746865206f7261636c65206d7573742072657475726e205553442076616c756573494348494f776e61626c653a2063616c6c6572206973206e6f7420746865206f776e65724f7261636c65436f6d6d6f6e3a20756e737570706f7274656420746f6b656e20707265636973696f6e202867726561746572207468616e20313829494348494f776e61626c653a206e6577206f776e657220697320746865207a65726f2061646472657373536166654d6174683a206d756c7469706c69636174696f6e206f766572666c6f77436861696e6c696e6b4f7261636c653a20696e646578206e756d62657220697320746f6f2068696768494348494d6f64756c65436f6d6d6f6e3a206d73672e73656e646572206973206e6f74206d6f64756c65206f776e65722c20746f6b656e20666163746f7279206f72207265676973746564206d6f64756c65436861696e6c696e6b4f7261636c653a206f7261636c6520697320616c72656164792072656769737465726564a264697066735822122067ad743ad9253dbad2cb077b088d3df01d302d77b16ea7e8b6a92b6f1372e42f64736f6c63430007060033494348494d6f64756c65436f6d6d6f6e3a206465736372697074696f6e2063616e6e6f7420626520656d707479494348494f776e61626c653a206e6577206f776e657220697320746865207a65726f20616464726573734f7261636c65436f6d6d6f6e3a20696e646578546f6b656e2063616e6e6f7420626520656d707479494348494d6f64756c65436f6d6d6f6e3a206f6e65546f6b656e466163746f72792063616e6e6f7420626520656d707479",
  "devdoc": {
    "kind": "dev",
    "methods": {
      "amountRequired(address,uint256)": {
        "params": {
          "amountTokens": "tokens required, token native precision",
          "amountUsd": "Usd required, precision 18",
          "token": "address of the token",
          "volatility": "metric for future use-cases"
        }
      },
      "constructor": {
        "params": {
          "description_": "description has no bearing on logic",
          "indexToken_": "token to use for price quotes",
          "oneTokenFactory_": "oneToken factory to bind to"
        }
      },
      "getThePrice(address)": {
        "params": {
          "token": "address of the token"
        }
      },
      "init(address)": {
        "params": {
          "baseToken": "oracles _can be_ multi-tenant with separately initialized baseTokens"
        }
      },
      "normalizedToTokens(address,uint256)": {
        "params": {
          "amountNormal": "quantity in precision-18",
          "amountTokens": "quantity scaled to token decimals()",
          "token": "ERC20 token contract"
        }
      },
      "oracleAtIndex(uint256)": {
        "params": {
          "index": "row number to inspect",
          "oracle": "address of the Chainlink oracle"
        }
      },
      "oraclesCount()": {
        "params": {
          "count": "number of registered Chainlink oracles"
        }
      },
      "owner()": {
        "details": "Returns the address of the current owner."
      },
      "read(address,uint256)": {
        "params": {
          "amountTokens": "quantity, token native precision",
          "amountUsd": "US dollar equivalent, precision 18",
          "token": "address of the token",
          "volatility": "metric for future use-cases"
        }
      },
      "registerOracle(address,address)": {
        "params": {
          "oracle": "address of the Chainlink oracle to register",
          "token": "address of the token to register the oracle for"
        }
      },
      "renounceOwnership()": {
        "details": "Leaves the contract without owner. It will not be possible to call `onlyOwner` functions anymore. Can only be called by the current owner. NOTE: Renouncing ownership will leave the contract without an owner, thereby removing any functionality that is only available to the owner."
      },
      "tokenAtIndex(uint256)": {
        "params": {
          "index": "row number to inspect",
          "token": "address of the registered token"
        }
      },
      "tokensToNormalized(address,uint256)": {
        "params": {
          "amountNormal": "quantity in precision-18",
          "amountTokens": "quantity scaled to token decimals",
          "token": "ERC20 token contract"
        }
      },
      "transferOwnership(address)": {
        "details": "Transfers ownership of the contract to a new account (`newOwner`). Can only be called by the current owner."
      },
      "unregisterOracle(address)": {
        "params": {
          "token": "address of the token to unregister the oracle for"
        }
      },
      "update(address)": {
        "details": "there is nothing to do in this case"
      },
      "updateDescription(string)": {
        "params": {
          "description": "new module desciption"
        }
      },
      "updateOracle(address,address)": {
        "params": {
          "oracle": "address of the new Chainlink oracle to be used for the token",
          "token": "address of the token to have the oracle replaced"
        }
      }
    },
    "version": 1
  },
  "userdoc": {
    "kind": "user",
    "methods": {
      "amountRequired(address,uint256)": {
        "notice": "returns the tokens needed to reach a target usd value"
      },
      "getThePrice(address)": {
        "notice": "returns the latest price for the token"
      },
      "init(address)": {
        "notice": "oneTokens can share Oracles. Oracles must be re-initializable. They are initialized from the Factory."
      },
      "normalizedToTokens(address,uint256)": {
        "notice": "converts normalized precision 18 amounts to token native precision amounts, truncates low-order values"
      },
      "oracleAtIndex(uint256)": {
        "notice": "enumerate the registered Chainlink oracles"
      },
      "oraclesCount()": {
        "notice": "count registered Chainlink oracles"
      },
      "read(address,uint256)": {
        "notice": "returns equivalent amount of index tokens for an amount of baseTokens and volatility metric"
      },
      "registerOracle(address,address)": {
        "notice": "register a new Chainlink oracle"
      },
      "tokenAtIndex(uint256)": {
        "notice": "enumerate the registered tokens"
      },
      "tokensToNormalized(address,uint256)": {
        "notice": "converts token native precision amounts to normalized precision 18 amounts"
      },
      "unregisterOracle(address)": {
        "notice": "unregister a Chainlink oracle"
      },
      "update(address)": {
        "notice": "update is called when a oneToken wants to persist observations"
      },
      "updateDescription(string)": {
        "notice": "set a module description"
      },
      "updateOracle(address,address)": {
        "notice": "replace oracle for the given token"
      }
    },
    "notice": "Generic ChainLink Oracle for USD",
    "version": 1
  },
  "storageLayout": {
    "storage": [
      {
        "astId": 14740,
        "contract": "contracts/oracle/chainlink/ChainlinkOracleUSD.sol:ChainlinkOracleUSD",
        "label": "_owner",
        "offset": 0,
        "slot": "0",
        "type": "t_address"
      },
      {
        "astId": 14664,
        "contract": "contracts/oracle/chainlink/ChainlinkOracleUSD.sol:ChainlinkOracleUSD",
        "label": "_initialized",
        "offset": 20,
        "slot": "0",
        "type": "t_bool"
      },
      {
        "astId": 14666,
        "contract": "contracts/oracle/chainlink/ChainlinkOracleUSD.sol:ChainlinkOracleUSD",
        "label": "_initializing",
        "offset": 21,
        "slot": "0",
        "type": "t_bool"
      },
      {
        "astId": 7373,
        "contract": "contracts/oracle/chainlink/ChainlinkOracleUSD.sol:ChainlinkOracleUSD",
        "label": "moduleDescription",
        "offset": 0,
        "slot": "1",
        "type": "t_string_storage"
      },
      {
        "astId": 9746,
        "contract": "contracts/oracle/chainlink/ChainlinkOracleUSD.sol:ChainlinkOracleUSD",
        "label": "indexToken",
        "offset": 0,
        "slot": "2",
        "type": "t_address"
      },
      {
        "astId": 9934,
        "contract": "contracts/oracle/chainlink/ChainlinkOracleUSD.sol:ChainlinkOracleUSD",
        "label": "chainlinkOracles",
        "offset": 0,
        "slot": "3",
        "type": "t_mapping(t_address,t_address)"
      },
      {
        "astId": 9936,
        "contract": "contracts/oracle/chainlink/ChainlinkOracleUSD.sol:ChainlinkOracleUSD",
        "label": "chainlinkOraclesSet",
        "offset": 0,
        "slot": "4",
        "type": "t_struct(Set)8416_storage"
      }
    ],
    "types": {
      "t_address": {
        "encoding": "inplace",
        "label": "address",
        "numberOfBytes": "20"
      },
      "t_array(t_address)dyn_storage": {
        "base": "t_address",
        "encoding": "dynamic_array",
        "label": "address[]",
        "numberOfBytes": "32"
      },
      "t_bool": {
        "encoding": "inplace",
        "label": "bool",
        "numberOfBytes": "1"
      },
      "t_mapping(t_address,t_address)": {
        "encoding": "mapping",
        "key": "t_address",
        "label": "mapping(address => address)",
        "numberOfBytes": "32",
        "value": "t_address"
      },
      "t_mapping(t_address,t_uint256)": {
        "encoding": "mapping",
        "key": "t_address",
        "label": "mapping(address => uint256)",
        "numberOfBytes": "32",
        "value": "t_uint256"
      },
      "t_string_storage": {
        "encoding": "bytes",
        "label": "string",
        "numberOfBytes": "32"
      },
      "t_struct(Set)8416_storage": {
        "encoding": "inplace",
        "label": "struct AddressSet.Set",
        "members": [
          {
            "astId": 8412,
            "contract": "contracts/oracle/chainlink/ChainlinkOracleUSD.sol:ChainlinkOracleUSD",
            "label": "keyPointers",
            "offset": 0,
            "slot": "0",
            "type": "t_mapping(t_address,t_uint256)"
          },
          {
            "astId": 8415,
            "contract": "contracts/oracle/chainlink/ChainlinkOracleUSD.sol:ChainlinkOracleUSD",
            "label": "keyList",
            "offset": 0,
            "slot": "1",
            "type": "t_array(t_address)dyn_storage"
          }
        ],
        "numberOfBytes": "64"
      },
      "t_uint256": {
        "encoding": "inplace",
        "label": "uint256",
        "numberOfBytes": "32"
      }
    }
  }
}