{
  "address": "0x9f620D84E77DB85A7Cae9F60a2EB60B265518707",
  "abi": [
    {
      "inputs": [
        {
          "internalType": "address",
          "name": "oneTokenFactory_",
          "type": "address"
        }
      ],
      "stateMutability": "nonpayable",
      "type": "constructor"
    },
    {
      "anonymous": false,
      "inputs": [
        {
          "indexed": false,
          "internalType": "address",
          "name": "sender",
          "type": "address"
        },
        {
          "indexed": false,
          "internalType": "address",
          "name": "oneTokenFactory",
          "type": "address"
        },
        {
          "indexed": false,
          "internalType": "string",
          "name": "description",
          "type": "string"
        }
      ],
      "name": "ControllerDeployed",
      "type": "event"
    },
    {
      "anonymous": false,
      "inputs": [
        {
          "indexed": false,
          "internalType": "address",
          "name": "sender",
          "type": "address"
        }
      ],
      "name": "ControllerInitialized",
      "type": "event"
    },
    {
      "anonymous": false,
      "inputs": [
        {
          "indexed": false,
          "internalType": "address",
          "name": "sender",
          "type": "address"
        }
      ],
      "name": "ControllerPeriodic",
      "type": "event"
    },
    {
      "inputs": [],
      "name": "MODULE_TYPE",
      "outputs": [
        {
          "internalType": "bytes32",
          "name": "",
          "type": "bytes32"
        }
      ],
      "stateMutability": "view",
      "type": "function"
    },
    {
      "inputs": [],
      "name": "description",
      "outputs": [
        {
          "internalType": "string",
          "name": "",
          "type": "string"
        }
      ],
      "stateMutability": "view",
      "type": "function"
    },
    {
      "inputs": [],
      "name": "init",
      "outputs": [],
      "stateMutability": "nonpayable",
      "type": "function"
    },
    {
      "inputs": [],
      "name": "oneTokenFactory",
      "outputs": [
        {
          "internalType": "address",
          "name": "",
          "type": "address"
        }
      ],
      "stateMutability": "view",
      "type": "function"
    },
    {
      "inputs": [],
      "name": "periodic",
      "outputs": [],
      "stateMutability": "nonpayable",
      "type": "function"
    }
  ],
  "transactionHash": "0xd510b51ed30d456b578382f76864921795a65b333d7eef2bdec5801bd95cd6a6",
  "args": [
    "0x4742fd1862e94dc74aed62a96b6374e68e658f80"
  ],
  "numDeployments": 1,
  "solcInputHash": "66844fe71aa118954759bbfb9db99827",
  "bytecode": "0x608060405234801561001057600080fd5b506040516105943803806105948339818101604052602081101561003357600080fd5b505160408051808201909152600f8082526e273ab6361021b7b73a3937b63632b960891b60208301908152600080546001600160a01b0319166001600160a01b0386161790558392916100889160019161015a565b5060408051338082526001600160a01b03851660208301526060928201838152600180546002600019610100838516150201909116049484018590527f2c4a511442c488be13260cd30e57e1e2588d5b1e5e53a773a3aab4646a16f2cb9492938793919290916080830190849080156101425780601f1061011757610100808354040283529160200191610142565b820191906000526020600020905b81548152906001019060200180831161012557829003601f168201915b505094505050505060405180910390a15050506101fb565b828054600181600116156101000203166002900490600052602060002090601f01602090048101928261019057600085556101d6565b82601f106101a957805160ff19168380011785556101d6565b828001600101855582156101d6579182015b828111156101d65782518255916020019190600101906101bb565b506101e29291506101e6565b5090565b5b808211156101e257600081556001016101e7565b61038a8061020a6000396000f3fe608060405234801561001057600080fd5b50600436106100575760003560e01c8063032c40271461005c5780635775029f146100665780637284e41614610080578063a2729c23146100fd578063e1c7392a14610121575b600080fd5b610064610129565b005b61006e61015e565b60408051918252519081900360200190f35b61008861019d565b6040805160208082528351818301528351919283929083019185019080838360005b838110156100c25781810151838201526020016100aa565b50505050905090810190601f1680156100ef5780820380516001836020036101000a031916815260200191505b509250505060405180910390f35b61010561022a565b604080516001600160a01b039092168252519081900360200190f35b610064610239565b6040805133815290517f7560d1c58eddbe226f8a7a765eb824630c903a64c2876d91cab58312511d3c599181900360200190a1565b60405160200180807124a1a424902b189021b7b73a3937b63632b960711b81525060120190506040516020818303038152906040528051906020012081565b60018054604080516020600284861615610100026000190190941693909304601f810184900484028201840190925281815292918301828280156102225780601f106101f757610100808354040283529160200191610222565b820191906000526020600020905b81548152906001019060200180831161020557829003601f168201915b505050505081565b6000546001600160a01b031681565b600054604080516309de917f60e31b815233600482015290516001600160a01b0390921691634ef48bf891602480820192602092909190829003018186803b15801561028457600080fd5b505afa158015610298573d6000803e3d6000fd5b505050506040513d60208110156102ae57600080fd5b50516102eb5760405162461bcd60e51b81526004018080602001828103825260348152602001806103216034913960400191505060405180910390fd5b6040805133815290517faf6cb4b6bd854745d0a59a68dd9678894a2a8a403d922ed85763badb1548c7149181900360200190a156fe494348494d6f64756c65436f6d6d6f6e3a206d73672e73656e646572206973206e6f742061206b6e6f776e206f6e65546f6b656ea2646970667358221220977df26622f709443c6c49f5e4caf91057e70fddb3418d7d87075aa07d6a3a9f64736f6c63430007060033",
  "devdoc": {
    "kind": "dev",
    "methods": {
      "constructor": {
        "details": "the controller implementation can be extended but must implement the minimum interface"
      },
      "periodic()": {
        "details": "Acceptable access control will vary by implementation. "
      }
    },
    "version": 1
  },
  "userdoc": {
    "kind": "user",
    "methods": {
      "constructor": {
        "notice": "this controller implementation supports the interface but does not intervene in any way"
      },
      "init()": {
        "notice": "OneTokenBase (msg.sender) calls this when the controller is assigned. Must be re-initializeable."
      },
      "periodic()": {
        "notice": "oneTokens invoke periodic() to trigger periodic processes. Can be trigger externally."
      }
    },
    "version": 1
  },
  "storageLayout": {
    "storage": [
      {
        "astId": 7543,
        "contract": "contracts/controller/null controller/NullController.sol:NullController",
        "label": "oneTokenFactory",
        "offset": 0,
        "slot": "0",
        "type": "t_address"
      },
      {
        "astId": 7546,
        "contract": "contracts/controller/null controller/NullController.sol:NullController",
        "label": "description",
        "offset": 0,
        "slot": "1",
        "type": "t_string_storage"
      }
    ],
    "types": {
      "t_address": {
        "encoding": "inplace",
        "label": "address",
        "numberOfBytes": "20"
      },
      "t_string_storage": {
        "encoding": "bytes",
        "label": "string",
        "numberOfBytes": "32"
      }
    }
  }
}