{
  "address": "0x9119f0F35e7D05Dde778A69A26cEf2330a5e70F9",
  "abi": [
    {
      "anonymous": false,
      "inputs": [
        {
          "indexed": true,
          "internalType": "address",
          "name": "owner",
          "type": "address"
        },
        {
          "indexed": true,
          "internalType": "address",
          "name": "spender",
          "type": "address"
        },
        {
          "indexed": false,
          "internalType": "uint256",
          "name": "value",
          "type": "uint256"
        }
      ],
      "name": "Approval",
      "type": "event"
    },
    {
      "anonymous": false,
      "inputs": [
        {
          "indexed": false,
          "internalType": "address",
          "name": "sender",
          "type": "address"
        },
        {
          "indexed": false,
          "internalType": "address",
          "name": "token",
          "type": "address"
        },
        {
          "indexed": false,
          "internalType": "address",
          "name": "oracle",
          "type": "address"
        }
      ],
      "name": "AssetAdded",
      "type": "event"
    },
    {
      "anonymous": false,
      "inputs": [
        {
          "indexed": false,
          "internalType": "address",
          "name": "sender",
          "type": "address"
        },
        {
          "indexed": false,
          "internalType": "address",
          "name": "token",
          "type": "address"
        }
      ],
      "name": "AssetRemoved",
      "type": "event"
    },
    {
      "anonymous": false,
      "inputs": [
        {
          "indexed": false,
          "internalType": "address",
          "name": "sender",
          "type": "address"
        },
        {
          "indexed": false,
          "internalType": "address",
          "name": "controller",
          "type": "address"
        }
      ],
      "name": "ControllerChanged",
      "type": "event"
    },
    {
      "anonymous": false,
      "inputs": [
        {
          "indexed": false,
          "internalType": "address",
          "name": "sender",
          "type": "address"
        },
        {
          "indexed": false,
          "internalType": "address",
          "name": "strategy",
          "type": "address"
        },
        {
          "indexed": false,
          "internalType": "address",
          "name": "token",
          "type": "address"
        },
        {
          "indexed": false,
          "internalType": "uint256",
          "name": "amount",
          "type": "uint256"
        }
      ],
      "name": "FromStrategy",
      "type": "event"
    },
    {
      "anonymous": false,
      "inputs": [
        {
          "indexed": false,
          "internalType": "address",
          "name": "sender",
          "type": "address"
        },
        {
          "indexed": false,
          "internalType": "string",
          "name": "name",
          "type": "string"
        },
        {
          "indexed": false,
          "internalType": "string",
          "name": "symbol",
          "type": "string"
        },
        {
          "indexed": false,
          "internalType": "address",
          "name": "controller",
          "type": "address"
        },
        {
          "indexed": false,
          "internalType": "address",
          "name": "mintMaster",
          "type": "address"
        },
        {
          "indexed": false,
          "internalType": "address",
          "name": "memberToken",
          "type": "address"
        },
        {
          "indexed": false,
          "internalType": "address",
          "name": "collateral",
          "type": "address"
        }
      ],
      "name": "Initialized",
      "type": "event"
    },
    {
      "anonymous": false,
      "inputs": [
        {
          "indexed": false,
          "internalType": "address",
          "name": "sender",
          "type": "address"
        },
        {
          "indexed": false,
          "internalType": "address",
          "name": "mintMaster",
          "type": "address"
        },
        {
          "indexed": false,
          "internalType": "address",
          "name": "oneTokenOracle",
          "type": "address"
        }
      ],
      "name": "MintMasterChanged",
      "type": "event"
    },
    {
      "anonymous": false,
      "inputs": [
        {
          "indexed": true,
          "internalType": "address",
          "name": "sender",
          "type": "address"
        },
        {
          "indexed": true,
          "internalType": "address",
          "name": "collateral",
          "type": "address"
        },
        {
          "indexed": false,
          "internalType": "uint256",
          "name": "oneTokens",
          "type": "uint256"
        },
        {
          "indexed": false,
          "internalType": "uint256",
          "name": "memberTokens",
          "type": "uint256"
        },
        {
          "indexed": false,
          "internalType": "uint256",
          "name": "collateralTokens",
          "type": "uint256"
        }
      ],
      "name": "Minted",
      "type": "event"
    },
    {
      "anonymous": false,
      "inputs": [
        {
          "indexed": false,
          "internalType": "address",
          "name": "sender",
          "type": "address"
        },
        {
          "indexed": false,
          "internalType": "address",
          "name": "factory",
          "type": "address"
        }
      ],
      "name": "NewFactory",
      "type": "event"
    },
    {
      "anonymous": false,
      "inputs": [
        {
          "indexed": false,
          "internalType": "address",
          "name": "sender",
          "type": "address"
        },
        {
          "indexed": false,
          "internalType": "uint256",
          "name": "fee",
          "type": "uint256"
        }
      ],
      "name": "NewMintingFee",
      "type": "event"
    },
    {
      "anonymous": false,
      "inputs": [
        {
          "indexed": false,
          "internalType": "address",
          "name": "sender",
          "type": "address"
        },
        {
          "indexed": false,
          "internalType": "uint256",
          "name": "fee",
          "type": "uint256"
        }
      ],
      "name": "NewRedemptionFee",
      "type": "event"
    },
    {
      "anonymous": false,
      "inputs": [
        {
          "indexed": true,
          "internalType": "address",
          "name": "previousOwner",
          "type": "address"
        },
        {
          "indexed": true,
          "internalType": "address",
          "name": "newOwner",
          "type": "address"
        }
      ],
      "name": "OwnershipTransferred",
      "type": "event"
    },
    {
      "anonymous": false,
      "inputs": [
        {
          "indexed": true,
          "internalType": "address",
          "name": "sender",
          "type": "address"
        },
        {
          "indexed": true,
          "internalType": "address",
          "name": "collateral",
          "type": "address"
        },
        {
          "indexed": false,
          "internalType": "uint256",
          "name": "amount",
          "type": "uint256"
        }
      ],
      "name": "Redeemed",
      "type": "event"
    },
    {
      "anonymous": false,
      "inputs": [
        {
          "indexed": false,
          "internalType": "address",
          "name": "sender",
          "type": "address"
        },
        {
          "indexed": false,
          "internalType": "address",
          "name": "token",
          "type": "address"
        },
        {
          "indexed": false,
          "internalType": "address",
          "name": "strategy",
          "type": "address"
        },
        {
          "indexed": false,
          "internalType": "uint256",
          "name": "amount",
          "type": "uint256"
        }
      ],
      "name": "StrategyAllowanceDecreased",
      "type": "event"
    },
    {
      "anonymous": false,
      "inputs": [
        {
          "indexed": false,
          "internalType": "address",
          "name": "sender",
          "type": "address"
        },
        {
          "indexed": false,
          "internalType": "address",
          "name": "token",
          "type": "address"
        },
        {
          "indexed": false,
          "internalType": "address",
          "name": "strategy",
          "type": "address"
        },
        {
          "indexed": false,
          "internalType": "uint256",
          "name": "amount",
          "type": "uint256"
        }
      ],
      "name": "StrategyAllowanceIncreased",
      "type": "event"
    },
    {
      "anonymous": false,
      "inputs": [
        {
          "indexed": false,
          "internalType": "address",
          "name": "sender",
          "type": "address"
        },
        {
          "indexed": false,
          "internalType": "address",
          "name": "token",
          "type": "address"
        },
        {
          "indexed": false,
          "internalType": "address",
          "name": "strategy",
          "type": "address"
        }
      ],
      "name": "StrategyClosed",
      "type": "event"
    },
    {
      "anonymous": false,
      "inputs": [
        {
          "indexed": true,
          "internalType": "address",
          "name": "sender",
          "type": "address"
        },
        {
          "indexed": true,
          "internalType": "address",
          "name": "token",
          "type": "address"
        },
        {
          "indexed": true,
          "internalType": "address",
          "name": "strategy",
          "type": "address"
        }
      ],
      "name": "StrategyExecuted",
      "type": "event"
    },
    {
      "anonymous": false,
      "inputs": [
        {
          "indexed": false,
          "internalType": "address",
          "name": "sender",
          "type": "address"
        },
        {
          "indexed": false,
          "internalType": "address",
          "name": "token",
          "type": "address"
        },
        {
          "indexed": false,
          "internalType": "address",
          "name": "strategy",
          "type": "address"
        }
      ],
      "name": "StrategyRemoved",
      "type": "event"
    },
    {
      "anonymous": false,
      "inputs": [
        {
          "indexed": false,
          "internalType": "address",
          "name": "sender",
          "type": "address"
        },
        {
          "indexed": false,
          "internalType": "address",
          "name": "token",
          "type": "address"
        },
        {
          "indexed": false,
          "internalType": "address",
          "name": "strategy",
          "type": "address"
        },
        {
          "indexed": false,
          "internalType": "uint256",
          "name": "allowance",
          "type": "uint256"
        }
      ],
      "name": "StrategySet",
      "type": "event"
    },
    {
      "anonymous": false,
      "inputs": [
        {
          "indexed": false,
          "internalType": "address",
          "name": "sender",
          "type": "address"
        },
        {
          "indexed": false,
          "internalType": "address",
          "name": "strategy",
          "type": "address"
        },
        {
          "indexed": false,
          "internalType": "address",
          "name": "token",
          "type": "address"
        },
        {
          "indexed": false,
          "internalType": "uint256",
          "name": "amount",
          "type": "uint256"
        }
      ],
      "name": "ToStrategy",
      "type": "event"
    },
    {
      "anonymous": false,
      "inputs": [
        {
          "indexed": true,
          "internalType": "address",
          "name": "from",
          "type": "address"
        },
        {
          "indexed": true,
          "internalType": "address",
          "name": "to",
          "type": "address"
        },
        {
          "indexed": false,
          "internalType": "uint256",
          "name": "value",
          "type": "uint256"
        }
      ],
      "name": "Transfer",
      "type": "event"
    },
    {
      "inputs": [],
      "name": "MODULE_TYPE",
      "outputs": [
        {
          "internalType": "bytes32",
          "name": "",
          "type": "bytes32"
        }
      ],
      "stateMutability": "view",
      "type": "function"
    },
    {
      "inputs": [
        {
          "internalType": "address",
          "name": "token",
          "type": "address"
        },
        {
          "internalType": "address",
          "name": "oracle",
          "type": "address"
        }
      ],
      "name": "addAsset",
      "outputs": [],
      "stateMutability": "nonpayable",
      "type": "function"
    },
    {
      "inputs": [
        {
          "internalType": "address",
          "name": "owner",
          "type": "address"
        },
        {
          "internalType": "address",
          "name": "spender",
          "type": "address"
        }
      ],
      "name": "allowance",
      "outputs": [
        {
          "internalType": "uint256",
          "name": "",
          "type": "uint256"
        }
      ],
      "stateMutability": "view",
      "type": "function"
    },
    {
      "inputs": [
        {
          "internalType": "address",
          "name": "spender",
          "type": "address"
        },
        {
          "internalType": "uint256",
          "name": "amount",
          "type": "uint256"
        }
      ],
      "name": "approve",
      "outputs": [
        {
          "internalType": "bool",
          "name": "",
          "type": "bool"
        }
      ],
      "stateMutability": "nonpayable",
      "type": "function"
    },
    {
      "inputs": [
        {
          "internalType": "uint256",
          "name": "index",
          "type": "uint256"
        }
      ],
      "name": "assetAtIndex",
      "outputs": [
        {
          "internalType": "address",
          "name": "",
          "type": "address"
        }
      ],
      "stateMutability": "view",
      "type": "function"
    },
    {
      "inputs": [],
      "name": "assetCount",
      "outputs": [
        {
          "internalType": "uint256",
          "name": "",
          "type": "uint256"
        }
      ],
      "stateMutability": "view",
      "type": "function"
    },
    {
      "inputs": [
        {
          "internalType": "address",
          "name": "",
          "type": "address"
        }
      ],
      "name": "assets",
      "outputs": [
        {
          "internalType": "address",
          "name": "oracle",
          "type": "address"
        },
        {
          "internalType": "address",
          "name": "strategy",
          "type": "address"
        }
      ],
      "stateMutability": "view",
      "type": "function"
    },
    {
      "inputs": [
        {
          "internalType": "address",
          "name": "account",
          "type": "address"
        }
      ],
      "name": "balanceOf",
      "outputs": [
        {
          "internalType": "uint256",
          "name": "",
          "type": "uint256"
        }
      ],
      "stateMutability": "view",
      "type": "function"
    },
    {
      "inputs": [
        {
          "internalType": "address",
          "name": "token",
          "type": "address"
        }
      ],
      "name": "balances",
      "outputs": [
        {
          "internalType": "uint256",
          "name": "inVault",
          "type": "uint256"
        },
        {
          "internalType": "uint256",
          "name": "inStrategy",
          "type": "uint256"
        }
      ],
      "stateMutability": "view",
      "type": "function"
    },
    {
      "inputs": [
        {
          "internalType": "uint256",
          "name": "amount",
          "type": "uint256"
        }
      ],
      "name": "burn",
      "outputs": [],
      "stateMutability": "nonpayable",
      "type": "function"
    },
    {
      "inputs": [
        {
          "internalType": "address",
          "name": "account",
          "type": "address"
        },
        {
          "internalType": "uint256",
          "name": "amount",
          "type": "uint256"
        }
      ],
      "name": "burnFrom",
      "outputs": [],
      "stateMutability": "nonpayable",
      "type": "function"
    },
    {
      "inputs": [
        {
          "internalType": "address",
          "name": "controller_",
          "type": "address"
        }
      ],
      "name": "changeController",
      "outputs": [],
      "stateMutability": "nonpayable",
      "type": "function"
    },
    {
      "inputs": [
        {
          "internalType": "address",
          "name": "mintMaster_",
          "type": "address"
        },
        {
          "internalType": "address",
          "name": "oneTokenOracle_",
          "type": "address"
        }
      ],
      "name": "changeMintMaster",
      "outputs": [],
      "stateMutability": "nonpayable",
      "type": "function"
    },
    {
      "inputs": [
        {
          "internalType": "address",
          "name": "token",
          "type": "address"
        }
      ],
      "name": "closeStrategy",
      "outputs": [],
      "stateMutability": "nonpayable",
      "type": "function"
    },
    {
      "inputs": [
        {
          "internalType": "uint256",
          "name": "index",
          "type": "uint256"
        }
      ],
      "name": "collateralTokenAtIndex",
      "outputs": [
        {
          "internalType": "address",
          "name": "",
          "type": "address"
        }
      ],
      "stateMutability": "view",
      "type": "function"
    },
    {
      "inputs": [],
      "name": "collateralTokenCount",
      "outputs": [
        {
          "internalType": "uint256",
          "name": "",
          "type": "uint256"
        }
      ],
      "stateMutability": "view",
      "type": "function"
    },
    {
      "inputs": [],
      "name": "controller",
      "outputs": [
        {
          "internalType": "address",
          "name": "",
          "type": "address"
        }
      ],
      "stateMutability": "view",
      "type": "function"
    },
    {
      "inputs": [],
      "name": "decimals",
      "outputs": [
        {
          "internalType": "uint8",
          "name": "",
          "type": "uint8"
        }
      ],
      "stateMutability": "view",
      "type": "function"
    },
    {
      "inputs": [
        {
          "internalType": "address",
          "name": "spender",
          "type": "address"
        },
        {
          "internalType": "uint256",
          "name": "subtractedValue",
          "type": "uint256"
        }
      ],
      "name": "decreaseAllowance",
      "outputs": [
        {
          "internalType": "bool",
          "name": "",
          "type": "bool"
        }
      ],
      "stateMutability": "nonpayable",
      "type": "function"
    },
    {
      "inputs": [
        {
          "internalType": "address",
          "name": "token",
          "type": "address"
        },
        {
          "internalType": "uint256",
          "name": "amount",
          "type": "uint256"
        }
      ],
      "name": "decreaseStrategyAllowance",
      "outputs": [],
      "stateMutability": "nonpayable",
      "type": "function"
    },
    {
      "inputs": [
        {
          "internalType": "address",
          "name": "token",
          "type": "address"
        }
      ],
      "name": "executeStrategy",
      "outputs": [],
      "stateMutability": "nonpayable",
      "type": "function"
    },
    {
      "inputs": [
        {
          "internalType": "address",
          "name": "strategy",
          "type": "address"
        },
        {
          "internalType": "address",
          "name": "token",
          "type": "address"
        },
        {
          "internalType": "uint256",
          "name": "amount",
          "type": "uint256"
        }
      ],
      "name": "fromStrategy",
      "outputs": [],
      "stateMutability": "nonpayable",
      "type": "function"
    },
    {
      "inputs": [
        {
          "internalType": "address",
          "name": "token",
          "type": "address"
        }
      ],
      "name": "getHoldings",
      "outputs": [
        {
          "internalType": "uint256",
          "name": "vaultBalance",
          "type": "uint256"
        },
        {
          "internalType": "uint256",
          "name": "strategyBalance",
          "type": "uint256"
        }
      ],
      "stateMutability": "view",
      "type": "function"
    },
    {
      "inputs": [
        {
          "internalType": "address",
          "name": "collateralToken",
          "type": "address"
        }
      ],
      "name": "getMintingRatio",
      "outputs": [
        {
          "internalType": "uint256",
          "name": "ratio",
          "type": "uint256"
        },
        {
          "internalType": "uint256",
          "name": "maxOrderVolume",
          "type": "uint256"
        }
      ],
      "stateMutability": "view",
      "type": "function"
    },
    {
      "inputs": [
        {
          "internalType": "address",
          "name": "spender",
          "type": "address"
        },
        {
          "internalType": "uint256",
          "name": "addedValue",
          "type": "uint256"
        }
      ],
      "name": "increaseAllowance",
      "outputs": [
        {
          "internalType": "bool",
          "name": "",
          "type": "bool"
        }
      ],
      "stateMutability": "nonpayable",
      "type": "function"
    },
    {
      "inputs": [
        {
          "internalType": "address",
          "name": "token",
          "type": "address"
        },
        {
          "internalType": "uint256",
          "name": "amount",
          "type": "uint256"
        }
      ],
      "name": "increaseStrategyAllowance",
      "outputs": [],
      "stateMutability": "nonpayable",
      "type": "function"
    },
    {
      "inputs": [
        {
          "internalType": "string",
          "name": "name_",
          "type": "string"
        },
        {
          "internalType": "string",
          "name": "symbol_",
          "type": "string"
        },
        {
          "internalType": "address",
          "name": "oneTokenOracle_",
          "type": "address"
        },
        {
          "internalType": "address",
          "name": "controller_",
          "type": "address"
        },
        {
          "internalType": "address",
          "name": "mintMaster_",
          "type": "address"
        },
        {
          "internalType": "address",
          "name": "memberToken_",
          "type": "address"
        },
        {
          "internalType": "address",
          "name": "collateral_",
          "type": "address"
        }
      ],
      "name": "init",
      "outputs": [],
      "stateMutability": "nonpayable",
      "type": "function"
    },
    {
      "inputs": [
        {
          "internalType": "address",
          "name": "token",
          "type": "address"
        }
      ],
      "name": "isAsset",
      "outputs": [
        {
          "internalType": "bool",
          "name": "",
          "type": "bool"
        }
      ],
      "stateMutability": "view",
      "type": "function"
    },
    {
      "inputs": [
        {
          "internalType": "address",
          "name": "token",
          "type": "address"
        }
      ],
      "name": "isCollateral",
      "outputs": [
        {
          "internalType": "bool",
          "name": "",
          "type": "bool"
        }
      ],
      "stateMutability": "view",
      "type": "function"
    },
    {
      "inputs": [
        {
          "internalType": "address",
          "name": "token",
          "type": "address"
        }
      ],
      "name": "isOtherToken",
      "outputs": [
        {
          "internalType": "bool",
          "name": "",
          "type": "bool"
        }
      ],
      "stateMutability": "view",
      "type": "function"
    },
    {
      "inputs": [
        {
          "internalType": "address",
          "name": "",
          "type": "address"
        }
      ],
      "name": "liabilities",
      "outputs": [
        {
          "internalType": "uint256",
          "name": "",
          "type": "uint256"
        }
      ],
      "stateMutability": "view",
      "type": "function"
    },
    {
      "inputs": [],
      "name": "memberToken",
      "outputs": [
        {
          "internalType": "address",
          "name": "",
          "type": "address"
        }
      ],
      "stateMutability": "view",
      "type": "function"
    },
    {
      "inputs": [
        {
          "internalType": "address",
          "name": "collateralToken",
          "type": "address"
        },
        {
          "internalType": "uint256",
          "name": "oneTokens",
          "type": "uint256"
        }
      ],
      "name": "mint",
      "outputs": [],
      "stateMutability": "nonpayable",
      "type": "function"
    },
    {
      "inputs": [],
      "name": "mintMaster",
      "outputs": [
        {
          "internalType": "address",
          "name": "",
          "type": "address"
        }
      ],
      "stateMutability": "view",
      "type": "function"
    },
    {
      "inputs": [],
      "name": "mintingFee",
      "outputs": [
        {
          "internalType": "uint256",
          "name": "",
          "type": "uint256"
        }
      ],
      "stateMutability": "view",
      "type": "function"
    },
    {
      "inputs": [],
      "name": "name",
      "outputs": [
        {
          "internalType": "string",
          "name": "",
          "type": "string"
        }
      ],
      "stateMutability": "view",
      "type": "function"
    },
    {
      "inputs": [],
      "name": "oneTokenFactory",
      "outputs": [
        {
          "internalType": "address",
          "name": "",
          "type": "address"
        }
      ],
      "stateMutability": "view",
      "type": "function"
    },
    {
      "inputs": [
        {
          "internalType": "uint256",
          "name": "index",
          "type": "uint256"
        }
      ],
      "name": "otherTokenAtIndex",
      "outputs": [
        {
          "internalType": "address",
          "name": "",
          "type": "address"
        }
      ],
      "stateMutability": "view",
      "type": "function"
    },
    {
      "inputs": [],
      "name": "otherTokenCount",
      "outputs": [
        {
          "internalType": "uint256",
          "name": "",
          "type": "uint256"
        }
      ],
      "stateMutability": "view",
      "type": "function"
    },
    {
      "inputs": [],
      "name": "owner",
      "outputs": [
        {
          "internalType": "address",
          "name": "",
          "type": "address"
        }
      ],
      "stateMutability": "view",
      "type": "function"
    },
    {
      "inputs": [
        {
          "internalType": "address",
          "name": "collateral",
          "type": "address"
        },
        {
          "internalType": "uint256",
          "name": "amount",
          "type": "uint256"
        }
      ],
      "name": "redeem",
      "outputs": [],
      "stateMutability": "nonpayable",
      "type": "function"
    },
    {
      "inputs": [],
      "name": "redemptionFee",
      "outputs": [
        {
          "internalType": "uint256",
          "name": "",
          "type": "uint256"
        }
      ],
      "stateMutability": "view",
      "type": "function"
    },
    {
      "inputs": [
        {
          "internalType": "address",
          "name": "token",
          "type": "address"
        }
      ],
      "name": "removeAsset",
      "outputs": [],
      "stateMutability": "nonpayable",
      "type": "function"
    },
    {
      "inputs": [
        {
          "internalType": "address",
          "name": "token",
          "type": "address"
        }
      ],
      "name": "removeStrategy",
      "outputs": [],
      "stateMutability": "nonpayable",
      "type": "function"
    },
    {
      "inputs": [],
      "name": "renounceOwnership",
      "outputs": [],
      "stateMutability": "nonpayable",
      "type": "function"
    },
    {
      "inputs": [
        {
          "internalType": "address",
          "name": "newFactory",
          "type": "address"
        }
      ],
      "name": "setFactory",
      "outputs": [],
      "stateMutability": "nonpayable",
      "type": "function"
    },
    {
      "inputs": [
        {
          "internalType": "uint256",
          "name": "fee",
          "type": "uint256"
        }
      ],
      "name": "setMintingFee",
      "outputs": [],
      "stateMutability": "nonpayable",
      "type": "function"
    },
    {
      "inputs": [
        {
          "internalType": "uint256",
          "name": "fee",
          "type": "uint256"
        }
      ],
      "name": "setRedemptionFee",
      "outputs": [],
      "stateMutability": "nonpayable",
      "type": "function"
    },
    {
      "inputs": [
        {
          "internalType": "address",
          "name": "token",
          "type": "address"
        },
        {
          "internalType": "address",
          "name": "strategy",
          "type": "address"
        },
        {
          "internalType": "uint256",
          "name": "allowance",
          "type": "uint256"
        }
      ],
      "name": "setStrategy",
      "outputs": [],
      "stateMutability": "nonpayable",
      "type": "function"
    },
    {
      "inputs": [],
      "name": "symbol",
      "outputs": [
        {
          "internalType": "string",
          "name": "",
          "type": "string"
        }
      ],
      "stateMutability": "view",
      "type": "function"
    },
    {
      "inputs": [
        {
          "internalType": "address",
          "name": "strategy",
          "type": "address"
        },
        {
          "internalType": "address",
          "name": "token",
          "type": "address"
        },
        {
          "internalType": "uint256",
          "name": "amount",
          "type": "uint256"
        }
      ],
      "name": "toStrategy",
      "outputs": [],
      "stateMutability": "nonpayable",
      "type": "function"
    },
    {
      "inputs": [],
      "name": "totalSupply",
      "outputs": [
        {
          "internalType": "uint256",
          "name": "",
          "type": "uint256"
        }
      ],
      "stateMutability": "view",
      "type": "function"
    },
    {
      "inputs": [
        {
          "internalType": "address",
          "name": "recipient",
          "type": "address"
        },
        {
          "internalType": "uint256",
          "name": "amount",
          "type": "uint256"
        }
      ],
      "name": "transfer",
      "outputs": [
        {
          "internalType": "bool",
          "name": "",
          "type": "bool"
        }
      ],
      "stateMutability": "nonpayable",
      "type": "function"
    },
    {
      "inputs": [
        {
          "internalType": "address",
          "name": "sender",
          "type": "address"
        },
        {
          "internalType": "address",
          "name": "recipient",
          "type": "address"
        },
        {
          "internalType": "uint256",
          "name": "amount",
          "type": "uint256"
        }
      ],
      "name": "transferFrom",
      "outputs": [
        {
          "internalType": "bool",
          "name": "",
          "type": "bool"
        }
      ],
      "stateMutability": "nonpayable",
      "type": "function"
    },
    {
      "inputs": [
        {
          "internalType": "address",
          "name": "newOwner",
          "type": "address"
        }
      ],
      "name": "transferOwnership",
      "outputs": [],
      "stateMutability": "nonpayable",
      "type": "function"
    },
    {
      "inputs": [
        {
          "internalType": "address",
          "name": "collateralToken",
          "type": "address"
        }
      ],
      "name": "updateMintingRatio",
      "outputs": [
        {
          "internalType": "uint256",
          "name": "ratio",
          "type": "uint256"
        },
        {
          "internalType": "uint256",
          "name": "maxOrderVolume",
          "type": "uint256"
        }
      ],
      "stateMutability": "nonpayable",
      "type": "function"
    }
  ],
  "transactionHash": "0x1486fb1eea0933a302b420e2d83476b0cdb805b6ab3c7f2f212ec00c9bab45f0",
  "args": [],
  "numDeployments": 1,
  "solcInputHash": "66844fe71aa118954759bbfb9db99827",
  "bytecode": "0x60806040523480156200001157600080fd5b506200001d3362000023565b620000c5565b6001600160a01b0381166200006a5760405162461bcd60e51b815260040180806020018281038252602a81526020018062005e03602a913960400191505060405180910390fd5b600080546040516001600160a01b03808516939216917f8be0079c531659141344cd1fd0a4f28419497f9722a3daafe3b4186f6b6457e091a3600080546001600160a01b0319166001600160a01b0392909216919091179055565b615d2e80620000d56000396000f3fe608060405234801561001057600080fd5b50600436106103785760003560e01c806370a08231116101d3578063a457c2d711610104578063da489997116100a2578063eafe7a741161007c578063eafe7a7414610c00578063f11b818814610c08578063f2fde38b14610c5d578063f77c479114610c8357610378565b8063da48999714610b9c578063dd62ed3e14610bca578063e4849c7314610bf857610378565b8063b01083e2116100de578063b01083e2146109f3578063c5706b2014610a19578063c87fa42a14610b6e578063d991c58f14610b9457610378565b8063a457c2d714610975578063a46c3103146109a1578063a9059cbb146109c757610378565b80637dbc1df01161017157806390a83dc21161014b57806390a83dc21461090157806395d89b41146109375780639d8ac4651461093f578063a2729c231461096d57610378565b80637dbc1df0146108bf5780638da5cb5b146108dc5780638e4bfd1a146108e457610378565b8063795a94d7116101ad578063795a94d71461081a57806379cc6790146108405780637ae560fa1461086c5780637afc2ef1146108a257610378565b806370a08231146107e4578063715018a61461080a57806373c9da861461081257610378565b80633cebb823116102ad5780634a5e42b11161024b5780635775029f116102255780635775029f146107a65780635a64ad95146107ae5780635bb47808146107b65780635cb54384146107dc57610378565b80634a5e42b1146107115780634c5415661461073757806351eec35d1461077057610378565b806340c10f191161028757806340c10f191461069457806342966c68146106c057806342fadd0f146106dd578063458f58151461070957610378565b80633cebb823146106225780633d7e4a6d146106485780634009ba811461066e57610378565b80631be52dc41161031a57806323b872dd116102f457806323b872dd1461057c57806327e235e3146105b2578063313ce567146105d857806339509351146105f657610378565b80631be52dc4146104f45780631e9a695014610533578063238a47091461055f57610378565b80630ee21e54116103565780630ee21e541461046857806316c19b8c1461048e578063175188e8146104b457806318160ddd146104da57610378565b806303b66bf01461037d57806306fdde03146103ab578063095ea7b314610428575b600080fd5b6103a96004803603604081101561039357600080fd5b506001600160a01b038135169060200135610c8b565b005b6103b3610d73565b6040805160208082528351818301528351919283929083019185019080838360005b838110156103ed5781810151838201526020016103d5565b50505050905090810190601f16801561041a5780820380516001836020036101000a031916815260200191505b509250505060405180910390f35b6104546004803603604081101561043e57600080fd5b506001600160a01b038135169060200135610e09565b604080519115158252519081900360200190f35b6104546004803603602081101561047e57600080fd5b50356001600160a01b0316610e27565b6103a9600480360360208110156104a457600080fd5b50356001600160a01b0316610e3c565b6103a9600480360360208110156104ca57600080fd5b50356001600160a01b0316610f59565b6104e2611039565b60408051918252519081900360200190f35b61051a6004803603602081101561050a57600080fd5b50356001600160a01b031661103f565b6040805192835260208301919091528051918290030190f35b6103a96004803603604081101561054957600080fd5b506001600160a01b03813516906020013561116d565b6103a96004803603602081101561057557600080fd5b5035611471565b6104546004803603606081101561059257600080fd5b506001600160a01b0381358116916020810135909116906040013561156b565b61051a600480360360208110156105c857600080fd5b50356001600160a01b03166115f3565b6105e0611722565b6040805160ff9092168252519081900360200190f35b6104546004803603604081101561060c57600080fd5b506001600160a01b03813516906020013561172b565b6103a96004803603602081101561063857600080fd5b50356001600160a01b0316611779565b6104546004803603602081101561065e57600080fd5b50356001600160a01b03166119c5565b61051a6004803603602081101561068457600080fd5b50356001600160a01b03166119d2565b6103a9600480360360408110156106aa57600080fd5b506001600160a01b038135169060200135611a5d565b6103a9600480360360208110156106d657600080fd5b5035612178565b6103a9600480360360408110156106f357600080fd5b506001600160a01b03813516906020013561218c565b6104e261225d565b6103a96004803603602081101561072757600080fd5b50356001600160a01b0316612263565b6107546004803603602081101561074d57600080fd5b5035612466565b604080516001600160a01b039092168252519081900360200190f35b6103a96004803603606081101561078657600080fd5b506001600160a01b03813581169160208101359091169060400135612473565b6104e2612594565b6104e26125de565b6103a9600480360360208110156107cc57600080fd5b50356001600160a01b03166125e4565b610754612747565b6104e2600480360360208110156107fa57600080fd5b50356001600160a01b0316612756565b6103a9612771565b6104e2612819565b61051a6004803603602081101561083057600080fd5b50356001600160a01b031661282a565b6103a96004803603604081101561085657600080fd5b506001600160a01b03813516906020013561288b565b6103a96004803603606081101561088257600080fd5b506001600160a01b038135811691602081013590911690604001356128e5565b610754600480360360208110156108b857600080fd5b50356129ba565b6103a9600480360360208110156108d557600080fd5b50356129c7565b610754612ac1565b610754600480360360208110156108fa57600080fd5b5035612ad0565b6103a96004803603606081101561091757600080fd5b506001600160a01b03813581169160208101359091169060400135612add565b6103b3612eca565b6103a96004803603604081101561095557600080fd5b506001600160a01b0381358116916020013516612f2b565b610754613285565b6104546004803603604081101561098b57600080fd5b506001600160a01b038135169060200135613299565b6103a9600480360360208110156109b757600080fd5b50356001600160a01b0316613301565b610454600480360360408110156109dd57600080fd5b506001600160a01b0381351690602001356133e1565b6104e260048036036020811015610a0957600080fd5b50356001600160a01b03166133f5565b6103a9600480360360e0811015610a2f57600080fd5b810190602081018135640100000000811115610a4a57600080fd5b820183602082011115610a5c57600080fd5b80359060200191846001830284011164010000000083111715610a7e57600080fd5b91908080601f0160208091040260200160405190810160405280939291908181526020018383808284376000920191909152509295949360208101935035915050640100000000811115610ad157600080fd5b820183602082011115610ae357600080fd5b80359060200191846001830284011164010000000083111715610b0557600080fd5b91908080601f016020809104026020016040519081016040528093929190818152602001838380828437600092019190915250929550506001600160a01b0383358116945060208401358116936040810135821693506060810135821692506080013516613407565b61045460048036036020811015610b8457600080fd5b50356001600160a01b0316613cc4565b610754613cd1565b6103a960048036036040811015610bb257600080fd5b506001600160a01b0381358116916020013516613ce0565b6104e260048036036040811015610be057600080fd5b506001600160a01b0381358116916020013516613ff8565b6104e2614023565b6104e261402f565b610c2e60048036036020811015610c1e57600080fd5b50356001600160a01b031661403b565b60405180836001600160a01b03168152602001826001600160a01b031681526020019250505060405180910390f35b6103a960048036036020811015610c7357600080fd5b50356001600160a01b0316614061565b6107546140c8565b610c93612ac1565b6001600160a01b0316336001600160a01b031614610cde576007546001600160a01b03163314610cde5760405162461bcd60e51b8152600401610cd5906157d4565b60405180910390fd5b6001600160a01b038083166000908152601060205260409020600181015490911680610d1c5760405162461bcd60e51b8152600401610cd59061563e565b610d306001600160a01b03851682856140d7565b7f10a9df2bd632b357b228c23986ec5a7d1de6bd1578eeb8ac8d714dc0e0e5e1fe33858386604051610d659493929190615363565b60405180910390a150505050565b60048054604080516020601f6002600019610100600188161502019095169490940493840181900481028201810190925282815260609390929091830182828015610dff5780601f10610dd457610100808354040283529160200191610dff565b820191906000526020600020905b815481529060010190602001808311610de257829003601f168201915b5050505050905090565b6000610e1d610e166141c8565b84846141cc565b5060015b92915050565b6000610e34600a836142b8565b90505b919050565b610e44612ac1565b6001600160a01b0316336001600160a01b031614610e86576007546001600160a01b03163314610e865760405162461bcd60e51b8152600401610cd5906157d4565b610e91600e826142b8565b610ead5760405162461bcd60e51b8152600401610cd590615713565b6001600160a01b0380821660009081526010602052604080822060018101548251631851865560e21b815292519194169283926361461954926004808301939282900301818387803b158015610f0257600080fd5b505af1158015610f16573d6000803e3d6000fd5b50506040516001600160a01b0380851693508616915033907f46ea67f07a3d81eab9f3b5f21b654a6b1c00e5f8da735d57c140ff7c0f371e5190600090a4505050565b610f616141c8565b6001600160a01b0316610f72612ac1565b6001600160a01b031614610fb75760405162461bcd60e51b8152600401808060200182810382526024815260200180615b0f6024913960400191505060405180910390fd5b6001600160a01b0381166000908152601060205260409020610fd882613301565b6001810180546001600160a01b031981169091556040516001600160a01b03909116907f1121b54c4b588f7a435def4682f41df4ec3d9eb2992630858ef07303165f30599061102c90339086908590615340565b60405180910390a1505050565b60035490565b6000806000839050806001600160a01b03166370a08231306040518263ffffffff1660e01b815260040180826001600160a01b0316815260200191505060206040518083038186803b15801561109457600080fd5b505afa1580156110a8573d6000803e3d6000fd5b505050506040513d60208110156110be57600080fd5b50516001600160a01b0380861660009081526010602052604090206001810154929550911615611166576001810154604080516370a0823160e01b81526001600160a01b0392831660048201529051918416916370a0823191602480820192602092909190829003018186803b15801561113757600080fd5b505afa15801561114b573d6000803e3d6000fd5b505050506040513d602081101561116157600080fd5b505192505b5050915091565b61117682610e27565b6111c7576040805162461bcd60e51b815260206004820152601860248201527f4f5456313a20756e6b6e6f776e20636f6c6c61746572616c0000000000000000604482015290519081900360640190fd5b6000811161121c576040805162461bcd60e51b815260206004820152601860248201527f4f5456313a20616d6f756e74206d757374206265203e20300000000000000000604482015290519081900360640190fd5b8061122633612756565b101561126f576040805162461bcd60e51b815260206004820152601360248201527227aa2b189d102729a31d1037b732aa37b5b2b760691b604482015290519081900360640190fd5b6001600160a01b03808316600081815260106020526040808220548151630e0dc3b960e11b8152600481019490945290519316928392631c1b877292602480830193919282900301818387803b1580156112c857600080fd5b505af11580156112dc573d6000803e3d6000fd5b505050506112ea3383614313565b600061131d611316670de0b6b3a76400006113106012548761440f90919063ffffffff16565b90614468565b84906144cf565b90506000826001600160a01b0316634d16186586846040518363ffffffff1660e01b815260040180836001600160a01b0316815260200182815260200192505050604080518083038186803b15801561137557600080fd5b505afa158015611389573d6000803e3d6000fd5b505050506040513d604081101561139f57600080fd5b505190506113b76001600160a01b038616338361452c565b6040805185815290516001600160a01b0387169133917f27d4634c833b7622a0acddbf7f746183625f105945e95c723ad1d5a9f2a0b6fc9181900360200190a3611400856119d2565b5050600760009054906101000a90046001600160a01b03166001600160a01b031663032c40276040518163ffffffff1660e01b8152600401600060405180830381600087803b15801561145257600080fd5b505af1158015611466573d6000803e3d6000fd5b505050505050505050565b6114796141c8565b6001600160a01b031661148a612ac1565b6001600160a01b0316146114cf5760405162461bcd60e51b8152600401808060200182810382526024815260200180615b0f6024913960400191505060405180910390fd5b670de0b6b3a7640000811115611528576040805162461bcd60e51b81526020600482015260196024820152784f5456313a20666565206d757374206265203c3d203130302560381b604482015290519081900360640190fd5b6011819055604080513381526020810183905281517f7ac26e4ffe830fdc207de38e982cc2eff8c82c484057efc31138b195984827f6929181900390910190a150565b600061157884848461457e565b6115e8846115846141c8565b6115e3856040518060600160405280602c8152602001615974602c91396001600160a01b038a166000908152600260205260408120906115c26141c8565b6001600160a01b0316815260208101919091526040016000205491906146db565b6141cc565b5060015b9392505050565b6040516370a0823160e01b8152600090819083906001600160a01b038216906370a0823190611626903090600401615312565b60206040518083038186803b15801561163e57600080fd5b505afa158015611652573d6000803e3d6000fd5b505050506040513d601f19601f82011682018060405250810190611676919061528e565b6001600160a01b03808616600090815260106020526040902060010154919450168015611166576040516370a0823160e01b81526001600160a01b038316906370a08231906116c9908490600401615312565b60206040518083038186803b1580156116e157600080fd5b505afa1580156116f5573d6000803e3d6000fd5b505050506040513d601f19601f82011682018060405250810190611719919061528e565b92505050915091565b60065460ff1690565b6000610e1d6117386141c8565b846115e385600260006117496141c8565b6001600160a01b03908116825260208083019390935260409182016000908120918c168152925290205490614772565b6117816141c8565b6001600160a01b0316611792612ac1565b6001600160a01b0316146117d75760405162461bcd60e51b8152600401808060200182810382526024815260200180615b0f6024913960400191505060405180910390fd5b6006546040516342f6e38960e01b81526101009091046001600160a01b0316906342f6e3899061180b908490600401615312565b60206040518083038186803b15801561182357600080fd5b505afa158015611837573d6000803e3d6000fd5b505050506040513d601f19601f8201168201806040525081019061185b9190615249565b6118775760405162461bcd60e51b8152600401610cd59061557d565b600654604051637afd8d9560e01b81526101009091046001600160a01b031690637afd8d95906118ae9084906001906004016153eb565b60206040518083038186803b1580156118c657600080fd5b505afa1580156118da573d6000803e3d6000fd5b505050506040513d601f19601f820116820180604052508101906118fe9190615249565b61191a5760405162461bcd60e51b8152600401610cd590615879565b806001600160a01b031663e1c7392a6040518163ffffffff1660e01b8152600401600060405180830381600087803b15801561195557600080fd5b505af1158015611969573d6000803e3d6000fd5b5050600780546001600160a01b0319166001600160a01b03851617905550506040517f6aef1fb5b23d0e109fc7f2b0601019e1edbacd177e31a441ec8548e8dd14f0f7906119ba9033908490615326565b60405180910390a150565b6000610e34600c836142b8565b60085460408051634009ba8160e01b81526001600160a01b03848116600483015282516000948594921692634009ba8192602480830193919282900301818787803b158015611a2057600080fd5b505af1158015611a34573d6000803e3d6000fd5b505050506040513d6040811015611a4a57600080fd5b5080516020909101519092509050915091565b600054600160a01b900460ff16611aa55760405162461bcd60e51b815260040180806020018281038252602e815260200180615bf2602e913960400191505060405180910390fd5b611ab0600a836142b8565b611b01576040805162461bcd60e51b815260206004820152601e60248201527f4f5456313a206f66666572206120636f6c6c61746572616c20746f6b656e0000604482015290519081900360640190fd5b60008111611b56576040805162461bcd60e51b815260206004820152601760248201527f4f5456313a206f72646572206d757374206265203e2030000000000000000000604482015290519081900360640190fd5b6001600160a01b03808316600081815260106020526040808220548151630e0dc3b960e11b815260048101949094529051931692631c1b877292602480820193929182900301818387803b158015611bad57600080fd5b505af1158015611bc1573d6000803e3d6000fd5b50506009546001600160a01b03908116600081815260106020526040808220548151630e0dc3b960e11b81526004810194909452905193169450631c1b87729350602480830193919282900301818387803b158015611c1f57600080fd5b505af1158015611c33573d6000803e3d6000fd5b50505050600080611c43846119d2565b9150915080831115611c9c576040805162461bcd60e51b815260206004820152601960248201527f4f5456313a206f726465722065786365656473206c696d697400000000000000604482015290519081900360640190fd5b6000611cb4670de0b6b3a7640000611310868661440f565b90506000611cc285836144cf565b9050611cef611ce8670de0b6b3a76400006113106011548961440f90919063ffffffff16565b8390614772565b6009546001600160a01b03908116600081815260106020526040808220548151634d16186560e01b8152600481019490945260248401879052815195975091949190931692634d1618659260448082019391829003018186803b158015611d5557600080fd5b505afa158015611d69573d6000803e3d6000fd5b505050506040513d6040811015611d7f57600080fd5b505160095460408051636eb1769f60e11b815233600482015230602482015290519293506000926001600160a01b039092169163dd62ed3e91604480820192602092909190829003018186803b158015611dd857600080fd5b505afa158015611dec573d6000803e3d6000fd5b505050506040513d6020811015611e0257600080fd5b5051905080821115611e80576000611e268361131086670de0b6b3a764000061440f565b91925082919050611e43670de0b6b3a7640000611310838561440f565b9350611e4f88856144cf565b9450611e7c611e75670de0b6b3a76400006113106011548c61440f90919063ffffffff16565b8690614772565b9450505b600954604080516370a0823160e01b8152336004820152905184926001600160a01b0316916370a08231916024808301926020929190829003018186803b158015611eca57600080fd5b505afa158015611ede573d6000803e3d6000fd5b505050506040513d6020811015611ef457600080fd5b50511015611f49576040805162461bcd60e51b815260206004820152601760248201527f4f5456313a204e53463a206d656d62657220746f6b656e000000000000000000604482015290519081900360640190fd5b6001600160a01b03808916600081815260106020526040808220548151634d16186560e01b8152600481019490945260248401899052815192941692634d1618659260448083019392829003018186803b158015611fa657600080fd5b505afa158015611fba573d6000803e3d6000fd5b505050506040513d6040811015611fd057600080fd5b5051604080516370a0823160e01b8152336004820152905191925082916001600160a01b038c16916370a08231916024808301926020929190829003018186803b15801561201d57600080fd5b505afa158015612031573d6000803e3d6000fd5b505050506040513d602081101561204757600080fd5b5051101561209c576040805162461bcd60e51b815260206004820152601b60248201527f4f5456313a204e53463a20636f6c6c61746572616c20746f6b656e0000000000604482015290519081900360640190fd5b600081116120e9576040805162461bcd60e51b815260206004820152601560248201527413d5158c4e881bdc99195c881d1bdbc81cdb585b1b605a1b604482015290519081900360640190fd5b600954612101906001600160a01b03163330866147cc565b6121166001600160a01b038a163330846147cc565b6121203389614826565b604080518981526020810185905280820183905290516001600160a01b038b169133917f68c721f9a38584842eb66945b43c95066397ce5f2576fcc0588471c85d209d0c9181900360600190a3505050505050505050565b6121896121836141c8565b82614313565b50565b612194612ac1565b6001600160a01b0316336001600160a01b0316146121d6576007546001600160a01b031633146121d65760405162461bcd60e51b8152600401610cd5906157d4565b6001600160a01b0380831660009081526010602052604090206001810154909116806122145760405162461bcd60e51b8152600401610cd59061563e565b6122286001600160a01b0385168285614902565b7fdbe28db27103b16ba8fd72b0037bd6480a7f40704dceddb29c3cb07ca7b3518933858386604051610d659493929190615363565b60125481565b61226b6141c8565b6001600160a01b031661227c612ac1565b6001600160a01b0316146122c15760405162461bcd60e51b8152600401808060200182810382526024815260200180615b0f6024913960400191505060405180910390fd5b6000806122cd836115f3565b91509150816000146122f15760405162461bcd60e51b8152600401610cd59061542b565b801561230f5760405162461bcd60e51b8152600401610cd5906155b4565b61231a600e846142b8565b6123365760405162461bcd60e51b8152600401610cd5906158e7565b612341600a846142b8565b1561236c5761236c83604051806060016040528060248152602001615b5960249139600a91906149a4565b612377600c846142b8565b156123be5760408051808201909152601d81527f4f545631423a204552522072656d6f76696e67204d454d20746f6b656e00000060208201526123be90600c9085906149a4565b60408051808201909152601981527f4f545631423a204552522072656d6f76696e6720617373657400000000000000602082015261240090600e9085906149a4565b6001600160a01b0383166000908152601060205260409081902080546001600160a01b03199081168255600190910180549091169055517f0fa1e4606af435f32f05b3804033d2933e691fab32ee74d2db6fa82d2741f1ea9061102c9033908690615326565b6000610e34600e83614ae4565b61247b612ac1565b6001600160a01b0316336001600160a01b0316146124bd576007546001600160a01b031633146124bd5760405162461bcd60e51b8152600401610cd5906157d4565b6001600160a01b038281166000908152601060205260409020600181015490918581169116146124ff5760405162461bcd60e51b8152600401610cd5906156dc565b60405163273444bf60e11b81526001600160a01b03851690634e68897e9061252d9086908690600401615412565b600060405180830381600087803b15801561254757600080fd5b505af115801561255b573d6000803e3d6000fd5b505050507f834d22807e9785b046fc281d114c99498cf7fc7ecd92dd098b88ec7b8b7f0eb733858585604051610d659493929190615363565b60405160200180807f49434849205631204f6e65546f6b656e20496d706c656d656e746174696f6e00815250601f0190506040516020818303038152906040528051906020012081565b60115481565b6125ec6141c8565b6001600160a01b03166125fd612ac1565b6001600160a01b0316146126425760405162461bcd60e51b8152600401808060200182810382526024815260200180615b0f6024913960400191505060405180910390fd5b604051602001612651906152f1565b60405160208183030381529060405280519060200120816001600160a01b0316635775029f6040518163ffffffff1660e01b815260040160206040518083038186803b1580156126a057600080fd5b505afa1580156126b4573d6000803e3d6000fd5b505050506040513d601f19601f820116820180604052508101906126d8919061528e565b146126f55760405162461bcd60e51b8152600401610cd59061574a565b60068054610100600160a81b0319166101006001600160a01b038416021790556040517fb92ca6a399b9270b334a0ac2215abda8e9356ed263aa3b0d59984e5095aa5422906119ba9033908490615326565b6009546001600160a01b031681565b6001600160a01b031660009081526001602052604090205490565b6127796141c8565b6001600160a01b031661278a612ac1565b6001600160a01b0316146127cf5760405162461bcd60e51b8152600401808060200182810382526024815260200180615b0f6024913960400191505060405180910390fd5b600080546040516001600160a01b03909116907f8be0079c531659141344cd1fd0a4f28419497f9722a3daafe3b4186f6b6457e0908390a3600080546001600160a01b0319169055565b6000612825600a614b11565b905090565b6008546040805163795a94d760e01b81526001600160a01b0384811660048301528251600094859492169263795a94d7926024808301939192829003018186803b15801561287757600080fd5b505afa158015611a34573d6000803e3d6000fd5b60006128c282604051806060016040528060308152602001615c6d603091396128bb866128b66141c8565b613ff8565b91906146db565b90506128d6836128d06141c8565b836141cc565b6128e08383614313565b505050565b6128ed612ac1565b6001600160a01b0316336001600160a01b03161461292f576007546001600160a01b0316331461292f5760405162461bcd60e51b8152600401610cd5906157d4565b6001600160a01b038281166000908152601060205260409020600181015490918581169116146129715760405162461bcd60e51b8152600401610cd5906156dc565b6129856001600160a01b038416858461452c565b7f640340553261432b50e6ef09ca1760c9cb32d3ac37fcb01f4e31392dfd10b08c33858585604051610d659493929190615363565b6000610e34600a83614ae4565b6129cf6141c8565b6001600160a01b03166129e0612ac1565b6001600160a01b031614612a255760405162461bcd60e51b8152600401808060200182810382526024815260200180615b0f6024913960400191505060405180910390fd5b670de0b6b3a7640000811115612a7e576040805162461bcd60e51b81526020600482015260196024820152784f5456313a20666565206d757374206265203c3d203130302560381b604482015290519081900360640190fd5b6012819055604080513381526020810183905281517f03bc6648b2f00cf8724be70736b586b0643ba4b219bae2718c72b1449a4e04eb929181900390910190a150565b6000546001600160a01b031690565b6000610e34600c83614ae4565b612ae56141c8565b6001600160a01b0316612af6612ac1565b6001600160a01b031614612b3b5760405162461bcd60e51b8152600401808060200182810382526024815260200180615b0f6024913960400191505060405180910390fd5b612b46600e846142b8565b612b625760405162461bcd60e51b8152600401610cd5906158e7565b6006546040516342f6e38960e01b81526101009091046001600160a01b0316906342f6e38990612b96908590600401615312565b60206040518083038186803b158015612bae57600080fd5b505afa158015612bc2573d6000803e3d6000fd5b505050506040513d601f19601f82011682018060405250810190612be69190615249565b612c025760405162461bcd60e51b8152600401610cd590615842565b600654604051637afd8d9560e01b81526101009091046001600160a01b031690637afd8d9590612c399085906002906004016153eb565b60206040518083038186803b158015612c5157600080fd5b505afa158015612c65573d6000803e3d6000fd5b505050506040513d601f19601f82011682018060405250810190612c899190615249565b612ca55760405162461bcd60e51b8152600401610cd590615842565b306001600160a01b0316826001600160a01b031663a27eccc16040518163ffffffff1660e01b815260040160206040518083038186803b158015612ce857600080fd5b505afa158015612cfc573d6000803e3d6000fd5b505050506040513d601f19601f82011682018060405250810190612d209190615222565b6001600160a01b031614612d465760405162461bcd60e51b8152600401610cd590615520565b612d4e612ac1565b6001600160a01b0316826001600160a01b0316638da5cb5b6040518163ffffffff1660e01b815260040160206040518083038186803b158015612d9057600080fd5b505afa158015612da4573d6000803e3d6000fd5b505050506040513d601f19601f82011682018060405250810190612dc89190615222565b6001600160a01b031614612dee5760405162461bcd60e51b8152600401610cd590615607565b6001600160a01b0383166000908152601060205260409020612e0f84613301565b826001600160a01b031663e1c7392a6040518163ffffffff1660e01b8152600401600060405180830381600087803b158015612e4a57600080fd5b505af1158015612e5e573d6000803e3d6000fd5b50612e77925050506001600160a01b0385168484614b18565b6001810180546001600160a01b0319166001600160a01b0385161790556040517f109ad385ebec3a5bee37a3f9c148e1c1890195ef9b85a4a229256c3a773430fe90610d65903390879087908790615363565b60058054604080516020601f6002600019610100600188161502019095169490940493840181900481028201810190925282815260609390929091830182828015610dff5780601f10610dd457610100808354040283529160200191610dff565b612f336141c8565b6001600160a01b0316612f44612ac1565b6001600160a01b031614612f895760405162461bcd60e51b8152600401808060200182810382526024815260200180615b0f6024913960400191505060405180910390fd5b6006546040516342f6e38960e01b81526101009091046001600160a01b0316906342f6e38990612fbd908590600401615312565b60206040518083038186803b158015612fd557600080fd5b505afa158015612fe9573d6000803e3d6000fd5b505050506040513d601f19601f8201168201806040525081019061300d9190615249565b6130295760405162461bcd60e51b8152600401610cd5906154b2565b600654604051637afd8d9560e01b81526101009091046001600160a01b031690637afd8d95906130609085906003906004016153eb565b60206040518083038186803b15801561307857600080fd5b505afa15801561308c573d6000803e3d6000fd5b505050506040513d601f19601f820116820180604052508101906130b09190615249565b6130cc5760405162461bcd60e51b8152600401610cd590615915565b600654604051631b864cc760e11b81526101009091046001600160a01b03169063370c998e906131029030908590600401615326565b60206040518083038186803b15801561311a57600080fd5b505afa15801561312e573d6000803e3d6000fd5b505050506040513d601f19601f820116820180604052508101906131529190615249565b61316e5760405162461bcd60e51b8152600401610cd590615699565b604051630e0dc3b960e11b81526001600160a01b03821690631c1b87729061319a903090600401615312565b600060405180830381600087803b1580156131b457600080fd5b505af11580156131c8573d6000803e3d6000fd5b505060405163066ad14f60e21b81526001600160a01b03851692506319ab453c91506131f8908490600401615312565b600060405180830381600087803b15801561321257600080fd5b505af1158015613226573d6000803e3d6000fd5b5050600880546001600160a01b0319166001600160a01b03861617905550506040517fe776e197ba478f3131af13192de09273df0676776ed994ce0ec05e21084a10ae9061327990339085908590615340565b60405180910390a15050565b60065461010090046001600160a01b031681565b6000610e1d6132a66141c8565b846115e3856040518060600160405280602981526020016159a060299139600260006132d06141c8565b6001600160a01b03908116825260208083019390935260409182016000908120918d168152925290205491906146db565b613309612ac1565b6001600160a01b0316336001600160a01b03161461334b576007546001600160a01b0316331461334b5760405162461bcd60e51b8152600401610cd5906157d4565b613356600e826142b8565b6133725760405162461bcd60e51b8152600401610cd59061580b565b6001600160a01b038082166000908152601060205260409020600181015490911680156133ae576133ae6001600160a01b038416826000614b18565b7f65c7bd8aded3934ad8d8e192818b6f26422e1aa48169fe09beadf2d20d69a93b33848360405161102c93929190615340565b6000610e1d6133ee6141c8565b848461457e565b60136020526000908152604090205481565b600054600160a81b900460ff16806134225750613422614c2b565b806134375750600054600160a01b900460ff16155b6134725760405162461bcd60e51b81526004018080602001828103825260328152602001806159f26032913960400191505060405180910390fd5b600054600160a81b900460ff161580156134a9576000805460ff60a01b1960ff60a81b19909116600160a81b1716600160a01b1790555b6134b1614c3c565b60068054610100600160a81b03191633610100021790556134d28888614cac565b600088511180156134e4575060008751115b6135005760405162461bcd60e51b8152600401610cd5906154e9565b600654604051637afd8d9560e01b81526101009091046001600160a01b031690637afd8d959061353690899060049081016153eb565b60206040518083038186803b15801561354e57600080fd5b505afa158015613562573d6000803e3d6000fd5b505050506040513d601f19601f820116820180604052508101906135869190615249565b6135a25760405162461bcd60e51b8152600401610cd59061566a565b600654604051637afd8d9560e01b81526101009091046001600160a01b031690637afd8d95906135d99088906001906004016153eb565b60206040518083038186803b1580156135f157600080fd5b505afa158015613605573d6000803e3d6000fd5b505050506040513d601f19601f820116820180604052508101906136299190615249565b6136455760405162461bcd60e51b8152600401610cd590615879565b600654604051637afd8d9560e01b81526101009091046001600160a01b031690637afd8d959061367c9087906003906004016153eb565b60206040518083038186803b15801561369457600080fd5b505afa1580156136a8573d6000803e3d6000fd5b505050506040513d601f19601f820116820180604052508101906136cc9190615249565b6136e85760405162461bcd60e51b8152600401610cd590615915565b600654604051635d3e367560e01b81526101009091046001600160a01b031690635d3e36759061371c908690600401615312565b60206040518083038186803b15801561373457600080fd5b505afa158015613748573d6000803e3d6000fd5b505050506040513d601f19601f8201168201806040525081019061376c9190615249565b6137885760405162461bcd60e51b8152600401610cd59061547b565b6006546040516303b8879560e21b81526101009091046001600160a01b031690630ee21e54906137bc908590600401615312565b60206040518083038186803b1580156137d457600080fd5b505afa1580156137e8573d6000803e3d6000fd5b505050506040513d601f19601f8201168201806040525081019061380c9190615249565b6138285760405162461bcd60e51b8152600401610cd5906158b0565b600780546001600160a01b038088166001600160a01b03199283161790925560088054878416908316179055600980549286169290911691909117905560408051808201909152601f81527f4f545631423a2045525220696e73657274696e6720636f6c6c61746572616c0060208201526138a790600a908490614d9b565b60408051808201909152601e81527f4f545631423a2045525220696e73657274696e67204d454d20746f6b656e000060208201526138e990600c908590614d9b565b61390f82604051806060016040528060288152602001615a7560289139600e9190614d9b565b61393583604051806060016040528060278152602001615ac260279139600e9190614d9b565b6001600160a01b0380841660009081526010602052604080822085841683528183206006549251632e90ddcb60e11b8152919490936101009093041691635d21bb9691613986918991600401615412565b60206040518083038186803b15801561399e57600080fd5b505afa1580156139b2573d6000803e3d6000fd5b505050506040513d601f19601f820116820180604052508101906139d69190615222565b82546001600160a01b0319166001600160a01b03918216178355600654604051632e90ddcb60e11b815261010090910490911690635d21bb9690613a21908790600090600401615412565b60206040518083038186803b158015613a3957600080fd5b505afa158015613a4d573d6000803e3d6000fd5b505050506040513d601f19601f82011682018060405250810190613a719190615222565b81546001600160a01b0319166001600160a01b03918216178255604080516370e39c9560e11b815290519189169163e1c7392a9160048082019260009290919082900301818387803b158015613ac657600080fd5b505af1158015613ada573d6000803e3d6000fd5b505060405163066ad14f60e21b81526001600160a01b03891692506319ab453c9150613b0a908b90600401615312565b600060405180830381600087803b158015613b2457600080fd5b505af1158015613b38573d6000803e3d6000fd5b5050604051630e0dc3b960e11b81526001600160a01b038b169250631c1b87729150613b68903090600401615312565b600060405180830381600087803b158015613b8257600080fd5b505af1158015613b96573d6000803e3d6000fd5b50508354600954604051630e0dc3b960e11b81526001600160a01b039283169450631c1b87729350613bce9290911690600401615312565b600060405180830381600087803b158015613be857600080fd5b505af1158015613bfc573d6000803e3d6000fd5b50508254604051630e0dc3b960e11b81526001600160a01b039091169250631c1b87729150613c2f908790600401615312565b600060405180830381600087803b158015613c4957600080fd5b505af1158015613c5d573d6000803e3d6000fd5b505050507f2e1fc836b050d21b006e03d2747fbd2e70134de8831489895b9539ec94f643e2338b8b8a8a8a8a604051613c9c979695949392919061538d565b60405180910390a150508015613cba576000805460ff60a81b191690555b5050505050505050565b6000610e34600e836142b8565b6008546001600160a01b031681565b613ce86141c8565b6001600160a01b0316613cf9612ac1565b6001600160a01b031614613d3e5760405162461bcd60e51b8152600401808060200182810382526024815260200180615b0f6024913960400191505060405180910390fd5b600654604051631b864cc760e11b81526101009091046001600160a01b03169063370c998e90613d749085908590600401615326565b60206040518083038186803b158015613d8c57600080fd5b505afa158015613da0573d6000803e3d6000fd5b505050506040513d601f19601f82011682018060405250810190613dc49190615249565b613de05760405162461bcd60e51b8152600401610cd59061579d565b60065460405163443f2c1b60e01b815260009161010090046001600160a01b03169063443f2c1b90613e16908690600401615312565b604080518083038186803b158015613e2d57600080fd5b505afa158015613e41573d6000803e3d6000fd5b505050506040513d601f19601f82011682018060405250810190613e659190615263565b506001600160a01b038481166000908152601060205260409081902080546001600160a01b03191692861692831781559051630e0dc3b960e11b815292935091631c1b877290613eb9908790600401615312565b600060405180830381600087803b158015613ed357600080fd5b505af1158015613ee7573d6000803e3d6000fd5b505050508115613f4157613f3c846040518060400160405280602081526020017f4f545631423a20636f6c6c61746572616c20616c726561647920657869737473815250600a614d9b9092919063ffffffff16565b613f83565b60408051808201909152601b81527f4f545631423a20746f6b656e20616c72656164792065786973747300000000006020820152613f8390600c908690614d9b565b60408051808201909152601a81527f4f545631423a2045525220696e73657274696e672061737365740000000000006020820152613fc590600e908690614d9b565b7f0a7426a0630aad7dbc4d5ca5b7d9aac1133d77d2db987caaf4b4186c85d6593f338585604051610d6593929190615340565b6001600160a01b03918216600090815260026020908152604080832093909416825291909152205490565b6000612825600c614b11565b6000612825600e614b11565b601060205260009081526040902080546001909101546001600160a01b03918216911682565b6140696141c8565b6001600160a01b031661407a612ac1565b6001600160a01b0316146140bf5760405162461bcd60e51b8152600401808060200182810382526024815260200180615b0f6024913960400191505060405180910390fd5b61218981614e42565b6007546001600160a01b031681565b600061416d82856001600160a01b031663dd62ed3e30876040518363ffffffff1660e01b815260040180836001600160a01b03168152602001826001600160a01b031681526020019250505060206040518083038186803b15801561413b57600080fd5b505afa15801561414f573d6000803e3d6000fd5b505050506040513d602081101561416557600080fd5b505190614772565b604080516001600160a01b038616602482015260448082018490528251808303909101815260649091019091526020810180516001600160e01b031663095ea7b360e01b1790529091506141c2908590614ee2565b50505050565b3390565b6001600160a01b0383166142115760405162461bcd60e51b8152600401808060200182810382526028815260200180615a246028913960400191505060405180910390fd5b6001600160a01b0382166142565760405162461bcd60e51b8152600401808060200182810382526026815260200180615c9d6026913960400191505060405180910390fd5b6001600160a01b03808416600081815260026020908152604080832094871680845294825291829020859055815185815291517f8c5be1e5ebec7d5bd14f71427d1e84f3dd0314c0f7b2291e5b200ac8c7c3b9259281900390910190a3505050565b60018201546000906142cc57506000610e21565b6001600160a01b03821660008181526020859052604090205460018501805490919081106142f657fe5b6000918252602090912001546001600160a01b0316149392505050565b6001600160a01b0382166143585760405162461bcd60e51b8152600401808060200182810382526025815260200180615a9d6025913960400191505060405180910390fd5b614364826000836128e0565b6143a181604051806060016040528060268152602001615b33602691396001600160a01b03851660009081526001602052604090205491906146db565b6001600160a01b0383166000908152600160205260409020556003546143c790826144cf565b6003556040805182815290516000916001600160a01b038516917fddf252ad1be2c89b69c2b068fc378daa952ba7f163c4a11628f55a4df523b3ef9181900360200190a35050565b60008261441e57506000610e21565b8282028284828161442b57fe5b04146115ec5760405162461bcd60e51b8152600401808060200182810382526021815260200180615ba76021913960400191505060405180910390fd5b60008082116144be576040805162461bcd60e51b815260206004820152601a60248201527f536166654d6174683a206469766973696f6e206279207a65726f000000000000604482015290519081900360640190fd5b8183816144c757fe5b049392505050565b600082821115614526576040805162461bcd60e51b815260206004820152601e60248201527f536166654d6174683a207375627472616374696f6e206f766572666c6f770000604482015290519081900360640190fd5b50900390565b604080516001600160a01b038416602482015260448082018490528251808303909101815260649091019091526020810180516001600160e01b031663a9059cbb60e01b1790526128e0908490614ee2565b6001600160a01b0383166145c35760405162461bcd60e51b8152600401808060200182810382526029815260200180615a4c6029913960400191505060405180910390fd5b6001600160a01b0382166146085760405162461bcd60e51b815260040180806020018281038252602781526020018061594d6027913960400191505060405180910390fd5b6146138383836128e0565b614650816040518060600160405280602a8152602001615bc8602a91396001600160a01b03861660009081526001602052604090205491906146db565b6001600160a01b03808516600090815260016020526040808220939093559084168152205461467f9082614772565b6001600160a01b0380841660008181526001602090815260409182902094909455805185815290519193928716927fddf252ad1be2c89b69c2b068fc378daa952ba7f163c4a11628f55a4df523b3ef92918290030190a3505050565b6000818484111561476a5760405162461bcd60e51b81526004018080602001828103825283818151815260200191508051906020019080838360005b8381101561472f578181015183820152602001614717565b50505050905090810190601f16801561475c5780820380516001836020036101000a031916815260200191505b509250505060405180910390fd5b505050900390565b6000828201838110156115ec576040805162461bcd60e51b815260206004820152601b60248201527f536166654d6174683a206164646974696f6e206f766572666c6f770000000000604482015290519081900360640190fd5b604080516001600160a01b0380861660248301528416604482015260648082018490528251808303909101815260849091019091526020810180516001600160e01b03166323b872dd60e01b1790526141c2908590614ee2565b6001600160a01b03821661486b5760405162461bcd60e51b8152600401808060200182810382526023815260200180615c206023913960400191505060405180910390fd5b614877600083836128e0565b6003546148849082614772565b6003556001600160a01b0382166000908152600160205260409020546148aa9082614772565b6001600160a01b03831660008181526001602090815260408083209490945583518581529351929391927fddf252ad1be2c89b69c2b068fc378daa952ba7f163c4a11628f55a4df523b3ef9281900390910190a35050565b600061416d826040518060600160405280602981526020016159c96029913960408051636eb1769f60e11b81523060048201526001600160a01b03888116602483015291519189169163dd62ed3e91604480820192602092909190829003018186803b15801561497157600080fd5b505afa158015614985573d6000803e3d6000fd5b505050506040513d602081101561499b57600080fd5b505191906146db565b6149ae83836142b8565b81906149fb5760405162461bcd60e51b815260206004820181815283516024840152835190928392604490910191908501908083836000831561472f578181015183820152602001614717565b5060006001614a0985614b11565b6001600160a01b0385166000908152602087905260408120546001880180549490930394509290919084908110614a3c57fe5b60009182526020808320909101546001600160a01b0316808352908890526040909120839055600187018054919250829184908110614a7757fe5b600091825260208083209190910180546001600160a01b0319166001600160a01b03948516179055918716815290879052604081205560018601805480614aba57fe5b600082815260209020810160001990810180546001600160a01b0319169055019055505050505050565b6000826001018281548110614af557fe5b6000918252602090912001546001600160a01b03169392505050565b6001015490565b801580614b9e575060408051636eb1769f60e11b81523060048201526001600160a01b03848116602483015291519185169163dd62ed3e91604480820192602092909190829003018186803b158015614b7057600080fd5b505afa158015614b84573d6000803e3d6000fd5b505050506040513d6020811015614b9a57600080fd5b5051155b614bd95760405162461bcd60e51b8152600401808060200182810382526036815260200180615cc36036913960400191505060405180910390fd5b604080516001600160a01b038416602482015260448082018490528251808303909101815260649091019091526020810180516001600160e01b031663095ea7b360e01b1790526128e0908490614ee2565b6000614c3630614f93565b15905090565b6000614c46612ac1565b6001600160a01b031614614ca1576040805162461bcd60e51b815260206004820181905260248201527f494348494f776e61626c653a20616c726561647920696e697469616c697a6564604482015290519081900360640190fd5b614caa33614e42565b565b600054600160a81b900460ff1680614cc75750614cc7614c2b565b80614cdc5750600054600160a01b900460ff16155b614d175760405162461bcd60e51b81526004018080602001828103825260328152602001806159f26032913960400191505060405180910390fd5b600054600160a81b900460ff16158015614d4e576000805460ff60a01b1960ff60a81b19909116600160a81b1716600160a01b1790555b8251614d61906004906020860190615171565b508151614d75906005906020850190615171565b506006805460ff1916601217905580156128e0576000805460ff60a81b19169055505050565b614da583836142b8565b158190614df35760405162461bcd60e51b815260206004820181815283516024840152835190928392604490910191908501908083836000831561472f578181015183820152602001614717565b50506001828101805491820181556000818152602080822090930180546001600160a01b0319166001600160a01b03959095169485179055905492815292905260409091206000199091019055565b6001600160a01b038116614e875760405162461bcd60e51b815260040180806020018281038252602a815260200180615b7d602a913960400191505060405180910390fd5b600080546040516001600160a01b03808516939216917f8be0079c531659141344cd1fd0a4f28419497f9722a3daafe3b4186f6b6457e091a3600080546001600160a01b0319166001600160a01b0392909216919091179055565b6000614f37826040518060400160405280602081526020017f5361666545524332303a206c6f772d6c6576656c2063616c6c206661696c6564815250856001600160a01b0316614f999092919063ffffffff16565b8051909150156128e057808060200190516020811015614f5657600080fd5b50516128e05760405162461bcd60e51b815260040180806020018281038252602a815260200180615c43602a913960400191505060405180910390fd5b3b151590565b6060614fa88484600085614fb0565b949350505050565b606082471015614ff15760405162461bcd60e51b8152600401808060200182810382526026815260200180615ae96026913960400191505060405180910390fd5b614ffa85614f93565b61504b576040805162461bcd60e51b815260206004820152601d60248201527f416464726573733a2063616c6c20746f206e6f6e2d636f6e7472616374000000604482015290519081900360640190fd5b600080866001600160a01b031685876040518082805190602001908083835b602083106150895780518252601f19909201916020918201910161506a565b6001836020036101000a03801982511681845116808217855250505050505090500191505060006040518083038185875af1925050503d80600081146150eb576040519150601f19603f3d011682016040523d82523d6000602084013e6150f0565b606091505b509150915061510082828661510b565b979650505050505050565b6060831561511a5750816115ec565b82511561512a5782518084602001fd5b60405162461bcd60e51b815260206004820181815284516024840152845185939192839260440191908501908083836000831561472f578181015183820152602001614717565b828054600181600116156101000203166002900490600052602060002090601f0160209004810192826151a757600085556151ed565b82601f106151c057805160ff19168380011785556151ed565b828001600101855582156151ed579182015b828111156151ed5782518255916020019190600101906151d2565b506151f99291506151fd565b5090565b5b808211156151f957600081556001016151fe565b80518015158114610e3757600080fd5b600060208284031215615233578081fd5b81516001600160a01b03811681146115ec578182fd5b60006020828403121561525a578081fd5b6115ec82615212565b60008060408385031215615275578081fd5b61527e83615212565b9150602083015190509250929050565b60006020828403121561529f578081fd5b5051919050565b60008151808452815b818110156152cb576020818501810151868301820152016152af565b818111156152dc5782602083870101525b50601f01601f19169290920160200192915050565b7449434849204f6e65546f6b656e20466163746f727960581b815260150190565b6001600160a01b0391909116815260200190565b6001600160a01b0392831681529116602082015260400190565b6001600160a01b0393841681529183166020830152909116604082015260600190565b6001600160a01b039485168152928416602084015292166040820152606081019190915260800190565b600060018060a01b03808a16835260e060208401526153af60e084018a6152a6565b83810360408501526153c1818a6152a6565b97821660608501525094851660808301525091831660a083015290911660c0909101529392505050565b6001600160a01b0383168152604081016005831061540557fe5b8260208301529392505050565b6001600160a01b03929092168252602082015260400190565b60208082526030908201527f4f545631423a2063616e27742072656d6f766520746f6b656e2077697468207660408201526f061756c742062616c616e6365203e20360841b606082015260800190565b60208082526018908201527f4f545631423a20756e6b6e6f776e204d454d20746f6b656e0000000000000000604082015260600190565b6020808252601f908201527f4f545631423a20756e72656769737465726564206d696e74206d617374657200604082015260600190565b6020808252601e908201527f4f545631423a206e616d6520616e642073796d626f6c20617265205251440000604082015260600190565b6020808252603e908201527f4f545631423a2063616e27742061737369676e2073747261746567792074686160408201527f7420646f65736e2774207265636f676e697a652074686973207661756c740000606082015260800190565b6020808252601e908201527f4f545631423a20756e7265676973746572656420636f6e74726f6c6c65720000604082015260600190565b60208082526033908201527f4f545631423a2063616e27742072656d6f7665206173736574207769746820736040820152720747261746567792062616c616e6365203e203606c1b606082015260800190565b6020808252601d908201527f4f545631423a20756e6b6e6f776e207374726174656779206f776e6572000000604082015260600190565b6020808252601290820152714f545631423a206e6f20737472617465677960701b604082015260600190565b6020808252601590820152744f545631423a20756e6b6e6f776e206f7261636c6560581b604082015260600190565b60208082526023908201527f4f545631423a20756e72656769737465726564206f6e65546f6b656e206f7261604082015262636c6560e81b606082015260800190565b6020808252601d908201527f4f545631423a206e6f742074686520746f6b656e207374726174656779000000604082015260600190565b60208082526017908201527f4f545631423a65733a20756e6b6e6f776e20746f6b656e000000000000000000604082015260600190565b60208082526033908201527f4f545631423a206e657720666163746f727920646f65736e277420656d697420604082015272199858dd1bdc9e48199a5b99d95c9c1c9a5b9d606a1b606082015260800190565b6020808252601e908201527f4f545631423a20756e6b6e6f776e206f7261636c65206f7220746f6b656e0000604082015260600190565b6020808252601e908201527f4f545631423a206e6f74206f776e6572206f7220636f6e74726f6c6c65720000604082015260600190565b60208082526017908201527f4f545631423a63733a20756e6b6e6f776e20746f6b656e000000000000000000604082015260600190565b60208082526017908201527f4f545631423a20756e6b6e6f776e207374726174656779000000000000000000604082015260600190565b60208082526019908201527f4f545631423a20756e6b6e6f776e20636f6e74726f6c6c657200000000000000604082015260600190565b60208082526019908201527f4f545631423a20756e6b6e6f776e20636f6c6c61746572616c00000000000000604082015260600190565b60208082526014908201527327aa2b18a11d103ab735b737bbb7103a37b5b2b760611b604082015260600190565b6020808252601a908201527f4f545631423a20756e6b6e6f776e206d696e74206d617374657200000000000060408201526060019056fe4943484945524332303a207472616e7366657220746f20746865207a65726f20616464726573734943484945524332303a207472616e7366657220616d6f756e74206578636565647320616c6c6f77616e63654943484945524332303a2064656372656173656420616c6c6f77616e63652062656c6f77207a65726f5361666545524332303a2064656372656173656420616c6c6f77616e63652062656c6f77207a65726f49434849496e697469616c697a61626c653a20636f6e747261637420697320616c726561647920696e697469616c697a65644943484945524332303a20617070726f76652066726f6d20746865207a65726f20616464726573734943484945524332303a207472616e736665722066726f6d20746865207a65726f20616464726573734f545631423a2045525220696e73657274696e6720636f6c6c61746572616c2061732061737365744943484945524332303a206275726e2066726f6d20746865207a65726f20616464726573734f545631423a2045525220696e73657274696e67204d454d20746f6b656e206173206173736574416464726573733a20696e73756666696369656e742062616c616e636520666f722063616c6c494348494f776e61626c653a2063616c6c6572206973206e6f7420746865206f776e65724943484945524332303a206275726e20616d6f756e7420657863656564732062616c616e63654f545631423a204552522072656d6f76696e6720636f6c6c61746572616c20746f6b656e494348494f776e61626c653a206e6577206f776e657220697320746865207a65726f2061646472657373536166654d6174683a206d756c7469706c69636174696f6e206f766572666c6f774943484945524332303a207472616e7366657220616d6f756e7420657863656564732062616c616e636549434849496e697469616c697a61626c653a20636f6e7472616374206973206e6f7420696e697469616c697a65644943484945524332303a206d696e7420746f20746865207a65726f20616464726573735361666545524332303a204552433230206f7065726174696f6e20646964206e6f7420737563636565644943484945524332304275726e61626c653a206275726e20616d6f756e74206578636565647320616c6c6f77616e63654943484945524332303a20617070726f766520746f20746865207a65726f20616464726573735361666545524332303a20617070726f76652066726f6d206e6f6e2d7a65726f20746f206e6f6e2d7a65726f20616c6c6f77616e6365a26469706673582212204535440f5103147168fba0440a4d7194d574a4f64f6b9e19c1c1b80554bd39a464736f6c63430007060033494348494f776e61626c653a206e6577206f776e657220697320746865207a65726f2061646472657373",
  "devdoc": {
    "kind": "dev",
    "methods": {
      "addAsset(address,address)": {
        "details": "asset inventory helps evaluate local holdings and enables strategy assignment",
        "params": {
          "oracle": "oracle to use for usd valuation. Must be registered in the factory and associated with token.",
          "token": "ERC20 token"
        }
      },
      "allowance(address,address)": {
        "details": "See {IERC20-allowance}."
      },
      "approve(address,uint256)": {
        "details": "See {IERC20-approve}. Requirements: - `spender` cannot be the zero address."
      },
      "assetAtIndex(uint256)": {
        "params": {
          "index": "row to inspect"
        }
      },
      "balanceOf(address)": {
        "details": "See {IERC20-balanceOf}."
      },
      "balances(address)": {
        "params": {
          "token": "to inspect"
        }
      },
      "burn(uint256)": {
        "details": "Destroys `amount` tokens from the caller. See {ERC20-_burn}."
      },
      "burnFrom(address,uint256)": {
        "details": "Destroys `amount` tokens from `account`, deducting from the caller's allowance. See {ERC20-_burn} and {ERC20-allowance}. Requirements: - the caller must have allowance for ``accounts``'s tokens of at least `amount`."
      },
      "changeController(address)": {
        "details": "controllers support the periodic() function which should be called occasionally to send gas to the controller",
        "params": {
          "controller_": "a deployed controller contract supporting the minimum interface and registered with the factory"
        }
      },
      "changeMintMaster(address,address)": {
        "details": "controllers support the periodic() function which should be called occasionally to send gas to the controller",
        "params": {
          "mintMaster_": "the new mintMaster implementation",
          "oneTokenOracle_": "intialize the mintMaster with this oracle. Must be registed in the factory."
        }
      },
      "closeStrategy(address)": {
        "details": "strategy remains assigned the asset with allowance set to 0.",
        "params": {
          "token": "ERC20 asset with a strategy to close. "
        }
      },
      "collateralTokenAtIndex(uint256)": {
        "params": {
          "index": "row to inspect"
        }
      },
      "decimals()": {
        "details": "Returns the number of decimals used to get its user representation. For example, if `decimals` equals `2`, a balance of `505` tokens should be displayed to a user as `5,05` (`505 / 10 ** 2`). Tokens usually opt for a value of 18, imitating the relationship between Ether and Wei. This is the value {ERC20} uses, unless {_setupDecimals} is called. NOTE: This information is only used for _display_ purposes: it in no way affects any of the arithmetic of the contract, including {IERC20-balanceOf} and {IERC20-transfer}."
      },
      "decreaseAllowance(address,uint256)": {
        "details": "Atomically decreases the allowance granted to `spender` by the caller. This is an alternative to {approve} that can be used as a mitigation for problems described in {IERC20-approve}. Emits an {Approval} event indicating the updated allowance. Requirements: - `spender` cannot be the zero address. - `spender` must have allowance for the caller of at least `subtractedValue`."
      },
      "decreaseStrategyAllowance(address,uint256)": {
        "details": "adjusts the remaining allowance for automated transfers executed by the controller",
        "params": {
          "amount": "allowance decrease",
          "token": "ERC20 asset"
        }
      },
      "executeStrategy(address)": {
        "details": "normally used by the controller",
        "params": {
          "token": "the token strategy to execute"
        }
      },
      "fromStrategy(address,address,uint256)": {
        "params": {
          "amount": "amount to draw from the strategy",
          "strategy": "receiving address must match the assigned strategy",
          "token": "ERC20 asset"
        }
      },
      "getHoldings(address)": {
        "details": "not restricted to registered assets",
        "params": {
          "strategyBalance": "tokens in assigned strategy",
          "token": "ERC20 asset to report",
          "vaultBalance": "tokens held in this vault"
        }
      },
      "getMintingRatio(address)": {
        "params": {
          "collateralToken": "token to use for ratio calculation",
          "maxOrderVolume": "maximum order size",
          "ratio": "minting ratio"
        }
      },
      "increaseAllowance(address,uint256)": {
        "details": "Atomically increases the allowance granted to `spender` by the caller. This is an alternative to {approve} that can be used as a mitigation for problems described in {IERC20-approve}. Emits an {Approval} event indicating the updated allowance. Requirements: - `spender` cannot be the zero address."
      },
      "increaseStrategyAllowance(address,uint256)": {
        "details": "adjusts the remaining allowance for automated transfers executed by the controller",
        "params": {
          "amount": "allowance increase",
          "token": "ERC20 asset"
        }
      },
      "init(string,string,address,address,address,address,address)": {
        "details": "constructors are ineffective for proxy deployments",
        "params": {
          "collateral_": "a deployed, registered (in the factory) usd-pegged ERC20 token supporting the minimum interface",
          "controller_": "a deployed, compatible controller supporting the minimum interface",
          "memberToken_": "a deployed, registered (in the factory) ERC20 token supporting the minimum interface",
          "mintMaster_": "a deployed, compatible mintMaster supporting the minimum interface",
          "name_": "ERC20 name value",
          "oneTokenOracle_": "a deployed, compatible oracle supporting the minimum interface",
          "symbol_": "ERC20 symbol value"
        }
      },
      "isAsset(address)": {
        "params": {
          "token": "token to inspect"
        }
      },
      "isCollateral(address)": {
        "params": {
          "token": "token to inspect"
        }
      },
      "isOtherToken(address)": {
        "params": {
          "token": "token to inspect"
        }
      },
      "mint(address,uint256)": {
        "details": "takes the lessor of memberTokens allowance or the maximum allowed by the minting ratio and the balance in collateral",
        "params": {
          "collateralToken": "a registered ERC20 collateral token contract",
          "oneTokens": "exact number of oneTokens to receive"
        }
      },
      "name()": {
        "details": "Returns the name of the token."
      },
      "otherTokenAtIndex(uint256)": {
        "params": {
          "index": "row to inspect"
        }
      },
      "owner()": {
        "details": "Returns the address of the current owner."
      },
      "redeem(address,uint256)": {
        "details": "first grant allowances, then redeem. Consider infinite collateral allowance and a sufficient memberToken allowance. Updates ratio and triggers controller.",
        "params": {
          "amount": "oneTokens to redeem equals collateral tokens to receive",
          "collateral": "form of ERC20 stable token to receive"
        }
      },
      "removeAsset(address)": {
        "details": "does not destroy holdings, but holdings are not accounted for",
        "params": {
          "token": "ERC20 token"
        }
      },
      "removeStrategy(address)": {
        "details": "closes the strategy and requires that all funds in the strategy are returned to the vault",
        "params": {
          "token": "the token strategy to remove. There are 0-1 strategys per asset"
        }
      },
      "renounceOwnership()": {
        "details": "Leaves the contract without owner. It will not be possible to call `onlyOwner` functions anymore. Can only be called by the current owner. NOTE: Renouncing ownership will leave the contract without an owner, thereby removing any functionality that is only available to the owner."
      },
      "setFactory(address)": {
        "details": "accomodates factory upgrades",
        "params": {
          "newFactory": "address of the new factory"
        }
      },
      "setMintingFee(uint256)": {
        "params": {
          "fee": "fee, 18 decimals, e.g. 2% = 20000000000000000"
        }
      },
      "setRedemptionFee(uint256)": {
        "params": {
          "fee": "fee, 18 decimals, e.g. 2% = 20000000000000000"
        }
      },
      "setStrategy(address,address,uint256)": {
        "details": "strategy must be registered with the factory",
        "params": {
          "allowance": "ERC20 allowance sets a limit on funds to transfer to the strategy",
          "strategy": "deployed strategy contract that is registered with the factor",
          "token": "ERC20 asset"
        }
      },
      "symbol()": {
        "details": "Returns the symbol of the token, usually a shorter version of the name."
      },
      "toStrategy(address,address,uint256)": {
        "details": "works independently of strategy allowance",
        "params": {
          "amount": "amount to send",
          "strategy": "receiving address must match the assigned strategy",
          "token": "ERC20 asset"
        }
      },
      "totalSupply()": {
        "details": "See {IERC20-totalSupply}."
      },
      "transfer(address,uint256)": {
        "details": "See {IERC20-transfer}. Requirements: - `recipient` cannot be the zero address. - the caller must have a balance of at least `amount`."
      },
      "transferFrom(address,address,uint256)": {
        "details": "See {IERC20-transferFrom}. Emits an {Approval} event indicating the updated allowance. This is not required by the EIP. See the note at the beginning of {ERC20}. Requirements: - `sender` and `recipient` cannot be the zero address. - `sender` must have a balance of at least `amount`. - the caller must have allowance for ``sender``'s tokens of at least `amount`."
      },
      "transferOwnership(address)": {
        "details": "Transfers ownership of the contract to a new account (`newOwner`). Can only be called by the current owner."
      },
      "updateMintingRatio(address)": {
        "details": "acceptable for gas-paying external actors to call this function",
        "params": {
          "collateralToken": "token to use for ratio calculation",
          "maxOrderVolume": "maximum order size",
          "ratio": "minting ratio"
        }
      }
    },
    "stateVariables": {
      "liabilities": {
        "details": "token => liability"
      }
    },
    "version": 1
  },
  "userdoc": {
    "kind": "user",
    "methods": {
      "addAsset(address,address)": {
        "notice": "governance can add an asset"
      },
      "assetAtIndex(uint256)": {
        "notice": "returns the ERC20 contract address at the index"
      },
      "assetCount()": {
        "notice": "returns the sum of collateral and non-collateral ERC20 token contracts"
      },
      "balances(address)": {
        "notice": "returns the local balance and funds held in the assigned strategy, if any"
      },
      "changeController(address)": {
        "notice": "governance can appoint a new controller with distinct internal logic"
      },
      "changeMintMaster(address,address)": {
        "notice": "change the mintMaster"
      },
      "closeStrategy(address)": {
        "notice": "governance can close a strategy"
      },
      "collateralTokenAtIndex(uint256)": {
        "notice": "returns the address of an ERC20 token collateral contract at the index"
      },
      "collateralTokenCount()": {
        "notice": "pointreturns the number of acceptable collateral token contracts"
      },
      "decreaseStrategyAllowance(address,uint256)": {
        "notice": "governance can manage an allowance for a token strategy"
      },
      "executeStrategy(address)": {
        "notice": "governance can execute a strategy to trigger innner logic within the strategy"
      },
      "fromStrategy(address,address,uint256)": {
        "notice": "governance can transfer assets from the strategy to this vault"
      },
      "getHoldings(address)": {
        "notice": "read the vault balance and strategy balance of a given token"
      },
      "getMintingRatio(address)": {
        "notice": "read the minting ratio and maximum order volume prescribed by the mintMaster"
      },
      "increaseStrategyAllowance(address,uint256)": {
        "notice": "governance can manage an allowance for a token strategy"
      },
      "init(string,string,address,address,address,address,address)": {
        "notice": "initializes a proxied instance of the implementation"
      },
      "isAsset(address)": {
        "notice": "returns true if the token contract is a registered asset of either type"
      },
      "isCollateral(address)": {
        "notice": "returns true if the token contract is recognized collateral"
      },
      "isOtherToken(address)": {
        "notice": "returns true if the token contract is registered and is not collateral"
      },
      "liabilities(address)": {
        "notice": "sum of userBalances for each collateral token are not counted in treasury valuations"
      },
      "mint(address,uint256)": {
        "notice": "convert member tokens and collateral tokens into oneTokens. requires sufficient allowances for both tokens"
      },
      "otherTokenAtIndex(uint256)": {
        "notice": "returns the non-collateral token contract at the index"
      },
      "otherTokenCount()": {
        "notice": "returns the count of registered ERC20 asset contracts that not collateral"
      },
      "redeem(address,uint256)": {
        "notice": "redeem oneTokens for collateral tokens at 1:1 - applies fee %"
      },
      "removeAsset(address)": {
        "notice": "governance can remove an asset from treasury and collateral value accounting"
      },
      "removeStrategy(address)": {
        "notice": "governance can remove a strategy"
      },
      "setFactory(address)": {
        "notice": "adopt a new factory"
      },
      "setMintingFee(uint256)": {
        "notice": "governance sets the adjustable fee"
      },
      "setRedemptionFee(uint256)": {
        "notice": "governance sets the adjustable fee"
      },
      "setStrategy(address,address,uint256)": {
        "notice": "governance optionally assigns a strategy to an asset and sets a strategy allowance"
      },
      "toStrategy(address,address,uint256)": {
        "notice": "governance can transfer assets from the vault to a strategy"
      },
      "updateMintingRatio(address)": {
        "notice": "adjust the minting ratio"
      }
    },
    "version": 1
  },
  "storageLayout": {
    "storage": [
      {
        "astId": 14740,
        "contract": "contracts/version/v1/OneTokenV1.sol:OneTokenV1",
        "label": "_owner",
        "offset": 0,
        "slot": "0",
        "type": "t_address"
      },
      {
        "astId": 14664,
        "contract": "contracts/version/v1/OneTokenV1.sol:OneTokenV1",
        "label": "_initialized",
        "offset": 20,
        "slot": "0",
        "type": "t_bool"
      },
      {
        "astId": 14666,
        "contract": "contracts/version/v1/OneTokenV1.sol:OneTokenV1",
        "label": "_initializing",
        "offset": 21,
        "slot": "0",
        "type": "t_bool"
      },
      {
        "astId": 14114,
        "contract": "contracts/version/v1/OneTokenV1.sol:OneTokenV1",
        "label": "_balances",
        "offset": 0,
        "slot": "1",
        "type": "t_mapping(t_address,t_uint256)"
      },
      {
        "astId": 14120,
        "contract": "contracts/version/v1/OneTokenV1.sol:OneTokenV1",
        "label": "_allowances",
        "offset": 0,
        "slot": "2",
        "type": "t_mapping(t_address,t_mapping(t_address,t_uint256))"
      },
      {
        "astId": 14122,
        "contract": "contracts/version/v1/OneTokenV1.sol:OneTokenV1",
        "label": "_totalSupply",
        "offset": 0,
        "slot": "3",
        "type": "t_uint256"
      },
      {
        "astId": 14124,
        "contract": "contracts/version/v1/OneTokenV1.sol:OneTokenV1",
        "label": "_name",
        "offset": 0,
        "slot": "4",
        "type": "t_string_storage"
      },
      {
        "astId": 14126,
        "contract": "contracts/version/v1/OneTokenV1.sol:OneTokenV1",
        "label": "_symbol",
        "offset": 0,
        "slot": "5",
        "type": "t_string_storage"
      },
      {
        "astId": 14128,
        "contract": "contracts/version/v1/OneTokenV1.sol:OneTokenV1",
        "label": "_decimals",
        "offset": 0,
        "slot": "6",
        "type": "t_uint8"
      },
      {
        "astId": 17744,
        "contract": "contracts/version/v1/OneTokenV1.sol:OneTokenV1",
        "label": "oneTokenFactory",
        "offset": 1,
        "slot": "6",
        "type": "t_address"
      },
      {
        "astId": 17747,
        "contract": "contracts/version/v1/OneTokenV1.sol:OneTokenV1",
        "label": "controller",
        "offset": 0,
        "slot": "7",
        "type": "t_address"
      },
      {
        "astId": 17750,
        "contract": "contracts/version/v1/OneTokenV1.sol:OneTokenV1",
        "label": "mintMaster",
        "offset": 0,
        "slot": "8",
        "type": "t_address"
      },
      {
        "astId": 17753,
        "contract": "contracts/version/v1/OneTokenV1.sol:OneTokenV1",
        "label": "memberToken",
        "offset": 0,
        "slot": "9",
        "type": "t_address"
      },
      {
        "astId": 17755,
        "contract": "contracts/version/v1/OneTokenV1.sol:OneTokenV1",
        "label": "collateralTokenSet",
        "offset": 0,
        "slot": "10",
        "type": "t_struct(Set)8416_storage"
      },
      {
        "astId": 17757,
        "contract": "contracts/version/v1/OneTokenV1.sol:OneTokenV1",
        "label": "otherTokenSet",
        "offset": 0,
        "slot": "12",
        "type": "t_struct(Set)8416_storage"
      },
      {
        "astId": 17764,
        "contract": "contracts/version/v1/OneTokenV1.sol:OneTokenV1",
        "label": "assetSet",
        "offset": 0,
        "slot": "14",
        "type": "t_struct(Set)8416_storage"
      },
      {
        "astId": 17769,
        "contract": "contracts/version/v1/OneTokenV1.sol:OneTokenV1",
        "label": "assets",
        "offset": 0,
        "slot": "16",
        "type": "t_mapping(t_address,t_struct(Asset)17762_storage)"
      },
      {
        "astId": 17170,
        "contract": "contracts/version/v1/OneTokenV1.sol:OneTokenV1",
        "label": "mintingFee",
        "offset": 0,
        "slot": "17",
        "type": "t_uint256"
      },
      {
        "astId": 17173,
        "contract": "contracts/version/v1/OneTokenV1.sol:OneTokenV1",
        "label": "redemptionFee",
        "offset": 0,
        "slot": "18",
        "type": "t_uint256"
      },
      {
        "astId": 17178,
        "contract": "contracts/version/v1/OneTokenV1.sol:OneTokenV1",
        "label": "liabilities",
        "offset": 0,
        "slot": "19",
        "type": "t_mapping(t_address,t_uint256)"
      }
    ],
    "types": {
      "t_address": {
        "encoding": "inplace",
        "label": "address",
        "numberOfBytes": "20"
      },
      "t_array(t_address)dyn_storage": {
        "base": "t_address",
        "encoding": "dynamic_array",
        "label": "address[]",
        "numberOfBytes": "32"
      },
      "t_bool": {
        "encoding": "inplace",
        "label": "bool",
        "numberOfBytes": "1"
      },
      "t_mapping(t_address,t_mapping(t_address,t_uint256))": {
        "encoding": "mapping",
        "key": "t_address",
        "label": "mapping(address => mapping(address => uint256))",
        "numberOfBytes": "32",
        "value": "t_mapping(t_address,t_uint256)"
      },
      "t_mapping(t_address,t_struct(Asset)17762_storage)": {
        "encoding": "mapping",
        "key": "t_address",
        "label": "mapping(address => struct OneTokenV1Base.Asset)",
        "numberOfBytes": "32",
        "value": "t_struct(Asset)17762_storage"
      },
      "t_mapping(t_address,t_uint256)": {
        "encoding": "mapping",
        "key": "t_address",
        "label": "mapping(address => uint256)",
        "numberOfBytes": "32",
        "value": "t_uint256"
      },
      "t_string_storage": {
        "encoding": "bytes",
        "label": "string",
        "numberOfBytes": "32"
      },
      "t_struct(Asset)17762_storage": {
        "encoding": "inplace",
        "label": "struct OneTokenV1Base.Asset",
        "members": [
          {
            "astId": 17759,
            "contract": "contracts/version/v1/OneTokenV1.sol:OneTokenV1",
            "label": "oracle",
            "offset": 0,
            "slot": "0",
            "type": "t_address"
          },
          {
            "astId": 17761,
            "contract": "contracts/version/v1/OneTokenV1.sol:OneTokenV1",
            "label": "strategy",
            "offset": 0,
            "slot": "1",
            "type": "t_address"
          }
        ],
        "numberOfBytes": "64"
      },
      "t_struct(Set)8416_storage": {
        "encoding": "inplace",
        "label": "struct AddressSet.Set",
        "members": [
          {
            "astId": 8412,
            "contract": "contracts/version/v1/OneTokenV1.sol:OneTokenV1",
            "label": "keyPointers",
            "offset": 0,
            "slot": "0",
            "type": "t_mapping(t_address,t_uint256)"
          },
          {
            "astId": 8415,
            "contract": "contracts/version/v1/OneTokenV1.sol:OneTokenV1",
            "label": "keyList",
            "offset": 0,
            "slot": "1",
            "type": "t_array(t_address)dyn_storage"
          }
        ],
        "numberOfBytes": "64"
      },
      "t_uint256": {
        "encoding": "inplace",
        "label": "uint256",
        "numberOfBytes": "32"
      },
      "t_uint8": {
        "encoding": "inplace",
        "label": "uint8",
        "numberOfBytes": "1"
      }
    }
  }
}