{
  "address": "0xeC076098E753f4cD686baDa7C7Cc5e7239FCa053",
  "abi": [
    {
      "inputs": [
        {
          "internalType": "address",
          "name": "oneTokenFactory_",
          "type": "address"
        },
        {
          "internalType": "string",
          "name": "description_",
          "type": "string"
        },
        {
          "internalType": "address",
          "name": "indexToken_",
          "type": "address"
        }
      ],
      "stateMutability": "nonpayable",
      "type": "constructor"
    },
    {
      "anonymous": false,
      "inputs": [
        {
          "indexed": false,
          "internalType": "address",
          "name": "sender",
          "type": "address"
        }
      ],
      "name": "Deployed",
      "type": "event"
    },
    {
      "anonymous": false,
      "inputs": [
        {
          "indexed": false,
          "internalType": "address",
          "name": "sender",
          "type": "address"
        },
        {
          "indexed": false,
          "internalType": "string",
          "name": "description",
          "type": "string"
        }
      ],
      "name": "DescriptionUpdated",
      "type": "event"
    },
    {
      "anonymous": false,
      "inputs": [
        {
          "indexed": false,
          "internalType": "address",
          "name": "sender",
          "type": "address"
        },
        {
          "indexed": false,
          "internalType": "address",
          "name": "baseToken",
          "type": "address"
        },
        {
          "indexed": false,
          "internalType": "address",
          "name": "indexToken",
          "type": "address"
        }
      ],
      "name": "Initialized",
      "type": "event"
    },
    {
      "anonymous": false,
      "inputs": [
        {
          "indexed": false,
          "internalType": "address",
          "name": "sender",
          "type": "address"
        },
        {
          "indexed": false,
          "internalType": "enum InterfaceCommon.ModuleType",
          "name": "moduleType",
          "type": "uint8"
        },
        {
          "indexed": false,
          "internalType": "string",
          "name": "description",
          "type": "string"
        }
      ],
      "name": "ModuleDeployed",
      "type": "event"
    },
    {
      "anonymous": false,
      "inputs": [
        {
          "indexed": false,
          "internalType": "address",
          "name": "sender",
          "type": "address"
        },
        {
          "indexed": false,
          "internalType": "string",
          "name": "description",
          "type": "string"
        },
        {
          "indexed": false,
          "internalType": "address",
          "name": "indexToken",
          "type": "address"
        }
      ],
      "name": "OracleDeployed",
      "type": "event"
    },
    {
      "anonymous": false,
      "inputs": [
        {
          "indexed": false,
          "internalType": "address",
          "name": "sender",
          "type": "address"
        },
        {
          "indexed": false,
          "internalType": "address",
          "name": "baseToken",
          "type": "address"
        },
        {
          "indexed": false,
          "internalType": "address",
          "name": "indexToken",
          "type": "address"
        }
      ],
      "name": "OracleInitialized",
      "type": "event"
    },
    {
      "anonymous": false,
      "inputs": [
        {
          "indexed": true,
          "internalType": "address",
          "name": "previousOwner",
          "type": "address"
        },
        {
          "indexed": true,
          "internalType": "address",
          "name": "newOwner",
          "type": "address"
        }
      ],
      "name": "OwnershipTransferred",
      "type": "event"
    },
    {
      "anonymous": false,
      "inputs": [
        {
          "indexed": false,
          "internalType": "address",
          "name": "sender",
          "type": "address"
        }
      ],
      "name": "Updated",
      "type": "event"
    },
    {
      "inputs": [],
      "name": "MODULE_TYPE",
      "outputs": [
        {
          "internalType": "bytes32",
          "name": "",
          "type": "bytes32"
        }
      ],
      "stateMutability": "view",
      "type": "function"
    },
    {
      "inputs": [
        {
          "internalType": "address",
          "name": "",
          "type": "address"
        },
        {
          "internalType": "uint256",
          "name": "amountUsd",
          "type": "uint256"
        }
      ],
      "name": "amountRequired",
      "outputs": [
        {
          "internalType": "uint256",
          "name": "tokens",
          "type": "uint256"
        },
        {
          "internalType": "uint256",
          "name": "volatility",
          "type": "uint256"
        }
      ],
      "stateMutability": "view",
      "type": "function"
    },
    {
      "inputs": [],
      "name": "indexToken",
      "outputs": [
        {
          "internalType": "address",
          "name": "",
          "type": "address"
        }
      ],
      "stateMutability": "view",
      "type": "function"
    },
    {
      "inputs": [
        {
          "internalType": "address",
          "name": "",
          "type": "address"
        }
      ],
      "name": "init",
      "outputs": [],
      "stateMutability": "nonpayable",
      "type": "function"
    },
    {
      "inputs": [],
      "name": "moduleDescription",
      "outputs": [
        {
          "internalType": "string",
          "name": "",
          "type": "string"
        }
      ],
      "stateMutability": "view",
      "type": "function"
    },
    {
      "inputs": [],
      "name": "moduleType",
      "outputs": [
        {
          "internalType": "enum InterfaceCommon.ModuleType",
          "name": "",
          "type": "uint8"
        }
      ],
      "stateMutability": "view",
      "type": "function"
    },
    {
      "inputs": [
        {
          "internalType": "address",
          "name": "token",
          "type": "address"
        },
        {
          "internalType": "uint256",
          "name": "amountNormal",
          "type": "uint256"
        }
      ],
      "name": "normalizedToTokens",
      "outputs": [
        {
          "internalType": "uint256",
          "name": "amountTokens",
          "type": "uint256"
        }
      ],
      "stateMutability": "view",
      "type": "function"
    },
    {
      "inputs": [],
      "name": "oneTokenFactory",
      "outputs": [
        {
          "internalType": "address",
          "name": "",
          "type": "address"
        }
      ],
      "stateMutability": "view",
      "type": "function"
    },
    {
      "inputs": [],
      "name": "owner",
      "outputs": [
        {
          "internalType": "address",
          "name": "",
          "type": "address"
        }
      ],
      "stateMutability": "view",
      "type": "function"
    },
    {
      "inputs": [
        {
          "internalType": "address",
          "name": "",
          "type": "address"
        },
        {
          "internalType": "uint256",
          "name": "amount",
          "type": "uint256"
        }
      ],
      "name": "read",
      "outputs": [
        {
          "internalType": "uint256",
          "name": "amountOut",
          "type": "uint256"
        },
        {
          "internalType": "uint256",
          "name": "volatility",
          "type": "uint256"
        }
      ],
      "stateMutability": "view",
      "type": "function"
    },
    {
      "inputs": [],
      "name": "renounceOwnership",
      "outputs": [],
      "stateMutability": "nonpayable",
      "type": "function"
    },
    {
      "inputs": [
        {
          "internalType": "bool",
          "name": "_adjustUp",
          "type": "bool"
        }
      ],
      "name": "setAdjustUp",
      "outputs": [],
      "stateMutability": "nonpayable",
      "type": "function"
    },
    {
      "inputs": [
        {
          "internalType": "address",
          "name": "token",
          "type": "address"
        },
        {
          "internalType": "uint256",
          "name": "amountTokens",
          "type": "uint256"
        }
      ],
      "name": "tokensToNormalized",
      "outputs": [
        {
          "internalType": "uint256",
          "name": "amountNormal",
          "type": "uint256"
        }
      ],
      "stateMutability": "view",
      "type": "function"
    },
    {
      "inputs": [
        {
          "internalType": "address",
          "name": "newOwner",
          "type": "address"
        }
      ],
      "name": "transferOwnership",
      "outputs": [],
      "stateMutability": "nonpayable",
      "type": "function"
    },
    {
      "inputs": [
        {
          "internalType": "address",
          "name": "",
          "type": "address"
        }
      ],
      "name": "update",
      "outputs": [],
      "stateMutability": "nonpayable",
      "type": "function"
    },
    {
      "inputs": [
        {
          "internalType": "string",
          "name": "description",
          "type": "string"
        }
      ],
      "name": "updateDescription",
      "outputs": [],
      "stateMutability": "nonpayable",
      "type": "function"
    }
  ],
  "transactionHash": "0x8ac05e7458058fc3ccd831bf5724b55122ca2debe0b45b962102131b623dd2cc",
  "args": [
    "0x4F0bEe469535A40880cC03484aEF4f2512480257",
    "MemberToken Test Oracle",
    "0x9F9785b59361d8f61A617ee58d8E6F897b848E31"
  ],
  "solcInputHash": "1d178bc5fc8231e623680cb751793fbb",
  "bytecode": "0x60c06040523480156200001157600080fd5b506040516200127338038062001273833981810160405260608110156200003757600080fd5b8151602083018051604051929492938301929190846401000000008211156200005f57600080fd5b9083019060208201858111156200007557600080fd5b82516401000000008111828201881017156200009057600080fd5b82525081516020918201929091019080838360005b83811015620000bf578181015183820152602001620000a5565b50505050905090810190601f168015620000ed5780820380516001836020036101000a031916815260200191505b506040526020015191508390508282826004836200010b336200041a565b6001600160a01b038316620001525760405162461bcd60e51b8152600401808060200182810382526031815260200180620012426031913960400191505060405180910390fd5b6000815111620001945760405162461bcd60e51b815260040180806020018281038252602d815260200180620011c3602d913960400191505060405180910390fd5b6001600160601b0319606084901b1660a052816004811115620001b357fe5b6080816004811115620001c257fe5b60f81b9052508051620001dd906001906020840190620004bc565b507f2e09cb9dd254b20150f5e6b358e7aabf9802b241ddf84609686d8e4b0d2b96b833838360405180846001600160a01b031681526020018360048111156200022257fe5b815260200180602001828103825283818151815260200191508051906020019080838360005b838110156200026257818101518382015260200162000248565b50505050905090810190601f168015620002905780820380516001836020036101000a031916815260200191505b5094505050505060405180910390a15050506001600160a01b038116620002e95760405162461bcd60e51b81526004018080602001828103825260288152602001806200121a6028913960400191505060405180910390fd5b80600260006101000a8154816001600160a01b0302191690836001600160a01b031602179055507f5ca37c59f6b6cafb39fb44368a097af590e5e220c2a015addc4b11977c34766b33838360405180846001600160a01b0316815260200180602001836001600160a01b03168152602001828103825284818151815260200191508051906020019080838360005b838110156200039157818101518382015260200162000377565b50505050905090810190601f168015620003bf5780820380516001836020036101000a031916815260200191505b5094505050505060405180910390a150506002805460ff60a01b19169055506040805133815290517ff40fcec21964ffb566044d083b4073f29f7f7929110ea19e1b3ebe375d89055e9181900360200190a150505062000568565b6001600160a01b038116620004615760405162461bcd60e51b815260040180806020018281038252602a815260200180620011f0602a913960400191505060405180910390fd5b600080546040516001600160a01b03808516939216917f8be0079c531659141344cd1fd0a4f28419497f9722a3daafe3b4186f6b6457e091a3600080546001600160a01b0319166001600160a01b0392909216919091179055565b828054600181600116156101000203166002900490600052602060002090601f016020900481019282620004f457600085556200053f565b82601f106200050f57805160ff19168380011785556200053f565b828001600101855582156200053f579182015b828111156200053f57825182559160200191906001019062000522565b506200054d92915062000551565b5090565b5b808211156200054d576000815560010162000552565b60805160f81c60a05160601c610c31620005926000398061069e5250806105c35250610c316000f3fe608060405234801561001057600080fd5b50600436106101005760003560e01c8063715018a611610097578063b7b8bae411610066578063b7b8bae414610303578063e735b48a1461032f578063e7d015f2146103d5578063f2fde38b146103dd57610100565b8063715018a6146102525780638da5cb5b1461025a578063a2729c231461027e578063b5966db81461028657610100565b80634273c2e4116100d35780634273c2e4146101d65780634d161865146101f55780635775029f146102215780636465e69f1461022957610100565b8063014c2add1461010557806319ab453c1461014a5780631c1b87721461017257806327d3cb4114610198575b600080fd5b6101316004803603604081101561011b57600080fd5b506001600160a01b038135169060200135610403565b6040805192835260208301919091528051918290030190f35b6101706004803603602081101561016057600080fd5b50356001600160a01b0316610442565b005b6101706004803603602081101561018857600080fd5b50356001600160a01b0316610445565b6101c4600480360360408110156101ae57600080fd5b506001600160a01b03813516906020013561047b565b60408051918252519081900360200190f35b610170600480360360208110156101ec57600080fd5b50351515610552565b6101316004803603604081101561020b57600080fd5b506001600160a01b038135169060200135610570565b6101c4610577565b6102316105c1565b6040518082600481111561024157fe5b815260200191505060405180910390f35b6101706105e5565b61026261068d565b604080516001600160a01b039092168252519081900360200190f35b61026261069c565b61028e6106c0565b6040805160208082528351818301528351919283929083019185019080838360005b838110156102c85781810151838201526020016102b0565b50505050905090810190601f1680156102f55780820380516001836020036101000a031916815260200191505b509250505060405180910390f35b6101c46004803603604081101561031957600080fd5b506001600160a01b03813516906020013561074d565b6101706004803603602081101561034557600080fd5b81019060208101813564010000000081111561036057600080fd5b82018360208201111561037257600080fd5b8035906020019184600183028401116401000000008311171561039457600080fd5b91908080601f01602080910402602001604051908101604052809392919081815260200183838082843760009201919091525092955061082b945050505050565b61026261098a565b610170600480360360208110156103f357600080fd5b50356001600160a01b0316610999565b6002546000908190600160a01b900460ff161561042b578266470de4df820000019150610438565b66470de4df820000830391505b5092600192509050565b50565b6040805133815290517fe00da2178806f37f69815e9ed5ed3072ec1d55206d60916d99b469c7daa421e49181900360200190a150565b6000808390506000816001600160a01b031663313ce5676040518163ffffffff1660e01b815260040160206040518083038186803b1580156104bc57600080fd5b505afa1580156104d0573d6000803e3d6000fd5b505050506040513d60208110156104e657600080fd5b505160ff169050601281111561052d5760405162461bcd60e51b815260040180806020018281038252603b815260200180610b97603b913960400191505060405180910390fd5b601281141561054057839250505061054c565b601203600a0a83029150505b92915050565b60028054911515600160a01b0260ff60a01b19909216919091179055565b9160019150565b60405160200180807f49434849205631204f7261636c6520496d706c656d656e746174696f6e000000815250601d0190506040516020818303038152906040528051906020012081565b7f000000000000000000000000000000000000000000000000000000000000000081565b6105ed610a00565b6001600160a01b03166105fe61068d565b6001600160a01b0316146106435760405162461bcd60e51b8152600401808060200182810382526024815260200180610b736024913960400191505060405180910390fd5b600080546040516001600160a01b03909116907f8be0079c531659141344cd1fd0a4f28419497f9722a3daafe3b4186f6b6457e0908390a3600080546001600160a01b0319169055565b6000546001600160a01b031690565b7f000000000000000000000000000000000000000000000000000000000000000081565b60018054604080516020600284861615610100026000190190941693909304601f810184900484028201840190925281815292918301828280156107455780601f1061071a57610100808354040283529160200191610745565b820191906000526020600020905b81548152906001019060200180831161072857829003601f168201915b505050505081565b6000808390506000816001600160a01b031663313ce5676040518163ffffffff1660e01b815260040160206040518083038186803b15801561078e57600080fd5b505afa1580156107a2573d6000803e3d6000fd5b505050506040513d60208110156107b857600080fd5b505160ff16905060128111156107ff5760405162461bcd60e51b815260040180806020018281038252603b815260200180610b97603b913960400191505060405180910390fd5b601281141561081257839250505061054c565b80601203600a0a848161082157fe5b0495945050505050565b610833610a00565b6001600160a01b031661084461068d565b6001600160a01b0316146108895760405162461bcd60e51b8152600401808060200182810382526024815260200180610b736024913960400191505060405180910390fd5b60008151116108c95760405162461bcd60e51b815260040180806020018281038252602d815260200180610b46602d913960400191505060405180910390fd5b80516108dc906001906020840190610aa4565b507f37cc8c6ced0cbc4d440fcfa810a2f09f40b8f0127c3656103edf26b3d93e0ec1338260405180836001600160a01b0316815260200180602001828103825283818151815260200191508051906020019080838360005b8381101561094c578181015183820152602001610934565b50505050905090810190601f1680156109795780820380516001836020036101000a031916815260200191505b50935050505060405180910390a150565b6002546001600160a01b031681565b6109a1610a00565b6001600160a01b03166109b261068d565b6001600160a01b0316146109f75760405162461bcd60e51b8152600401808060200182810382526024815260200180610b736024913960400191505060405180910390fd5b61044281610a04565b3390565b6001600160a01b038116610a495760405162461bcd60e51b815260040180806020018281038252602a815260200180610bd2602a913960400191505060405180910390fd5b600080546040516001600160a01b03808516939216917f8be0079c531659141344cd1fd0a4f28419497f9722a3daafe3b4186f6b6457e091a3600080546001600160a01b0319166001600160a01b0392909216919091179055565b828054600181600116156101000203166002900490600052602060002090601f016020900481019282610ada5760008555610b20565b82601f10610af357805160ff1916838001178555610b20565b82800160010185558215610b20579182015b82811115610b20578251825591602001919060010190610b05565b50610b2c929150610b30565b5090565b5b80821115610b2c5760008155600101610b3156fe494348494d6f64756c65436f6d6d6f6e3a206465736372697074696f6e2063616e6e6f7420626520656d707479494348494f776e61626c653a2063616c6c6572206973206e6f7420746865206f776e65724f7261636c65436f6d6d6f6e3a20756e737570706f7274656420746f6b656e20707265636973696f6e202867726561746572207468616e20313829494348494f776e61626c653a206e6577206f776e657220697320746865207a65726f2061646472657373a26469706673582212205575563e11952333fe68830e99c9b5136d5df9bfb3dccbaedf8c00919865a97964736f6c63430007060033494348494d6f64756c65436f6d6d6f6e3a206465736372697074696f6e2063616e6e6f7420626520656d707479494348494f776e61626c653a206e6577206f776e657220697320746865207a65726f20616464726573734f7261636c65436f6d6d6f6e3a20696e646578546f6b656e2063616e6e6f7420626520656d707479494348494d6f64756c65436f6d6d6f6e3a206f6e65546f6b656e466163746f72792063616e6e6f7420626520656d707479",
  "devdoc": {
    "kind": "dev",
    "methods": {
      "amountRequired(address,uint256)": {
        "details": "token:usdToken is always 1:1 and valatility is always 0"
      },
      "init(address)": {
        "details": "there is nothing to do in this case"
      },
      "normalizedToTokens(address,uint256)": {
        "params": {
          "amountNormal": "quantity in precision-18",
          "amountTokens": "quantity scaled to token decimals()",
          "token": "ERC20 token contract"
        }
      },
      "owner()": {
        "details": "Returns the address of the current owner."
      },
      "read(address,uint256)": {
        "details": "token:usdToken is always 1:1 and valatility is always 0"
      },
      "renounceOwnership()": {
        "details": "Leaves the contract without owner. It will not be possible to call `onlyOwner` functions anymore. Can only be called by the current owner. NOTE: Renouncing ownership will leave the contract without an owner, thereby removing any functionality that is only available to the owner."
      },
      "tokensToNormalized(address,uint256)": {
        "params": {
          "amountNormal": "quantity in precision-18",
          "amountTokens": "quantity scaled to token decimals",
          "token": "ERC20 token contract"
        }
      },
      "transferOwnership(address)": {
        "details": "Transfers ownership of the contract to a new account (`newOwner`). Can only be called by the current owner."
      },
      "update(address)": {
        "details": "there is nothing to do in this case"
      },
      "updateDescription(string)": {
        "params": {
          "description": "new module desciption"
        }
      }
    },
    "stateVariables": {
      "adjustUp": {
        "details": "should the oracle get off center up or down"
      }
    },
    "version": 1
  },
  "userdoc": {
    "kind": "user",
    "methods": {
      "amountRequired(address,uint256)": {
        "notice": "returns the tokens needed to reach a target usd value"
      },
      "init(address)": {
        "notice": "intialization is called when a oneToken appoints an Oracle"
      },
      "normalizedToTokens(address,uint256)": {
        "notice": "converts normalized precision 18 amounts to token native precision amounts, truncates low-order values"
      },
      "read(address,uint256)": {
        "notice": "returns equivalent amount of index tokens for an amount of baseTokens and volatility metric"
      },
      "setAdjustUp(bool)": {
        "notice": "update is adjust up/down flag"
      },
      "tokensToNormalized(address,uint256)": {
        "notice": "converts token native precision amounts to normalized precision 18 amounts"
      },
      "update(address)": {
        "notice": "update is called when a oneToken wants to persist observations"
      },
      "updateDescription(string)": {
        "notice": "set a module description"
      }
    },
    "notice": "Separate ownable instances can be managed by separate governing authorities. Immutable windowSize and granularity changes require a new oracle contract. ",
    "version": 1
  },
  "storageLayout": {
    "storage": [
      {
        "astId": 14596,
        "contract": "contracts/testToken/TestOracle.sol:TestOracle",
        "label": "_owner",
        "offset": 0,
        "slot": "0",
        "type": "t_address"
      },
      {
        "astId": 14520,
        "contract": "contracts/testToken/TestOracle.sol:TestOracle",
        "label": "_initialized",
        "offset": 20,
        "slot": "0",
        "type": "t_bool"
      },
      {
        "astId": 14522,
        "contract": "contracts/testToken/TestOracle.sol:TestOracle",
        "label": "_initializing",
        "offset": 21,
        "slot": "0",
        "type": "t_bool"
      },
      {
        "astId": 7373,
        "contract": "contracts/testToken/TestOracle.sol:TestOracle",
        "label": "moduleDescription",
        "offset": 0,
        "slot": "1",
        "type": "t_string_storage"
      },
      {
        "astId": 9602,
        "contract": "contracts/testToken/TestOracle.sol:TestOracle",
        "label": "indexToken",
        "offset": 0,
        "slot": "2",
        "type": "t_address"
      },
      {
        "astId": 16793,
        "contract": "contracts/testToken/TestOracle.sol:TestOracle",
        "label": "adjustUp",
        "offset": 20,
        "slot": "2",
        "type": "t_bool"
      }
    ],
    "types": {
      "t_address": {
        "encoding": "inplace",
        "label": "address",
        "numberOfBytes": "20"
      },
      "t_bool": {
        "encoding": "inplace",
        "label": "bool",
        "numberOfBytes": "1"
      },
      "t_string_storage": {
        "encoding": "bytes",
        "label": "string",
        "numberOfBytes": "32"
      }
    }
  }
}