{
  "address": "0x435B65196f302b04bAabcc1E5f07CA1192736771",
  "abi": [
    {
      "inputs": [
        {
          "internalType": "address",
          "name": "oneTokenFactory_",
          "type": "address"
        },
        {
          "internalType": "address",
          "name": "oneToken_",
          "type": "address"
        },
        {
          "internalType": "string",
          "name": "description_",
          "type": "string"
        }
      ],
      "stateMutability": "nonpayable",
      "type": "constructor"
    },
    {
      "anonymous": false,
      "inputs": [
        {
          "indexed": false,
          "internalType": "address",
          "name": "sender",
          "type": "address"
        },
        {
          "indexed": false,
          "internalType": "string",
          "name": "description",
          "type": "string"
        }
      ],
      "name": "DescriptionUpdated",
      "type": "event"
    },
    {
      "anonymous": false,
      "inputs": [
        {
          "indexed": true,
          "internalType": "address",
          "name": "sender",
          "type": "address"
        },
        {
          "indexed": true,
          "internalType": "address",
          "name": "token",
          "type": "address"
        },
        {
          "indexed": false,
          "internalType": "uint256",
          "name": "amount",
          "type": "uint256"
        }
      ],
      "name": "FromVault",
      "type": "event"
    },
    {
      "anonymous": false,
      "inputs": [
        {
          "indexed": false,
          "internalType": "address",
          "name": "sender",
          "type": "address"
        },
        {
          "indexed": false,
          "internalType": "enum InterfaceCommon.ModuleType",
          "name": "moduleType",
          "type": "uint8"
        },
        {
          "indexed": false,
          "internalType": "string",
          "name": "description",
          "type": "string"
        }
      ],
      "name": "ModuleDeployed",
      "type": "event"
    },
    {
      "anonymous": false,
      "inputs": [
        {
          "indexed": true,
          "internalType": "address",
          "name": "previousOwner",
          "type": "address"
        },
        {
          "indexed": true,
          "internalType": "address",
          "name": "newOwner",
          "type": "address"
        }
      ],
      "name": "OwnershipTransferred",
      "type": "event"
    },
    {
      "anonymous": false,
      "inputs": [
        {
          "indexed": false,
          "internalType": "address",
          "name": "sender",
          "type": "address"
        },
        {
          "indexed": false,
          "internalType": "address",
          "name": "oneTokenFactory",
          "type": "address"
        },
        {
          "indexed": false,
          "internalType": "address",
          "name": "oneToken_",
          "type": "address"
        },
        {
          "indexed": false,
          "internalType": "string",
          "name": "description",
          "type": "string"
        }
      ],
      "name": "StrategyDeployed",
      "type": "event"
    },
    {
      "anonymous": false,
      "inputs": [
        {
          "indexed": true,
          "internalType": "address",
          "name": "sender",
          "type": "address"
        },
        {
          "indexed": true,
          "internalType": "address",
          "name": "token",
          "type": "address"
        }
      ],
      "name": "StrategyExecuted",
      "type": "event"
    },
    {
      "anonymous": false,
      "inputs": [
        {
          "indexed": false,
          "internalType": "address",
          "name": "sender",
          "type": "address"
        }
      ],
      "name": "StrategyInitialized",
      "type": "event"
    },
    {
      "anonymous": false,
      "inputs": [
        {
          "indexed": true,
          "internalType": "address",
          "name": "sender",
          "type": "address"
        },
        {
          "indexed": true,
          "internalType": "address",
          "name": "token",
          "type": "address"
        },
        {
          "indexed": false,
          "internalType": "uint256",
          "name": "amount",
          "type": "uint256"
        }
      ],
      "name": "ToVault",
      "type": "event"
    },
    {
      "anonymous": false,
      "inputs": [
        {
          "indexed": true,
          "internalType": "address",
          "name": "sender",
          "type": "address"
        },
        {
          "indexed": true,
          "internalType": "address",
          "name": "token",
          "type": "address"
        },
        {
          "indexed": false,
          "internalType": "uint256",
          "name": "amount",
          "type": "uint256"
        }
      ],
      "name": "VaultAllowance",
      "type": "event"
    },
    {
      "inputs": [],
      "name": "MODULE_TYPE",
      "outputs": [
        {
          "internalType": "bytes32",
          "name": "",
          "type": "bytes32"
        }
      ],
      "stateMutability": "view",
      "type": "function"
    },
    {
      "inputs": [],
      "name": "closeAllPositions",
      "outputs": [
        {
          "internalType": "bool",
          "name": "success",
          "type": "bool"
        }
      ],
      "stateMutability": "nonpayable",
      "type": "function"
    },
    {
      "inputs": [
        {
          "internalType": "address",
          "name": "token",
          "type": "address"
        }
      ],
      "name": "closePositions",
      "outputs": [
        {
          "internalType": "bool",
          "name": "success",
          "type": "bool"
        }
      ],
      "stateMutability": "nonpayable",
      "type": "function"
    },
    {
      "inputs": [],
      "name": "execute",
      "outputs": [],
      "stateMutability": "nonpayable",
      "type": "function"
    },
    {
      "inputs": [
        {
          "internalType": "address",
          "name": "target",
          "type": "address"
        },
        {
          "internalType": "uint256",
          "name": "value",
          "type": "uint256"
        },
        {
          "internalType": "string",
          "name": "signature",
          "type": "string"
        },
        {
          "internalType": "bytes",
          "name": "data",
          "type": "bytes"
        }
      ],
      "name": "executeTransaction",
      "outputs": [
        {
          "internalType": "bytes",
          "name": "",
          "type": "bytes"
        }
      ],
      "stateMutability": "nonpayable",
      "type": "function"
    },
    {
      "inputs": [
        {
          "internalType": "address",
          "name": "token",
          "type": "address"
        },
        {
          "internalType": "uint256",
          "name": "amount",
          "type": "uint256"
        }
      ],
      "name": "fromVault",
      "outputs": [],
      "stateMutability": "nonpayable",
      "type": "function"
    },
    {
      "inputs": [],
      "name": "init",
      "outputs": [],
      "stateMutability": "nonpayable",
      "type": "function"
    },
    {
      "inputs": [],
      "name": "moduleDescription",
      "outputs": [
        {
          "internalType": "string",
          "name": "",
          "type": "string"
        }
      ],
      "stateMutability": "view",
      "type": "function"
    },
    {
      "inputs": [],
      "name": "moduleType",
      "outputs": [
        {
          "internalType": "enum InterfaceCommon.ModuleType",
          "name": "",
          "type": "uint8"
        }
      ],
      "stateMutability": "view",
      "type": "function"
    },
    {
      "inputs": [
        {
          "internalType": "address",
          "name": "",
          "type": "address"
        },
        {
          "internalType": "address",
          "name": "",
          "type": "address"
        },
        {
          "internalType": "uint256[]",
          "name": "",
          "type": "uint256[]"
        },
        {
          "internalType": "uint256[]",
          "name": "",
          "type": "uint256[]"
        },
        {
          "internalType": "bytes",
          "name": "",
          "type": "bytes"
        }
      ],
      "name": "onERC1155BatchReceived",
      "outputs": [
        {
          "internalType": "bytes4",
          "name": "",
          "type": "bytes4"
        }
      ],
      "stateMutability": "pure",
      "type": "function"
    },
    {
      "inputs": [
        {
          "internalType": "address",
          "name": "",
          "type": "address"
        },
        {
          "internalType": "address",
          "name": "",
          "type": "address"
        },
        {
          "internalType": "uint256",
          "name": "",
          "type": "uint256"
        },
        {
          "internalType": "uint256",
          "name": "",
          "type": "uint256"
        },
        {
          "internalType": "bytes",
          "name": "",
          "type": "bytes"
        }
      ],
      "name": "onERC1155Received",
      "outputs": [
        {
          "internalType": "bytes4",
          "name": "",
          "type": "bytes4"
        }
      ],
      "stateMutability": "pure",
      "type": "function"
    },
    {
      "inputs": [
        {
          "internalType": "address",
          "name": "",
          "type": "address"
        },
        {
          "internalType": "address",
          "name": "",
          "type": "address"
        },
        {
          "internalType": "uint256",
          "name": "",
          "type": "uint256"
        },
        {
          "internalType": "bytes",
          "name": "",
          "type": "bytes"
        }
      ],
      "name": "onERC721Received",
      "outputs": [
        {
          "internalType": "bytes4",
          "name": "",
          "type": "bytes4"
        }
      ],
      "stateMutability": "pure",
      "type": "function"
    },
    {
      "inputs": [],
      "name": "oneToken",
      "outputs": [
        {
          "internalType": "address",
          "name": "",
          "type": "address"
        }
      ],
      "stateMutability": "view",
      "type": "function"
    },
    {
      "inputs": [],
      "name": "oneTokenFactory",
      "outputs": [
        {
          "internalType": "address",
          "name": "",
          "type": "address"
        }
      ],
      "stateMutability": "view",
      "type": "function"
    },
    {
      "inputs": [],
      "name": "owner",
      "outputs": [
        {
          "internalType": "address",
          "name": "",
          "type": "address"
        }
      ],
      "stateMutability": "view",
      "type": "function"
    },
    {
      "inputs": [],
      "name": "renounceOwnership",
      "outputs": [],
      "stateMutability": "nonpayable",
      "type": "function"
    },
    {
      "inputs": [
        {
          "internalType": "address",
          "name": "token",
          "type": "address"
        },
        {
          "internalType": "uint256",
          "name": "amount",
          "type": "uint256"
        }
      ],
      "name": "setAllowance",
      "outputs": [],
      "stateMutability": "nonpayable",
      "type": "function"
    },
    {
      "inputs": [
        {
          "internalType": "bytes4",
          "name": "interfaceId",
          "type": "bytes4"
        }
      ],
      "name": "supportsInterface",
      "outputs": [
        {
          "internalType": "bool",
          "name": "",
          "type": "bool"
        }
      ],
      "stateMutability": "view",
      "type": "function"
    },
    {
      "inputs": [
        {
          "internalType": "address",
          "name": "token",
          "type": "address"
        },
        {
          "internalType": "uint256",
          "name": "amount",
          "type": "uint256"
        }
      ],
      "name": "toVault",
      "outputs": [],
      "stateMutability": "nonpayable",
      "type": "function"
    },
    {
      "inputs": [
        {
          "internalType": "address",
          "name": "newOwner",
          "type": "address"
        }
      ],
      "name": "transferOwnership",
      "outputs": [],
      "stateMutability": "nonpayable",
      "type": "function"
    },
    {
      "inputs": [
        {
          "internalType": "string",
          "name": "description",
          "type": "string"
        }
      ],
      "name": "updateDescription",
      "outputs": [],
      "stateMutability": "nonpayable",
      "type": "function"
    }
  ],
  "transactionHash": "0x6b14614eca2ee9a4e9b8185d4b46ac9d77f82a763ac202d4abe9e3781a6536de",
  "args": [
    "0xD0092632B9Ac5A7856664eeC1abb6E3403a6A36a",
    "0xEc4325F0518584F0774b483c215F65474EAbD27F",
    "Treasury Strategy - oneBTC"
  ],
  "solcInputHash": "95d613bbff9f152302d2e7b54b873712",
  "bytecode": "0x60c06040523480156200001157600080fd5b506040516200293938038062002939833981810160405260608110156200003757600080fd5b815160208301516040808501805191519395929483019291846401000000008211156200006357600080fd5b9083019060208201858111156200007957600080fd5b82516401000000008111828201881017156200009457600080fd5b82525081516020918201929091019080838360005b83811015620000c3578181015183820152602001620000a9565b50505050905090810190601f168015620000f15780820380516001836020036101000a031916815260200191505b506040525050508282828260028262000110336200050e60201b60201c565b6001600160a01b038316620001575760405162461bcd60e51b8152600401808060200182810382526031815260200180620029086031913960400191505060405180910390fd5b6000815111620001995760405162461bcd60e51b815260040180806020018281038252602d81526020018062002867602d913960400191505060405180910390fd5b6001600160601b0319606084901b1660a052816004811115620001b857fe5b6080816004811115620001c757fe5b60f81b9052508051620001e2906001906020840190620005b0565b507f2e09cb9dd254b20150f5e6b358e7aabf9802b241ddf84609686d8e4b0d2b96b833838360405180846001600160a01b031681526020018360048111156200022757fe5b815260200180602001828103825283818151815260200191508051906020019080838360005b83811015620002675781810151838201526020016200024d565b50505050905090810190601f168015620002955780820380516001836020036101000a031916815260200191505b5094505050505060405180910390a15050506001600160a01b038216620002ee5760405162461bcd60e51b8152600401808060200182810382526027815260200180620028b76027913960400191505060405180910390fd5b816001600160a01b031663a2729c236040518163ffffffff1660e01b815260040160206040518083038186803b1580156200032857600080fd5b505afa1580156200033d573d6000803e3d6000fd5b505050506040513d60208110156200035457600080fd5b5051604080516309de917f60e31b81526001600160a01b03858116600483015291519190921691634ef48bf8916024808301926020929190829003018186803b158015620003a157600080fd5b505afa158015620003b6573d6000803e3d6000fd5b505050506040513d6020811015620003cd57600080fd5b50516200040c5760405162461bcd60e51b8152600401808060200182810382526023815260200180620028946023913960400191505060405180910390fd5b81600260006101000a8154816001600160a01b0302191690836001600160a01b031602179055507fd5ec92c8409c5f8b1fe56ba531c98dd4d78981b4ab6cb79f702d9218fceb72c13384848460405180856001600160a01b03168152602001846001600160a01b03168152602001836001600160a01b0316815260200180602001828103825283818151815260200191508051906020019080838360005b83811015620004c4578181015183820152602001620004aa565b50505050905090810190601f168015620004f25780820380516001836020036101000a031916815260200191505b509550505050505060405180910390a15050505050506200065c565b6001600160a01b038116620005555760405162461bcd60e51b815260040180806020018281038252602a815260200180620028de602a913960400191505060405180910390fd5b600080546040516001600160a01b03808516939216917f8be0079c531659141344cd1fd0a4f28419497f9722a3daafe3b4186f6b6457e091a3600080546001600160a01b0319166001600160a01b0392909216919091179055565b828054600181600116156101000203166002900490600052602060002090601f016020900481019282620005e8576000855562000633565b82601f106200060357805160ff191683800117855562000633565b8280016001018555821562000633579182015b828111156200063357825182559160200191906001019062000616565b506200064192915062000645565b5090565b5b8082111562000641576000815560010162000646565b60805160f81c60a05160601c6121e1620006866000398061136752508061112152506121e16000f3fe608060405234801561001057600080fd5b50600436106101375760003560e01c80638da5cb5b116100b8578063bc197c811161007c578063bc197c8114610522578063caa6241f14610649578063e1c7392a14610675578063e735b48a1461067d578063f23a6e6114610721578063f2fde38b146107b457610137565b80638da5cb5b146104de578063910ed6ec14610502578063a2729c231461050a578063a27eccc114610512578063b5966db81461051a57610137565b80635775029f116100ff5780635775029f146104655780635937caf01461047f57806361461954146104a55780636465e69f146104ad578063715018a6146104d657610137565b806301ffc9a71461013c578063150b7a02146101775780632224fa2514610258578063310ec4a71461040b5780634e68897e14610439575b600080fd5b6101636004803603602081101561015257600080fd5b50356001600160e01b0319166107da565b604080519115158252519081900360200190f35b61023b6004803603608081101561018d57600080fd5b6001600160a01b03823581169260208101359091169160408201359190810190608081016060820135600160201b8111156101c757600080fd5b8201836020820111156101d957600080fd5b803590602001918460018302840111600160201b831117156101fa57600080fd5b91908080601f01602080910402602001604051908101604052809392919081815260200183838082843760009201919091525092955061082c945050505050565b604080516001600160e01b03199092168252519081900360200190f35b6103966004803603608081101561026e57600080fd5b6001600160a01b0382351691602081013591810190606081016040820135600160201b81111561029d57600080fd5b8201836020820111156102af57600080fd5b803590602001918460018302840111600160201b831117156102d057600080fd5b91908080601f0160208091040260200160405190810160405280939291908181526020018383808284376000920191909152509295949360208101935035915050600160201b81111561032257600080fd5b82018360208201111561033457600080fd5b803590602001918460018302840111600160201b8311171561035557600080fd5b91908080601f016020809104026020016040519081016040528093929190818152602001838380828437600092019190915250929550610855945050505050565b6040805160208082528351818301528351919283929083019185019080838360005b838110156103d05781810151838201526020016103b8565b50505050905090810190601f1680156103fd5780820380516001836020036101000a031916815260200191505b509250505060405180910390f35b6104376004803603604081101561042157600080fd5b506001600160a01b038135169060200135610a3c565b005b6104376004803603604081101561044f57600080fd5b506001600160a01b038135169060200135610c1a565b61046d610d83565b60408051918252519081900360200190f35b6101636004803603602081101561049557600080fd5b50356001600160a01b0316610dcd565b610437610fc2565b6104b561111f565b604051808260048111156104c557fe5b815260200191505060405180910390f35b610437611143565b6104e66111eb565b604080516001600160a01b039092168252519081900360200190f35b6101636111fa565b6104e6611365565b6104e6611389565b610396611398565b61023b600480360360a081101561053857600080fd5b6001600160a01b038235811692602081013590911691810190606081016040820135600160201b81111561056b57600080fd5b82018360208201111561057d57600080fd5b803590602001918460208302840111600160201b8311171561059e57600080fd5b919390929091602081019035600160201b8111156105bb57600080fd5b8201836020820111156105cd57600080fd5b803590602001918460208302840111600160201b831117156105ee57600080fd5b919390929091602081019035600160201b81111561060b57600080fd5b82018360208201111561061d57600080fd5b803590602001918460018302840111600160201b8311171561063e57600080fd5b509092509050611425565b6104376004803603604081101561065f57600080fd5b506001600160a01b038135169060200135611452565b6104376115b7565b6104376004803603602081101561069357600080fd5b810190602081018135600160201b8111156106ad57600080fd5b8201836020820111156106bf57600080fd5b803590602001918460018302840111600160201b831117156106e057600080fd5b91908080601f016020809104026020016040519081016040528093929190818152602001838380828437600092019190915250929550611672945050505050565b61023b600480360360a081101561073757600080fd5b6001600160a01b03823581169260208101359091169160408201359160608101359181019060a081016080820135600160201b81111561077657600080fd5b82018360208201111561078857600080fd5b803590602001918460018302840111600160201b831117156107a957600080fd5b5090925090506117d1565b610437600480360360208110156107ca57600080fd5b50356001600160a01b03166117fc565b60006001600160e01b03198216630271189760e51b148061080b57506001600160e01b031982166301ffc9a760e01b145b8061082657506001600160e01b03198216630a85bd0160e11b145b92915050565b7f150b7a023d4804d13e8c85fb27262cb750cf6ba9f9dd3bb30d90f482ceeb4b1f949350505050565b606061085f611866565b6001600160a01b03166108706111eb565b6001600160a01b0316146108b55760405162461bcd60e51b81526004018080602001828103825260248152602001806120606024913960400191505060405180910390fd5b60608351600014156108c857508161094b565b83805190602001208360405160200180836001600160e01b031916815260040182805190602001908083835b602083106109135780518252601f1990920191602091820191016108f4565b6001836020036101000a0380198251168184511680821785525050505050509050019250505060405160208183030381529060405290505b600080876001600160a01b031687846040518082805190602001908083835b602083106109895780518252601f19909201916020918201910161096a565b6001836020036101000a03801982511681845116808217855250505050505090500191505060006040518083038185875af1925050503d80600081146109eb576040519150601f19603f3d011682016040523d82523d6000602084013e6109f0565b606091505b509150915081610a315760405162461bcd60e51b815260040180806020018281038252603f8152602001806120dc603f913960400191505060405180910390fd5b979650505050505050565b6002546001600160a01b03163314610b9757600260009054906101000a90046001600160a01b03166001600160a01b031663f77c47916040518163ffffffff1660e01b815260040160206040518083038186803b158015610a9c57600080fd5b505afa158015610ab0573d6000803e3d6000fd5b505050506040513d6020811015610ac657600080fd5b50516001600160a01b03163314610b9757600260009054906101000a90046001600160a01b03166001600160a01b0316638da5cb5b6040518163ffffffff1660e01b815260040160206040518083038186803b158015610b2557600080fd5b505afa158015610b39573d6000803e3d6000fd5b505050506040513d6020811015610b4f57600080fd5b50516001600160a01b03163314610b975760405162461bcd60e51b815260040180806020018281038252602e8152602001806120ae602e913960400191505060405180910390fd5b80610ba157506000195b600254610bbc906001600160a01b038481169116600061186a565b600254610bd6906001600160a01b0384811691168361186a565b6040805182815290516001600160a01b0384169133917f667b90566f78a7a406a133b1a8b9e1a3c9c0bef9a7e394b89ed9e0bd4fb0369f9181900360200190a35050565b6002546001600160a01b03163314610d7557600260009054906101000a90046001600160a01b03166001600160a01b031663f77c47916040518163ffffffff1660e01b815260040160206040518083038186803b158015610c7a57600080fd5b505afa158015610c8e573d6000803e3d6000fd5b505050506040513d6020811015610ca457600080fd5b50516001600160a01b03163314610d7557600260009054906101000a90046001600160a01b03166001600160a01b0316638da5cb5b6040518163ffffffff1660e01b815260040160206040518083038186803b158015610d0357600080fd5b505afa158015610d17573d6000803e3d6000fd5b505050506040513d6020811015610d2d57600080fd5b50516001600160a01b03163314610d755760405162461bcd60e51b815260040180806020018281038252602e8152602001806120ae602e913960400191505060405180910390fd5b610d7f8282611982565b5050565b60405160200180807f4943484920563120537472617465677920496d706c656d656e746174696f6e00815250601f0190506040516020818303038152906040528051906020012081565b6002546000906001600160a01b03163314610f2b57600260009054906101000a90046001600160a01b03166001600160a01b031663f77c47916040518163ffffffff1660e01b815260040160206040518083038186803b158015610e3057600080fd5b505afa158015610e44573d6000803e3d6000fd5b505050506040513d6020811015610e5a57600080fd5b50516001600160a01b03163314610f2b57600260009054906101000a90046001600160a01b03166001600160a01b0316638da5cb5b6040518163ffffffff1660e01b815260040160206040518083038186803b158015610eb957600080fd5b505afa158015610ecd573d6000803e3d6000fd5b505050506040513d6020811015610ee357600080fd5b50516001600160a01b03163314610f2b5760405162461bcd60e51b815260040180806020018281038252602e8152602001806120ae602e913960400191505060405180910390fd5b600190506000826001600160a01b03166370a08231306040518263ffffffff1660e01b815260040180826001600160a01b0316815260200191505060206040518083038186803b158015610f7e57600080fd5b505afa158015610f92573d6000803e3d6000fd5b505050506040513d6020811015610fa857600080fd5b505190508015610fbc57610fbc8382611982565b50919050565b6002546001600160a01b0316331461111d57600260009054906101000a90046001600160a01b03166001600160a01b031663f77c47916040518163ffffffff1660e01b815260040160206040518083038186803b15801561102257600080fd5b505afa158015611036573d6000803e3d6000fd5b505050506040513d602081101561104c57600080fd5b50516001600160a01b0316331461111d57600260009054906101000a90046001600160a01b03166001600160a01b0316638da5cb5b6040518163ffffffff1660e01b815260040160206040518083038186803b1580156110ab57600080fd5b505afa1580156110bf573d6000803e3d6000fd5b505050506040513d60208110156110d557600080fd5b50516001600160a01b0316331461111d5760405162461bcd60e51b815260040180806020018281038252602e8152602001806120ae602e913960400191505060405180910390fd5b565b7f000000000000000000000000000000000000000000000000000000000000000081565b61114b611866565b6001600160a01b031661115c6111eb565b6001600160a01b0316146111a15760405162461bcd60e51b81526004018080602001828103825260248152602001806120606024913960400191505060405180910390fd5b600080546040516001600160a01b03909116907f8be0079c531659141344cd1fd0a4f28419497f9722a3daafe3b4186f6b6457e0908390a3600080546001600160a01b0319169055565b6000546001600160a01b031690565b6002546000906001600160a01b0316331461135857600260009054906101000a90046001600160a01b03166001600160a01b031663f77c47916040518163ffffffff1660e01b815260040160206040518083038186803b15801561125d57600080fd5b505afa158015611271573d6000803e3d6000fd5b505050506040513d602081101561128757600080fd5b50516001600160a01b0316331461135857600260009054906101000a90046001600160a01b03166001600160a01b0316638da5cb5b6040518163ffffffff1660e01b815260040160206040518083038186803b1580156112e657600080fd5b505afa1580156112fa573d6000803e3d6000fd5b505050506040513d602081101561131057600080fd5b50516001600160a01b031633146113585760405162461bcd60e51b815260040180806020018281038252602e8152602001806120ae602e913960400191505060405180910390fd5b6113606119e0565b905090565b7f000000000000000000000000000000000000000000000000000000000000000081565b6002546001600160a01b031681565b60018054604080516020600284861615610100026000190190941693909304601f8101849004840282018401909252818152929183018282801561141d5780601f106113f25761010080835404028352916020019161141d565b820191906000526020600020905b81548152906001019060200180831161140057829003601f168201915b505050505081565b7fbc197c819b3e337a6f9652dd10becd7eef83032af3b9d958d3d42f669414662198975050505050505050565b6002546001600160a01b031633146115ad57600260009054906101000a90046001600160a01b03166001600160a01b031663f77c47916040518163ffffffff1660e01b815260040160206040518083038186803b1580156114b257600080fd5b505afa1580156114c6573d6000803e3d6000fd5b505050506040513d60208110156114dc57600080fd5b50516001600160a01b031633146115ad57600260009054906101000a90046001600160a01b03166001600160a01b0316638da5cb5b6040518163ffffffff1660e01b815260040160206040518083038186803b15801561153b57600080fd5b505afa15801561154f573d6000803e3d6000fd5b505050506040513d602081101561156557600080fd5b50516001600160a01b031633146115ad5760405162461bcd60e51b815260040180806020018281038252602e8152602001806120ae602e913960400191505060405180910390fd5b610d7f8282611af6565b6002546001600160a01b031633146116005760405162461bcd60e51b815260040180806020018281038252603181526020018061211b6031913960400191505060405180910390fd5b600254611618906001600160a01b031680600061186a565b600254611631906001600160a01b03168060001961186a565b600254604080516001600160a01b039092168252517f6da543b7e069e739aceab0666be4461aee5c928be612f2a07b8c3a04f8b6aef29181900360200190a1565b61167a611866565b6001600160a01b031661168b6111eb565b6001600160a01b0316146116d05760405162461bcd60e51b81526004018080602001828103825260248152602001806120606024913960400191505060405180910390fd5b60008151116117105760405162461bcd60e51b815260040180806020018281038252602d81526020018061200d602d913960400191505060405180910390fd5b8051611723906001906020840190611f6b565b507f37cc8c6ced0cbc4d440fcfa810a2f09f40b8f0127c3656103edf26b3d93e0ec1338260405180836001600160a01b0316815260200180602001828103825283818151815260200191508051906020019080838360005b8381101561179357818101518382015260200161177b565b50505050905090810190601f1680156117c05780820380516001836020036101000a031916815260200191505b50935050505060405180910390a150565b7ff23a6e612e1ff4830e658fe43f4e3cb4a5f8170bd5d9e69fb5d7a7fa9e4fdf979695505050505050565b611804611866565b6001600160a01b03166118156111eb565b6001600160a01b03161461185a5760405162461bcd60e51b81526004018080602001828103825260248152602001806120606024913960400191505060405180910390fd5b61186381611b55565b50565b3390565b8015806118f0575060408051636eb1769f60e11b81523060048201526001600160a01b03848116602483015291519185169163dd62ed3e91604480820192602092909190829003018186803b1580156118c257600080fd5b505afa1580156118d6573d6000803e3d6000fd5b505050506040513d60208110156118ec57600080fd5b5051155b61192b5760405162461bcd60e51b81526004018080602001828103825260368152602001806121766036913960400191505060405180910390fd5b604080516001600160a01b038416602482015260448082018490528251808303909101815260649091019091526020810180516001600160e01b031663095ea7b360e01b17905261197d908490611bf5565b505050565b60025461199c906001600160a01b03848116911683611ca6565b6040805182815290516001600160a01b0384169133917f8c35b638c65da6f9fc25ab3629859aee55ae216ad0a2a5a25380bb272515a4ab9181900360200190a35050565b60025460408051633abf9e9d60e21b815290516001926000926001600160a01b039091169163eafe7a7491600480820192602092909190829003018186803b158015611a2b57600080fd5b505afa158015611a3f573d6000803e3d6000fd5b505050506040513d6020811015611a5557600080fd5b5051905060005b81811015611af1576002546040805163262a0ab360e11b81526004810184905290516000926001600160a01b031691634c541566916024808301926020929190829003018186803b158015611ab057600080fd5b505afa158015611ac4573d6000803e3d6000fd5b505050506040513d6020811015611ada57600080fd5b50519050611ae781610dcd565b5050600101611a5c565b505090565b600254611b11906001600160a01b0384811691163084611cf8565b6040805182815290516001600160a01b0384169133917ff2f5ddbff4ce2ccb51d4d3e63c2c18fda658a53200aa4ffed328b0eaac171f189181900360200190a35050565b6001600160a01b038116611b9a5760405162461bcd60e51b815260040180806020018281038252602a815260200180612084602a913960400191505060405180910390fd5b600080546040516001600160a01b03808516939216917f8be0079c531659141344cd1fd0a4f28419497f9722a3daafe3b4186f6b6457e091a3600080546001600160a01b0319166001600160a01b0392909216919091179055565b6000611c4a826040518060400160405280602081526020017f5361666545524332303a206c6f772d6c6576656c2063616c6c206661696c6564815250856001600160a01b0316611d589092919063ffffffff16565b80519091501561197d57808060200190516020811015611c6957600080fd5b505161197d5760405162461bcd60e51b815260040180806020018281038252602a81526020018061214c602a913960400191505060405180910390fd5b604080516001600160a01b038416602482015260448082018490528251808303909101815260649091019091526020810180516001600160e01b031663a9059cbb60e01b17905261197d908490611bf5565b604080516001600160a01b0380861660248301528416604482015260648082018490528251808303909101815260849091019091526020810180516001600160e01b03166323b872dd60e01b179052611d52908590611bf5565b50505050565b6060611d678484600085611d71565b90505b9392505050565b606082471015611db25760405162461bcd60e51b815260040180806020018281038252602681526020018061203a6026913960400191505060405180910390fd5b611dbb85611ec1565b611e0c576040805162461bcd60e51b815260206004820152601d60248201527f416464726573733a2063616c6c20746f206e6f6e2d636f6e7472616374000000604482015290519081900360640190fd5b600080866001600160a01b031685876040518082805190602001908083835b60208310611e4a5780518252601f199092019160209182019101611e2b565b6001836020036101000a03801982511681845116808217855250505050505090500191505060006040518083038185875af1925050503d8060008114611eac576040519150601f19603f3d011682016040523d82523d6000602084013e611eb1565b606091505b5091509150610a31828286611ec7565b3b151590565b60608315611ed6575081611d6a565b825115611ee65782518084602001fd5b8160405162461bcd60e51b81526004018080602001828103825283818151815260200191508051906020019080838360005b83811015611f30578181015183820152602001611f18565b50505050905090810190601f168015611f5d5780820380516001836020036101000a031916815260200191505b509250505060405180910390fd5b828054600181600116156101000203166002900490600052602060002090601f016020900481019282611fa15760008555611fe7565b82601f10611fba57805160ff1916838001178555611fe7565b82800160010185558215611fe7579182015b82811115611fe7578251825591602001919060010190611fcc565b50611ff3929150611ff7565b5090565b5b80821115611ff35760008155600101611ff856fe494348494d6f64756c65436f6d6d6f6e3a206465736372697074696f6e2063616e6e6f7420626520656d707479416464726573733a20696e73756666696369656e742062616c616e636520666f722063616c6c494348494f776e61626c653a2063616c6c6572206973206e6f7420746865206f776e6572494348494f776e61626c653a206e6577206f776e657220697320746865207a65726f20616464726573735374726174656779436f6d6d6f6e3a206e6f7420746f6b656e20636f6e74726f6c6c6572206f72206f776e65722e4f6e65546f6b656e56313a3a657865637574655472616e73616374696f6e3a205472616e73616374696f6e20657865637574696f6e2072657665727465642e5374726174656779436f6d6d6f6e3a20696e697469616c697a652066726f6d206f6e65546f6b656e20696e7374616e63655361666545524332303a204552433230206f7065726174696f6e20646964206e6f7420737563636565645361666545524332303a20617070726f76652066726f6d206e6f6e2d7a65726f20746f206e6f6e2d7a65726f20616c6c6f77616e6365a264697066735822122094afb0d479386217f876940a94f23bd86a61bb8b99453cd14c6353a3e492d69764736f6c63430007060033494348494d6f64756c65436f6d6d6f6e3a206465736372697074696f6e2063616e6e6f7420626520656d7074795374726174656779436f6d6d6f6e3a206f6e65546f6b656e20697320756e6b6e6f776e5374726174656779436f6d6d6f6e3a206f6e65546f6b656e2063616e6e6f74206265204e554c4c494348494f776e61626c653a206e6577206f776e657220697320746865207a65726f2061646472657373494348494d6f64756c65436f6d6d6f6e3a206f6e65546f6b656e466163746f72792063616e6e6f7420626520656d707479",
  "devdoc": {
    "kind": "dev",
    "methods": {
      "closeAllPositions()": {
        "details": "override this function to withdraw funds from external contracts. Return false if any funds are unrecovered."
      },
      "closePositions(address)": {
        "details": "override this function to redeem and withdraw related funds from external contracts. Return false if any funds are unrecovered. ",
        "params": {
          "success": "true, complete success, false, 1 or more failed operations",
          "token": "asset to recover"
        }
      },
      "constructor": {
        "params": {
          "description_": "metadata has no impact on logic",
          "oneTokenFactory_": "bind this instance to oneTokenFactory instance",
          "oneToken_": "bind this instance to one oneToken vault"
        }
      },
      "execute()": {
        "details": "called from oneToken governance or the active controller. Overriding function should emit the event. "
      },
      "executeTransaction(address,uint256,string,bytes)": {
        "params": {
          "data": "abi-encodeded bytecode of the parameter values to send",
          "signature": "the function signature",
          "target": "address/smart contract you are interacting with",
          "value": "msg.value (amount of eth in WEI you are sending. Most of the time it is 0)"
        }
      },
      "fromVault(address,uint256)": {
        "params": {
          "amount": "the amount of tokens to send",
          "token": "the ecr20 token to send"
        }
      },
      "owner()": {
        "details": "Returns the address of the current owner."
      },
      "renounceOwnership()": {
        "details": "Leaves the contract without owner. It will not be possible to call `onlyOwner` functions anymore. Can only be called by the current owner. NOTE: Renouncing ownership will leave the contract without an owner, thereby removing any functionality that is only available to the owner."
      },
      "setAllowance(address,uint256)": {
        "details": "called from oneToken governance or the active controller",
        "params": {
          "amount": "the allowance. 0 = infinte",
          "token": "the asset"
        }
      },
      "supportsInterface(bytes4)": {
        "details": "Returns true if this contract implements the interface defined by `interfaceId`. See the corresponding https://eips.ethereum.org/EIPS/eip-165#how-interfaces-are-identified[EIP section] to learn more about how these ids are created. This function call must use less than 30 000 gas."
      },
      "toVault(address,uint256)": {
        "details": "implementations must close external positions and return all related assets to the vault",
        "params": {
          "amount": "the amount of tokens to send",
          "token": "the ecr20 token to send"
        }
      },
      "transferOwnership(address)": {
        "details": "Transfers ownership of the contract to a new account (`newOwner`). Can only be called by the current owner."
      },
      "updateDescription(string)": {
        "params": {
          "description": "new module desciption"
        }
      }
    },
    "version": 1
  },
  "userdoc": {
    "kind": "user",
    "methods": {
      "closeAllPositions()": {
        "notice": "closes all positions and returns the funds to the oneToken vault"
      },
      "closePositions(address)": {
        "notice": "closes token positions and returns the funds to the oneToken vault"
      },
      "constructor": {
        "notice": "a strategy is dedicated to exactly one oneToken instance"
      },
      "execute()": {
        "notice": "a controller invokes execute() to trigger automated logic within the strategy."
      },
      "executeTransaction(address,uint256,string,bytes)": {
        "notice": "Governance can work with collateral and treasury assets. Can swap assets."
      },
      "fromVault(address,uint256)": {
        "notice": "let's the oneToken controller instance draw funds from the oneToken vault allowance"
      },
      "init()": {
        "notice": "a strategy is dedicated to exactly one oneToken instance and must be re-initializable"
      },
      "setAllowance(address,uint256)": {
        "notice": "gives the oneToken control of tokens deposited in the strategy"
      },
      "toVault(address,uint256)": {
        "notice": "let's the oneToken controller instance send funds to the oneToken vault"
      },
      "updateDescription(string)": {
        "notice": "set a module description"
      }
    },
    "version": 1
  },
  "storageLayout": {
    "storage": [
      {
        "astId": 14840,
        "contract": "contracts/strategy/arbitrary/ArbitraryV3.sol:ArbitraryV3",
        "label": "_owner",
        "offset": 0,
        "slot": "0",
        "type": "t_address"
      },
      {
        "astId": 14764,
        "contract": "contracts/strategy/arbitrary/ArbitraryV3.sol:ArbitraryV3",
        "label": "_initialized",
        "offset": 20,
        "slot": "0",
        "type": "t_bool"
      },
      {
        "astId": 14766,
        "contract": "contracts/strategy/arbitrary/ArbitraryV3.sol:ArbitraryV3",
        "label": "_initializing",
        "offset": 21,
        "slot": "0",
        "type": "t_bool"
      },
      {
        "astId": 7391,
        "contract": "contracts/strategy/arbitrary/ArbitraryV3.sol:ArbitraryV3",
        "label": "moduleDescription",
        "offset": 0,
        "slot": "1",
        "type": "t_string_storage"
      },
      {
        "astId": 14983,
        "contract": "contracts/strategy/arbitrary/ArbitraryV3.sol:ArbitraryV3",
        "label": "oneToken",
        "offset": 0,
        "slot": "2",
        "type": "t_address"
      }
    ],
    "types": {
      "t_address": {
        "encoding": "inplace",
        "label": "address",
        "numberOfBytes": "20"
      },
      "t_bool": {
        "encoding": "inplace",
        "label": "bool",
        "numberOfBytes": "1"
      },
      "t_string_storage": {
        "encoding": "bytes",
        "label": "string",
        "numberOfBytes": "32"
      }
    }
  }
}