{
  "address": "0x58254B405E85359Fc7Eb3b8856bA82A4dD7C82E2",
  "abi": [
    {
      "inputs": [
        {
          "internalType": "address",
          "name": "oneTokenFactory_",
          "type": "address"
        },
        {
          "internalType": "string",
          "name": "description_",
          "type": "string"
        }
      ],
      "stateMutability": "nonpayable",
      "type": "constructor"
    },
    {
      "anonymous": false,
      "inputs": [
        {
          "indexed": false,
          "internalType": "address",
          "name": "sender",
          "type": "address"
        },
        {
          "indexed": false,
          "internalType": "string",
          "name": "description",
          "type": "string"
        }
      ],
      "name": "DescriptionUpdated",
      "type": "event"
    },
    {
      "anonymous": false,
      "inputs": [
        {
          "indexed": false,
          "internalType": "address",
          "name": "sender",
          "type": "address"
        },
        {
          "indexed": false,
          "internalType": "address",
          "name": "oneToken",
          "type": "address"
        },
        {
          "indexed": false,
          "internalType": "uint256",
          "name": "maxRatio",
          "type": "uint256"
        }
      ],
      "name": "MaxRatioSet",
      "type": "event"
    },
    {
      "anonymous": false,
      "inputs": [
        {
          "indexed": false,
          "internalType": "address",
          "name": "sender",
          "type": "address"
        },
        {
          "indexed": false,
          "internalType": "address",
          "name": "oneToken",
          "type": "address"
        },
        {
          "indexed": false,
          "internalType": "uint256",
          "name": "minRatio",
          "type": "uint256"
        }
      ],
      "name": "MinRatioSet",
      "type": "event"
    },
    {
      "anonymous": false,
      "inputs": [
        {
          "indexed": false,
          "internalType": "address",
          "name": "sender",
          "type": "address"
        },
        {
          "indexed": false,
          "internalType": "address",
          "name": "oneTokenFactory",
          "type": "address"
        },
        {
          "indexed": false,
          "internalType": "string",
          "name": "description",
          "type": "string"
        }
      ],
      "name": "MintMasterDeployed",
      "type": "event"
    },
    {
      "anonymous": false,
      "inputs": [
        {
          "indexed": false,
          "internalType": "address",
          "name": "sender",
          "type": "address"
        },
        {
          "indexed": false,
          "internalType": "address",
          "name": "oneToken",
          "type": "address"
        },
        {
          "indexed": false,
          "internalType": "address",
          "name": "oneTokenOracle",
          "type": "address"
        }
      ],
      "name": "MintMasterInitialized",
      "type": "event"
    },
    {
      "anonymous": false,
      "inputs": [
        {
          "indexed": false,
          "internalType": "address",
          "name": "sender",
          "type": "address"
        },
        {
          "indexed": false,
          "internalType": "enum InterfaceCommon.ModuleType",
          "name": "moduleType",
          "type": "uint8"
        },
        {
          "indexed": false,
          "internalType": "string",
          "name": "description",
          "type": "string"
        }
      ],
      "name": "ModuleDeployed",
      "type": "event"
    },
    {
      "anonymous": false,
      "inputs": [
        {
          "indexed": false,
          "internalType": "address",
          "name": "sender",
          "type": "address"
        },
        {
          "indexed": false,
          "internalType": "address",
          "name": "oneToken",
          "type": "address"
        },
        {
          "indexed": false,
          "internalType": "address",
          "name": "oracle",
          "type": "address"
        }
      ],
      "name": "OneTokenOracleChanged",
      "type": "event"
    },
    {
      "anonymous": false,
      "inputs": [
        {
          "indexed": true,
          "internalType": "address",
          "name": "previousOwner",
          "type": "address"
        },
        {
          "indexed": true,
          "internalType": "address",
          "name": "newOwner",
          "type": "address"
        }
      ],
      "name": "OwnershipTransferred",
      "type": "event"
    },
    {
      "anonymous": false,
      "inputs": [
        {
          "indexed": false,
          "internalType": "address",
          "name": "sender",
          "type": "address"
        },
        {
          "indexed": false,
          "internalType": "address",
          "name": "oneToken",
          "type": "address"
        },
        {
          "indexed": false,
          "internalType": "uint256",
          "name": "ratio",
          "type": "uint256"
        }
      ],
      "name": "RatioSet",
      "type": "event"
    },
    {
      "anonymous": false,
      "inputs": [
        {
          "indexed": false,
          "internalType": "address",
          "name": "sender",
          "type": "address"
        },
        {
          "indexed": false,
          "internalType": "address",
          "name": "oneToken",
          "type": "address"
        },
        {
          "indexed": false,
          "internalType": "uint256",
          "name": "minRatio",
          "type": "uint256"
        },
        {
          "indexed": false,
          "internalType": "uint256",
          "name": "maxRatio",
          "type": "uint256"
        },
        {
          "indexed": false,
          "internalType": "uint256",
          "name": "stepSize",
          "type": "uint256"
        },
        {
          "indexed": false,
          "internalType": "uint256",
          "name": "initialRatio",
          "type": "uint256"
        },
        {
          "indexed": false,
          "internalType": "uint256",
          "name": "maxOrderVolume",
          "type": "uint256"
        }
      ],
      "name": "SetParams",
      "type": "event"
    },
    {
      "anonymous": false,
      "inputs": [
        {
          "indexed": false,
          "internalType": "address",
          "name": "sender",
          "type": "address"
        },
        {
          "indexed": false,
          "internalType": "address",
          "name": "oneToken",
          "type": "address"
        },
        {
          "indexed": false,
          "internalType": "uint256",
          "name": "stepSize",
          "type": "uint256"
        }
      ],
      "name": "StepSizeSet",
      "type": "event"
    },
    {
      "anonymous": false,
      "inputs": [
        {
          "indexed": false,
          "internalType": "address",
          "name": "sender",
          "type": "address"
        },
        {
          "indexed": false,
          "internalType": "address",
          "name": "oneToken",
          "type": "address"
        },
        {
          "indexed": false,
          "internalType": "uint256",
          "name": "newRatio",
          "type": "uint256"
        },
        {
          "indexed": false,
          "internalType": "uint256",
          "name": "maxOrderVolume",
          "type": "uint256"
        }
      ],
      "name": "UpdateMintingRatio",
      "type": "event"
    },
    {
      "inputs": [],
      "name": "MODULE_TYPE",
      "outputs": [
        {
          "internalType": "bytes32",
          "name": "",
          "type": "bytes32"
        }
      ],
      "stateMutability": "view",
      "type": "function"
    },
    {
      "inputs": [
        {
          "internalType": "address",
          "name": "oneToken",
          "type": "address"
        },
        {
          "internalType": "address",
          "name": "oracle",
          "type": "address"
        }
      ],
      "name": "changeOracle",
      "outputs": [],
      "stateMutability": "nonpayable",
      "type": "function"
    },
    {
      "inputs": [
        {
          "internalType": "address",
          "name": "",
          "type": "address"
        }
      ],
      "name": "getMintingRatio",
      "outputs": [
        {
          "internalType": "uint256",
          "name": "ratio",
          "type": "uint256"
        },
        {
          "internalType": "uint256",
          "name": "maxOrderVolume",
          "type": "uint256"
        }
      ],
      "stateMutability": "view",
      "type": "function"
    },
    {
      "inputs": [
        {
          "internalType": "address",
          "name": "oneToken",
          "type": "address"
        },
        {
          "internalType": "address",
          "name": "",
          "type": "address"
        }
      ],
      "name": "getMintingRatio2",
      "outputs": [
        {
          "internalType": "uint256",
          "name": "ratio",
          "type": "uint256"
        },
        {
          "internalType": "uint256",
          "name": "maxOrderVolume",
          "type": "uint256"
        }
      ],
      "stateMutability": "view",
      "type": "function"
    },
    {
      "inputs": [
        {
          "internalType": "address",
          "name": "oneToken",
          "type": "address"
        },
        {
          "internalType": "address",
          "name": "oneTokenOracle",
          "type": "address"
        },
        {
          "internalType": "address",
          "name": "",
          "type": "address"
        },
        {
          "internalType": "address",
          "name": "",
          "type": "address"
        }
      ],
      "name": "getMintingRatio4",
      "outputs": [
        {
          "internalType": "uint256",
          "name": "ratio",
          "type": "uint256"
        },
        {
          "internalType": "uint256",
          "name": "maxOrderVolume",
          "type": "uint256"
        }
      ],
      "stateMutability": "view",
      "type": "function"
    },
    {
      "inputs": [
        {
          "internalType": "address",
          "name": "oneTokenOracle",
          "type": "address"
        }
      ],
      "name": "init",
      "outputs": [],
      "stateMutability": "nonpayable",
      "type": "function"
    },
    {
      "inputs": [],
      "name": "moduleDescription",
      "outputs": [
        {
          "internalType": "string",
          "name": "",
          "type": "string"
        }
      ],
      "stateMutability": "view",
      "type": "function"
    },
    {
      "inputs": [],
      "name": "moduleType",
      "outputs": [
        {
          "internalType": "enum InterfaceCommon.ModuleType",
          "name": "",
          "type": "uint8"
        }
      ],
      "stateMutability": "view",
      "type": "function"
    },
    {
      "inputs": [],
      "name": "oneTokenFactory",
      "outputs": [
        {
          "internalType": "address",
          "name": "",
          "type": "address"
        }
      ],
      "stateMutability": "view",
      "type": "function"
    },
    {
      "inputs": [
        {
          "internalType": "address",
          "name": "",
          "type": "address"
        }
      ],
      "name": "oneTokenOracles",
      "outputs": [
        {
          "internalType": "address",
          "name": "",
          "type": "address"
        }
      ],
      "stateMutability": "view",
      "type": "function"
    },
    {
      "inputs": [],
      "name": "owner",
      "outputs": [
        {
          "internalType": "address",
          "name": "",
          "type": "address"
        }
      ],
      "stateMutability": "view",
      "type": "function"
    },
    {
      "inputs": [
        {
          "internalType": "address",
          "name": "",
          "type": "address"
        }
      ],
      "name": "parameters",
      "outputs": [
        {
          "internalType": "bool",
          "name": "set",
          "type": "bool"
        },
        {
          "internalType": "uint256",
          "name": "minRatio",
          "type": "uint256"
        },
        {
          "internalType": "uint256",
          "name": "maxRatio",
          "type": "uint256"
        },
        {
          "internalType": "uint256",
          "name": "stepSize",
          "type": "uint256"
        },
        {
          "internalType": "uint256",
          "name": "lastRatio",
          "type": "uint256"
        },
        {
          "internalType": "uint256",
          "name": "maxOrderVolume",
          "type": "uint256"
        }
      ],
      "stateMutability": "view",
      "type": "function"
    },
    {
      "inputs": [],
      "name": "renounceOwnership",
      "outputs": [],
      "stateMutability": "nonpayable",
      "type": "function"
    },
    {
      "inputs": [
        {
          "internalType": "address",
          "name": "oneToken",
          "type": "address"
        },
        {
          "internalType": "uint256",
          "name": "maxRatio",
          "type": "uint256"
        }
      ],
      "name": "setMaxRatio",
      "outputs": [],
      "stateMutability": "nonpayable",
      "type": "function"
    },
    {
      "inputs": [
        {
          "internalType": "address",
          "name": "oneToken",
          "type": "address"
        },
        {
          "internalType": "uint256",
          "name": "minRatio",
          "type": "uint256"
        }
      ],
      "name": "setMinRatio",
      "outputs": [],
      "stateMutability": "nonpayable",
      "type": "function"
    },
    {
      "inputs": [
        {
          "internalType": "address",
          "name": "oneToken",
          "type": "address"
        },
        {
          "internalType": "uint256",
          "name": "minRatio",
          "type": "uint256"
        },
        {
          "internalType": "uint256",
          "name": "maxRatio",
          "type": "uint256"
        },
        {
          "internalType": "uint256",
          "name": "stepSize",
          "type": "uint256"
        },
        {
          "internalType": "uint256",
          "name": "initialRatio",
          "type": "uint256"
        },
        {
          "internalType": "uint256",
          "name": "maxOrderVolume",
          "type": "uint256"
        }
      ],
      "name": "setParams",
      "outputs": [],
      "stateMutability": "nonpayable",
      "type": "function"
    },
    {
      "inputs": [
        {
          "internalType": "address",
          "name": "oneToken",
          "type": "address"
        },
        {
          "internalType": "uint256",
          "name": "ratio",
          "type": "uint256"
        }
      ],
      "name": "setRatio",
      "outputs": [],
      "stateMutability": "nonpayable",
      "type": "function"
    },
    {
      "inputs": [
        {
          "internalType": "address",
          "name": "oneToken",
          "type": "address"
        },
        {
          "internalType": "uint256",
          "name": "stepSize",
          "type": "uint256"
        }
      ],
      "name": "setStepSize",
      "outputs": [],
      "stateMutability": "nonpayable",
      "type": "function"
    },
    {
      "inputs": [
        {
          "internalType": "address",
          "name": "newOwner",
          "type": "address"
        }
      ],
      "name": "transferOwnership",
      "outputs": [],
      "stateMutability": "nonpayable",
      "type": "function"
    },
    {
      "inputs": [
        {
          "internalType": "string",
          "name": "description",
          "type": "string"
        }
      ],
      "name": "updateDescription",
      "outputs": [],
      "stateMutability": "nonpayable",
      "type": "function"
    },
    {
      "inputs": [
        {
          "internalType": "address",
          "name": "",
          "type": "address"
        }
      ],
      "name": "updateMintingRatio",
      "outputs": [
        {
          "internalType": "uint256",
          "name": "ratio",
          "type": "uint256"
        },
        {
          "internalType": "uint256",
          "name": "maxOrderVolume",
          "type": "uint256"
        }
      ],
      "stateMutability": "nonpayable",
      "type": "function"
    }
  ],
  "transactionHash": "0x0a9e4f57371ab99efb70e6b5c4eac9cb3f39d8cfa27f8e8e5a55ff42a3640bca",
  "args": [
    "0xD0092632B9Ac5A7856664eeC1abb6E3403a6A36a",
    "Basic Incremental MintMaster"
  ],
  "solcInputHash": "149543c6066abfe7655600414f329617",
  "bytecode": "0x60c06040523480156200001157600080fd5b506040516200270c3803806200270c833981810160405260408110156200003757600080fd5b8151602083018051604051929492938301929190846401000000008211156200005f57600080fd5b9083019060208201858111156200007557600080fd5b82516401000000008111828201881017156200009057600080fd5b82525081516020918201929091019080838360005b83811015620000bf578181015183820152602001620000a5565b50505050905090810190601f168015620000ed5780820380516001836020036101000a031916815260200191505b506040525050508181816003826200010b336200036a60201b60201c565b6001600160a01b038316620001525760405162461bcd60e51b8152600401808060200182810382526031815260200180620026db6031913960400191505060405180910390fd5b6000815111620001945760405162461bcd60e51b815260040180806020018281038252602d81526020018062002684602d913960400191505060405180910390fd5b6001600160601b0319606084901b1660a052816004811115620001b357fe5b6080816004811115620001c257fe5b60f81b9052508051620001dd9060019060208401906200040c565b507f2e09cb9dd254b20150f5e6b358e7aabf9802b241ddf84609686d8e4b0d2b96b833838360405180846001600160a01b031681526020018360048111156200022257fe5b815260200180602001828103825283818151815260200191508051906020019080838360005b838110156200026257818101518382015260200162000248565b50505050905090810190601f168015620002905780820380516001836020036101000a031916815260200191505b5094505050505060405180910390a15050507fd74a212fa75a350259eda5b63b3e628a5463e3f5ae4e40692793eaf5b3fa0bdf33838360405180846001600160a01b03168152602001836001600160a01b0316815260200180602001828103825283818151815260200191508051906020019080838360005b838110156200032357818101518382015260200162000309565b50505050905090810190601f168015620003515780820380516001836020036101000a031916815260200191505b5094505050505060405180910390a150505050620004b8565b6001600160a01b038116620003b15760405162461bcd60e51b815260040180806020018281038252602a815260200180620026b1602a913960400191505060405180910390fd5b600080546040516001600160a01b03808516939216917f8be0079c531659141344cd1fd0a4f28419497f9722a3daafe3b4186f6b6457e091a3600080546001600160a01b0319166001600160a01b0392909216919091179055565b828054600181600116156101000203166002900490600052602060002090601f0160209004810192826200044457600085556200048f565b82601f106200045f57805160ff19168380011785556200048f565b828001600101855582156200048f579182015b828111156200048f57825182559160200191906001019062000472565b506200049d929150620004a1565b5090565b5b808211156200049d5760008155600101620004a2565b60805160f81c60a05160601c612198620004ec60003980610ae55280610f45528061125a5250806110ae52506121986000f3fe608060405234801561001057600080fd5b50600436106101375760003560e01c80635775029f116100b85780638da5cb5b1161007c5780638da5cb5b14610413578063a2729c231461041b578063adbacbd214610423578063b5966db81461044f578063e735b48a146104cc578063f2fde38b1461057257610137565b80635775029f1461035e5780636465e69f146103785780636db1aa5c146103a1578063715018a6146103e5578063795a94d7146103ed57610137565b80632b3cf787116100ff5780632b3cf787146102555780633567a1ea146102b05780634009ba81146102dc5780634db771fc146103025780634dc809ce1461033057610137565b806301affd2d1461013c578063057520471461016a578063108822731461019657806319ab453c146101ed5780631d4a742214610213575b600080fd5b6101686004803603604081101561015257600080fd5b506001600160a01b038135169060200135610598565b005b6101686004803603604081101561018057600080fd5b506001600160a01b038135169060200135610702565b6101d4600480360360808110156101ac57600080fd5b506001600160a01b03813581169160208101358216916040820135811691606001351661093a565b6040805192835260208301919091528051918290030190f35b6101686004803603602081101561020357600080fd5b50356001600160a01b0316610ac5565b6102396004803603602081101561022957600080fd5b50356001600160a01b0316610c0b565b604080516001600160a01b039092168252519081900360200190f35b61027b6004803603602081101561026b57600080fd5b50356001600160a01b0316610c26565b6040805196151587526020870195909552858501939093526060850191909152608084015260a0830152519081900360c00190f35b610168600480360360408110156102c657600080fd5b506001600160a01b038135169060200135610c5f565b6101d4600480360360208110156102f257600080fd5b50356001600160a01b0316610e26565b6101d46004803603604081101561031857600080fd5b506001600160a01b0381358116916020013516610e60565b6101686004803603604081101561034657600080fd5b506001600160a01b0381358116916020013516610e97565b610366611080565b60408051918252519081900360200190f35b6103806110ac565b6040518082600481111561039057fe5b815260200191505060405180910390f35b610168600480360360c08110156103b757600080fd5b506001600160a01b038135169060208101359060408101359060608101359060808101359060a001356110d0565b610168611193565b6101d46004803603602081101561040357600080fd5b50356001600160a01b031661123b565b610239611249565b610239611258565b6101686004803603604081101561043957600080fd5b506001600160a01b03813516906020013561127c565b61045761148a565b6040805160208082528351818301528351919283929083019185019080838360005b83811015610491578181015183820152602001610479565b50505050905090810190601f1680156104be5780820380516001836020036101000a031916815260200191505b509250505060405180910390f35b610168600480360360208110156104e257600080fd5b8101906020810181356401000000008111156104fd57600080fd5b82018360208201111561050f57600080fd5b8035906020019184600183028401116401000000008311171561053157600080fd5b91908080601f016020809104026020016040519081016040528093929190818152602001838380828437600092019190915250929550611517945050505050565b6101686004803603602081101561058857600080fd5b50356001600160a01b0316611676565b81806001600160a01b0316638da5cb5b6040518163ffffffff1660e01b815260040160206040518083038186803b1580156105d257600080fd5b505afa1580156105e6573d6000803e3d6000fd5b505050506040513d60208110156105fc57600080fd5b50516001600160a01b031633146106445760405162461bcd60e51b81526004018080602001828103825260328152602001806120586032913960400191505060405180910390fd5b6001600160a01b03831660009081526004602052604090206001810154600282015403831080610672575082155b6106ad5760405162461bcd60e51b8152600401808060200182810382526034815260200180611f776034913960400191505060405180910390fd5b60038101839055604080513381526001600160a01b038616602082015280820185905290517f5842684bd6320434e87a1090b4261aa7368e80f4c5b4d0c526463f0132aa8dd29181900360600190a150505050565b81806001600160a01b0316638da5cb5b6040518163ffffffff1660e01b815260040160206040518083038186803b15801561073c57600080fd5b505afa158015610750573d6000803e3d6000fd5b505050506040513d602081101561076657600080fd5b50516001600160a01b031633146107ae5760405162461bcd60e51b81526004018080602001828103825260328152602001806120586032913960400191505060405180910390fd5b6001600160a01b038316600090815260046020526040902082610818576040805162461bcd60e51b815260206004820152601e60248201527f496e6372656d656e74616c3a20726174696f206d757374206265203e20300000604482015290519081900360640190fd5b670de0b6b3a764000083111561085f5760405162461bcd60e51b8152600401808060200182810382526022815260200180611e986022913960400191505060405180910390fd5b80600101548310156108a25760405162461bcd60e51b8152600401808060200182810382526026815260200180611e726026913960400191505060405180910390fd5b80600201548311156108e55760405162461bcd60e51b8152600401808060200182810382526026815260200180611f2d6026913960400191505060405180910390fd5b60048101839055604080513381526001600160a01b038616602082015280820185905290517fecd82f8bebe53bf6f769fe79f762d30111170467b1bcf0813bc073f9b437e2729181900360600190a150505050565b6001600160a01b0384166000908152600460205260408120805482919060ff166109955760405162461bcd60e51b815260040180806020018281038252602a81526020018061202e602a913960400191505060405180910390fd5b6040805163014c2add60e01b81526001600160a01b038981166004830152670de0b6b3a764000060248301528251600093918a169263014c2add926044808301939192829003018186803b1580156109ec57600080fd5b505afa158015610a00573d6000803e3d6000fd5b505050506040513d6040811015610a1657600080fd5b5051600483015494509050670de0b6b3a7640000811415610a3d5750600501549050610abc565b600382015460058301549350670de0b6b3a764000082108015610a635750826002015485105b15610a8057600283015494810194851115610a8057826002015494505b670de0b6b3a764000082118015610a9a5750826001015485115b15610ab85780850394508260010154851015610ab857826001015494505b5050505b94509492505050565b604080516309de917f60e31b815233600482015290516001600160a01b037f00000000000000000000000000000000000000000000000000000000000000001691634ef48bf8916024808301926020929190829003018186803b158015610b2b57600080fd5b505afa158015610b3f573d6000803e3d6000fd5b505050506040513d6020811015610b5557600080fd5b5051610b925760405162461bcd60e51b81526004018080602001828103825260348152602001806120ba6034913960400191505060405180910390fd5b610bb333670de0b6b3a7640000806000670de0b6b3a76400006000196116e0565b610bbd33826118df565b43600355604080513380825260208201526001600160a01b0383168183015290517f53d9051dcabe76d251a8e32814920d3e539886c2e9ef15d1d62be73683f50ec19181900360600190a150565b6002602052600090815260409020546001600160a01b031681565b600460208190526000918252604090912080546001820154600283015460038401549484015460059094015460ff909316949193909286565b81806001600160a01b0316638da5cb5b6040518163ffffffff1660e01b815260040160206040518083038186803b158015610c9957600080fd5b505afa158015610cad573d6000803e3d6000fd5b505050506040513d6020811015610cc357600080fd5b50516001600160a01b03163314610d0b5760405162461bcd60e51b81526004018080602001828103825260328152602001806120586032913960400191505060405180910390fd5b6001600160a01b03831660009081526004602052604090206002810154831115610d665760405162461bcd60e51b81526004018080602001828103825260298152602001806120056029913960400191505060405180910390fd5b8281600201540381600301541080610d8057506003810154155b610dbb5760405162461bcd60e51b8152600401808060200182810382526034815260200180611f776034913960400191505060405180910390fd5b600181018390556004810154831115610dd857610dd88484610702565b604080513381526001600160a01b038616602082015280820185905290517febcfef8f1301f16512a125f068a25c7c75b325542fac4a1372ff2b21c188e8e69181900360600190a150505050565b6000804360035410610e4757610e3d336000610e60565b9092509050610e5b565b43600355610e56336000611ba0565b915091505b915091565b6001600160a01b038083166000908152600260205260408120549091829116610e8b8582848061093a565b92509250509250929050565b81806001600160a01b0316638da5cb5b6040518163ffffffff1660e01b815260040160206040518083038186803b158015610ed157600080fd5b505afa158015610ee5573d6000803e3d6000fd5b505050506040513d6020811015610efb57600080fd5b50516001600160a01b03163314610f435760405162461bcd60e51b81526004018080602001828103825260328152602001806120586032913960400191505060405180910390fd5b7f00000000000000000000000000000000000000000000000000000000000000006001600160a01b031663370c998e84846040518363ffffffff1660e01b815260040180836001600160a01b03168152602001826001600160a01b031681526020019250505060206040518083038186803b158015610fc157600080fd5b505afa158015610fd5573d6000803e3d6000fd5b505050506040513d6020811015610feb57600080fd5b50516110285760405162461bcd60e51b815260040180806020018281038252603081526020018061208a6030913960400191505060405180910390fd5b61103283836118df565b604080513381526001600160a01b03808616602083015284168183015290517f2237ec48b17145b1636fc3ed09f2b6fdbdf2423d19f7c13ec3ae8e1e05eb7e799181900360600190a1505050565b604051602001806021611ee3823960210190506040516020818303038152906040528051906020012081565b7f000000000000000000000000000000000000000000000000000000000000000081565b85806001600160a01b0316638da5cb5b6040518163ffffffff1660e01b815260040160206040518083038186803b15801561110a57600080fd5b505afa15801561111e573d6000803e3d6000fd5b505050506040513d602081101561113457600080fd5b50516001600160a01b0316331461117c5760405162461bcd60e51b81526004018080602001828103825260328152602001806120586032913960400191505060405180910390fd5b61118a8787878787876116e0565b50505050505050565b61119b611cdd565b6001600160a01b03166111ac611249565b6001600160a01b0316146111f15760405162461bcd60e51b8152600401808060200182810382526024815260200180611f536024913960400191505060405180910390fd5b600080546040516001600160a01b03909116907f8be0079c531659141344cd1fd0a4f28419497f9722a3daafe3b4186f6b6457e0908390a3600080546001600160a01b0319169055565b600080610e56336000610e60565b6000546001600160a01b031690565b7f000000000000000000000000000000000000000000000000000000000000000081565b81806001600160a01b0316638da5cb5b6040518163ffffffff1660e01b815260040160206040518083038186803b1580156112b657600080fd5b505afa1580156112ca573d6000803e3d6000fd5b505050506040513d60208110156112e057600080fd5b50516001600160a01b031633146113285760405162461bcd60e51b81526004018080602001828103825260328152602001806120586032913960400191505060405180910390fd5b6001600160a01b038316600090815260046020526040902060018101548310156113835760405162461bcd60e51b8152600401808060200182810382526029815260200180611f046029913960400191505060405180910390fd5b670de0b6b3a76400008311156113ca5760405162461bcd60e51b8152600401808060200182810382526022815260200180611e506022913960400191505060405180910390fd5b80600101548303816003015410806113e457506003810154155b61141f5760405162461bcd60e51b8152600401808060200182810382526034815260200180611f776034913960400191505060405180910390fd5b60028101839055600481015483101561143c5761143c8484610702565b604080513381526001600160a01b038616602082015280820185905290517f3a21d6f69d49c16513443514546e5b7f2539076860d967f9839f779972f87a0c9181900360600190a150505050565b60018054604080516020600284861615610100026000190190941693909304601f8101849004840282018401909252818152929183018282801561150f5780601f106114e45761010080835404028352916020019161150f565b820191906000526020600020905b8154815290600101906020018083116114f257829003601f168201915b505050505081565b61151f611cdd565b6001600160a01b0316611530611249565b6001600160a01b0316146115755760405162461bcd60e51b8152600401808060200182810382526024815260200180611f536024913960400191505060405180910390fd5b60008151116115b55760405162461bcd60e51b815260040180806020018281038252602d815260200180611e23602d913960400191505060405180910390fd5b80516115c8906001906020840190611d81565b507f37cc8c6ced0cbc4d440fcfa810a2f09f40b8f0127c3656103edf26b3d93e0ec1338260405180836001600160a01b0316815260200180602001828103825283818151815260200191508051906020019080838360005b83811015611638578181015183820152602001611620565b50505050905090810190601f1680156116655780820380516001836020036101000a031916815260200191505b50935050505060405180910390a150565b61167e611cdd565b6001600160a01b031661168f611249565b6001600160a01b0316146116d45760405162461bcd60e51b8152600401808060200182810382526024815260200180611f536024913960400191505060405180910390fd5b6116dd81611ce1565b50565b6001600160a01b0386166000908152600460205260409020848611156117375760405162461bcd60e51b81526004018080602001828103825260298152602001806120056029913960400191505060405180910390fd5b670de0b6b3a764000085111561177e5760405162461bcd60e51b8152600401808060200182810382526029815260200180611eba6029913960400191505060405180910390fd5b85850384108061178c575083155b6117c75760405162461bcd60e51b8152600401808060200182810382526034815260200180611f776034913960400191505060405180910390fd5b858310156118065760405162461bcd60e51b8152600401808060200182810382526030815260200180611fab6030913960400191505060405180910390fd5b848311156118455760405162461bcd60e51b81526004018080602001828103825260308152602001806120ee6030913960400191505060405180910390fd5b600180820187905560028201869055600382018590556004820184905560058201839055815460ff1916178155604080513381526001600160a01b0389166020820152808201889052606081018790526080810186905260a0810185905260c0810184905290517f95cf5d9063b176bc1e2b41951693eaf2f952d587841a135a5b28d7a2965306349181900360e00190a150505050505050565b816001600160a01b031663a2729c236040518163ffffffff1660e01b815260040160206040518083038186803b15801561191857600080fd5b505afa15801561192c573d6000803e3d6000fd5b505050506040513d602081101561194257600080fd5b5051604080516342f6e38960e01b81526001600160a01b038481166004830152915191909216916342f6e389916024808301926020929190829003018186803b15801561198e57600080fd5b505afa1580156119a2573d6000803e3d6000fd5b505050506040513d60208110156119b857600080fd5b5051611a0b576040805162461bcd60e51b815260206004820181905260248201527f4d696e744d6173746572436f6d6d6f6e3a20756e6b6e6f776e206f7261636c65604482015290519081900360640190fd5b816001600160a01b031663a2729c236040518163ffffffff1660e01b815260040160206040518083038186803b158015611a4457600080fd5b505afa158015611a58573d6000803e3d6000fd5b505050506040513d6020811015611a6e57600080fd5b5051604051637afd8d9560e01b81526001600160a01b0383811660048381019182529190931692637afd8d9592859291906024018281526020019250505060206040518083038186803b158015611ac457600080fd5b505afa158015611ad8573d6000803e3d6000fd5b505050506040513d6020811015611aee57600080fd5b5051611b2b5760405162461bcd60e51b815260040180806020018281038252604581526020018061211e6045913960600191505060405180910390fd5b6001600160a01b0380831660008181526002602090815260409182902080549486166001600160a01b0319909516851790558151338152908101929092528181019290925290517f53d9051dcabe76d251a8e32814920d3e539886c2e9ef15d1d62be73683f50ec19181900360600190a15050565b6001600160a01b0382166000908152600460205260408120805482919060ff16611bfb5760405162461bcd60e51b815260040180806020018281038252602a81526020018061202e602a913960400191505060405180910390fd5b6001600160a01b03808616600081815260026020526040808220548151630e0dc3b960e11b8152600481019490945290519316928392631c1b877292602480830193919282900301818387803b158015611c5457600080fd5b505af1158015611c68573d6000803e3d6000fd5b50505050611c77866000610e60565b60048401829055604080513381526001600160a01b038a1660208201528082018490526060810183905290519296509094507f74df6a310387bb8428a98218eb26ff25eb9446be7e2803f5be13d2152dc9d2cc919081900360800190a150509250929050565b3390565b6001600160a01b038116611d265760405162461bcd60e51b815260040180806020018281038252602a815260200180611fdb602a913960400191505060405180910390fd5b600080546040516001600160a01b03808516939216917f8be0079c531659141344cd1fd0a4f28419497f9722a3daafe3b4186f6b6457e091a3600080546001600160a01b0319166001600160a01b0392909216919091179055565b828054600181600116156101000203166002900490600052602060002090601f016020900481019282611db75760008555611dfd565b82601f10611dd057805160ff1916838001178555611dfd565b82800160010185558215611dfd579182015b82811115611dfd578251825591602001919060010190611de2565b50611e09929150611e0d565b5090565b5b80821115611e095760008155600101611e0e56fe494348494d6f64756c65436f6d6d6f6e3a206465736372697074696f6e2063616e6e6f7420626520656d707479496e6372656d656e74616c3a206d6178526174696f206d757374203c3d2031303025496e6372656d656e74616c3a20726174696f206d757374206265203e3d206d696e526174696f496e6372656d656e74616c3a20726174696f206d757374206265203c3d2031303025496e6372656d656e74616c3a206d6178526174696f206d757374206265203c3d203130202a2a20313849434849205631204d696e744d617374657220496d706c656d656e746174696f6e496e6372656d656e74616c3a206d6178526174696f206d757374206265203e3d206d696e526174696f496e6372656d656e74616c3a20726174696f206d757374206265203c3d206d6178526174696f494348494f776e61626c653a2063616c6c6572206973206e6f7420746865206f776e6572496e6372656d656e74616c3a207374657053697a65206d757374206265203c20286d6178202d206d696e29206f72207a65726f2e496e6372656d656e74616c3a20696e697469616c20726174696f206d757374206265203e3d206d696e20726174696f2e494348494f776e61626c653a206e6577206f776e657220697320746865207a65726f2061646472657373496e6372656d656e74616c3a206d696e526174696f206d757374206265203c3d206d6178526174696f496e6372656d656e74616c3a206d696e746d6173746572206973206e6f7420696e697469616c697a6564494348494d6f64756c65436f6d6d6f6e3a206d73672e73656e646572206973206e6f74206f6e65546f6b656e206f776e6572496e6372656d656e74616c3a206f7261636c65206973206e6f7420617070726f76656420666f72206f6e65546f6b656e494348494d6f64756c65436f6d6d6f6e3a206d73672e73656e646572206973206e6f742061206b6e6f776e206f6e65546f6b656e496e6372656d656e74616c3a20696e697469616c20726174696f206d757374206265203c3d206d617820726174696f2e4d696e744d6173746572436f6d6d6f6e3a20676976656e206f7261636c65206973206e6f742076616c696420666f72206f6e65546f6b656e20286d73672e73656e64657229a2646970667358221220a0186d19b1f2314c187519fb632566b72fb7b7a3f2a931830adeaebedc3247db64736f6c63430007060033494348494d6f64756c65436f6d6d6f6e3a206465736372697074696f6e2063616e6e6f7420626520656d707479494348494f776e61626c653a206e6577206f776e657220697320746865207a65726f2061646472657373494348494d6f64756c65436f6d6d6f6e3a206f6e65546f6b656e466163746f72792063616e6e6f7420626520656d707479",
  "devdoc": {
    "kind": "dev",
    "methods": {
      "changeOracle(address,address)": {
        "details": "may use the peggedOracle (efficient but not informative) or an active oracle ",
        "params": {
          "oneToken": "oneToken vault (also ERC20 token)",
          "oracle": "oracle contract must be registered in the factory"
        }
      },
      "getMintingRatio(address)": {
        "details": "oneToken contracts call this to get their own minting ratio // collateralToken argument in the interface supports future-use cases",
        "params": {
          "maxOrderVolume": "recommended maximum order size, specified by governance. Defaults to unlimited",
          "ratio": "the minting ratio"
        }
      },
      "getMintingRatio2(address,address)": {
        "details": "anyone calls this to inspect any oneToken minting ratio based on the oracle chosen at initialization",
        "params": {
          "maxOrderVolume": "recommended maximum order size, specified by governance. Defaults to unlimited     ",
          "oneToken": "oneToken implementation to inspect // collateralToken argument in the interface supports future-use cases",
          "ratio": "the minting ratio"
        }
      },
      "getMintingRatio4(address,address,address,address)": {
        "details": "anyone calls this to inspect any oneToken minting ratio based on arbitry oracles",
        "params": {
          "maxOrderVolume": "recommended maximum order size, specified by governance. Defaults to unlimited     ",
          "oneToken": "oneToken implementation to inspect",
          "oneTokenOracle": "explicit oracle selection // collateralToken argument in the interface supports future-use cases",
          "ratio": "the minting ratio"
        }
      },
      "init(address)": {
        "details": "A single instance can be shared by n oneToken implementations. Initialize from each instance. Re-initialization is acceptabe.",
        "params": {
          "oneTokenOracle": "gets the exchange rate of the oneToken"
        }
      },
      "owner()": {
        "details": "Returns the address of the current owner."
      },
      "renounceOwnership()": {
        "details": "Leaves the contract without owner. It will not be possible to call `onlyOwner` functions anymore. Can only be called by the current owner. NOTE: Renouncing ownership will leave the contract without an owner, thereby removing any functionality that is only available to the owner."
      },
      "setMaxRatio(address,uint256)": {
        "details": "only the governance that owns the token implentation can adjust the mintMaster's parameters if the new maximum is lower is than current minting ratio, the current ratio will be set to maxRatio",
        "params": {
          "maxRatio": "the new upper bound for the minting ratio",
          "oneToken": "the implementation to work with"
        }
      },
      "setMinRatio(address,uint256)": {
        "details": "only the governance that owns the token implentation can adjust the mintMaster's parameters if the new minimum is higher than current minting ratio, the current ratio will be adjusted to minRatio",
        "params": {
          "minRatio": "the new lower bound for the minting ratio",
          "oneToken": "the implementation to work with"
        }
      },
      "setParams(address,uint256,uint256,uint256,uint256,uint256)": {
        "details": "inspects the oneToken implementation to establish authority",
        "params": {
          "initialRatio": "unadjusted starting minting ratio",
          "maxRatio": "maximum minting ratio that will be set",
          "minRatio": "minimum minting ratio that will be set",
          "oneToken": "token context for parameters",
          "stepSize": "adjustment size iteration"
        }
      },
      "setRatio(address,uint256)": {
        "details": "only the governance that owns the token implentation can adjust the mintMaster's parameters",
        "params": {
          "oneToken": "the implementation to work with",
          "ratio": "must be in the min-max range"
        }
      },
      "setStepSize(address,uint256)": {
        "details": "only the governance that owns the token implentation can adjust the mintMaster's parameters",
        "params": {
          "oneToken": "the implementation to work with",
          "stepSize": "the step size must be smaller than the difference of min and max"
        }
      },
      "transferOwnership(address)": {
        "details": "Transfers ownership of the contract to a new account (`newOwner`). Can only be called by the current owner."
      },
      "updateDescription(string)": {
        "params": {
          "description": "new module desciption"
        }
      },
      "updateMintingRatio(address)": {
        "details": "oneToken implementations calls this periodically, e.g. in the minting process // collateralToken argument in the interface supports future-use cases",
        "params": {
          "maxOrderVolume": "recommended maximum order size, specified by governance. Defaults to unlimited",
          "ratio": "the minting ratio"
        }
      }
    },
    "version": 1
  },
  "userdoc": {
    "kind": "user",
    "methods": {
      "changeOracle(address,address)": {
        "notice": "changes the oracle used to assess the oneTokens' value in relation to the peg"
      },
      "getMintingRatio(address)": {
        "notice": "returns an adjusted minting ratio"
      },
      "getMintingRatio2(address,address)": {
        "notice": "returns an adjusted minting ratio. OneTokens use this function and it relies on initialization to select the oracle"
      },
      "getMintingRatio4(address,address,address,address)": {
        "notice": "returns an adjusted minting ratio"
      },
      "init(address)": {
        "notice": "initializes the common interface with parameters managed by msg.sender, usually a oneToken."
      },
      "setMaxRatio(address,uint256)": {
        "notice": "sets the maximum minting ratio"
      },
      "setMinRatio(address,uint256)": {
        "notice": "sets the minimum minting ratio"
      },
      "setParams(address,uint256,uint256,uint256,uint256,uint256)": {
        "notice": "updates parameters for a given oneToken that uses this module"
      },
      "setRatio(address,uint256)": {
        "notice": "sets the current minting ratio"
      },
      "setStepSize(address,uint256)": {
        "notice": "adjusts the rate of minting ratio change"
      },
      "updateDescription(string)": {
        "notice": "set a module description"
      },
      "updateMintingRatio(address)": {
        "notice": "records and returns an adjusted minting ratio for a oneToken implemtation"
      }
    },
    "notice": "Multi-tenant implementation with parameters managed by separate governing authorities.",
    "version": 1
  },
  "storageLayout": {
    "storage": [
      {
        "astId": 9548,
        "contract": "contracts/mintMaster/legacy/Incremental.sol:Incremental",
        "label": "_owner",
        "offset": 0,
        "slot": "0",
        "type": "t_address"
      },
      {
        "astId": 9472,
        "contract": "contracts/mintMaster/legacy/Incremental.sol:Incremental",
        "label": "_initialized",
        "offset": 20,
        "slot": "0",
        "type": "t_bool"
      },
      {
        "astId": 9474,
        "contract": "contracts/mintMaster/legacy/Incremental.sol:Incremental",
        "label": "_initializing",
        "offset": 21,
        "slot": "0",
        "type": "t_bool"
      },
      {
        "astId": 5588,
        "contract": "contracts/mintMaster/legacy/Incremental.sol:Incremental",
        "label": "moduleDescription",
        "offset": 0,
        "slot": "1",
        "type": "t_string_storage"
      },
      {
        "astId": 6825,
        "contract": "contracts/mintMaster/legacy/Incremental.sol:Incremental",
        "label": "oneTokenOracles",
        "offset": 0,
        "slot": "2",
        "type": "t_mapping(t_address,t_address)"
      },
      {
        "astId": 6968,
        "contract": "contracts/mintMaster/legacy/Incremental.sol:Incremental",
        "label": "lastUpdatedBlock",
        "offset": 0,
        "slot": "3",
        "type": "t_uint256"
      },
      {
        "astId": 6972,
        "contract": "contracts/mintMaster/legacy/Incremental.sol:Incremental",
        "label": "parameters",
        "offset": 0,
        "slot": "4",
        "type": "t_mapping(t_address,t_struct(Parameters)6966_storage)"
      }
    ],
    "types": {
      "t_address": {
        "encoding": "inplace",
        "label": "address",
        "numberOfBytes": "20"
      },
      "t_bool": {
        "encoding": "inplace",
        "label": "bool",
        "numberOfBytes": "1"
      },
      "t_mapping(t_address,t_address)": {
        "encoding": "mapping",
        "key": "t_address",
        "label": "mapping(address => address)",
        "numberOfBytes": "32",
        "value": "t_address"
      },
      "t_mapping(t_address,t_struct(Parameters)6966_storage)": {
        "encoding": "mapping",
        "key": "t_address",
        "label": "mapping(address => struct Incremental.Parameters)",
        "numberOfBytes": "32",
        "value": "t_struct(Parameters)6966_storage"
      },
      "t_string_storage": {
        "encoding": "bytes",
        "label": "string",
        "numberOfBytes": "32"
      },
      "t_struct(Parameters)6966_storage": {
        "encoding": "inplace",
        "label": "struct Incremental.Parameters",
        "members": [
          {
            "astId": 6955,
            "contract": "contracts/mintMaster/legacy/Incremental.sol:Incremental",
            "label": "set",
            "offset": 0,
            "slot": "0",
            "type": "t_bool"
          },
          {
            "astId": 6957,
            "contract": "contracts/mintMaster/legacy/Incremental.sol:Incremental",
            "label": "minRatio",
            "offset": 0,
            "slot": "1",
            "type": "t_uint256"
          },
          {
            "astId": 6959,
            "contract": "contracts/mintMaster/legacy/Incremental.sol:Incremental",
            "label": "maxRatio",
            "offset": 0,
            "slot": "2",
            "type": "t_uint256"
          },
          {
            "astId": 6961,
            "contract": "contracts/mintMaster/legacy/Incremental.sol:Incremental",
            "label": "stepSize",
            "offset": 0,
            "slot": "3",
            "type": "t_uint256"
          },
          {
            "astId": 6963,
            "contract": "contracts/mintMaster/legacy/Incremental.sol:Incremental",
            "label": "lastRatio",
            "offset": 0,
            "slot": "4",
            "type": "t_uint256"
          },
          {
            "astId": 6965,
            "contract": "contracts/mintMaster/legacy/Incremental.sol:Incremental",
            "label": "maxOrderVolume",
            "offset": 0,
            "slot": "5",
            "type": "t_uint256"
          }
        ],
        "numberOfBytes": "192"
      },
      "t_uint256": {
        "encoding": "inplace",
        "label": "uint256",
        "numberOfBytes": "32"
      }
    }
  }
}