{
  "address": "0x9d136A1733B152bD8B1F87d267CA23525c42A22a",
  "abi": [
    {
      "inputs": [
        {
          "internalType": "address",
          "name": "oneTokenFactory_",
          "type": "address"
        },
        {
          "internalType": "string",
          "name": "description_",
          "type": "string"
        },
        {
          "internalType": "address",
          "name": "indexToken_",
          "type": "address"
        },
        {
          "internalType": "address",
          "name": "chainlink_",
          "type": "address"
        }
      ],
      "stateMutability": "nonpayable",
      "type": "constructor"
    },
    {
      "anonymous": false,
      "inputs": [
        {
          "indexed": false,
          "internalType": "address",
          "name": "sender",
          "type": "address"
        },
        {
          "indexed": false,
          "internalType": "string",
          "name": "description",
          "type": "string"
        }
      ],
      "name": "DescriptionUpdated",
      "type": "event"
    },
    {
      "anonymous": false,
      "inputs": [
        {
          "indexed": false,
          "internalType": "address",
          "name": "sender",
          "type": "address"
        },
        {
          "indexed": false,
          "internalType": "enum InterfaceCommon.ModuleType",
          "name": "moduleType",
          "type": "uint8"
        },
        {
          "indexed": false,
          "internalType": "string",
          "name": "description",
          "type": "string"
        }
      ],
      "name": "ModuleDeployed",
      "type": "event"
    },
    {
      "anonymous": false,
      "inputs": [
        {
          "indexed": false,
          "internalType": "address",
          "name": "sender",
          "type": "address"
        },
        {
          "indexed": false,
          "internalType": "string",
          "name": "description",
          "type": "string"
        },
        {
          "indexed": false,
          "internalType": "address",
          "name": "indexToken",
          "type": "address"
        }
      ],
      "name": "OracleDeployed",
      "type": "event"
    },
    {
      "anonymous": false,
      "inputs": [
        {
          "indexed": false,
          "internalType": "address",
          "name": "sender",
          "type": "address"
        },
        {
          "indexed": false,
          "internalType": "address",
          "name": "baseToken",
          "type": "address"
        },
        {
          "indexed": false,
          "internalType": "address",
          "name": "indexToken",
          "type": "address"
        }
      ],
      "name": "OracleInitialized",
      "type": "event"
    },
    {
      "anonymous": false,
      "inputs": [
        {
          "indexed": true,
          "internalType": "address",
          "name": "previousOwner",
          "type": "address"
        },
        {
          "indexed": true,
          "internalType": "address",
          "name": "newOwner",
          "type": "address"
        }
      ],
      "name": "OwnershipTransferred",
      "type": "event"
    },
    {
      "inputs": [],
      "name": "MODULE_TYPE",
      "outputs": [
        {
          "internalType": "bytes32",
          "name": "",
          "type": "bytes32"
        }
      ],
      "stateMutability": "view",
      "type": "function"
    },
    {
      "inputs": [
        {
          "internalType": "address",
          "name": "",
          "type": "address"
        },
        {
          "internalType": "uint256",
          "name": "amountUsd",
          "type": "uint256"
        }
      ],
      "name": "amountRequired",
      "outputs": [
        {
          "internalType": "uint256",
          "name": "amountTokens",
          "type": "uint256"
        },
        {
          "internalType": "uint256",
          "name": "volatility",
          "type": "uint256"
        }
      ],
      "stateMutability": "view",
      "type": "function"
    },
    {
      "inputs": [],
      "name": "getThePrice",
      "outputs": [
        {
          "internalType": "uint256",
          "name": "price",
          "type": "uint256"
        }
      ],
      "stateMutability": "view",
      "type": "function"
    },
    {
      "inputs": [],
      "name": "indexToken",
      "outputs": [
        {
          "internalType": "address",
          "name": "",
          "type": "address"
        }
      ],
      "stateMutability": "view",
      "type": "function"
    },
    {
      "inputs": [
        {
          "internalType": "address",
          "name": "baseToken",
          "type": "address"
        }
      ],
      "name": "init",
      "outputs": [],
      "stateMutability": "nonpayable",
      "type": "function"
    },
    {
      "inputs": [],
      "name": "moduleDescription",
      "outputs": [
        {
          "internalType": "string",
          "name": "",
          "type": "string"
        }
      ],
      "stateMutability": "view",
      "type": "function"
    },
    {
      "inputs": [],
      "name": "moduleType",
      "outputs": [
        {
          "internalType": "enum InterfaceCommon.ModuleType",
          "name": "",
          "type": "uint8"
        }
      ],
      "stateMutability": "view",
      "type": "function"
    },
    {
      "inputs": [
        {
          "internalType": "address",
          "name": "token",
          "type": "address"
        },
        {
          "internalType": "uint256",
          "name": "amountNormal",
          "type": "uint256"
        }
      ],
      "name": "normalizedToTokens",
      "outputs": [
        {
          "internalType": "uint256",
          "name": "amountTokens",
          "type": "uint256"
        }
      ],
      "stateMutability": "view",
      "type": "function"
    },
    {
      "inputs": [],
      "name": "oneTokenFactory",
      "outputs": [
        {
          "internalType": "address",
          "name": "",
          "type": "address"
        }
      ],
      "stateMutability": "view",
      "type": "function"
    },
    {
      "inputs": [],
      "name": "owner",
      "outputs": [
        {
          "internalType": "address",
          "name": "",
          "type": "address"
        }
      ],
      "stateMutability": "view",
      "type": "function"
    },
    {
      "inputs": [
        {
          "internalType": "address",
          "name": "",
          "type": "address"
        },
        {
          "internalType": "uint256",
          "name": "amountTokens",
          "type": "uint256"
        }
      ],
      "name": "read",
      "outputs": [
        {
          "internalType": "uint256",
          "name": "amountUsd",
          "type": "uint256"
        },
        {
          "internalType": "uint256",
          "name": "volatility",
          "type": "uint256"
        }
      ],
      "stateMutability": "view",
      "type": "function"
    },
    {
      "inputs": [],
      "name": "renounceOwnership",
      "outputs": [],
      "stateMutability": "nonpayable",
      "type": "function"
    },
    {
      "inputs": [
        {
          "internalType": "address",
          "name": "token",
          "type": "address"
        },
        {
          "internalType": "uint256",
          "name": "amountTokens",
          "type": "uint256"
        }
      ],
      "name": "tokensToNormalized",
      "outputs": [
        {
          "internalType": "uint256",
          "name": "amountNormal",
          "type": "uint256"
        }
      ],
      "stateMutability": "view",
      "type": "function"
    },
    {
      "inputs": [
        {
          "internalType": "address",
          "name": "newOwner",
          "type": "address"
        }
      ],
      "name": "transferOwnership",
      "outputs": [],
      "stateMutability": "nonpayable",
      "type": "function"
    },
    {
      "inputs": [
        {
          "internalType": "address",
          "name": "",
          "type": "address"
        }
      ],
      "name": "update",
      "outputs": [],
      "stateMutability": "nonpayable",
      "type": "function"
    },
    {
      "inputs": [
        {
          "internalType": "string",
          "name": "description",
          "type": "string"
        }
      ],
      "name": "updateDescription",
      "outputs": [],
      "stateMutability": "nonpayable",
      "type": "function"
    }
  ],
  "transactionHash": "0x16e81390d36ac8d21daece4f187c3686935b3693998924fdae33eebb14702444",
  "args": [
    "0xD0092632B9Ac5A7856664eeC1abb6E3403a6A36a",
    "renFIL/USD Oracle",
    "0xA0b86991c6218b36c1d19D4a2e9Eb0cE3606eB48",
    "0x1A31D42149e82Eb99777f903C08A2E41A00085d3"
  ],
  "solcInputHash": "4d9f2182f63f55b7b71cda704cb65d87",
  "bytecode": "0x60c06040523480156200001157600080fd5b506040516200153438038062001534833981810160405260808110156200003757600080fd5b8151602083018051604051929492938301929190846401000000008211156200005f57600080fd5b9083019060208201858111156200007557600080fd5b82516401000000008111828201881017156200009057600080fd5b82525081516020918201929091019080838360005b83811015620000bf578181015183820152602001620000a5565b50505050905090810190601f168015620000ed5780820380516001836020036101000a031916815260200191505b5060409081526020820151910151909250905083838382600483620001123362000403565b6001600160a01b038316620001595760405162461bcd60e51b8152600401808060200182810382526031815260200180620015036031913960400191505060405180910390fd5b60008151116200019b5760405162461bcd60e51b815260040180806020018281038252602d81526020018062001484602d913960400191505060405180910390fd5b6001600160601b0319606084901b1660a052816004811115620001ba57fe5b6080816004811115620001c957fe5b60f81b9052508051620001e4906001906020840190620004a5565b507f2e09cb9dd254b20150f5e6b358e7aabf9802b241ddf84609686d8e4b0d2b96b833838360405180846001600160a01b031681526020018360048111156200022957fe5b815260200180602001828103825283818151815260200191508051906020019080838360005b83811015620002695781810151838201526020016200024f565b50505050905090810190601f168015620002975780820380516001836020036101000a031916815260200191505b5094505050505060405180910390a15050506001600160a01b038116620002f05760405162461bcd60e51b8152600401808060200182810382526028815260200180620014db6028913960400191505060405180910390fd5b80600260006101000a8154816001600160a01b0302191690836001600160a01b031602179055507f5ca37c59f6b6cafb39fb44368a097af590e5e220c2a015addc4b11977c34766b33838360405180846001600160a01b0316815260200180602001836001600160a01b03168152602001828103825284818151815260200191508051906020019080838360005b83811015620003985781810151838201526020016200037e565b50505050905090810190601f168015620003c65780820380516001836020036101000a031916815260200191505b5094505050505060405180910390a15050600380546001600160a01b0319166001600160a01b039390931692909217909155506200055192505050565b6001600160a01b0381166200044a5760405162461bcd60e51b815260040180806020018281038252602a815260200180620014b1602a913960400191505060405180910390fd5b600080546040516001600160a01b03808516939216917f8be0079c531659141344cd1fd0a4f28419497f9722a3daafe3b4186f6b6457e091a3600080546001600160a01b0319166001600160a01b0392909216919091179055565b828054600181600116156101000203166002900490600052602060002090601f016020900481019282620004dd576000855562000528565b82601f10620004f857805160ff191683800117855562000528565b8280016001018555821562000528579182015b82811115620005285782518255916020019190600101906200050b565b50620005369291506200053a565b5090565b5b808211156200053657600081556001016200053b565b60805160f81c60a05160601c610eff620005856000398061043e52806104bf52806108325250806106b05250610eff6000f3fe608060405234801561001057600080fd5b50600436106101005760003560e01c80638c3c9a5511610097578063b7b8bae411610066578063b7b8bae4146102ec578063e735b48a14610318578063e7d015f2146103be578063f2fde38b146103c657610100565b80638c3c9a551461023b5780638da5cb5b14610243578063a2729c2314610267578063b5966db81461026f57610100565b80634d161865116100d35780634d161865146101d65780635775029f146102025780636465e69f1461020a578063715018a61461023357610100565b8063014c2add1461010557806319ab453c1461014a5780631c1b87721461017257806327d3cb4114610198575b600080fd5b6101316004803603604081101561011b57600080fd5b506001600160a01b0381351690602001356103ec565b6040805192835260208301919091528051918290030190f35b6101706004803603602081101561016057600080fd5b50356001600160a01b031661041e565b005b6101706004803603602081101561018857600080fd5b50356001600160a01b031661056a565b6101c4600480360360408110156101ae57600080fd5b506001600160a01b03813516906020013561056d565b60408051918252519081900360200190f35b610131600480360360408110156101ec57600080fd5b506001600160a01b038135169060200135610644565b6101c4610664565b6102126106ae565b6040518082600481111561022257fe5b815260200191505060405180910390f35b6101706106d2565b6101c461077a565b61024b610821565b604080516001600160a01b039092168252519081900360200190f35b61024b610830565b610277610854565b6040805160208082528351818301528351919283929083019185019080838360005b838110156102b1578181015183820152602001610299565b50505050905090810190601f1680156102de5780820380516001836020036101000a031916815260200191505b509250505060405180910390f35b6101c46004803603604081101561030257600080fd5b506001600160a01b0381351690602001356108e1565b6101706004803603602081101561032e57600080fd5b81019060208101813564010000000081111561034957600080fd5b82018360208201111561035b57600080fd5b8035906020019184600183028401116401000000008311171561037d57600080fd5b91908080601f0160208091040260200160405190810160405280939291908181526020018383808284376000920191909152509295506109bf945050505050565b61024b610b1e565b610170600480360360208110156103dc57600080fd5b50356001600160a01b0316610b2d565b600080610413670de0b6b3a764000061040d61040661077a565b8690610b94565b90610bf4565b946001945092505050565b604080516342f6e38960e01b815233600482015290516001600160a01b037f000000000000000000000000000000000000000000000000000000000000000016916342f6e389916024808301926020929190829003018186803b15801561048457600080fd5b505afa158015610498573d6000803e3d6000fd5b505050506040513d60208110156104ae57600080fd5b505161051b57336001600160a01b037f0000000000000000000000000000000000000000000000000000000000000000161461051b5760405162461bcd60e51b8152600401808060200182810382526052815260200180610e786052913960600191505060405180910390fd5b600254604080513381526001600160a01b03808516602083015290921682820152517f615e5388e077a0f73212d5edcf91ad20a6738753574b7a3749872baa98995be59181900360600190a150565b50565b6000808390506000816001600160a01b031663313ce5676040518163ffffffff1660e01b815260040160206040518083038186803b1580156105ae57600080fd5b505afa1580156105c2573d6000803e3d6000fd5b505050506040513d60208110156105d857600080fd5b505160ff169050601281111561061f5760405162461bcd60e51b815260040180806020018281038252603b815260200180610df2603b913960400191505060405180910390fd5b601281141561063257839250505061063e565b601203600a0a83029150505b92915050565b60008061041361065261077a565b61040d85670de0b6b3a7640000610b94565b60405160200180807f49434849205631204f7261636c6520496d706c656d656e746174696f6e000000815250601d0190506040516020818303038152906040528051906020012081565b7f000000000000000000000000000000000000000000000000000000000000000081565b6106da610c5b565b6001600160a01b03166106eb610821565b6001600160a01b0316146107305760405162461bcd60e51b8152600401808060200182810382526024815260200180610dce6024913960400191505060405180910390fd5b600080546040516001600160a01b03909116907f8be0079c531659141344cd1fd0a4f28419497f9722a3daafe3b4186f6b6457e0908390a3600080546001600160a01b0319169055565b600080600360009054906101000a90046001600160a01b03166001600160a01b031663feaf968c6040518163ffffffff1660e01b815260040160a06040518083038186803b1580156107cb57600080fd5b505afa1580156107df573d6000803e3d6000fd5b505050506040513d60a08110156107f557600080fd5b506020015190506000811361080957600080fd5b90508061081b816402540be400610b94565b91505090565b6000546001600160a01b031690565b7f000000000000000000000000000000000000000000000000000000000000000081565b60018054604080516020600284861615610100026000190190941693909304601f810184900484028201840190925281815292918301828280156108d95780601f106108ae576101008083540402835291602001916108d9565b820191906000526020600020905b8154815290600101906020018083116108bc57829003601f168201915b505050505081565b6000808390506000816001600160a01b031663313ce5676040518163ffffffff1660e01b815260040160206040518083038186803b15801561092257600080fd5b505afa158015610936573d6000803e3d6000fd5b505050506040513d602081101561094c57600080fd5b505160ff16905060128111156109935760405162461bcd60e51b815260040180806020018281038252603b815260200180610df2603b913960400191505060405180910390fd5b60128114156109a657839250505061063e565b80601203600a0a84816109b557fe5b0495945050505050565b6109c7610c5b565b6001600160a01b03166109d8610821565b6001600160a01b031614610a1d5760405162461bcd60e51b8152600401808060200182810382526024815260200180610dce6024913960400191505060405180910390fd5b6000815111610a5d5760405162461bcd60e51b815260040180806020018281038252602d815260200180610da1602d913960400191505060405180910390fd5b8051610a70906001906020840190610cff565b507f37cc8c6ced0cbc4d440fcfa810a2f09f40b8f0127c3656103edf26b3d93e0ec1338260405180836001600160a01b0316815260200180602001828103825283818151815260200191508051906020019080838360005b83811015610ae0578181015183820152602001610ac8565b50505050905090810190601f168015610b0d5780820380516001836020036101000a031916815260200191505b50935050505060405180910390a150565b6002546001600160a01b031681565b610b35610c5b565b6001600160a01b0316610b46610821565b6001600160a01b031614610b8b5760405162461bcd60e51b8152600401808060200182810382526024815260200180610dce6024913960400191505060405180910390fd5b61056a81610c5f565b600082610ba35750600061063e565b82820282848281610bb057fe5b0414610bed5760405162461bcd60e51b8152600401808060200182810382526021815260200180610e576021913960400191505060405180910390fd5b9392505050565b6000808211610c4a576040805162461bcd60e51b815260206004820152601a60248201527f536166654d6174683a206469766973696f6e206279207a65726f000000000000604482015290519081900360640190fd5b818381610c5357fe5b049392505050565b3390565b6001600160a01b038116610ca45760405162461bcd60e51b815260040180806020018281038252602a815260200180610e2d602a913960400191505060405180910390fd5b600080546040516001600160a01b03808516939216917f8be0079c531659141344cd1fd0a4f28419497f9722a3daafe3b4186f6b6457e091a3600080546001600160a01b0319166001600160a01b0392909216919091179055565b828054600181600116156101000203166002900490600052602060002090601f016020900481019282610d355760008555610d7b565b82601f10610d4e57805160ff1916838001178555610d7b565b82800160010185558215610d7b579182015b82811115610d7b578251825591602001919060010190610d60565b50610d87929150610d8b565b5090565b5b80821115610d875760008155600101610d8c56fe494348494d6f64756c65436f6d6d6f6e3a206465736372697074696f6e2063616e6e6f7420626520656d707479494348494f776e61626c653a2063616c6c6572206973206e6f7420746865206f776e65724f7261636c65436f6d6d6f6e3a20756e737570706f7274656420746f6b656e20707265636973696f6e202867726561746572207468616e20313829494348494f776e61626c653a206e6577206f776e657220697320746865207a65726f2061646472657373536166654d6174683a206d756c7469706c69636174696f6e206f766572666c6f77494348494d6f64756c65436f6d6d6f6e3a206d73672e73656e646572206973206e6f74206d6f64756c65206f776e65722c20746f6b656e20666163746f7279206f72207265676973746564206d6f64756c65a2646970667358221220d992246cdb01f485f5727f2477098371ac10d6fc5988b76e45c5fadbf384c90a64736f6c63430007060033494348494d6f64756c65436f6d6d6f6e3a206465736372697074696f6e2063616e6e6f7420626520656d707479494348494f776e61626c653a206e6577206f776e657220697320746865207a65726f20616464726573734f7261636c65436f6d6d6f6e3a20696e646578546f6b656e2063616e6e6f7420626520656d707479494348494d6f64756c65436f6d6d6f6e3a206f6e65546f6b656e466163746f72792063616e6e6f7420626520656d707479",
  "devdoc": {
    "kind": "dev",
    "methods": {
      "amountRequired(address,uint256)": {
        "params": {
          "amountTokens": "tokens required, token native precision",
          "amountUsd": "Usd required, precision 18",
          "volatility": "metric for future use-cases"
        }
      },
      "constructor": {
        "params": {
          "description_": "description has no bearing on logic",
          "indexToken_": "token to use for price quotes",
          "oneTokenFactory_": "oneToken factory to bind to"
        }
      },
      "init(address)": {
        "params": {
          "baseToken": "oracles _can be_ multi-tenant with separately initialized baseTokens"
        }
      },
      "normalizedToTokens(address,uint256)": {
        "params": {
          "amountNormal": "quantity in precision-18",
          "amountTokens": "quantity scaled to token decimals()",
          "token": "ERC20 token contract"
        }
      },
      "owner()": {
        "details": "Returns the address of the current owner."
      },
      "read(address,uint256)": {
        "params": {
          "amountTokens": "quantity, token native precision",
          "amountUsd": "US dollar equivalentm, precision 18",
          "volatility": "metric for future use-cases"
        }
      },
      "renounceOwnership()": {
        "details": "Leaves the contract without owner. It will not be possible to call `onlyOwner` functions anymore. Can only be called by the current owner. NOTE: Renouncing ownership will leave the contract without an owner, thereby removing any functionality that is only available to the owner."
      },
      "tokensToNormalized(address,uint256)": {
        "params": {
          "amountNormal": "quantity in precision-18",
          "amountTokens": "quantity scaled to token decimals",
          "token": "ERC20 token contract"
        }
      },
      "transferOwnership(address)": {
        "details": "Transfers ownership of the contract to a new account (`newOwner`). Can only be called by the current owner."
      },
      "update(address)": {
        "details": "there is nothing to do in this case"
      },
      "updateDescription(string)": {
        "params": {
          "description": "new module desciption"
        }
      }
    },
    "version": 1
  },
  "userdoc": {
    "kind": "user",
    "methods": {
      "amountRequired(address,uint256)": {
        "notice": "returns the tokens needed to reach a target usd value // param address unused token address"
      },
      "getThePrice()": {
        "notice": "Returns the latest price"
      },
      "init(address)": {
        "notice": "oneTokens can share Oracles. Oracles must be re-initializable. They are initialized from the Factory."
      },
      "normalizedToTokens(address,uint256)": {
        "notice": "converts normalized precision 18 amounts to token native precision amounts, truncates low-order values"
      },
      "read(address,uint256)": {
        "notice": "returns equivalent amount of index tokens for an amount of baseTokens and volatility metric // param address unused token address"
      },
      "tokensToNormalized(address,uint256)": {
        "notice": "converts token native precision amounts to normalized precision 18 amounts"
      },
      "update(address)": {
        "notice": "update is called when a oneToken wants to persist observations"
      },
      "updateDescription(string)": {
        "notice": "set a module description"
      }
    },
    "notice": "renFIL/USD ChainLink Oracle  ",
    "version": 1
  },
  "storageLayout": {
    "storage": [
      {
        "astId": 9729,
        "contract": "contracts/oracle/renFil/RenFILOracle.sol:RenFILOracle",
        "label": "_owner",
        "offset": 0,
        "slot": "0",
        "type": "t_address"
      },
      {
        "astId": 9653,
        "contract": "contracts/oracle/renFil/RenFILOracle.sol:RenFILOracle",
        "label": "_initialized",
        "offset": 20,
        "slot": "0",
        "type": "t_bool"
      },
      {
        "astId": 9655,
        "contract": "contracts/oracle/renFil/RenFILOracle.sol:RenFILOracle",
        "label": "_initializing",
        "offset": 21,
        "slot": "0",
        "type": "t_bool"
      },
      {
        "astId": 5634,
        "contract": "contracts/oracle/renFil/RenFILOracle.sol:RenFILOracle",
        "label": "moduleDescription",
        "offset": 0,
        "slot": "1",
        "type": "t_string_storage"
      },
      {
        "astId": 7837,
        "contract": "contracts/oracle/renFil/RenFILOracle.sol:RenFILOracle",
        "label": "indexToken",
        "offset": 0,
        "slot": "2",
        "type": "t_address"
      },
      {
        "astId": 8389,
        "contract": "contracts/oracle/renFil/RenFILOracle.sol:RenFILOracle",
        "label": "priceFeed",
        "offset": 0,
        "slot": "3",
        "type": "t_contract(AggregatorV3Interface)1272"
      }
    ],
    "types": {
      "t_address": {
        "encoding": "inplace",
        "label": "address",
        "numberOfBytes": "20"
      },
      "t_bool": {
        "encoding": "inplace",
        "label": "bool",
        "numberOfBytes": "1"
      },
      "t_contract(AggregatorV3Interface)1272": {
        "encoding": "inplace",
        "label": "contract AggregatorV3Interface",
        "numberOfBytes": "20"
      },
      "t_string_storage": {
        "encoding": "bytes",
        "label": "string",
        "numberOfBytes": "32"
      }
    }
  }
}