{
  "address": "0x1d22Acb5d544f62be7E94202dac0474bbfD5bddE",
  "abi": [
    {
      "inputs": [
        {
          "internalType": "address",
          "name": "oneTokenFactory_",
          "type": "address"
        },
        {
          "internalType": "address",
          "name": "uniswapFactory_",
          "type": "address"
        },
        {
          "internalType": "address",
          "name": "indexToken_",
          "type": "address"
        },
        {
          "internalType": "uint256",
          "name": "period_1_",
          "type": "uint256"
        },
        {
          "internalType": "uint256",
          "name": "period_2_",
          "type": "uint256"
        },
        {
          "internalType": "bytes32",
          "name": "hash_",
          "type": "bytes32"
        }
      ],
      "stateMutability": "nonpayable",
      "type": "constructor"
    },
    {
      "anonymous": false,
      "inputs": [
        {
          "indexed": false,
          "internalType": "address",
          "name": "sender",
          "type": "address"
        },
        {
          "indexed": false,
          "internalType": "string",
          "name": "description",
          "type": "string"
        }
      ],
      "name": "DescriptionUpdated",
      "type": "event"
    },
    {
      "anonymous": false,
      "inputs": [
        {
          "indexed": false,
          "internalType": "address",
          "name": "sender",
          "type": "address"
        },
        {
          "indexed": false,
          "internalType": "enum InterfaceCommon.ModuleType",
          "name": "moduleType",
          "type": "uint8"
        },
        {
          "indexed": false,
          "internalType": "string",
          "name": "description",
          "type": "string"
        }
      ],
      "name": "ModuleDeployed",
      "type": "event"
    },
    {
      "anonymous": false,
      "inputs": [
        {
          "indexed": false,
          "internalType": "address",
          "name": "sender",
          "type": "address"
        },
        {
          "indexed": false,
          "internalType": "string",
          "name": "description",
          "type": "string"
        },
        {
          "indexed": false,
          "internalType": "address",
          "name": "indexToken",
          "type": "address"
        }
      ],
      "name": "OracleDeployed",
      "type": "event"
    },
    {
      "anonymous": false,
      "inputs": [
        {
          "indexed": false,
          "internalType": "address",
          "name": "sender",
          "type": "address"
        },
        {
          "indexed": false,
          "internalType": "address",
          "name": "baseToken",
          "type": "address"
        },
        {
          "indexed": false,
          "internalType": "address",
          "name": "indexToken",
          "type": "address"
        }
      ],
      "name": "OracleInitialized",
      "type": "event"
    },
    {
      "anonymous": false,
      "inputs": [
        {
          "indexed": true,
          "internalType": "address",
          "name": "previousOwner",
          "type": "address"
        },
        {
          "indexed": true,
          "internalType": "address",
          "name": "newOwner",
          "type": "address"
        }
      ],
      "name": "OwnershipTransferred",
      "type": "event"
    },
    {
      "inputs": [],
      "name": "INIT_HASH",
      "outputs": [
        {
          "internalType": "bytes32",
          "name": "",
          "type": "bytes32"
        }
      ],
      "stateMutability": "view",
      "type": "function"
    },
    {
      "inputs": [],
      "name": "MODULE_TYPE",
      "outputs": [
        {
          "internalType": "bytes32",
          "name": "",
          "type": "bytes32"
        }
      ],
      "stateMutability": "view",
      "type": "function"
    },
    {
      "inputs": [],
      "name": "PERIOD_1",
      "outputs": [
        {
          "internalType": "uint256",
          "name": "",
          "type": "uint256"
        }
      ],
      "stateMutability": "view",
      "type": "function"
    },
    {
      "inputs": [],
      "name": "PERIOD_2",
      "outputs": [
        {
          "internalType": "uint256",
          "name": "",
          "type": "uint256"
        }
      ],
      "stateMutability": "view",
      "type": "function"
    },
    {
      "inputs": [
        {
          "internalType": "address",
          "name": "token",
          "type": "address"
        },
        {
          "internalType": "uint256",
          "name": "amountUsd",
          "type": "uint256"
        }
      ],
      "name": "amountRequired",
      "outputs": [
        {
          "internalType": "uint256",
          "name": "amountTokens",
          "type": "uint256"
        },
        {
          "internalType": "uint256",
          "name": "volatility",
          "type": "uint256"
        }
      ],
      "stateMutability": "view",
      "type": "function"
    },
    {
      "inputs": [
        {
          "internalType": "address",
          "name": "token",
          "type": "address"
        },
        {
          "internalType": "uint256",
          "name": "amountTokens",
          "type": "uint256"
        }
      ],
      "name": "consult",
      "outputs": [
        {
          "internalType": "uint256",
          "name": "amountOut",
          "type": "uint256"
        }
      ],
      "stateMutability": "view",
      "type": "function"
    },
    {
      "inputs": [],
      "name": "indexToken",
      "outputs": [
        {
          "internalType": "address",
          "name": "",
          "type": "address"
        }
      ],
      "stateMutability": "view",
      "type": "function"
    },
    {
      "inputs": [
        {
          "internalType": "address",
          "name": "token",
          "type": "address"
        }
      ],
      "name": "init",
      "outputs": [],
      "stateMutability": "nonpayable",
      "type": "function"
    },
    {
      "inputs": [],
      "name": "moduleDescription",
      "outputs": [
        {
          "internalType": "string",
          "name": "",
          "type": "string"
        }
      ],
      "stateMutability": "view",
      "type": "function"
    },
    {
      "inputs": [],
      "name": "moduleType",
      "outputs": [
        {
          "internalType": "enum InterfaceCommon.ModuleType",
          "name": "",
          "type": "uint8"
        }
      ],
      "stateMutability": "view",
      "type": "function"
    },
    {
      "inputs": [
        {
          "internalType": "address",
          "name": "token",
          "type": "address"
        },
        {
          "internalType": "uint256",
          "name": "amountNormal",
          "type": "uint256"
        }
      ],
      "name": "normalizedToTokens",
      "outputs": [
        {
          "internalType": "uint256",
          "name": "amountTokens",
          "type": "uint256"
        }
      ],
      "stateMutability": "view",
      "type": "function"
    },
    {
      "inputs": [],
      "name": "oneTokenFactory",
      "outputs": [
        {
          "internalType": "address",
          "name": "",
          "type": "address"
        }
      ],
      "stateMutability": "view",
      "type": "function"
    },
    {
      "inputs": [],
      "name": "owner",
      "outputs": [
        {
          "internalType": "address",
          "name": "",
          "type": "address"
        }
      ],
      "stateMutability": "view",
      "type": "function"
    },
    {
      "inputs": [
        {
          "internalType": "address",
          "name": "token",
          "type": "address"
        }
      ],
      "name": "pair1Info",
      "outputs": [
        {
          "internalType": "address",
          "name": "token0",
          "type": "address"
        },
        {
          "internalType": "address",
          "name": "token1",
          "type": "address"
        },
        {
          "internalType": "uint256",
          "name": "price0CumulativeLast",
          "type": "uint256"
        },
        {
          "internalType": "uint256",
          "name": "price1CumulativeLast",
          "type": "uint256"
        },
        {
          "internalType": "uint256",
          "name": "price0Average",
          "type": "uint256"
        },
        {
          "internalType": "uint256",
          "name": "price1Average",
          "type": "uint256"
        },
        {
          "internalType": "uint32",
          "name": "blockTimestampLast",
          "type": "uint32"
        },
        {
          "internalType": "uint256",
          "name": "period",
          "type": "uint256"
        }
      ],
      "stateMutability": "view",
      "type": "function"
    },
    {
      "inputs": [
        {
          "internalType": "address",
          "name": "token",
          "type": "address"
        }
      ],
      "name": "pair2Info",
      "outputs": [
        {
          "internalType": "address",
          "name": "token0",
          "type": "address"
        },
        {
          "internalType": "address",
          "name": "token1",
          "type": "address"
        },
        {
          "internalType": "uint256",
          "name": "price0CumulativeLast",
          "type": "uint256"
        },
        {
          "internalType": "uint256",
          "name": "price1CumulativeLast",
          "type": "uint256"
        },
        {
          "internalType": "uint256",
          "name": "price0Average",
          "type": "uint256"
        },
        {
          "internalType": "uint256",
          "name": "price1Average",
          "type": "uint256"
        },
        {
          "internalType": "uint32",
          "name": "blockTimestampLast",
          "type": "uint32"
        },
        {
          "internalType": "uint256",
          "name": "period",
          "type": "uint256"
        }
      ],
      "stateMutability": "view",
      "type": "function"
    },
    {
      "inputs": [
        {
          "internalType": "address",
          "name": "token",
          "type": "address"
        },
        {
          "internalType": "uint256",
          "name": "amountTokens",
          "type": "uint256"
        }
      ],
      "name": "read",
      "outputs": [
        {
          "internalType": "uint256",
          "name": "amountUsd",
          "type": "uint256"
        },
        {
          "internalType": "uint256",
          "name": "volatility",
          "type": "uint256"
        }
      ],
      "stateMutability": "view",
      "type": "function"
    },
    {
      "inputs": [],
      "name": "renounceOwnership",
      "outputs": [],
      "stateMutability": "nonpayable",
      "type": "function"
    },
    {
      "inputs": [
        {
          "internalType": "address",
          "name": "token",
          "type": "address"
        },
        {
          "internalType": "uint256",
          "name": "amountTokens",
          "type": "uint256"
        }
      ],
      "name": "tokensToNormalized",
      "outputs": [
        {
          "internalType": "uint256",
          "name": "amountNormal",
          "type": "uint256"
        }
      ],
      "stateMutability": "view",
      "type": "function"
    },
    {
      "inputs": [
        {
          "internalType": "address",
          "name": "newOwner",
          "type": "address"
        }
      ],
      "name": "transferOwnership",
      "outputs": [],
      "stateMutability": "nonpayable",
      "type": "function"
    },
    {
      "inputs": [],
      "name": "uniswapFactory",
      "outputs": [
        {
          "internalType": "address",
          "name": "",
          "type": "address"
        }
      ],
      "stateMutability": "view",
      "type": "function"
    },
    {
      "inputs": [
        {
          "internalType": "address",
          "name": "token",
          "type": "address"
        }
      ],
      "name": "update",
      "outputs": [],
      "stateMutability": "nonpayable",
      "type": "function"
    },
    {
      "inputs": [
        {
          "internalType": "string",
          "name": "description",
          "type": "string"
        }
      ],
      "name": "updateDescription",
      "outputs": [],
      "stateMutability": "nonpayable",
      "type": "function"
    }
  ],
  "transactionHash": "0xdc9b427695152bbd88504acea586570715097be5e57fae2ff7ae56a2da58e832",
  "args": [
    "0xD0092632B9Ac5A7856664eeC1abb6E3403a6A36a",
    "0xC0AEe478e3658e2610c5F7A4A2E1777cE9e4f2Ac",
    "0xC02aaA39b223FE8D0A0e5C4F27eAD9083C756Cc2",
    3600,
    86400,
    "0xe18a34eb0e04b04f7a0ac29a6e80748dca96319b42c54d679cb821dca90c6303"
  ],
  "solcInputHash": "3a156f11b9a49bbef4bea6fedd398099",
  "bytecode": "0x6101406040523480156200001257600080fd5b5060405162002f1e38038062002f1e833981810160405260c08110156200003857600080fd5b508051602080830151604080850151606080870151608088015160a090980151845192830190945260238083529697949692959094939288929162002e3e9083013985826004836200008a3362000461565b6001600160a01b038316620000d15760405162461bcd60e51b815260040180806020018281038252603181526020018062002eed6031913960400191505060405180910390fd5b6000815111620001135760405162461bcd60e51b815260040180806020018281038252602d81526020018062002de3602d913960400191505060405180910390fd5b6001600160601b0319606084901b1660a0528160048111156200013257fe5b60808160048111156200014157fe5b60f81b90525080516200015c90600190602084019062000503565b507f2e09cb9dd254b20150f5e6b358e7aabf9802b241ddf84609686d8e4b0d2b96b833838360405180846001600160a01b03168152602001836004811115620001a157fe5b815260200180602001828103825283818151815260200191508051906020019080838360005b83811015620001e1578181015183820152602001620001c7565b50505050905090810190601f1680156200020f5780820380516001836020036101000a031916815260200191505b5094505050505060405180910390a15050506001600160a01b038116620002685760405162461bcd60e51b815260040180806020018281038252602881526020018062002ec56028913960400191505060405180910390fd5b80600260006101000a8154816001600160a01b0302191690836001600160a01b031602179055507f5ca37c59f6b6cafb39fb44368a097af590e5e220c2a015addc4b11977c34766b33838360405180846001600160a01b0316815260200180602001836001600160a01b03168152602001828103825284818151815260200191508051906020019080838360005b8381101562000310578181015183820152602001620002f6565b50505050905090810190601f1680156200033e5780820380516001836020036101000a031916815260200191505b5094505050505060405180910390a15050506001600160a01b038516620003975760405162461bcd60e51b815260040180806020018281038252603a81526020018062002e8b603a913960400191505060405180910390fd5b60008311620003d85760405162461bcd60e51b815260040180806020018281038252602e81526020018062002e10602e913960400191505060405180910390fd5b60008211620004195760405162461bcd60e51b815260040180806020018281038252602e81526020018062002e10602e913960400191505060405180910390fd5b60609490941b6001600160601b0319166101205260c09190915260e052600280546001600160a01b0319166001600160a01b03929092169190911790556101005250620005af565b6001600160a01b038116620004a85760405162461bcd60e51b815260040180806020018281038252602a81526020018062002e61602a913960400191505060405180910390fd5b600080546040516001600160a01b03808516939216917f8be0079c531659141344cd1fd0a4f28419497f9722a3daafe3b4186f6b6457e091a3600080546001600160a01b0319166001600160a01b0392909216919091179055565b828054600181600116156101000203166002900490600052602060002090601f0160209004810192826200053b576000855562000586565b82601f106200055657805160ff191683800117855562000586565b8280016001018555821562000586579182015b828111156200058657825182559160200191906001019062000569565b506200059492915062000598565b5090565b5b8082111562000594576000815560010162000599565b60805160f81c60a05160601c60c05160e051610100516101205160601c6127a062000643600039806106b25280610c9b5280610fa152806111be52806112fa52806114c452806118095250806105425280611c16525080610e5b52806110a752806116ab525080610d3052806112bf52806117e55250806105845280610605528061183c52508061171952506127a06000f3fe608060405234801561001057600080fd5b50600436106101425760003560e01c80636465e69f116100b8578063a2729c231161007c578063a2729c231461038c578063b5966db814610394578063b7b8bae414610411578063e735b48a1461043d578063e7d015f2146104e3578063f2fde38b146104eb57610142565b80636465e69f14610327578063715018a614610350578063757941bb146103585780638bdb2afa146103605780638da5cb5b1461038457610142565b806327d3cb411161010a57806327d3cb411461026d578063374a96a0146102995780633ddac953146102bf5780634d161865146102eb578063517f6870146103175780635775029f1461031f57610142565b8063014c2add14610147578063057a0e2b1461018c57806319ab453c146101a65780631c1b8772146101ce57806327abe584146101f4575b600080fd5b6101736004803603604081101561015d57600080fd5b506001600160a01b038135169060200135610511565b6040805192835260208301919091528051918290030190f35b610194610540565b60408051918252519081900360200190f35b6101cc600480360360208110156101bc57600080fd5b50356001600160a01b0316610564565b005b6101cc600480360360208110156101e457600080fd5b50356001600160a01b0316610c8f565b61021a6004803603602081101561020a57600080fd5b50356001600160a01b0316610f8e565b604080516001600160a01b03998a168152979098166020880152868801959095526060860193909352608085019190915260a084015263ffffffff1660c083015260e08201529051908190036101000190f35b6101946004803603604081101561028357600080fd5b506001600160a01b0381351690602001356110d4565b61021a600480360360208110156102af57600080fd5b50356001600160a01b03166111ab565b610194600480360360408110156102d557600080fd5b506001600160a01b0381351690602001356112ec565b6101736004803603604081101561030157600080fd5b506001600160a01b0381351690602001356114b4565b6101946116a9565b6101946116cd565b61032f611717565b6040518082600481111561033f57fe5b815260200191505060405180910390f35b6101cc61173b565b6101946117e3565b610368611807565b604080516001600160a01b039092168252519081900360200190f35b61036861182b565b61036861183a565b61039c61185e565b6040805160208082528351818301528351919283929083019185019080838360005b838110156103d65781810151838201526020016103be565b50505050905090810190601f1680156104035780820380516001836020036101000a031916815260200191505b509250505060405180910390f35b6101946004803603604081101561042757600080fd5b506001600160a01b0381351690602001356118eb565b6101cc6004803603602081101561045357600080fd5b81019060208101813564010000000081111561046e57600080fd5b82018360208201111561048057600080fd5b803590602001918460018302840111640100000000831117156104a257600080fd5b91908080601f0160208091040260200160405190810160405280939291908181526020018383808284376000920191909152509295506119c9945050505050565b610368611b28565b6101cc6004803603602081101561050157600080fd5b50356001600160a01b0316611b37565b6002546000908190610535906001600160a01b031661053086866112ec565b6110d4565b946001945092505050565b7f000000000000000000000000000000000000000000000000000000000000000081565b604080516342f6e38960e01b815233600482015290516001600160a01b037f000000000000000000000000000000000000000000000000000000000000000016916342f6e389916024808301926020929190829003018186803b1580156105ca57600080fd5b505afa1580156105de573d6000803e3d6000fd5b505050506040513d60208110156105f457600080fd5b505161066157336001600160a01b037f000000000000000000000000000000000000000000000000000000000000000016146106615760405162461bcd60e51b81526004018080602001828103825260528152602001806126ef6052913960600191505060405180910390fd5b6001600160a01b0381166106a65760405162461bcd60e51b81526004018080602001828103825260308152602001806125d06030913960400191505060405180910390fd5b6002546000906106e2907f00000000000000000000000000000000000000000000000000000000000000009084906001600160a01b0316611ba1565b90506001600160a01b0381166107295760405162461bcd60e51b81526004018080602001828103825260288152602001806125826028913960400191505060405180910390fd5b6001600160a01b038082166000908152600360209081526040808320600490925290912081549192909116158015610769575080546001600160a01b0316155b15610c8957826001600160a01b0316630dfe16816040518163ffffffff1660e01b815260040160206040518083038186803b1580156107a757600080fd5b505afa1580156107bb573d6000803e3d6000fd5b505050506040513d60208110156107d157600080fd5b505182546001600160a01b0319166001600160a01b0391821617835560408051630dfe168160e01b8152905191851691630dfe168191600480820192602092909190829003018186803b15801561082757600080fd5b505afa15801561083b573d6000803e3d6000fd5b505050506040513d602081101561085157600080fd5b505181546001600160a01b0319166001600160a01b039182161782556040805163d21220a760e01b815290519185169163d21220a791600480820192602092909190829003018186803b1580156108a757600080fd5b505afa1580156108bb573d6000803e3d6000fd5b505050506040513d60208110156108d157600080fd5b50516001830180546001600160a01b0319166001600160a01b039283161790556040805163d21220a760e01b815290519185169163d21220a791600480820192602092909190829003018186803b15801561092b57600080fd5b505afa15801561093f573d6000803e3d6000fd5b505050506040513d602081101561095557600080fd5b50516001820180546001600160a01b0319166001600160a01b0392831617905560408051635909c0d560e01b8152905191851691635909c0d591600480820192602092909190829003018186803b1580156109af57600080fd5b505afa1580156109c3573d6000803e3d6000fd5b505050506040513d60208110156109d957600080fd5b5051600283015560408051635909c0d560e01b815290516001600160a01b03851691635909c0d5916004808301926020929190829003018186803b158015610a2057600080fd5b505afa158015610a34573d6000803e3d6000fd5b505050506040513d6020811015610a4a57600080fd5b5051600282015560408051635a3d549360e01b815290516001600160a01b03851691635a3d5493916004808301926020929190829003018186803b158015610a9157600080fd5b505afa158015610aa5573d6000803e3d6000fd5b505050506040513d6020811015610abb57600080fd5b5051600383015560408051635a3d549360e01b815290516001600160a01b03851691635a3d5493916004808301926020929190829003018186803b158015610b0257600080fd5b505afa158015610b16573d6000803e3d6000fd5b505050506040513d6020811015610b2c57600080fd5b5051600382015560408051630240bc6b60e21b8152905160009182916001600160a01b03871691630902f1ac916004808301926060929190829003018186803b158015610b7857600080fd5b505afa158015610b8c573d6000803e3d6000fd5b505050506040513d6060811015610ba257600080fd5b50805160208201516040909201516004878101805463ffffffff1990811663ffffffff94851617918290559188018054919093169116179055925090506001600160701b03821615801590610bff57506001600160701b03811615155b610c3a5760405162461bcd60e51b81526004018080602001828103825260278152602001806124d66027913960400191505060405180910390fd5b600254604080513381526001600160a01b03808a16602083015290921682820152517f615e5388e077a0f73212d5edcf91ad20a6738753574b7a3749872baa98995be59181900360600190a150505b50505050565b600254600090610ccb907f00000000000000000000000000000000000000000000000000000000000000009084906001600160a01b0316611ba1565b6001600160a01b03808216600090815260036020908152604080832060049092529091208154939450909290911615610c89576000806000610d0c86611c61565b60048089015490880154939650919450925063ffffffff90811683039181168303907f0000000000000000000000000000000000000000000000000000000000000000908316101580610d9b5750604080516020810190915260058801546001600160e01b03168152610d9090610d8b90670de0b6b3a7640000611e50565b611ee4565b6001600160901b0316155b15610e595760405180602001604052808363ffffffff168960020154880381610dc057fe5b046001600160e01b0390811690915290516005890180546001600160e01b0319169190921617905560408051602081019091526003880154819063ffffffff851690870381610e0b57fe5b046001600160e01b0390811690915290516006890180546001600160e01b03191691909216179055600287018590556003870184905560048701805463ffffffff191663ffffffff85161790555b7f00000000000000000000000000000000000000000000000000000000000000008163ffffffff16101580610ec55750604080516020810190915260058701546001600160e01b03168152610eba90610d8b90670de0b6b3a7640000611e50565b6001600160901b0316155b15610f835760405180602001604052808263ffffffff168860020154880381610eea57fe5b046001600160e01b0390811690915290516005880180546001600160e01b0319169190921617905560408051602081019091526003870154819063ffffffff841690870381610f3557fe5b046001600160e01b0390811690915290516006880180546001600160e01b03191691909216179055600286018590556003860184905560048601805463ffffffff191663ffffffff85161790555b505050505050505050565b6000806000806000806000806000610fdc7f00000000000000000000000000000000000000000000000000000000000000008b600260009054906101000a90046001600160a01b0316611ba1565b6001600160a01b038082166000908152600460209081526040918290208054600182015460028301546003840154865195860190965260058401546001600160e01b031685529697509195908516949190911692909161104890610d8b90670de0b6b3a7640000611e50565b604080516020810190915260068701546001600160e01b0316815261107990610d8b90670de0b6b3a7640000611e50565b600490960154949e50929c50909a5098506001600160901b03908116975091909116945063ffffffff1692507f0000000000000000000000000000000000000000000000000000000000000000915050919395975091939597565b6000808390506000816001600160a01b031663313ce5676040518163ffffffff1660e01b815260040160206040518083038186803b15801561111557600080fd5b505afa158015611129573d6000803e3d6000fd5b505050506040513d602081101561113f57600080fd5b505160ff16905060128111156111865760405162461bcd60e51b815260040180806020018281038252603b815260200180612624603b913960400191505060405180910390fd5b60128114156111995783925050506111a5565b601203600a0a83029150505b92915050565b60008060008060008060008060006111f97f00000000000000000000000000000000000000000000000000000000000000008b600260009054906101000a90046001600160a01b0316611ba1565b6001600160a01b0380821660009081526003602081815260409283902080546001820154600283015494830154865194850190965260058301546001600160e01b0316845296975090959085169416929061126090610d8b90670de0b6b3a7640000611e50565b604080516020810190915260068701546001600160e01b0316815261129190610d8b90670de0b6b3a7640000611e50565b600490960154949e50929c50909a5098506001600160901b03908116975091909116945063ffffffff1692507f0000000000000000000000000000000000000000000000000000000000000000915050919395975091939597565b600254600090819061132a907f00000000000000000000000000000000000000000000000000000000000000009086906001600160a01b0316611ba1565b6001600160a01b038082166000908152600360209081526040808320600490925290912081549394509092909187811691161480611377575060018201546001600160a01b038781169116145b6113b25760405162461bcd60e51b81526004018080602001828103825260298152602001806124fd6029913960400191505060405180910390fd5b600082600201541180156113ca575060008160020154115b6114055760405162461bcd60e51b815260040180806020018281038252603e81526020018061265f603e913960400191505060405180910390fd5b815460009061145290610d8b9088906001600160a01b038b811691161461142f5785600601611434565b856005015b604080516020810190915290546001600160e01b0316815290611e50565b82546001600160901b0391909116915060009061148a90610d8b9089906001600160a01b038c811691161461142f5785600601611434565b6001600160901b03169050808211156114a5578095506114a9565b8195505b505050505092915050565b600254600090819081906114f4907f00000000000000000000000000000000000000000000000000000000000000009087906001600160a01b0316611ba1565b6001600160a01b038082166000908152600360209081526040808320600490925290912081549394509092909188811691161480611541575060018201546001600160a01b038881169116145b61157c5760405162461bcd60e51b81526004018080602001828103825260298152602001806124fd6029913960400191505060405180910390fd5b60008260020154118015611594575060008160020154115b6115cf5760405162461bcd60e51b815260040180806020018281038252603e81526020018061265f603e913960400191505060405180910390fd5b6002546115e5906001600160a01b0316876118eb565b825490965060009061163e90610d8b908990611638906001600160a01b038d8116911614611616578660060161161b565b866005015b604080516020810190915290546001600160e01b03168152611eeb565b90611e50565b82546001600160901b0391909116915060009061167a90610d8b908a90611638906001600160a01b038e8116911614611616578660060161161b565b6001600160901b031690508082111561169557819650611699565b8096505b6001955050505050509250929050565b7f000000000000000000000000000000000000000000000000000000000000000081565b60405160200180807f49434849205631204f7261636c6520496d706c656d656e746174696f6e000000815250601d0190506040516020818303038152906040528051906020012081565b7f000000000000000000000000000000000000000000000000000000000000000081565b611743611fd5565b6001600160a01b031661175461182b565b6001600160a01b0316146117995760405162461bcd60e51b81526004018080602001828103825260248152602001806126006024913960400191505060405180910390fd5b600080546040516001600160a01b03909116907f8be0079c531659141344cd1fd0a4f28419497f9722a3daafe3b4186f6b6457e0908390a3600080546001600160a01b0319169055565b7f000000000000000000000000000000000000000000000000000000000000000081565b7f000000000000000000000000000000000000000000000000000000000000000081565b6000546001600160a01b031690565b7f000000000000000000000000000000000000000000000000000000000000000081565b60018054604080516020600284861615610100026000190190941693909304601f810184900484028201840190925281815292918301828280156118e35780601f106118b8576101008083540402835291602001916118e3565b820191906000526020600020905b8154815290600101906020018083116118c657829003601f168201915b505050505081565b6000808390506000816001600160a01b031663313ce5676040518163ffffffff1660e01b815260040160206040518083038186803b15801561192c57600080fd5b505afa158015611940573d6000803e3d6000fd5b505050506040513d602081101561195657600080fd5b505160ff169050601281111561199d5760405162461bcd60e51b815260040180806020018281038252603b815260200180612624603b913960400191505060405180910390fd5b60128114156119b05783925050506111a5565b80601203600a0a84816119bf57fe5b0495945050505050565b6119d1611fd5565b6001600160a01b03166119e261182b565b6001600160a01b031614611a275760405162461bcd60e51b81526004018080602001828103825260248152602001806126006024913960400191505060405180910390fd5b6000815111611a675760405162461bcd60e51b815260040180806020018281038252602d815260200180612526602d913960400191505060405180910390fd5b8051611a7a90600190602084019061240f565b507f37cc8c6ced0cbc4d440fcfa810a2f09f40b8f0127c3656103edf26b3d93e0ec1338260405180836001600160a01b0316815260200180602001828103825283818151815260200191508051906020019080838360005b83811015611aea578181015183820152602001611ad2565b50505050905090810190601f168015611b175780820380516001836020036101000a031916815260200191505b50935050505060405180910390a150565b6002546001600160a01b031681565b611b3f611fd5565b6001600160a01b0316611b5061182b565b6001600160a01b031614611b955760405162461bcd60e51b81526004018080602001828103825260248152602001806126006024913960400191505060405180910390fd5b611b9e81611fd9565b50565b6000806000611bb08585612079565b604080516bffffffffffffffffffffffff19606094851b811660208084019190915293851b81166034830152825160288184030181526048830184528051908501206001600160f81b031960688401529a90941b9093166069840152607d8301989098527f0000000000000000000000000000000000000000000000000000000000000000609d808401919091528851808403909101815260bd909201909752805196019590952095945050505050565b6000806000611c6e612141565b9050836001600160a01b0316635909c0d56040518163ffffffff1660e01b815260040160206040518083038186803b158015611ca957600080fd5b505afa158015611cbd573d6000803e3d6000fd5b505050506040513d6020811015611cd357600080fd5b505160408051635a3d549360e01b815290519194506001600160a01b03861691635a3d549391600480820192602092909190829003018186803b158015611d1957600080fd5b505afa158015611d2d573d6000803e3d6000fd5b505050506040513d6020811015611d4357600080fd5b505160408051630240bc6b60e21b81529051919350600091829182916001600160a01b03891691630902f1ac916004808301926060929190829003018186803b158015611d8f57600080fd5b505afa158015611da3573d6000803e3d6000fd5b505050506040513d6060811015611db957600080fd5b5080516020820151604090920151909450909250905063ffffffff80821690851614611e465780840363ffffffff8116611dff6001600160701b0380861690871661214b565b600001516001600160e01b031602870196508063ffffffff16611e34856001600160701b0316856001600160701b031661214b565b516001600160e01b0316029590950194505b5050509193909250565b611e5861249b565b6000821580611e7e57505082516001600160e01b031682810290838281611e7b57fe5b04145b611ecf576040805162461bcd60e51b815260206004820152601960248201527f4669786564506f696e743a3a6d756c3a206f766572666c6f7700000000000000604482015290519081900360640190fd5b60408051602081019091529081529392505050565b5160701c90565b611ef36124ae565b81516001600160e01b0316611f395760405162461bcd60e51b815260040180806020018281038252602a815260200180612741602a913960400191505060405180910390fd5b81600001516001600160e01b031660011415611f9c576040805162461bcd60e51b815260206004820181905260248201527f4669786564506f696e743a3a7265636970726f63616c3a206f766572666c6f77604482015290519081900360640190fd5b604051806020016040528083600001516001600160e01b0316600160e01b81611fc157fe5b046001600160e01b03168152509050919050565b3390565b6001600160a01b03811661201e5760405162461bcd60e51b815260040180806020018281038252602a81526020018061269d602a913960400191505060405180910390fd5b600080546040516001600160a01b03808516939216917f8be0079c531659141344cd1fd0a4f28419497f9722a3daafe3b4186f6b6457e091a3600080546001600160a01b0319166001600160a01b0392909216919091179055565b600080826001600160a01b0316846001600160a01b031614156120cd5760405162461bcd60e51b815260040180806020018281038252602f815260200180612553602f913960400191505060405180910390fd5b826001600160a01b0316846001600160a01b0316106120ed5782846120f0565b83835b90925090506001600160a01b03821661213a5760405162461bcd60e51b81526004018080602001828103825260288152602001806126c76028913960400191505060405180910390fd5b9250929050565b63ffffffff421690565b6121536124ae565b600082116121925760405162461bcd60e51b81526004018080602001828103825260268152602001806125aa6026913960400191505060405180910390fd5b826121ac57506040805160208101909152600081526111a5565b6001600160901b03831161224857600082607085901b816121c957fe5b0490506001600160e01b03811115612228576040805162461bcd60e51b815260206004820152601e60248201527f4669786564506f696e743a3a6672616374696f6e3a206f766572666c6f770000604482015290519081900360640190fd5b6040518060200160405280826001600160e01b03168152509150506111a5565b600061225984600160701b856122b7565b90506001600160e01b03811115612228576040805162461bcd60e51b815260206004820152601e60248201527f4669786564506f696e743a3a6672616374696f6e3a206f766572666c6f770000604482015290519081900360640190fd5b60008060006122c68686612372565b91509150600084806122d457fe5b8688099050828111156122e8576001820391505b918290039181612306578483816122fb57fe5b04935050505061236b565b84821061235a576040805162461bcd60e51b815260206004820152601a60248201527f46756c6c4d6174683a2046554c4c4449565f4f564552464c4f57000000000000604482015290519081900360640190fd5b61236583838761239f565b93505050505b9392505050565b6000808060001984860990508385029250828103915082811015612397576001820391505b509250929050565b600081810382168083816123af57fe5b0492508085816123bb57fe5b0494508081600003816123ca57fe5b60028581038087028203028087028203028087028203028087028203028087028203028087028203029586029003909402930460010193909302939093010292915050565b828054600181600116156101000203166002900490600052602060002090601f016020900481019282612445576000855561248b565b82601f1061245e57805160ff191683800117855561248b565b8280016001018555821561248b579182015b8281111561248b578251825591602001919060010190612470565b506124979291506124c0565b5090565b6040518060200160405280600081525090565b60408051602081019091526000815290565b5b8082111561249757600081556001016124c156fe556e69737761704f7261636c6554574150436f6d7061726556323a204e4f5f5245534552564553556e69737761704f7261636c6554574150436f6d7061726556323a20494e56414c49445f544f4b454e494348494d6f64756c65436f6d6d6f6e3a206465736372697074696f6e2063616e6e6f7420626520656d707479556e69737761704f7261636c6554574150436f6d7061726556323a204944454e544943414c5f414444524553534553556e69737761704f7261636c6554574150436f6d7061726556323a20756e6b6e6f776e20706169724669786564506f696e743a3a6672616374696f6e3a206469766973696f6e206279207a65726f556e69737761704f7261636c6554574150436f6d7061726556323a20746f6b656e2063616e6e6f74206265206e756c6c494348494f776e61626c653a2063616c6c6572206973206e6f7420746865206f776e65724f7261636c65436f6d6d6f6e3a20756e737570706f7274656420746f6b656e20707265636973696f6e202867726561746572207468616e20313829556e69737761704f7261636c6554574150436f6d7061726556323a20476174686572696e6720686973746f72792e2054727920616761696e206c61746572494348494f776e61626c653a206e6577206f776e657220697320746865207a65726f2061646472657373556e69737761704f7261636c6554574150436f6d7061726556323a205a45524f5f41444452455353494348494d6f64756c65436f6d6d6f6e3a206d73672e73656e646572206973206e6f74206d6f64756c65206f776e65722c20746f6b656e20666163746f7279206f72207265676973746564206d6f64756c654669786564506f696e743a3a7265636970726f63616c3a207265636970726f63616c206f66207a65726fa2646970667358221220e68bdf7a96ef754e8a645718c247b49efd6cd080f1a5050c0e5f074a1aac867d64736f6c63430007060033494348494d6f64756c65436f6d6d6f6e3a206465736372697074696f6e2063616e6e6f7420626520656d707479556e69737761704f7261636c6554574150436f6d7061726556323a20706572696f64206d757374206265203e203049434849205457415020436f6d7061726520556e6973776170204f7261636c65205632494348494f776e61626c653a206e6577206f776e657220697320746865207a65726f2061646472657373556e69737761704f7261636c6554574150436f6d7061726556323a20756e6973776170466163746f72792063616e6e6f7420626520656d7074794f7261636c65436f6d6d6f6e3a20696e646578546f6b656e2063616e6e6f7420626520656d707479494348494d6f64756c65436f6d6d6f6e3a206f6e65546f6b656e466163746f72792063616e6e6f7420626520656d707479",
  "devdoc": {
    "kind": "dev",
    "methods": {
      "amountRequired(address,uint256)": {
        "details": "index token is established at deployment time",
        "params": {
          "amountTokens": "quantity, token precision",
          "amountUsd": "US dollar equivalent, precision 18",
          "token": "ERC20 token",
          "volatility": "metric for future use-cases"
        }
      },
      "constructor": {
        "details": "deploy multiple instances to support different configurations",
        "params": {
          "hash_": "init hash for the pairs to be used by the oracle",
          "indexToken_": "the index token to use for valuations. If not a usd collateral token then the Oracle should not be registered in the factory but it can be used by CompositeOracles.",
          "oneTokenFactory_": "oneToken factory to bind to",
          "period_1_": "the averaging period to use for price smoothing",
          "period_2_": "the averaging period to use for price smoothing",
          "uniswapFactory_": "external factory contract needed by the uniswap library"
        }
      },
      "consult(address,uint256)": {
        "details": "always returns 0 before update(token) has been called successfully for the first time.",
        "params": {
          "amountOut": "anount in tokens, reciprocal token",
          "amountTokens": "amount in token native precision",
          "token": "baseToken to update"
        }
      },
      "init(address)": {
        "details": "initializes the first time, then does no work. Initialized from the Factory when assigned to an asset.",
        "params": {
          "token": "the base token. index is established at deployment time and cannot be changed"
        }
      },
      "normalizedToTokens(address,uint256)": {
        "params": {
          "amountNormal": "quantity in precision-18",
          "amountTokens": "quantity scaled to token decimals()",
          "token": "ERC20 token contract"
        }
      },
      "owner()": {
        "details": "Returns the address of the current owner."
      },
      "pair1Info(address)": {
        "params": {
          "token": "baseToken to inspect"
        }
      },
      "pair2Info(address)": {
        "params": {
          "token": "baseToken to inspect"
        }
      },
      "read(address,uint256)": {
        "details": "index token is established at deployment time",
        "params": {
          "amountTokens": "quantity, token precision",
          "amountUsd": "US dollar equivalent, precision 18",
          "token": "ERC20 token",
          "volatility": "metric for future use-cases "
        }
      },
      "renounceOwnership()": {
        "details": "Leaves the contract without owner. It will not be possible to call `onlyOwner` functions anymore. Can only be called by the current owner. NOTE: Renouncing ownership will leave the contract without an owner, thereby removing any functionality that is only available to the owner."
      },
      "tokensToNormalized(address,uint256)": {
        "params": {
          "amountNormal": "quantity in precision-18",
          "amountTokens": "quantity scaled to token decimals",
          "token": "ERC20 token contract"
        }
      },
      "transferOwnership(address)": {
        "details": "Transfers ownership of the contract to a new account (`newOwner`). Can only be called by the current owner."
      },
      "update(address)": {
        "details": "it is permissible for anyone to supply gas and update the oracle's price history.",
        "params": {
          "token": "baseToken to update"
        }
      },
      "updateDescription(string)": {
        "params": {
          "description": "new module desciption"
        }
      }
    },
    "version": 1
  },
  "userdoc": {
    "kind": "user",
    "methods": {
      "amountRequired(address,uint256)": {
        "notice": "returns equivalent baseTokens for amountUsd, indexToken"
      },
      "constructor": {
        "notice": "the indexToken (index token), averaging period and uniswapfactory cannot be changed post-deployment"
      },
      "consult(address,uint256)": {
        "notice": "returns equivalent indexTokens for amountIn, token"
      },
      "init(address)": {
        "notice": "configures parameters for a pair, token versus indexToken"
      },
      "normalizedToTokens(address,uint256)": {
        "notice": "converts normalized precision 18 amounts to token native precision amounts, truncates low-order values"
      },
      "pair1Info(address)": {
        "notice": "discoverable internal state. Returns pair info for period 1"
      },
      "pair2Info(address)": {
        "notice": "discoverable internal state. Returns pair info for period 2"
      },
      "read(address,uint256)": {
        "notice": "returns equivalent indexTokens for amountIn, token"
      },
      "tokensToNormalized(address,uint256)": {
        "notice": "converts token native precision amounts to normalized precision 18 amounts"
      },
      "update(address)": {
        "notice": "updates price observation history, if necessary"
      },
      "updateDescription(string)": {
        "notice": "set a module description"
      }
    },
    "notice": "A oracle that uses 2 TWAP periods and uses the lower of the 2 values. This oracle can be used for both Uniswap and Sushi V2 pairs.  Note that the price average is only guaranteed to be over at least 1 period, but may be over a longer period, Periodicity is fixed at deployment time. Index (usually USD) token is fixed at deployment time. A single deployment can be shared by multiple oneToken clients and can observe multiple base tokens. Non-USD index tokens are possible. Such deployments can used as interim oracles in Composite Oracles. They should NOT be registered because they are not, by definition, valid sources of USD quotes.   Example calculation MPH/ETH -> ETH/USD 1hr and MPH/ETH -> ETH/USD 24hr take the lower value and return.  This is a safety net to help  prevent price manipulation.  This oracle combines 2 TWAPs to save on gas for keeping seperate oracles for these 2 PERIODS.",
    "version": 1
  },
  "storageLayout": {
    "storage": [
      {
        "astId": 11890,
        "contract": "contracts/oracle/uniswap/UniswapOracleTWAPCompareV2.sol:UniswapOracleTWAPCompareV2",
        "label": "_owner",
        "offset": 0,
        "slot": "0",
        "type": "t_address"
      },
      {
        "astId": 11814,
        "contract": "contracts/oracle/uniswap/UniswapOracleTWAPCompareV2.sol:UniswapOracleTWAPCompareV2",
        "label": "_initialized",
        "offset": 20,
        "slot": "0",
        "type": "t_bool"
      },
      {
        "astId": 11816,
        "contract": "contracts/oracle/uniswap/UniswapOracleTWAPCompareV2.sol:UniswapOracleTWAPCompareV2",
        "label": "_initializing",
        "offset": 21,
        "slot": "0",
        "type": "t_bool"
      },
      {
        "astId": 5668,
        "contract": "contracts/oracle/uniswap/UniswapOracleTWAPCompareV2.sol:UniswapOracleTWAPCompareV2",
        "label": "moduleDescription",
        "offset": 0,
        "slot": "1",
        "type": "t_string_storage"
      },
      {
        "astId": 7871,
        "contract": "contracts/oracle/uniswap/UniswapOracleTWAPCompareV2.sol:UniswapOracleTWAPCompareV2",
        "label": "indexToken",
        "offset": 0,
        "slot": "2",
        "type": "t_address"
      },
      {
        "astId": 10292,
        "contract": "contracts/oracle/uniswap/UniswapOracleTWAPCompareV2.sol:UniswapOracleTWAPCompareV2",
        "label": "period_1_pairs",
        "offset": 0,
        "slot": "3",
        "type": "t_mapping(t_address,t_struct(Pair)10288_storage)"
      },
      {
        "astId": 10296,
        "contract": "contracts/oracle/uniswap/UniswapOracleTWAPCompareV2.sol:UniswapOracleTWAPCompareV2",
        "label": "period_2_pairs",
        "offset": 0,
        "slot": "4",
        "type": "t_mapping(t_address,t_struct(Pair)10288_storage)"
      }
    ],
    "types": {
      "t_address": {
        "encoding": "inplace",
        "label": "address",
        "numberOfBytes": "20"
      },
      "t_bool": {
        "encoding": "inplace",
        "label": "bool",
        "numberOfBytes": "1"
      },
      "t_mapping(t_address,t_struct(Pair)10288_storage)": {
        "encoding": "mapping",
        "key": "t_address",
        "label": "mapping(address => struct UniswapOracleTWAPCompareV2.Pair)",
        "numberOfBytes": "32",
        "value": "t_struct(Pair)10288_storage"
      },
      "t_string_storage": {
        "encoding": "bytes",
        "label": "string",
        "numberOfBytes": "32"
      },
      "t_struct(Pair)10288_storage": {
        "encoding": "inplace",
        "label": "struct UniswapOracleTWAPCompareV2.Pair",
        "members": [
          {
            "astId": 10275,
            "contract": "contracts/oracle/uniswap/UniswapOracleTWAPCompareV2.sol:UniswapOracleTWAPCompareV2",
            "label": "token0",
            "offset": 0,
            "slot": "0",
            "type": "t_address"
          },
          {
            "astId": 10277,
            "contract": "contracts/oracle/uniswap/UniswapOracleTWAPCompareV2.sol:UniswapOracleTWAPCompareV2",
            "label": "token1",
            "offset": 0,
            "slot": "1",
            "type": "t_address"
          },
          {
            "astId": 10279,
            "contract": "contracts/oracle/uniswap/UniswapOracleTWAPCompareV2.sol:UniswapOracleTWAPCompareV2",
            "label": "price0CumulativeLast",
            "offset": 0,
            "slot": "2",
            "type": "t_uint256"
          },
          {
            "astId": 10281,
            "contract": "contracts/oracle/uniswap/UniswapOracleTWAPCompareV2.sol:UniswapOracleTWAPCompareV2",
            "label": "price1CumulativeLast",
            "offset": 0,
            "slot": "3",
            "type": "t_uint256"
          },
          {
            "astId": 10283,
            "contract": "contracts/oracle/uniswap/UniswapOracleTWAPCompareV2.sol:UniswapOracleTWAPCompareV2",
            "label": "blockTimestampLast",
            "offset": 0,
            "slot": "4",
            "type": "t_uint32"
          },
          {
            "astId": 10285,
            "contract": "contracts/oracle/uniswap/UniswapOracleTWAPCompareV2.sol:UniswapOracleTWAPCompareV2",
            "label": "price0Average",
            "offset": 0,
            "slot": "5",
            "type": "t_struct(uq112x112)3331_storage"
          },
          {
            "astId": 10287,
            "contract": "contracts/oracle/uniswap/UniswapOracleTWAPCompareV2.sol:UniswapOracleTWAPCompareV2",
            "label": "price1Average",
            "offset": 0,
            "slot": "6",
            "type": "t_struct(uq112x112)3331_storage"
          }
        ],
        "numberOfBytes": "224"
      },
      "t_struct(uq112x112)3331_storage": {
        "encoding": "inplace",
        "label": "struct FixedPoint.uq112x112",
        "members": [
          {
            "astId": 3330,
            "contract": "contracts/oracle/uniswap/UniswapOracleTWAPCompareV2.sol:UniswapOracleTWAPCompareV2",
            "label": "_x",
            "offset": 0,
            "slot": "0",
            "type": "t_uint224"
          }
        ],
        "numberOfBytes": "32"
      },
      "t_uint224": {
        "encoding": "inplace",
        "label": "uint224",
        "numberOfBytes": "28"
      },
      "t_uint256": {
        "encoding": "inplace",
        "label": "uint256",
        "numberOfBytes": "32"
      },
      "t_uint32": {
        "encoding": "inplace",
        "label": "uint32",
        "numberOfBytes": "4"
      }
    }
  }
}