{
  "address": "0x09860F317b3Cefc55126101E184522056c1Ea321",
  "abi": [
    {
      "inputs": [
        {
          "internalType": "address",
          "name": "oneTokenFactory_",
          "type": "address"
        },
        {
          "internalType": "string",
          "name": "description_",
          "type": "string"
        },
        {
          "internalType": "address",
          "name": "indexToken_",
          "type": "address"
        }
      ],
      "stateMutability": "nonpayable",
      "type": "constructor"
    },
    {
      "anonymous": false,
      "inputs": [
        {
          "indexed": false,
          "internalType": "address",
          "name": "sender",
          "type": "address"
        },
        {
          "indexed": false,
          "internalType": "string",
          "name": "description",
          "type": "string"
        }
      ],
      "name": "DescriptionUpdated",
      "type": "event"
    },
    {
      "anonymous": false,
      "inputs": [
        {
          "indexed": false,
          "internalType": "address",
          "name": "sender",
          "type": "address"
        },
        {
          "indexed": false,
          "internalType": "enum InterfaceCommon.ModuleType",
          "name": "moduleType",
          "type": "uint8"
        },
        {
          "indexed": false,
          "internalType": "string",
          "name": "description",
          "type": "string"
        }
      ],
      "name": "ModuleDeployed",
      "type": "event"
    },
    {
      "anonymous": false,
      "inputs": [
        {
          "indexed": false,
          "internalType": "address",
          "name": "sender",
          "type": "address"
        },
        {
          "indexed": false,
          "internalType": "string",
          "name": "description",
          "type": "string"
        },
        {
          "indexed": false,
          "internalType": "address",
          "name": "indexToken",
          "type": "address"
        }
      ],
      "name": "OracleDeployed",
      "type": "event"
    },
    {
      "anonymous": false,
      "inputs": [
        {
          "indexed": false,
          "internalType": "address",
          "name": "sender",
          "type": "address"
        },
        {
          "indexed": false,
          "internalType": "address",
          "name": "baseToken",
          "type": "address"
        },
        {
          "indexed": false,
          "internalType": "address",
          "name": "indexToken",
          "type": "address"
        }
      ],
      "name": "OracleInitialized",
      "type": "event"
    },
    {
      "anonymous": false,
      "inputs": [
        {
          "indexed": true,
          "internalType": "address",
          "name": "previousOwner",
          "type": "address"
        },
        {
          "indexed": true,
          "internalType": "address",
          "name": "newOwner",
          "type": "address"
        }
      ],
      "name": "OwnershipTransferred",
      "type": "event"
    },
    {
      "inputs": [],
      "name": "MODULE_TYPE",
      "outputs": [
        {
          "internalType": "bytes32",
          "name": "",
          "type": "bytes32"
        }
      ],
      "stateMutability": "view",
      "type": "function"
    },
    {
      "inputs": [
        {
          "internalType": "address",
          "name": "token",
          "type": "address"
        },
        {
          "internalType": "uint256",
          "name": "amountUsd",
          "type": "uint256"
        }
      ],
      "name": "amountRequired",
      "outputs": [
        {
          "internalType": "uint256",
          "name": "amountTokens",
          "type": "uint256"
        },
        {
          "internalType": "uint256",
          "name": "volatility",
          "type": "uint256"
        }
      ],
      "stateMutability": "view",
      "type": "function"
    },
    {
      "inputs": [],
      "name": "indexToken",
      "outputs": [
        {
          "internalType": "address",
          "name": "",
          "type": "address"
        }
      ],
      "stateMutability": "view",
      "type": "function"
    },
    {
      "inputs": [
        {
          "internalType": "address",
          "name": "baseToken",
          "type": "address"
        }
      ],
      "name": "init",
      "outputs": [],
      "stateMutability": "nonpayable",
      "type": "function"
    },
    {
      "inputs": [],
      "name": "moduleDescription",
      "outputs": [
        {
          "internalType": "string",
          "name": "",
          "type": "string"
        }
      ],
      "stateMutability": "view",
      "type": "function"
    },
    {
      "inputs": [],
      "name": "moduleType",
      "outputs": [
        {
          "internalType": "enum InterfaceCommon.ModuleType",
          "name": "",
          "type": "uint8"
        }
      ],
      "stateMutability": "view",
      "type": "function"
    },
    {
      "inputs": [
        {
          "internalType": "address",
          "name": "token",
          "type": "address"
        },
        {
          "internalType": "uint256",
          "name": "amountNormal",
          "type": "uint256"
        }
      ],
      "name": "normalizedToTokens",
      "outputs": [
        {
          "internalType": "uint256",
          "name": "amountTokens",
          "type": "uint256"
        }
      ],
      "stateMutability": "view",
      "type": "function"
    },
    {
      "inputs": [],
      "name": "oneTokenFactory",
      "outputs": [
        {
          "internalType": "address",
          "name": "",
          "type": "address"
        }
      ],
      "stateMutability": "view",
      "type": "function"
    },
    {
      "inputs": [],
      "name": "owner",
      "outputs": [
        {
          "internalType": "address",
          "name": "",
          "type": "address"
        }
      ],
      "stateMutability": "view",
      "type": "function"
    },
    {
      "inputs": [
        {
          "internalType": "address",
          "name": "token",
          "type": "address"
        },
        {
          "internalType": "uint256",
          "name": "amountTokens",
          "type": "uint256"
        }
      ],
      "name": "read",
      "outputs": [
        {
          "internalType": "uint256",
          "name": "amountUsd",
          "type": "uint256"
        },
        {
          "internalType": "uint256",
          "name": "volatility",
          "type": "uint256"
        }
      ],
      "stateMutability": "view",
      "type": "function"
    },
    {
      "inputs": [],
      "name": "renounceOwnership",
      "outputs": [],
      "stateMutability": "nonpayable",
      "type": "function"
    },
    {
      "inputs": [
        {
          "internalType": "address",
          "name": "token",
          "type": "address"
        },
        {
          "internalType": "uint256",
          "name": "amountTokens",
          "type": "uint256"
        }
      ],
      "name": "tokensToNormalized",
      "outputs": [
        {
          "internalType": "uint256",
          "name": "amountNormal",
          "type": "uint256"
        }
      ],
      "stateMutability": "view",
      "type": "function"
    },
    {
      "inputs": [
        {
          "internalType": "address",
          "name": "newOwner",
          "type": "address"
        }
      ],
      "name": "transferOwnership",
      "outputs": [],
      "stateMutability": "nonpayable",
      "type": "function"
    },
    {
      "inputs": [
        {
          "internalType": "address",
          "name": "",
          "type": "address"
        }
      ],
      "name": "update",
      "outputs": [],
      "stateMutability": "nonpayable",
      "type": "function"
    },
    {
      "inputs": [
        {
          "internalType": "string",
          "name": "description",
          "type": "string"
        }
      ],
      "name": "updateDescription",
      "outputs": [],
      "stateMutability": "nonpayable",
      "type": "function"
    }
  ],
  "transactionHash": "0xf9cf3ecd53323cfffb40ff94e3cf3c11be59180d6db4692f31c3c4753c9d5109",
  "args": [
    "0x6a47Dd32FC2737De5881d63FeC9f27670297fbE5",
    "Collateral Pegged Test Oracle",
    "0xB994c68B4ED03d8F0AA9Cb1b1729fA9bBbaa75E7"
  ],
  "solcInputHash": "149543c6066abfe7655600414f329617",
  "bytecode": "0x60c06040523480156200001157600080fd5b506040516200134c3803806200134c833981810160405260608110156200003757600080fd5b8151602083018051604051929492938301929190846401000000008211156200005f57600080fd5b9083019060208201858111156200007557600080fd5b82516401000000008111828201881017156200009057600080fd5b82525081516020918201929091019080838360005b83811015620000bf578181015183820152602001620000a5565b50505050905090810190601f168015620000ed5780820380516001836020036101000a031916815260200191505b506040526020015191508390508282826004836200010b33620003da565b6001600160a01b038316620001525760405162461bcd60e51b81526004018080602001828103825260318152602001806200131b6031913960400191505060405180910390fd5b6000815111620001945760405162461bcd60e51b815260040180806020018281038252602d8152602001806200129c602d913960400191505060405180910390fd5b6001600160601b0319606084901b1660a052816004811115620001b357fe5b6080816004811115620001c257fe5b60f81b9052508051620001dd9060019060208401906200047c565b507f2e09cb9dd254b20150f5e6b358e7aabf9802b241ddf84609686d8e4b0d2b96b833838360405180846001600160a01b031681526020018360048111156200022257fe5b815260200180602001828103825283818151815260200191508051906020019080838360005b838110156200026257818101518382015260200162000248565b50505050905090810190601f168015620002905780820380516001836020036101000a031916815260200191505b5094505050505060405180910390a15050506001600160a01b038116620002e95760405162461bcd60e51b8152600401808060200182810382526028815260200180620012f36028913960400191505060405180910390fd5b80600260006101000a8154816001600160a01b0302191690836001600160a01b031602179055507f5ca37c59f6b6cafb39fb44368a097af590e5e220c2a015addc4b11977c34766b33838360405180846001600160a01b0316815260200180602001836001600160a01b03168152602001828103825284818151815260200191508051906020019080838360005b838110156200039157818101518382015260200162000377565b50505050905090810190601f168015620003bf5780820380516001836020036101000a031916815260200191505b5094505050505060405180910390a150505050505062000528565b6001600160a01b038116620004215760405162461bcd60e51b815260040180806020018281038252602a815260200180620012c9602a913960400191505060405180910390fd5b600080546040516001600160a01b03808516939216917f8be0079c531659141344cd1fd0a4f28419497f9722a3daafe3b4186f6b6457e091a3600080546001600160a01b0319166001600160a01b0392909216919091179055565b828054600181600116156101000203166002900490600052602060002090601f016020900481019282620004b45760008555620004ff565b82601f10620004cf57805160ff1916838001178555620004ff565b82800160010185558215620004ff579182015b82811115620004ff578251825591602001919060010190620004e2565b506200050d92915062000511565b5090565b5b808211156200050d576000815560010162000512565b60805160f81c60a05160601c610d406200055c600039806104115280610492528061074b5250806106705250610d406000f3fe608060405234801561001057600080fd5b50600436106100f55760003560e01c8063715018a611610097578063b7b8bae411610066578063b7b8bae4146102d9578063e735b48a14610305578063e7d015f2146103ab578063f2fde38b146103b3576100f5565b8063715018a6146102285780638da5cb5b14610230578063a2729c2314610254578063b5966db81461025c576100f5565b806327d3cb41116100d357806327d3cb411461018d5780634d161865146101cb5780635775029f146101f75780636465e69f146101ff576100f5565b8063014c2add146100fa57806319ab453c1461013f5780631c1b877214610167575b600080fd5b6101266004803603604081101561011057600080fd5b506001600160a01b0381351690602001356103d9565b6040805192835260208301919091528051918290030190f35b6101656004803603602081101561015557600080fd5b50356001600160a01b03166103f1565b005b6101656004803603602081101561017d57600080fd5b50356001600160a01b031661053d565b6101b9600480360360408110156101a357600080fd5b506001600160a01b038135169060200135610540565b60408051918252519081900360200190f35b610126600480360360408110156101e157600080fd5b506001600160a01b038135169060200135610617565b6101b9610624565b61020761066e565b6040518082600481111561021757fe5b815260200191505060405180910390f35b610165610692565b61023861073a565b604080516001600160a01b039092168252519081900360200190f35b610238610749565b61026461076d565b6040805160208082528351818301528351919283929083019185019080838360005b8381101561029e578181015183820152602001610286565b50505050905090810190601f1680156102cb5780820380516001836020036101000a031916815260200191505b509250505060405180910390f35b6101b9600480360360408110156102ef57600080fd5b506001600160a01b0381351690602001356107fa565b6101656004803603602081101561031b57600080fd5b81019060208101813564010000000081111561033657600080fd5b82018360208201111561034857600080fd5b8035906020019184600183028401116401000000008311171561036a57600080fd5b91908080601f0160208091040260200160405190810160405280939291908181526020018383808284376000920191909152509295506108e8945050505050565b610238610a47565b610165600480360360208110156103c957600080fd5b50356001600160a01b0316610a56565b6000806103e68484610540565b946001945092505050565b604080516342f6e38960e01b815233600482015290516001600160a01b037f000000000000000000000000000000000000000000000000000000000000000016916342f6e389916024808301926020929190829003018186803b15801561045757600080fd5b505afa15801561046b573d6000803e3d6000fd5b505050506040513d602081101561048157600080fd5b50516104ee57336001600160a01b037f000000000000000000000000000000000000000000000000000000000000000016146104ee5760405162461bcd60e51b8152600401808060200182810382526052815260200180610cb96052913960600191505060405180910390fd5b600254604080513381526001600160a01b03808516602083015290921682820152517f615e5388e077a0f73212d5edcf91ad20a6738753574b7a3749872baa98995be59181900360600190a150565b50565b6000808390506000816001600160a01b031663313ce5676040518163ffffffff1660e01b815260040160206040518083038186803b15801561058157600080fd5b505afa158015610595573d6000803e3d6000fd5b505050506040513d60208110156105ab57600080fd5b505160ff16905060128111156105f25760405162461bcd60e51b815260040180806020018281038252603b815260200180610c54603b913960400191505060405180910390fd5b6012811415610605578392505050610611565b601203600a0a83029150505b92915050565b6000806103e684846107fa565b60405160200180807f49434849205631204f7261636c6520496d706c656d656e746174696f6e000000815250601d0190506040516020818303038152906040528051906020012081565b7f000000000000000000000000000000000000000000000000000000000000000081565b61069a610abd565b6001600160a01b03166106ab61073a565b6001600160a01b0316146106f05760405162461bcd60e51b8152600401808060200182810382526024815260200180610c306024913960400191505060405180910390fd5b600080546040516001600160a01b03909116907f8be0079c531659141344cd1fd0a4f28419497f9722a3daafe3b4186f6b6457e0908390a3600080546001600160a01b0319169055565b6000546001600160a01b031690565b7f000000000000000000000000000000000000000000000000000000000000000081565b60018054604080516020600284861615610100026000190190941693909304601f810184900484028201840190925281815292918301828280156107f25780601f106107c7576101008083540402835291602001916107f2565b820191906000526020600020905b8154815290600101906020018083116107d557829003601f168201915b505050505081565b6000808390506000816001600160a01b031663313ce5676040518163ffffffff1660e01b815260040160206040518083038186803b15801561083b57600080fd5b505afa15801561084f573d6000803e3d6000fd5b505050506040513d602081101561086557600080fd5b505160ff16905060128111156108ac5760405162461bcd60e51b815260040180806020018281038252603b815260200180610c54603b913960400191505060405180910390fd5b60128114156108bf578392505050610611565b600a81601203600a0a85600a02600501816108d657fe5b04816108de57fe5b0495945050505050565b6108f0610abd565b6001600160a01b031661090161073a565b6001600160a01b0316146109465760405162461bcd60e51b8152600401808060200182810382526024815260200180610c306024913960400191505060405180910390fd5b60008151116109865760405162461bcd60e51b815260040180806020018281038252602d815260200180610c03602d913960400191505060405180910390fd5b8051610999906001906020840190610b61565b507f37cc8c6ced0cbc4d440fcfa810a2f09f40b8f0127c3656103edf26b3d93e0ec1338260405180836001600160a01b0316815260200180602001828103825283818151815260200191508051906020019080838360005b83811015610a095781810151838201526020016109f1565b50505050905090810190601f168015610a365780820380516001836020036101000a031916815260200191505b50935050505060405180910390a150565b6002546001600160a01b031681565b610a5e610abd565b6001600160a01b0316610a6f61073a565b6001600160a01b031614610ab45760405162461bcd60e51b8152600401808060200182810382526024815260200180610c306024913960400191505060405180910390fd5b61053d81610ac1565b3390565b6001600160a01b038116610b065760405162461bcd60e51b815260040180806020018281038252602a815260200180610c8f602a913960400191505060405180910390fd5b600080546040516001600160a01b03808516939216917f8be0079c531659141344cd1fd0a4f28419497f9722a3daafe3b4186f6b6457e091a3600080546001600160a01b0319166001600160a01b0392909216919091179055565b828054600181600116156101000203166002900490600052602060002090601f016020900481019282610b975760008555610bdd565b82601f10610bb057805160ff1916838001178555610bdd565b82800160010185558215610bdd579182015b82811115610bdd578251825591602001919060010190610bc2565b50610be9929150610bed565b5090565b5b80821115610be95760008155600101610bee56fe494348494d6f64756c65436f6d6d6f6e3a206465736372697074696f6e2063616e6e6f7420626520656d707479494348494f776e61626c653a2063616c6c6572206973206e6f7420746865206f776e65724f7261636c65436f6d6d6f6e3a20756e737570706f7274656420746f6b656e20707265636973696f6e202867726561746572207468616e20313829494348494f776e61626c653a206e6577206f776e657220697320746865207a65726f2061646472657373494348494d6f64756c65436f6d6d6f6e3a206d73672e73656e646572206973206e6f74206d6f64756c65206f776e65722c20746f6b656e20666163746f7279206f72207265676973746564206d6f64756c65a26469706673582212204aaa2d4587b568d6ba82530169f819198826675fbc811505d2152d5ada7c88e864736f6c63430007060033494348494d6f64756c65436f6d6d6f6e3a206465736372697074696f6e2063616e6e6f7420626520656d707479494348494f776e61626c653a206e6577206f776e657220697320746865207a65726f20616464726573734f7261636c65436f6d6d6f6e3a20696e646578546f6b656e2063616e6e6f7420626520656d707479494348494d6f64756c65436f6d6d6f6e3a206f6e65546f6b656e466163746f72792063616e6e6f7420626520656d707479",
  "devdoc": {
    "kind": "dev",
    "methods": {
      "amountRequired(address,uint256)": {
        "details": "token:usdToken is always 1:1 and volatility is always 1",
        "params": {
          "amountTokens": "tokens required, token native precision",
          "amountUsd": "Usd required, precision 18",
          "token": "base token",
          "volatility": "metric for future use-cases"
        }
      },
      "constructor": {
        "params": {
          "description_": "description has no bearing on logic",
          "indexToken_": "token to use for price quotes",
          "oneTokenFactory_": "oneToken factory to bind to"
        }
      },
      "init(address)": {
        "params": {
          "baseToken": "oracles _can be_ multi-tenant with separately initialized baseTokens"
        }
      },
      "normalizedToTokens(address,uint256)": {
        "params": {
          "amountNormal": "quantity in precision-18",
          "amountTokens": "quantity scaled to token decimals()",
          "token": "ERC20 token contract"
        }
      },
      "owner()": {
        "details": "Returns the address of the current owner."
      },
      "read(address,uint256)": {
        "details": "amountTokens:amountUsd is always 1:1, adjusted for normalized scale, and volatility is always 0",
        "params": {
          "amountTokens": "quantity, token native precision",
          "amountUsd": "US dollar equivalentm, precision 18",
          "token": "base token",
          "volatility": "metric for future use-cases"
        }
      },
      "renounceOwnership()": {
        "details": "Leaves the contract without owner. It will not be possible to call `onlyOwner` functions anymore. Can only be called by the current owner. NOTE: Renouncing ownership will leave the contract without an owner, thereby removing any functionality that is only available to the owner."
      },
      "tokensToNormalized(address,uint256)": {
        "params": {
          "amountNormal": "quantity in precision-18",
          "amountTokens": "quantity scaled to token decimals",
          "token": "ERC20 token contract"
        }
      },
      "transferOwnership(address)": {
        "details": "Transfers ownership of the contract to a new account (`newOwner`). Can only be called by the current owner."
      },
      "update(address)": {
        "details": "there is nothing to do in this case"
      },
      "updateDescription(string)": {
        "params": {
          "description": "new module desciption"
        }
      }
    },
    "version": 1
  },
  "userdoc": {
    "kind": "user",
    "methods": {
      "amountRequired(address,uint256)": {
        "notice": "returns the tokens needed to reach a target usd value"
      },
      "init(address)": {
        "notice": "oneTokens can share Oracles. Oracles must be re-initializable. They are initialized from the Factory."
      },
      "normalizedToTokens(address,uint256)": {
        "notice": "converts normalized precision 18 amounts to token native precision amounts, truncates low-order values"
      },
      "read(address,uint256)": {
        "notice": "returns equivalent amount of index tokens for an amount of baseTokens and volatility metric"
      },
      "tokensToNormalized(address,uint256)": {
        "notice": "converts token native precision amounts to normalized precision 18 amounts"
      },
      "update(address)": {
        "notice": "update is called when a oneToken wants to persist observations"
      },
      "updateDescription(string)": {
        "notice": "set a module description"
      }
    },
    "notice": "Returns 1:1, scaled to 18 ",
    "version": 1
  },
  "storageLayout": {
    "storage": [
      {
        "astId": 9548,
        "contract": "contracts/oracle/pegged/ICHIPeggedOracle.sol:ICHIPeggedOracle",
        "label": "_owner",
        "offset": 0,
        "slot": "0",
        "type": "t_address"
      },
      {
        "astId": 9472,
        "contract": "contracts/oracle/pegged/ICHIPeggedOracle.sol:ICHIPeggedOracle",
        "label": "_initialized",
        "offset": 20,
        "slot": "0",
        "type": "t_bool"
      },
      {
        "astId": 9474,
        "contract": "contracts/oracle/pegged/ICHIPeggedOracle.sol:ICHIPeggedOracle",
        "label": "_initializing",
        "offset": 21,
        "slot": "0",
        "type": "t_bool"
      },
      {
        "astId": 5588,
        "contract": "contracts/oracle/pegged/ICHIPeggedOracle.sol:ICHIPeggedOracle",
        "label": "moduleDescription",
        "offset": 0,
        "slot": "1",
        "type": "t_string_storage"
      },
      {
        "astId": 7791,
        "contract": "contracts/oracle/pegged/ICHIPeggedOracle.sol:ICHIPeggedOracle",
        "label": "indexToken",
        "offset": 0,
        "slot": "2",
        "type": "t_address"
      }
    ],
    "types": {
      "t_address": {
        "encoding": "inplace",
        "label": "address",
        "numberOfBytes": "20"
      },
      "t_bool": {
        "encoding": "inplace",
        "label": "bool",
        "numberOfBytes": "1"
      },
      "t_string_storage": {
        "encoding": "bytes",
        "label": "string",
        "numberOfBytes": "32"
      }
    }
  }
}