{
  "address": "0xE36180f45a2Fb3B55480d401FfB112e4da1B9a94",
  "abi": [
    {
      "inputs": [
        {
          "internalType": "address",
          "name": "oneTokenFactory_",
          "type": "address"
        },
        {
          "internalType": "string",
          "name": "description_",
          "type": "string"
        },
        {
          "internalType": "address",
          "name": "indexToken_",
          "type": "address"
        },
        {
          "internalType": "address[]",
          "name": "interimTokens_",
          "type": "address[]"
        },
        {
          "internalType": "address[]",
          "name": "oracles_",
          "type": "address[]"
        }
      ],
      "stateMutability": "nonpayable",
      "type": "constructor"
    },
    {
      "anonymous": false,
      "inputs": [
        {
          "indexed": false,
          "internalType": "address",
          "name": "sender",
          "type": "address"
        },
        {
          "indexed": false,
          "internalType": "string",
          "name": "description",
          "type": "string"
        }
      ],
      "name": "DescriptionUpdated",
      "type": "event"
    },
    {
      "anonymous": false,
      "inputs": [
        {
          "indexed": false,
          "internalType": "address",
          "name": "sender",
          "type": "address"
        },
        {
          "indexed": false,
          "internalType": "enum InterfaceCommon.ModuleType",
          "name": "moduleType",
          "type": "uint8"
        },
        {
          "indexed": false,
          "internalType": "string",
          "name": "description",
          "type": "string"
        }
      ],
      "name": "ModuleDeployed",
      "type": "event"
    },
    {
      "anonymous": false,
      "inputs": [
        {
          "indexed": false,
          "internalType": "address",
          "name": "sender",
          "type": "address"
        },
        {
          "indexed": false,
          "internalType": "string",
          "name": "description",
          "type": "string"
        },
        {
          "indexed": false,
          "internalType": "address",
          "name": "indexToken",
          "type": "address"
        }
      ],
      "name": "OracleDeployed",
      "type": "event"
    },
    {
      "anonymous": false,
      "inputs": [
        {
          "indexed": false,
          "internalType": "address",
          "name": "sender",
          "type": "address"
        },
        {
          "indexed": false,
          "internalType": "address",
          "name": "baseToken",
          "type": "address"
        },
        {
          "indexed": false,
          "internalType": "address",
          "name": "indexToken",
          "type": "address"
        }
      ],
      "name": "OracleInitialized",
      "type": "event"
    },
    {
      "anonymous": false,
      "inputs": [
        {
          "indexed": true,
          "internalType": "address",
          "name": "previousOwner",
          "type": "address"
        },
        {
          "indexed": true,
          "internalType": "address",
          "name": "newOwner",
          "type": "address"
        }
      ],
      "name": "OwnershipTransferred",
      "type": "event"
    },
    {
      "inputs": [],
      "name": "MODULE_TYPE",
      "outputs": [
        {
          "internalType": "bytes32",
          "name": "",
          "type": "bytes32"
        }
      ],
      "stateMutability": "view",
      "type": "function"
    },
    {
      "inputs": [
        {
          "internalType": "address",
          "name": "",
          "type": "address"
        },
        {
          "internalType": "uint256",
          "name": "amountUsd",
          "type": "uint256"
        }
      ],
      "name": "amountRequired",
      "outputs": [
        {
          "internalType": "uint256",
          "name": "amountTokens",
          "type": "uint256"
        },
        {
          "internalType": "uint256",
          "name": "volatility",
          "type": "uint256"
        }
      ],
      "stateMutability": "view",
      "type": "function"
    },
    {
      "inputs": [],
      "name": "indexToken",
      "outputs": [
        {
          "internalType": "address",
          "name": "",
          "type": "address"
        }
      ],
      "stateMutability": "view",
      "type": "function"
    },
    {
      "inputs": [
        {
          "internalType": "address",
          "name": "baseToken",
          "type": "address"
        }
      ],
      "name": "init",
      "outputs": [],
      "stateMutability": "nonpayable",
      "type": "function"
    },
    {
      "inputs": [
        {
          "internalType": "uint256",
          "name": "",
          "type": "uint256"
        }
      ],
      "name": "interimTokens",
      "outputs": [
        {
          "internalType": "address",
          "name": "",
          "type": "address"
        }
      ],
      "stateMutability": "view",
      "type": "function"
    },
    {
      "inputs": [],
      "name": "moduleDescription",
      "outputs": [
        {
          "internalType": "string",
          "name": "",
          "type": "string"
        }
      ],
      "stateMutability": "view",
      "type": "function"
    },
    {
      "inputs": [],
      "name": "moduleType",
      "outputs": [
        {
          "internalType": "enum InterfaceCommon.ModuleType",
          "name": "",
          "type": "uint8"
        }
      ],
      "stateMutability": "view",
      "type": "function"
    },
    {
      "inputs": [
        {
          "internalType": "address",
          "name": "token",
          "type": "address"
        },
        {
          "internalType": "uint256",
          "name": "amountNormal",
          "type": "uint256"
        }
      ],
      "name": "normalizedToTokens",
      "outputs": [
        {
          "internalType": "uint256",
          "name": "amountTokens",
          "type": "uint256"
        }
      ],
      "stateMutability": "view",
      "type": "function"
    },
    {
      "inputs": [],
      "name": "oneTokenFactory",
      "outputs": [
        {
          "internalType": "address",
          "name": "",
          "type": "address"
        }
      ],
      "stateMutability": "view",
      "type": "function"
    },
    {
      "inputs": [
        {
          "internalType": "uint256",
          "name": "index",
          "type": "uint256"
        }
      ],
      "name": "oracleAtIndex",
      "outputs": [
        {
          "internalType": "address",
          "name": "oracle",
          "type": "address"
        },
        {
          "internalType": "address",
          "name": "token",
          "type": "address"
        }
      ],
      "stateMutability": "view",
      "type": "function"
    },
    {
      "inputs": [
        {
          "internalType": "uint256",
          "name": "",
          "type": "uint256"
        }
      ],
      "name": "oracleContracts",
      "outputs": [
        {
          "internalType": "address",
          "name": "",
          "type": "address"
        }
      ],
      "stateMutability": "view",
      "type": "function"
    },
    {
      "inputs": [],
      "name": "oracleCount",
      "outputs": [
        {
          "internalType": "uint256",
          "name": "count",
          "type": "uint256"
        }
      ],
      "stateMutability": "view",
      "type": "function"
    },
    {
      "inputs": [],
      "name": "owner",
      "outputs": [
        {
          "internalType": "address",
          "name": "",
          "type": "address"
        }
      ],
      "stateMutability": "view",
      "type": "function"
    },
    {
      "inputs": [
        {
          "internalType": "address",
          "name": "",
          "type": "address"
        },
        {
          "internalType": "uint256",
          "name": "amountTokens",
          "type": "uint256"
        }
      ],
      "name": "read",
      "outputs": [
        {
          "internalType": "uint256",
          "name": "amountUsd",
          "type": "uint256"
        },
        {
          "internalType": "uint256",
          "name": "volatility",
          "type": "uint256"
        }
      ],
      "stateMutability": "view",
      "type": "function"
    },
    {
      "inputs": [],
      "name": "renounceOwnership",
      "outputs": [],
      "stateMutability": "nonpayable",
      "type": "function"
    },
    {
      "inputs": [
        {
          "internalType": "address",
          "name": "token",
          "type": "address"
        },
        {
          "internalType": "uint256",
          "name": "amountTokens",
          "type": "uint256"
        }
      ],
      "name": "tokensToNormalized",
      "outputs": [
        {
          "internalType": "uint256",
          "name": "amountNormal",
          "type": "uint256"
        }
      ],
      "stateMutability": "view",
      "type": "function"
    },
    {
      "inputs": [
        {
          "internalType": "address",
          "name": "newOwner",
          "type": "address"
        }
      ],
      "name": "transferOwnership",
      "outputs": [],
      "stateMutability": "nonpayable",
      "type": "function"
    },
    {
      "inputs": [
        {
          "internalType": "address",
          "name": "",
          "type": "address"
        }
      ],
      "name": "update",
      "outputs": [],
      "stateMutability": "nonpayable",
      "type": "function"
    },
    {
      "inputs": [
        {
          "internalType": "string",
          "name": "description",
          "type": "string"
        }
      ],
      "name": "updateDescription",
      "outputs": [],
      "stateMutability": "nonpayable",
      "type": "function"
    }
  ],
  "transactionHash": "0xaa877c1873c08352e916235421285af5827ec44422cc92e57b0e3a137cc8d9eb",
  "args": [
    "0x6a47Dd32FC2737De5881d63FeC9f27670297fbE5",
    "TWAP OJA indexToken Uniswap (sushi) V2 24hr/1hr",
    "0x0aA7eFE4945Db24d95cA6E117BBa65Ed326e291A",
    [
      "0x0aA7eFE4945Db24d95cA6E117BBa65Ed326e291A",
      "0xC02aaA39b223FE8D0A0e5C4F27eAD9083C756Cc2"
    ],
    [
      "0x1d22Acb5d544f62be7E94202dac0474bbfD5bddE",
      "0xa5DEc9155960C278773BAE4aef071379Ca0a890B"
    ]
  ],
  "solcInputHash": "8a004fb0bd740026ef9ef3429b81c139",
  "bytecode": "0x60c06040523480156200001157600080fd5b5060405162001ae638038062001ae6833981810160405260a08110156200003757600080fd5b8151602083018051604051929492938301929190846401000000008211156200005f57600080fd5b9083019060208201858111156200007557600080fd5b82516401000000008111828201881017156200009057600080fd5b82525081516020918201929091019080838360005b83811015620000bf578181015183820152602001620000a5565b50505050905090810190601f168015620000ed5780820380516001836020036101000a031916815260200191505b506040818152602083015192018051929491939192846401000000008211156200011657600080fd5b9083019060208201858111156200012c57600080fd5b82518660208202830111640100000000821117156200014a57600080fd5b82525081516020918201928201910280838360005b83811015620001795781810151838201526020016200015f565b5050505090500160405260200180516040519392919084640100000000821115620001a357600080fd5b908301906020820185811115620001b957600080fd5b8251866020820283011164010000000082111715620001d757600080fd5b82525081516020918201928201910280838360005b8381101562000206578181015183820152602001620001ec565b50505050905001604052505050848484826004836200022b336200058b60201b60201c565b6001600160a01b038316620002725760405162461bcd60e51b815260040180806020018281038252603181526020018062001ab56031913960400191505060405180910390fd5b6000815111620002b45760405162461bcd60e51b815260040180806020018281038252602d815260200180620019f3602d913960400191505060405180910390fd5b6001600160601b0319606084901b1660a052816004811115620002d357fe5b6080816004811115620002e257fe5b60f81b9052508051620002fd9060019060208401906200062d565b507f2e09cb9dd254b20150f5e6b358e7aabf9802b241ddf84609686d8e4b0d2b96b833838360405180846001600160a01b031681526020018360048111156200034257fe5b815260200180602001828103825283818151815260200191508051906020019080838360005b838110156200038257818101518382015260200162000368565b50505050905090810190601f168015620003b05780820380516001836020036101000a031916815260200191505b5094505050505060405180910390a15050506001600160a01b038116620004095760405162461bcd60e51b815260040180806020018281038252602881526020018062001a8d6028913960400191505060405180910390fd5b80600260006101000a8154816001600160a01b0302191690836001600160a01b031602179055507f5ca37c59f6b6cafb39fb44368a097af590e5e220c2a015addc4b11977c34766b33838360405180846001600160a01b0316815260200180602001836001600160a01b03168152602001828103825284818151815260200191508051906020019080838360005b83811015620004b157818101518382015260200162000497565b50505050905090810190601f168015620004df5780820380516001836020036101000a031916815260200191505b5094505050505060405180910390a15050508051825114620005335760405162461bcd60e51b815260040180806020018281038252604381526020018062001a206043913960600191505060405180910390fd5b805162000548906003906020840190620006c2565b5081516200055e906004906020850190620006c2565b5050600280546001600160a01b0319166001600160a01b0393909316929092179091555062000731915050565b6001600160a01b038116620005d25760405162461bcd60e51b815260040180806020018281038252602a81526020018062001a63602a913960400191505060405180910390fd5b600080546040516001600160a01b03808516939216917f8be0079c531659141344cd1fd0a4f28419497f9722a3daafe3b4186f6b6457e091a3600080546001600160a01b0319166001600160a01b0392909216919091179055565b828054600181600116156101000203166002900490600052602060002090601f016020900481019282620006655760008555620006b0565b82601f106200068057805160ff1916838001178555620006b0565b82800160010185558215620006b0579182015b82811115620006b057825182559160200191906001019062000693565b50620006be9291506200071a565b5090565b828054828255906000526020600020908101928215620006b0579160200282015b82811115620006b057825182546001600160a01b0319166001600160a01b03909116178255602090920191600190910190620006e3565b5b80821115620006be57600081556001016200071b565b60805160f81c60a05160601c61128e620007656000398061061552806106965280610bae525080610a7e525061128e6000f3fe608060405234801561001057600080fd5b50600436106101215760003560e01c8063715018a6116100ad578063b7b8bae411610071578063b7b8bae414610376578063dc2f3709146103a2578063e735b48a146103bf578063e7d015f214610465578063f2fde38b1461046d57610121565b8063715018a614610295578063823cbc0d1461029d5780638da5cb5b146102e9578063a2729c23146102f1578063b5966db8146102f957610121565b80634438cc04116100f45780634438cc04146101f75780634d161865146102305780635775029f1461025c578063613d8fcc146102645780636465e69f1461026c57610121565b8063014c2add1461012657806319ab453c1461016b5780631c1b87721461019357806327d3cb41146101b9575b600080fd5b6101526004803603604081101561013c57600080fd5b506001600160a01b038135169060200135610493565b6040805192835260208301919091528051918290030190f35b6101916004803603602081101561018157600080fd5b50356001600160a01b03166105f5565b005b610191600480360360208110156101a957600080fd5b50356001600160a01b03166107fa565b6101e5600480360360408110156101cf57600080fd5b506001600160a01b0381351690602001356108b6565b60408051918252519081900360200190f35b6102146004803603602081101561020d57600080fd5b503561098d565b604080516001600160a01b039092168252519081900360200190f35b6101526004803603604081101561024657600080fd5b506001600160a01b0381351690602001356109b7565b6101e5610a2c565b6101e5610a76565b610274610a7c565b6040518082600481111561028457fe5b815260200191505060405180910390f35b610191610aa0565b6102ba600480360360208110156102b357600080fd5b5035610b48565b60405180836001600160a01b03168152602001826001600160a01b031681526020019250505060405180910390f35b610214610b9d565b610214610bac565b610301610bd0565b6040805160208082528351818301528351919283929083019185019080838360005b8381101561033b578181015183820152602001610323565b50505050905090810190601f1680156103685780820380516001836020036101000a031916815260200191505b509250505060405180910390f35b6101e56004803603604081101561038c57600080fd5b506001600160a01b038135169060200135610c5d565b610214600480360360208110156103b857600080fd5b5035610d3b565b610191600480360360208110156103d557600080fd5b8101906020810181356401000000008111156103f057600080fd5b82018360208201111561040257600080fd5b8035906020019184600183028401116401000000008311171561042457600080fd5b91908080601f016020809104026020016040519081016040528093929190818152602001838380828437600092019190915250929550610d4b945050505050565b610214610eaa565b6101916004803603602081101561048357600080fd5b50356001600160a01b0316610eb9565b6000806000806104c560046000815481106104aa57fe5b6000918252602090912001546001600160a01b0316866108b6565b90506001925060005b6003548110156105e957600381815481106104e557fe5b600091825260209091200154600480546001600160a01b039092169163014c2add91908490811061051257fe5b9060005260206000200160009054906101000a90046001600160a01b031661055b6004858154811061054057fe5b6000918252602090912001546001600160a01b031686610c5d565b6040518363ffffffff1660e01b815260040180836001600160a01b0316815260200182815260200192505050604080518083038186803b15801561059e57600080fd5b505afa1580156105b2573d6000803e3d6000fd5b505050506040513d60408110156105c857600080fd5b508051602090910151935091506105df8484610f23565b93506001016104ce565b50959194509092505050565b604080516342f6e38960e01b815233600482015290516001600160a01b037f000000000000000000000000000000000000000000000000000000000000000016916342f6e389916024808301926020929190829003018186803b15801561065b57600080fd5b505afa15801561066f573d6000803e3d6000fd5b505050506040513d602081101561068557600080fd5b50516106f257336001600160a01b037f000000000000000000000000000000000000000000000000000000000000000016146106f25760405162461bcd60e51b81526004018080602001828103825260528152602001806112076052913960600191505060405180910390fd5b60005b6003548110156107aa576003818154811061070c57fe5b600091825260209091200154600480546001600160a01b03909216916319ab453c91908490811061073957fe5b6000918252602082200154604080516001600160e01b031960e086901b1681526001600160a01b039092166004830152516024808301939282900301818387803b15801561078657600080fd5b505af115801561079a573d6000803e3d6000fd5b5050600190920191506106f59050565b50600254604080513381526001600160a01b03808516602083015290921682820152517f615e5388e077a0f73212d5edcf91ad20a6738753574b7a3749872baa98995be59181900360600190a150565b60005b6003548110156108b2576003818154811061081457fe5b600091825260209091200154600480546001600160a01b0390921691631c1b877291908490811061084157fe5b6000918252602082200154604080516001600160e01b031960e086901b1681526001600160a01b039092166004830152516024808301939282900301818387803b15801561088e57600080fd5b505af11580156108a2573d6000803e3d6000fd5b5050600190920191506107fd9050565b5050565b6000808390506000816001600160a01b031663313ce5676040518163ffffffff1660e01b815260040160206040518083038186803b1580156108f757600080fd5b505afa15801561090b573d6000803e3d6000fd5b505050506040513d602081101561092157600080fd5b505160ff16905060128111156109685760405162461bcd60e51b815260040180806020018281038252603b815260200180611181603b913960400191505060405180910390fd5b601281141561097b578392505050610987565b601203600a0a83029150505b92915050565b6004818154811061099d57600080fd5b6000918252602090912001546001600160a01b0316905081565b600254600090819081906109e79082906109e2906001600160a01b0316670de0b6b3a7640000610c5d565b610493565b92509050610a0781610a01670de0b6b3a764000087610f23565b90610f83565b600254909350610a20906001600160a01b031684610c5d565b95600195509350505050565b60405160200180807f49434849205631204f7261636c6520496d706c656d656e746174696f6e000000815250601d0190506040516020818303038152906040528051906020012081565b60035490565b7f000000000000000000000000000000000000000000000000000000000000000081565b610aa8610fea565b6001600160a01b0316610ab9610b9d565b6001600160a01b031614610afe5760405162461bcd60e51b815260040180806020018281038252602481526020018061115d6024913960400191505060405180910390fd5b600080546040516001600160a01b03909116907f8be0079c531659141344cd1fd0a4f28419497f9722a3daafe3b4186f6b6457e0908390a3600080546001600160a01b0319169055565b60008060038381548110610b5857fe5b600091825260209091200154600480546001600160a01b039092169185908110610b7e57fe5b6000918252602090912001549092506001600160a01b03169050915091565b6000546001600160a01b031690565b7f000000000000000000000000000000000000000000000000000000000000000081565b60018054604080516020600284861615610100026000190190941693909304601f81018490048402820184019092528181529291830182828015610c555780601f10610c2a57610100808354040283529160200191610c55565b820191906000526020600020905b815481529060010190602001808311610c3857829003601f168201915b505050505081565b6000808390506000816001600160a01b031663313ce5676040518163ffffffff1660e01b815260040160206040518083038186803b158015610c9e57600080fd5b505afa158015610cb2573d6000803e3d6000fd5b505050506040513d6020811015610cc857600080fd5b505160ff1690506012811115610d0f5760405162461bcd60e51b815260040180806020018281038252603b815260200180611181603b913960400191505060405180910390fd5b6012811415610d22578392505050610987565b80601203600a0a8481610d3157fe5b0495945050505050565b6003818154811061099d57600080fd5b610d53610fea565b6001600160a01b0316610d64610b9d565b6001600160a01b031614610da95760405162461bcd60e51b815260040180806020018281038252602481526020018061115d6024913960400191505060405180910390fd5b6000815111610de95760405162461bcd60e51b815260040180806020018281038252602d815260200180611130602d913960400191505060405180910390fd5b8051610dfc90600190602084019061108e565b507f37cc8c6ced0cbc4d440fcfa810a2f09f40b8f0127c3656103edf26b3d93e0ec1338260405180836001600160a01b0316815260200180602001828103825283818151815260200191508051906020019080838360005b83811015610e6c578181015183820152602001610e54565b50505050905090810190601f168015610e995780820380516001836020036101000a031916815260200191505b50935050505060405180910390a150565b6002546001600160a01b031681565b610ec1610fea565b6001600160a01b0316610ed2610b9d565b6001600160a01b031614610f175760405162461bcd60e51b815260040180806020018281038252602481526020018061115d6024913960400191505060405180910390fd5b610f2081610fee565b50565b600082610f3257506000610987565b82820282848281610f3f57fe5b0414610f7c5760405162461bcd60e51b81526004018080602001828103825260218152602001806111e66021913960400191505060405180910390fd5b9392505050565b6000808211610fd9576040805162461bcd60e51b815260206004820152601a60248201527f536166654d6174683a206469766973696f6e206279207a65726f000000000000604482015290519081900360640190fd5b818381610fe257fe5b049392505050565b3390565b6001600160a01b0381166110335760405162461bcd60e51b815260040180806020018281038252602a8152602001806111bc602a913960400191505060405180910390fd5b600080546040516001600160a01b03808516939216917f8be0079c531659141344cd1fd0a4f28419497f9722a3daafe3b4186f6b6457e091a3600080546001600160a01b0319166001600160a01b0392909216919091179055565b828054600181600116156101000203166002900490600052602060002090601f0160209004810192826110c4576000855561110a565b82601f106110dd57805160ff191683800117855561110a565b8280016001018555821561110a579182015b8281111561110a5782518255916020019190600101906110ef565b5061111692915061111a565b5090565b5b80821115611116576000815560010161111b56fe494348494d6f64756c65436f6d6d6f6e3a206465736372697074696f6e2063616e6e6f7420626520656d707479494348494f776e61626c653a2063616c6c6572206973206e6f7420746865206f776e65724f7261636c65436f6d6d6f6e3a20756e737570706f7274656420746f6b656e20707265636973696f6e202867726561746572207468616e20313829494348494f776e61626c653a206e6577206f776e657220697320746865207a65726f2061646472657373536166654d6174683a206d756c7469706c69636174696f6e206f766572666c6f77494348494d6f64756c65436f6d6d6f6e3a206d73672e73656e646572206973206e6f74206d6f64756c65206f776e65722c20746f6b656e20666163746f7279206f72207265676973746564206d6f64756c65a264697066735822122026039235accaa87370ba328a560f1486aa64cc8c2b65cba535be5f595a3a836264736f6c63430007060033494348494d6f64756c65436f6d6d6f6e3a206465736372697074696f6e2063616e6e6f7420626520656d70747949434849436f6d706f736974654f7261636c653a20756e657175616c20696e746572696d546f6b656e7320616e64204f7261636c6573206c697374206c656e67746873494348494f776e61626c653a206e6577206f776e657220697320746865207a65726f20616464726573734f7261636c65436f6d6d6f6e3a20696e646578546f6b656e2063616e6e6f7420626520656d707479494348494d6f64756c65436f6d6d6f6e3a206f6e65546f6b656e466163746f72792063616e6e6f7420626520656d707479",
  "devdoc": {
    "kind": "dev",
    "methods": {
      "amountRequired(address,uint256)": {
        "params": {
          "amountTokens": "tokens required in tokens native precision",
          "amountUsd": "Usd required in 10**18 precision",
          "volatility": "metric for future use-cases"
        }
      },
      "constructor": {
        "details": "output of oracles is used as input for the next oracle. ",
        "params": {
          "description_": "human-readable name has no bearing on internal logic",
          "indexToken_": "a registered usdToken to use for quote indexed",
          "interimTokens_": "a sequential list of base tokens to query the oracles, starting with the base token for the composite oracle, e.g. X",
          "oracles_": "a sequential list of unregisted contracts that support the IOracle interface, ending with a collateral token, e.g. USDC"
        }
      },
      "init(address)": {
        "details": "there is nothing to do. Deploy separate instances configured for distinct baseTokens"
      },
      "normalizedToTokens(address,uint256)": {
        "params": {
          "amountNormal": "quantity in precision-18",
          "amountTokens": "quantity scaled to token decimals()",
          "token": "ERC20 token contract"
        }
      },
      "oracleAtIndex(uint256)": {
        "params": {
          "index": "oracle contract to retrieve",
          "oracle": "interim token oracle address",
          "token": "interim token address     "
        }
      },
      "oracleCount()": {
        "params": {
          "count": "number of interim oracles"
        }
      },
      "owner()": {
        "details": "Returns the address of the current owner."
      },
      "read(address,uint256)": {
        "details": "volatility is the product of interim volatility measurements //param token composite oracles are always single-tenant, The token context is ignored.",
        "params": {
          "amountTokens": "quantity of tokens, token precision",
          "amountUsd": "index tokens required, precision 18",
          "volatility": "overall volatility metric - for future use-caeses"
        }
      },
      "renounceOwnership()": {
        "details": "Leaves the contract without owner. It will not be possible to call `onlyOwner` functions anymore. Can only be called by the current owner. NOTE: Renouncing ownership will leave the contract without an owner, thereby removing any functionality that is only available to the owner."
      },
      "tokensToNormalized(address,uint256)": {
        "params": {
          "amountNormal": "quantity in precision-18",
          "amountTokens": "quantity scaled to token decimals",
          "token": "ERC20 token contract"
        }
      },
      "transferOwnership(address)": {
        "details": "Transfers ownership of the contract to a new account (`newOwner`). Can only be called by the current owner."
      },
      "update(address)": {
        "details": "chain length is constrained by gas //param token composite oracles are always single-tenant, The token context is ignored."
      },
      "updateDescription(string)": {
        "params": {
          "description": "new module desciption"
        }
      }
    },
    "version": 1
  },
  "userdoc": {
    "kind": "user",
    "methods": {
      "amountRequired(address,uint256)": {
        "notice": "returns the tokens needed to reach a target usd value //param token composite oracles are always single-tenant, The token context is ignored.     "
      },
      "constructor": {
        "notice": "addresses and oracles define a chain of currency conversions (e.g. X:ETH, ETH:BTC: BTC:USDC => X:USDC) that will be executed in order of declaration"
      },
      "init(address)": {
        "notice": "intialization is called when the factory assigns an oracle to an asset"
      },
      "normalizedToTokens(address,uint256)": {
        "notice": "converts normalized precision 18 amounts to token native precision amounts, truncates low-order values"
      },
      "read(address,uint256)": {
        "notice": "returns equivalent amount of index tokens for an amount of baseTokens and volatility metric"
      },
      "tokensToNormalized(address,uint256)": {
        "notice": "converts token native precision amounts to normalized precision 18 amounts"
      },
      "update(address)": {
        "notice": "update is called when a oneToken wants to persist observations"
      },
      "updateDescription(string)": {
        "notice": "set a module description"
      }
    },
    "notice": "Relies on external Oracles using any price quote methodology.",
    "version": 1
  },
  "storageLayout": {
    "storage": [
      {
        "astId": 14678,
        "contract": "contracts/oracle/composite/ICHICompositeOracle.sol:ICHICompositeOracle",
        "label": "_owner",
        "offset": 0,
        "slot": "0",
        "type": "t_address"
      },
      {
        "astId": 14602,
        "contract": "contracts/oracle/composite/ICHICompositeOracle.sol:ICHICompositeOracle",
        "label": "_initialized",
        "offset": 20,
        "slot": "0",
        "type": "t_bool"
      },
      {
        "astId": 14604,
        "contract": "contracts/oracle/composite/ICHICompositeOracle.sol:ICHICompositeOracle",
        "label": "_initializing",
        "offset": 21,
        "slot": "0",
        "type": "t_bool"
      },
      {
        "astId": 7373,
        "contract": "contracts/oracle/composite/ICHICompositeOracle.sol:ICHICompositeOracle",
        "label": "moduleDescription",
        "offset": 0,
        "slot": "1",
        "type": "t_string_storage"
      },
      {
        "astId": 9602,
        "contract": "contracts/oracle/composite/ICHICompositeOracle.sol:ICHICompositeOracle",
        "label": "indexToken",
        "offset": 0,
        "slot": "2",
        "type": "t_address"
      },
      {
        "astId": 10152,
        "contract": "contracts/oracle/composite/ICHICompositeOracle.sol:ICHICompositeOracle",
        "label": "oracleContracts",
        "offset": 0,
        "slot": "3",
        "type": "t_array(t_address)dyn_storage"
      },
      {
        "astId": 10155,
        "contract": "contracts/oracle/composite/ICHICompositeOracle.sol:ICHICompositeOracle",
        "label": "interimTokens",
        "offset": 0,
        "slot": "4",
        "type": "t_array(t_address)dyn_storage"
      }
    ],
    "types": {
      "t_address": {
        "encoding": "inplace",
        "label": "address",
        "numberOfBytes": "20"
      },
      "t_array(t_address)dyn_storage": {
        "base": "t_address",
        "encoding": "dynamic_array",
        "label": "address[]",
        "numberOfBytes": "32"
      },
      "t_bool": {
        "encoding": "inplace",
        "label": "bool",
        "numberOfBytes": "1"
      },
      "t_string_storage": {
        "encoding": "bytes",
        "label": "string",
        "numberOfBytes": "32"
      }
    }
  }
}