{
  "address": "0x6a47Dd32FC2737De5881d63FeC9f27670297fbE5",
  "abi": [
    {
      "anonymous": false,
      "inputs": [
        {
          "indexed": false,
          "internalType": "address",
          "name": "sender",
          "type": "address"
        },
        {
          "indexed": false,
          "internalType": "address",
          "name": "foreignToken",
          "type": "address"
        },
        {
          "indexed": false,
          "internalType": "address",
          "name": "oracle",
          "type": "address"
        }
      ],
      "name": "AddOracle",
      "type": "event"
    },
    {
      "anonymous": false,
      "inputs": [
        {
          "indexed": false,
          "internalType": "address",
          "name": "sender",
          "type": "address"
        },
        {
          "indexed": false,
          "internalType": "address",
          "name": "foreignToken",
          "type": "address"
        },
        {
          "indexed": false,
          "internalType": "bool",
          "name": "isCollateral",
          "type": "bool"
        },
        {
          "indexed": false,
          "internalType": "address",
          "name": "oracle",
          "type": "address"
        }
      ],
      "name": "ForeignTokenAdmitted",
      "type": "event"
    },
    {
      "anonymous": false,
      "inputs": [
        {
          "indexed": false,
          "internalType": "address",
          "name": "sender",
          "type": "address"
        },
        {
          "indexed": false,
          "internalType": "address",
          "name": "foreignToken",
          "type": "address"
        }
      ],
      "name": "ForeignTokenRemoved",
      "type": "event"
    },
    {
      "anonymous": false,
      "inputs": [
        {
          "indexed": false,
          "internalType": "address",
          "name": "sender",
          "type": "address"
        },
        {
          "indexed": false,
          "internalType": "address",
          "name": "foreignToken",
          "type": "address"
        },
        {
          "indexed": false,
          "internalType": "bool",
          "name": "isCollateral",
          "type": "bool"
        }
      ],
      "name": "ForeignTokenUpdated",
      "type": "event"
    },
    {
      "anonymous": false,
      "inputs": [
        {
          "indexed": false,
          "internalType": "address",
          "name": "sender",
          "type": "address"
        },
        {
          "indexed": false,
          "internalType": "address",
          "name": "module",
          "type": "address"
        },
        {
          "indexed": false,
          "internalType": "enum InterfaceCommon.ModuleType",
          "name": "moduleType",
          "type": "uint8"
        },
        {
          "indexed": false,
          "internalType": "string",
          "name": "name",
          "type": "string"
        },
        {
          "indexed": false,
          "internalType": "string",
          "name": "url",
          "type": "string"
        }
      ],
      "name": "ModuleAdmitted",
      "type": "event"
    },
    {
      "anonymous": false,
      "inputs": [
        {
          "indexed": false,
          "internalType": "address",
          "name": "sender",
          "type": "address"
        },
        {
          "indexed": false,
          "internalType": "address",
          "name": "module",
          "type": "address"
        }
      ],
      "name": "ModuleRemoved",
      "type": "event"
    },
    {
      "anonymous": false,
      "inputs": [
        {
          "indexed": false,
          "internalType": "address",
          "name": "sender",
          "type": "address"
        },
        {
          "indexed": false,
          "internalType": "address",
          "name": "module",
          "type": "address"
        },
        {
          "indexed": false,
          "internalType": "string",
          "name": "name",
          "type": "string"
        },
        {
          "indexed": false,
          "internalType": "string",
          "name": "url",
          "type": "string"
        }
      ],
      "name": "ModuleUpdated",
      "type": "event"
    },
    {
      "anonymous": false,
      "inputs": [
        {
          "indexed": false,
          "internalType": "address",
          "name": "sender",
          "type": "address"
        },
        {
          "indexed": false,
          "internalType": "address",
          "name": "newOneTokenProxy",
          "type": "address"
        },
        {
          "indexed": false,
          "internalType": "address",
          "name": "proxyAdmin",
          "type": "address"
        }
      ],
      "name": "OneTokenAdmin",
      "type": "event"
    },
    {
      "anonymous": false,
      "inputs": [
        {
          "indexed": false,
          "internalType": "address",
          "name": "sender",
          "type": "address"
        },
        {
          "indexed": false,
          "internalType": "address",
          "name": "newOneTokenProxy",
          "type": "address"
        },
        {
          "indexed": false,
          "internalType": "string",
          "name": "name",
          "type": "string"
        },
        {
          "indexed": false,
          "internalType": "string",
          "name": "symbol",
          "type": "string"
        },
        {
          "indexed": false,
          "internalType": "address",
          "name": "governance",
          "type": "address"
        },
        {
          "indexed": false,
          "internalType": "address",
          "name": "version",
          "type": "address"
        },
        {
          "indexed": false,
          "internalType": "address",
          "name": "controller",
          "type": "address"
        },
        {
          "indexed": false,
          "internalType": "address",
          "name": "mintMaster",
          "type": "address"
        },
        {
          "indexed": false,
          "internalType": "address",
          "name": "oneTokenOracle",
          "type": "address"
        },
        {
          "indexed": false,
          "internalType": "address",
          "name": "memberToken",
          "type": "address"
        },
        {
          "indexed": false,
          "internalType": "address",
          "name": "collateral",
          "type": "address"
        }
      ],
      "name": "OneTokenDeployed",
      "type": "event"
    },
    {
      "anonymous": false,
      "inputs": [
        {
          "indexed": true,
          "internalType": "address",
          "name": "previousOwner",
          "type": "address"
        },
        {
          "indexed": true,
          "internalType": "address",
          "name": "newOwner",
          "type": "address"
        }
      ],
      "name": "OwnershipTransferred",
      "type": "event"
    },
    {
      "anonymous": false,
      "inputs": [
        {
          "indexed": false,
          "internalType": "address",
          "name": "sender",
          "type": "address"
        },
        {
          "indexed": false,
          "internalType": "address",
          "name": "foreignToken",
          "type": "address"
        },
        {
          "indexed": false,
          "internalType": "address",
          "name": "oracle",
          "type": "address"
        }
      ],
      "name": "RemoveOracle",
      "type": "event"
    },
    {
      "inputs": [],
      "name": "MODULE_TYPE",
      "outputs": [
        {
          "internalType": "bytes32",
          "name": "",
          "type": "bytes32"
        }
      ],
      "stateMutability": "view",
      "type": "function"
    },
    {
      "inputs": [
        {
          "internalType": "address",
          "name": "foreignToken",
          "type": "address"
        },
        {
          "internalType": "bool",
          "name": "collateral",
          "type": "bool"
        },
        {
          "internalType": "address",
          "name": "oracle",
          "type": "address"
        }
      ],
      "name": "admitForeignToken",
      "outputs": [],
      "stateMutability": "nonpayable",
      "type": "function"
    },
    {
      "inputs": [
        {
          "internalType": "address",
          "name": "module",
          "type": "address"
        },
        {
          "internalType": "enum InterfaceCommon.ModuleType",
          "name": "moduleType",
          "type": "uint8"
        },
        {
          "internalType": "string",
          "name": "name",
          "type": "string"
        },
        {
          "internalType": "string",
          "name": "url",
          "type": "string"
        }
      ],
      "name": "admitModule",
      "outputs": [],
      "stateMutability": "nonpayable",
      "type": "function"
    },
    {
      "inputs": [
        {
          "internalType": "address",
          "name": "foreignToken",
          "type": "address"
        },
        {
          "internalType": "address",
          "name": "oracle",
          "type": "address"
        }
      ],
      "name": "assignOracle",
      "outputs": [],
      "stateMutability": "nonpayable",
      "type": "function"
    },
    {
      "inputs": [
        {
          "internalType": "string",
          "name": "name",
          "type": "string"
        },
        {
          "internalType": "string",
          "name": "symbol",
          "type": "string"
        },
        {
          "internalType": "address",
          "name": "governance",
          "type": "address"
        },
        {
          "internalType": "address",
          "name": "version",
          "type": "address"
        },
        {
          "internalType": "address",
          "name": "controller",
          "type": "address"
        },
        {
          "internalType": "address",
          "name": "mintMaster",
          "type": "address"
        },
        {
          "internalType": "address",
          "name": "oneTokenOracle",
          "type": "address"
        },
        {
          "internalType": "address",
          "name": "memberToken",
          "type": "address"
        },
        {
          "internalType": "address",
          "name": "collateral",
          "type": "address"
        }
      ],
      "name": "deployOneTokenProxy",
      "outputs": [
        {
          "internalType": "address",
          "name": "newOneTokenProxy",
          "type": "address"
        },
        {
          "internalType": "address",
          "name": "proxyAdmin",
          "type": "address"
        }
      ],
      "stateMutability": "nonpayable",
      "type": "function"
    },
    {
      "inputs": [
        {
          "internalType": "uint256",
          "name": "index",
          "type": "uint256"
        }
      ],
      "name": "foreignTokenAtIndex",
      "outputs": [
        {
          "internalType": "address",
          "name": "",
          "type": "address"
        }
      ],
      "stateMutability": "view",
      "type": "function"
    },
    {
      "inputs": [],
      "name": "foreignTokenCount",
      "outputs": [
        {
          "internalType": "uint256",
          "name": "",
          "type": "uint256"
        }
      ],
      "stateMutability": "view",
      "type": "function"
    },
    {
      "inputs": [
        {
          "internalType": "address",
          "name": "foreignToken",
          "type": "address"
        }
      ],
      "name": "foreignTokenInfo",
      "outputs": [
        {
          "internalType": "bool",
          "name": "collateral",
          "type": "bool"
        },
        {
          "internalType": "uint256",
          "name": "oracleCount",
          "type": "uint256"
        }
      ],
      "stateMutability": "view",
      "type": "function"
    },
    {
      "inputs": [
        {
          "internalType": "address",
          "name": "foreignToken",
          "type": "address"
        },
        {
          "internalType": "uint256",
          "name": "index",
          "type": "uint256"
        }
      ],
      "name": "foreignTokenOracleAtIndex",
      "outputs": [
        {
          "internalType": "address",
          "name": "",
          "type": "address"
        }
      ],
      "stateMutability": "view",
      "type": "function"
    },
    {
      "inputs": [
        {
          "internalType": "address",
          "name": "foreignToken",
          "type": "address"
        }
      ],
      "name": "foreignTokenOracleCount",
      "outputs": [
        {
          "internalType": "uint256",
          "name": "",
          "type": "uint256"
        }
      ],
      "stateMutability": "view",
      "type": "function"
    },
    {
      "inputs": [
        {
          "internalType": "address",
          "name": "foreignToken",
          "type": "address"
        }
      ],
      "name": "isCollateral",
      "outputs": [
        {
          "internalType": "bool",
          "name": "",
          "type": "bool"
        }
      ],
      "stateMutability": "view",
      "type": "function"
    },
    {
      "inputs": [
        {
          "internalType": "address",
          "name": "foreignToken",
          "type": "address"
        }
      ],
      "name": "isForeignToken",
      "outputs": [
        {
          "internalType": "bool",
          "name": "",
          "type": "bool"
        }
      ],
      "stateMutability": "view",
      "type": "function"
    },
    {
      "inputs": [
        {
          "internalType": "address",
          "name": "module",
          "type": "address"
        }
      ],
      "name": "isModule",
      "outputs": [
        {
          "internalType": "bool",
          "name": "",
          "type": "bool"
        }
      ],
      "stateMutability": "view",
      "type": "function"
    },
    {
      "inputs": [
        {
          "internalType": "address",
          "name": "oneToken",
          "type": "address"
        }
      ],
      "name": "isOneToken",
      "outputs": [
        {
          "internalType": "bool",
          "name": "",
          "type": "bool"
        }
      ],
      "stateMutability": "view",
      "type": "function"
    },
    {
      "inputs": [
        {
          "internalType": "address",
          "name": "foreignToken",
          "type": "address"
        },
        {
          "internalType": "address",
          "name": "oracle",
          "type": "address"
        }
      ],
      "name": "isOracle",
      "outputs": [
        {
          "internalType": "bool",
          "name": "",
          "type": "bool"
        }
      ],
      "stateMutability": "view",
      "type": "function"
    },
    {
      "inputs": [
        {
          "internalType": "address",
          "name": "module",
          "type": "address"
        },
        {
          "internalType": "enum InterfaceCommon.ModuleType",
          "name": "moduleType",
          "type": "uint8"
        }
      ],
      "name": "isValidModuleType",
      "outputs": [
        {
          "internalType": "bool",
          "name": "",
          "type": "bool"
        }
      ],
      "stateMutability": "view",
      "type": "function"
    },
    {
      "inputs": [
        {
          "internalType": "uint256",
          "name": "index",
          "type": "uint256"
        }
      ],
      "name": "moduleAtIndex",
      "outputs": [
        {
          "internalType": "address",
          "name": "module",
          "type": "address"
        }
      ],
      "stateMutability": "view",
      "type": "function"
    },
    {
      "inputs": [],
      "name": "moduleCount",
      "outputs": [
        {
          "internalType": "uint256",
          "name": "",
          "type": "uint256"
        }
      ],
      "stateMutability": "view",
      "type": "function"
    },
    {
      "inputs": [
        {
          "internalType": "address",
          "name": "",
          "type": "address"
        }
      ],
      "name": "modules",
      "outputs": [
        {
          "internalType": "string",
          "name": "name",
          "type": "string"
        },
        {
          "internalType": "string",
          "name": "url",
          "type": "string"
        },
        {
          "internalType": "enum InterfaceCommon.ModuleType",
          "name": "moduleType",
          "type": "uint8"
        }
      ],
      "stateMutability": "view",
      "type": "function"
    },
    {
      "inputs": [
        {
          "internalType": "uint256",
          "name": "index",
          "type": "uint256"
        }
      ],
      "name": "oneTokenAtIndex",
      "outputs": [
        {
          "internalType": "address",
          "name": "",
          "type": "address"
        }
      ],
      "stateMutability": "view",
      "type": "function"
    },
    {
      "inputs": [],
      "name": "oneTokenCount",
      "outputs": [
        {
          "internalType": "uint256",
          "name": "",
          "type": "uint256"
        }
      ],
      "stateMutability": "view",
      "type": "function"
    },
    {
      "inputs": [
        {
          "internalType": "address",
          "name": "",
          "type": "address"
        }
      ],
      "name": "oneTokenProxyAdmins",
      "outputs": [
        {
          "internalType": "address",
          "name": "",
          "type": "address"
        }
      ],
      "stateMutability": "view",
      "type": "function"
    },
    {
      "inputs": [],
      "name": "owner",
      "outputs": [
        {
          "internalType": "address",
          "name": "",
          "type": "address"
        }
      ],
      "stateMutability": "view",
      "type": "function"
    },
    {
      "inputs": [
        {
          "internalType": "address",
          "name": "foreignToken",
          "type": "address"
        }
      ],
      "name": "removeForeignToken",
      "outputs": [],
      "stateMutability": "nonpayable",
      "type": "function"
    },
    {
      "inputs": [
        {
          "internalType": "address",
          "name": "module",
          "type": "address"
        }
      ],
      "name": "removeModule",
      "outputs": [],
      "stateMutability": "nonpayable",
      "type": "function"
    },
    {
      "inputs": [
        {
          "internalType": "address",
          "name": "foreignToken",
          "type": "address"
        },
        {
          "internalType": "address",
          "name": "oracle",
          "type": "address"
        }
      ],
      "name": "removeOracle",
      "outputs": [],
      "stateMutability": "nonpayable",
      "type": "function"
    },
    {
      "inputs": [],
      "name": "renounceOwnership",
      "outputs": [],
      "stateMutability": "nonpayable",
      "type": "function"
    },
    {
      "inputs": [
        {
          "internalType": "address",
          "name": "newOwner",
          "type": "address"
        }
      ],
      "name": "transferOwnership",
      "outputs": [],
      "stateMutability": "nonpayable",
      "type": "function"
    },
    {
      "inputs": [
        {
          "internalType": "address",
          "name": "foreignToken",
          "type": "address"
        },
        {
          "internalType": "bool",
          "name": "collateral",
          "type": "bool"
        }
      ],
      "name": "updateForeignToken",
      "outputs": [],
      "stateMutability": "nonpayable",
      "type": "function"
    },
    {
      "inputs": [
        {
          "internalType": "address",
          "name": "module",
          "type": "address"
        },
        {
          "internalType": "string",
          "name": "name",
          "type": "string"
        },
        {
          "internalType": "string",
          "name": "url",
          "type": "string"
        }
      ],
      "name": "updateModule",
      "outputs": [],
      "stateMutability": "nonpayable",
      "type": "function"
    }
  ],
  "transactionHash": "0x483d66c8093a14a6643891dec355ce99dcbf4c6ce49b718d583843aed1d45772",
  "args": [],
  "solcInputHash": "149543c6066abfe7655600414f329617",
  "bytecode": "0x60806040523480156200001157600080fd5b506200001d3362000023565b620000c5565b6001600160a01b0381166200006a5760405162461bcd60e51b815260040180806020018281038252602a81526020018062004b0e602a913960400191505060405180910390fd5b600080546040516001600160a01b03808516939216917f8be0079c531659141344cd1fd0a4f28419497f9722a3daafe3b4186f6b6457e091a3600080546001600160a01b0319166001600160a01b0392909216919091179055565b614a3980620000d56000396000f3fe60806040523480156200001157600080fd5b5060043610620002085760003560e01c80637887a285116200011d578063bbc45e4311620000b1578063ec16aef4116200007b578063ec16aef4146200047e578063f2fde38b1462000495578063fd123af514620004ac578063fe672e6914620004c35762000208565b8063bbc45e431462000412578063c32eae761462000429578063e1ec19961462000440578063e9d38c0814620004575762000208565b8063a063246111620000f3578063a063246114620003a5578063a086b35e14620003bc578063a8ee49fe14620003d3578063aa25f80114620003fb5762000208565b80637887a285146200036d5780637afd8d9514620003845780638da5cb5b146200039b5762000208565b80634ef48bf811620001a15780635d3e3675116200016b5780635d3e3675146200033857806365f400ed146200034f5780636b556ce31462000359578063715018a614620003635762000208565b80634ef48bf814620002da578063574712af14620002f15780635775029f14620003175780635d21bb9614620003215762000208565b8063334f7ac511620001e3578063334f7ac5146200026c578063370c998e146200028557806342f6e389146200029c578063443f2c1b14620002b35762000208565b80630d077129146200020d5780630ee21e5414620002265780632b88b5431462000255575b600080fd5b620002246200021e36600462002361565b620004da565b005b6200023d620002373660046200231c565b620007c8565b6040516200024c919062002a27565b60405180910390f35b6200022462000266366004620023d7565b620007ea565b6200027662000a2d565b6040516200024c919062002a42565b6200023d6200029636600462002361565b62000a40565b6200023d620002ad3660046200231c565b62000a70565b620002ca620002c43660046200231c565b62000a7f565b6040516200024c92919062002a32565b6200023d620002eb3660046200231c565b62000ab4565b620003086200030236600462002697565b62000ac3565b6040516200024c91906200281d565b6200027662000ad2565b620003086200033236600462002561565b62000afc565b6200023d620003493660046200231c565b62000b23565b6200027662000b32565b6200027662000b40565b6200022462000b4e565b620003086200037e3660046200231c565b62000bfc565b6200023d6200039536600462002426565b62000c17565b6200030862000e36565b62000224620003b63660046200231c565b62000e45565b62000224620003cd366004620024e5565b62000f7e565b620003ea620003e43660046200231c565b620010a3565b6040516200024c9392919062002ab0565b620003086200040c36600462002697565b620011f3565b62000224620004233660046200239e565b62001202565b620002246200043a36600462002361565b620012ed565b62000276620004513660046200231c565b620013d4565b6200046e62000468366004620025a8565b620013fa565b6040516200024c92919062002831565b620003086200048f36600462002697565b620019dd565b62000224620004a63660046200231c565b620019ec565b62000224620004bd3660046200231c565b62001a5e565b62000224620004d436600462002456565b62001b83565b620004e462001d84565b6001600160a01b0316620004f762000e36565b6001600160a01b0316146200053e5760405162461bcd60e51b8152600401808060200182810382526024815260200180620048b16024913960400191505060405180910390fd5b6200054b60078362001d88565b620005735760405162461bcd60e51b81526004016200056a9062002ee8565b60405180910390fd5b6200057e8162000a70565b6200059d5760405162461bcd60e51b81526004016200056a9062002cb2565b620005aa81600462000c17565b620005c95760405162461bcd60e51b81526004016200056a9062002e99565b60405163066ad14f60e21b815281906001600160a01b038216906319ab453c90620005f99086906004016200281d565b600060405180830381600087803b1580156200061457600080fd5b505af115801562000629573d6000803e3d6000fd5b5050604051630e0dc3b960e11b81526001600160a01b0384169250631c1b877291506200065b9086906004016200281d565b600060405180830381600087803b1580156200067657600080fd5b505af11580156200068b573d6000803e3d6000fd5b5050505060096000826001600160a01b031663e7d015f26040518163ffffffff1660e01b815260040160206040518083038186803b158015620006cd57600080fd5b505afa158015620006e2573d6000803e3d6000fd5b505050506040513d601f19601f8201168201806040525081019062000708919062002342565b6001600160a01b0316815260208101919091526040016000205460ff16620007445760405162461bcd60e51b81526004016200056a9062002f80565b62000786826040518060800160405280604281526020016200486f604291396001600160a01b0386166000908152600960205260409020600101919062001de6565b7f603b36779f7617ef2f1eb881e8205140ce5482e8d72751c4f9ab88d523654c81338484604051620007bb939291906200284b565b60405180910390a1505050565b6001600160a01b03811660009081526009602052604090205460ff165b919050565b620007f462001d84565b6001600160a01b03166200080762000e36565b6001600160a01b0316146200084e5760405162461bcd60e51b8152600401808060200182810382526024815260200180620048b16024913960400191505060405180910390fd5b620008598162000a70565b620008785760405162461bcd60e51b81526004016200056a9062002cb2565b6200088581600462000c17565b620008a45760405162461bcd60e51b81526004016200056a9062003021565b60405163066ad14f60e21b815281906001600160a01b038216906319ab453c90620008d49087906004016200281d565b600060405180830381600087803b158015620008ef57600080fd5b505af115801562000904573d6000803e3d6000fd5b5050604051630e0dc3b960e11b81526001600160a01b0384169250631c1b87729150620009369087906004016200281d565b600060405180830381600087803b1580156200095157600080fd5b505af115801562000966573d6000803e3d6000fd5b5050505062000993846040518060600160405280603281526020016200493a603291396007919062001de6565b6001600160a01b038416600090815260096020908152604091829020805460ff191686151517815582516060810190935260368084529092620009e792869290620048399083013960018401919062001de6565b7f0255e6ee80e249cbc698d58e936182ef47204e8d4f7e083b4223017c9749e7533386868660405162000a1e949392919062002892565b60405180910390a15050505050565b600062000a3b600462001ed0565b905090565b6001600160a01b038216600090815260096020526040812062000a67906001018362001d88565b90505b92915050565b600062000a6a60048362001d88565b6001600160a01b0381166000908152600960205260408120805460ff16919062000aac6001820162001ed0565b915050915091565b600062000a6a60018362001d88565b600062000a6a60048362001ed7565b60405160200162000ae390620027b5565b6040516020818303038152906040528051906020012081565b6001600160a01b038216600090815260096020526040812062000a67906001018362001ed7565b600062000a6a60078362001d88565b600062000a3b600762001ed0565b600062000a3b600162001ed0565b62000b5862001d84565b6001600160a01b031662000b6b62000e36565b6001600160a01b03161462000bb25760405162461bcd60e51b8152600401808060200182810382526024815260200180620048b16024913960400191505060405180910390fd5b600080546040516001600160a01b03909116907f8be0079c531659141344cd1fd0a4f28419497f9722a3daafe3b4186f6b6457e0908390a3600080546001600160a01b0319169055565b6003602052600090815260409020546001600160a01b031681565b6000808390506000816001600160a01b0316635775029f6040518163ffffffff1660e01b815260040160206040518083038186803b15801562000c5957600080fd5b505afa15801562000c6e573d6000803e3d6000fd5b505050506040513d601f19601f8201168201806040525081019062000c9491906200258f565b9050600084600481111562000ca557fe5b141562000ce75760405160200162000cbd90620027f4565b6040516020818303038152906040528051906020012081141562000ce75760019250505062000a6a565b600184600481111562000cf657fe5b141562000d385760405160200162000d0e90620027d6565b6040516020818303038152906040528051906020012081141562000d385760019250505062000a6a565b600284600481111562000d4757fe5b141562000d895760405160200162000d5f9062002759565b6040516020818303038152906040528051906020012081141562000d895760019250505062000a6a565b600384600481111562000d9857fe5b141562000dda5760405160200162000db09062002782565b6040516020818303038152906040528051906020012081141562000dda5760019250505062000a6a565b600484600481111562000de957fe5b141562000e2b5760405160200162000e019062002730565b6040516020818303038152906040528051906020012081141562000e2b5760019250505062000a6a565b506000949350505050565b6000546001600160a01b031690565b62000e4f62001d84565b6001600160a01b031662000e6262000e36565b6001600160a01b03161462000ea95760405162461bcd60e51b8152600401808060200182810382526024815260200180620048b16024913960400191505060405180910390fd5b62000eb660048262001d88565b62000ed55760405162461bcd60e51b81526004016200056a9062002bd4565b6001600160a01b03811660009081526006602052604081209062000efa82826200214a565b62000f0a6001830160006200214a565b50600201805460ff191690556040805160608101909152602480825262000f409183916200481560208301396004919062001f05565b7fd66772358582078947c11fa70e2860b3ffa915277e6181a4aa293072cb57ed3c338260405162000f7392919062002831565b60405180910390a150565b62000f8862001d84565b6001600160a01b031662000f9b62000e36565b6001600160a01b03161462000fe25760405162461bcd60e51b8152600401808060200182810382526024815260200180620048b16024913960400191505060405180910390fd5b62000fef60048462001d88565b6200100e5760405162461bcd60e51b81526004016200056a9062002bd4565b6001600160a01b03831660009081526006602090815260409091208351620010399285019062002192565b506001600160a01b038316600090815260066020908152604090912082516200106b9260019092019184019062002192565b507fa6d7f811a0c9133543ce7ca7dc073d450b5f0f274f1890e8d5b233831048898133848484604051620007bb949392919062002918565b60066020908152600091825260409182902080548351601f600260001961010060018616150201909316929092049182018490048402810184019094528084529092918391908301828280156200113e5780601f1062001112576101008083540402835291602001916200113e565b820191906000526020600020905b8154815290600101906020018083116200112057829003601f168201915b505050505090806001018054600181600116156101000203166002900480601f016020809104026020016040519081016040528092919081815260200182805460018160011615610100020316600290048015620011e05780601f10620011b457610100808354040283529160200191620011e0565b820191906000526020600020905b815481529060010190602001808311620011c257829003601f168201915b5050506002909301549192505060ff1683565b600062000a6a60078362001ed7565b6200120c62001d84565b6001600160a01b03166200121f62000e36565b6001600160a01b031614620012665760405162461bcd60e51b8152600401808060200182810382526024815260200180620048b16024913960400191505060405180910390fd5b6200127360078362001d88565b620012925760405162461bcd60e51b81526004016200056a9062002c18565b6001600160a01b03821660009081526009602052604090819020805460ff191683151517815590517f15d54838dc6ae3bad10cc33be8d5495296ef1219cfb8c0dfb1b9551e2383f32290620007bb903390869086906200286e565b620012f762001d84565b6001600160a01b03166200130a62000e36565b6001600160a01b031614620013515760405162461bcd60e51b8152600401808060200182810382526024815260200180620048b16024913960400191505060405180910390fd5b62001393816040518060800160405280605781526020016200496c605791396001600160a01b0385166000908152600960205260409020600101919062001f05565b7fc5a3e6442756bc888bcbe839525e1791932be246641cf6578a8d1e1a022e863f338383604051620013c8939291906200284b565b60405180910390a15050565b6001600160a01b038116600090815260096020526040812062000a6a9060010162001ed0565b6000806200140762001d84565b6001600160a01b03166200141a62000e36565b6001600160a01b031614620014615760405162461bcd60e51b8152600401808060200182810382526024815260200180620048b16024913960400191505060405180910390fd5b60008b5111620014855760405162461bcd60e51b81526004016200056a9062002af3565b60008a5111620014a95760405162461bcd60e51b81526004016200056a906200319e565b6001600160a01b038916620014d25760405162461bcd60e51b81526004016200056a9062002b85565b620014dd8862000a70565b620014fc5760405162461bcd60e51b81526004016200056a9062002d4a565b620015078762000a70565b620015265760405162461bcd60e51b81526004016200056a9062002b3a565b620015318662000a70565b620015505760405162461bcd60e51b81526004016200056a9062003153565b6200155b8562000a70565b6200157a5760405162461bcd60e51b81526004016200056a9062002c63565b6200158788600062000c17565b620015a65760405162461bcd60e51b81526004016200056a9062002de0565b620015b387600162000c17565b620015d25760405162461bcd60e51b81526004016200056a9062002d92565b620015df86600362000c17565b620015fe5760405162461bcd60e51b81526004016200056a9062002cfc565b6200160b85600462000c17565b6200162a5760405162461bcd60e51b81526004016200056a9062002f2e565b6200163760078562001d88565b620016565760405162461bcd60e51b81526004016200056a906200310e565b6200166360078462001d88565b620016825760405162461bcd60e51b81526004016200056a9062002fde565b6001600160a01b03831660009081526009602052604090205460ff16620016bd5760405162461bcd60e51b81526004016200056a90620031e7565b6012836001600160a01b031663313ce5676040518163ffffffff1660e01b815260040160206040518083038186803b158015620016f957600080fd5b505afa1580156200170e573d6000803e3d6000fd5b505050506040513d601f19601f82011682018060405250810190620017349190620026b0565b60ff161115620017585760405162461bcd60e51b81526004016200056a9062002e2b565b6000604051620017689062002227565b604051809103906000f08015801562001785573d6000803e3d6000fd5b5060405163f2fde38b60e01b81529091506001600160a01b0382169063f2fde38b90620017b7908d906004016200281d565b600060405180830381600087803b158015620017d257600080fd5b505af1158015620017e7573d6000803e3d6000fd5b505050508091506000898260405180602001604052806000815250604051620018109062002235565b6200181e93929190620029f0565b604051809103906000f0801580156200183b573d6000803e3d6000fd5b506001600160a01b03818116600090815260036020526040902080546001600160a01b03191691861691909117905593508390506200187d81600189620007ea565b620018a684604051806080016040528060418152602001620049c3604191396001919062001de6565b6000849050806001600160a01b031663c5706b208f8f8b8e8e8d8d6040518863ffffffff1660e01b8152600401620018e5979695949392919062002a4b565b600060405180830381600087803b1580156200190057600080fd5b505af115801562001915573d6000803e3d6000fd5b505060405163f2fde38b60e01b81526001600160a01b038416925063f2fde38b915062001947908f906004016200281d565b600060405180830381600087803b1580156200196257600080fd5b505af115801562001977573d6000803e3d6000fd5b505050506200198f858f8f8f8f8f8f8f8f8f6200204f565b7f8e53c7695f90e689a598e479b402577bc0087caddedfb8aeecdc2025633a9b54338686604051620019c4939291906200284b565b60405180910390a1505050995099975050505050505050565b600062000a6a60018362001ed7565b620019f662001d84565b6001600160a01b031662001a0962000e36565b6001600160a01b03161462001a505760405162461bcd60e51b8152600401808060200182810382526024815260200180620048b16024913960400191505060405180910390fd5b62001a5b81620020a8565b50565b62001a6862001d84565b6001600160a01b031662001a7b62000e36565b6001600160a01b03161462001ac25760405162461bcd60e51b8152600401808060200182810382526024815260200180620048b16024913960400191505060405180910390fd5b62001acf60078262001d88565b62001aee5760405162461bcd60e51b81526004016200056a9062002c18565b6001600160a01b0381166000908152600960205260408120805460ff1916815590600182018162001b23600285018262002243565b5050505062001b50816040518060600160405280603b8152602001620048ff603b91396007919062001f05565b7fc35da43a468a707f7fc80f88adb04916648183987d8fb72ba058f4306d2db7d2338260405162000f7392919062002831565b62001b8d62001d84565b6001600160a01b031662001ba062000e36565b6001600160a01b03161462001be75760405162461bcd60e51b8152600401808060200182810382526024815260200180620048b16024913960400191505060405180910390fd5b62001bf3848462000c17565b62001c125760405162461bcd60e51b81526004016200056a9062003065565b600083600481111562001c2157fe5b1462001ccf57306001600160a01b0316846001600160a01b031663a2729c236040518163ffffffff1660e01b815260040160206040518083038186803b15801562001c6b57600080fd5b505afa15801562001c80573d6000803e3d6000fd5b505050506040513d601f19601f8201168201806040525081019062001ca6919062002342565b6001600160a01b03161462001ccf5760405162461bcd60e51b81526004016200056a90620030b9565b62001cf884604051806060016040528060318152602001620047e4603191396004919062001de6565b62001d0584838362000f7e565b6001600160a01b0384166000908152600660205260409020600201805484919060ff1916600183600481111562001d3857fe5b02179055507f289a25982af075f2b98f6b7c76c22fac3ec1fcfa0da8b45eea900f65ffd96862338585858560405162001d76959493929190620028bd565b60405180910390a150505050565b3390565b600182015460009062001d9e5750600062000a6a565b6001600160a01b038216600081815260208590526040902054600185018054909190811062001dc957fe5b6000918252602090912001546001600160a01b0316149392505050565b62001df2838362001d88565b15819062001e815760405162461bcd60e51b81526004018080602001828103825283818151815260200191508051906020019080838360005b8381101562001e4557818101518382015260200162001e2b565b50505050905090810190601f16801562001e735780820380516001836020036101000a031916815260200191505b509250505060405180910390fd5b50506001828101805491820181556000818152602080822090930180546001600160a01b0319166001600160a01b03959095169485179055905492815292905260409091206000199091019055565b6001015490565b600082600101828154811062001ee957fe5b6000918252602090912001546001600160a01b03169392505050565b62001f11838362001d88565b819062001f615760405162461bcd60e51b815260206004820181815283516024840152835190928392604490910191908501908083836000831562001e4557818101518382015260200162001e2b565b506000600162001f718562001ed0565b6001600160a01b038516600090815260208790526040812054600188018054949093039450929091908490811062001fa557fe5b60009182526020808320909101546001600160a01b031680835290889052604090912083905560018701805491925082918490811062001fe157fe5b600091825260208083209190910180546001600160a01b0319166001600160a01b039485161790559187168152908790526040812055600186018054806200202557fe5b600082815260209020810160001990810180546001600160a01b0319169055019055505050505050565b7fdc84706278969a5fa7433197f89dc5eb9918873d631fbe1cbce03702ffb7abd8338b8b8b8b8b8b8b8b8b8b604051620020949b9a9998979695949392919062002965565b60405180910390a150505050505050505050565b6001600160a01b038116620020ef5760405162461bcd60e51b815260040180806020018281038252602a815260200180620048d5602a913960400191505060405180910390fd5b600080546040516001600160a01b03808516939216917f8be0079c531659141344cd1fd0a4f28419497f9722a3daafe3b4186f6b6457e091a3600080546001600160a01b0319166001600160a01b0392909216919091179055565b50805460018160011615610100020316600290046000825580601f1062002172575062001a5b565b601f01602090049060005260206000209081019062001a5b91906200225e565b828054600181600116156101000203166002900490600052602060002090601f016020900481019282620021ca576000855562002215565b82601f10620021e557805160ff191683800117855562002215565b8280016001018555821562002215579182015b8281111562002215578251825591602001919060010190620021f8565b50620022239291506200225e565b5090565b6108f8806200325c83390190565b610c908062003b5483390190565b508054600082559060005260206000209081019062001a5b91905b5b808211156200222357600081556001016200225f565b8035620007e58162003245565b80358015158114620007e557600080fd5b803560058110620007e557600080fd5b600082601f830112620022b4578081fd5b813567ffffffffffffffff80821115620022ca57fe5b604051601f8301601f191681016020018281118282101715620022e957fe5b60405282815284830160200186101562002301578384fd5b82602086016020830137918201602001929092529392505050565b6000602082840312156200232e578081fd5b81356200233b8162003245565b9392505050565b60006020828403121562002354578081fd5b81516200233b8162003245565b6000806040838503121562002374578081fd5b8235620023818162003245565b91506020830135620023938162003245565b809150509250929050565b60008060408385031215620023b1578182fd5b8235620023be8162003245565b9150620023ce6020840162002282565b90509250929050565b600080600060608486031215620023ec578081fd5b8335620023f98162003245565b9250620024096020850162002282565b915060408401356200241b8162003245565b809150509250925092565b6000806040838503121562002439578182fd5b8235620024468162003245565b9150620023ce6020840162002293565b600080600080608085870312156200246c578081fd5b8435620024798162003245565b9350620024896020860162002293565b9250604085013567ffffffffffffffff80821115620024a6578283fd5b620024b488838901620022a3565b93506060870135915080821115620024ca578283fd5b50620024d987828801620022a3565b91505092959194509250565b600080600060608486031215620024fa578283fd5b8335620025078162003245565b9250602084013567ffffffffffffffff8082111562002524578384fd5b6200253287838801620022a3565b9350604086013591508082111562002548578283fd5b506200255786828701620022a3565b9150509250925092565b6000806040838503121562002574578182fd5b8235620025818162003245565b946020939093013593505050565b600060208284031215620025a1578081fd5b5051919050565b60008060008060008060008060006101208a8c031215620025c7578485fd5b893567ffffffffffffffff80821115620025df578687fd5b620025ed8d838e01620022a3565b9a5060208c013591508082111562002603578687fd5b50620026128c828d01620022a3565b98505060408a0135620026258162003245565b965060608a0135620026378162003245565b95506200264760808b0162002275565b94506200265760a08b0162002275565b93506200266760c08b0162002275565b92506200267760e08b0162002275565b9150620026886101008b0162002275565b90509295985092959850929598565b600060208284031215620026a9578081fd5b5035919050565b600060208284031215620026c2578081fd5b815160ff811681146200233b578182fd5b60008151808452815b81811015620026fa57602081850181015186830182015201620026dc565b818111156200270c5782602083870101525b50601f01601f19169290920160200192915050565b600581106200272c57fe5b9052565b7f49434849205631204f7261636c6520496d706c656d656e746174696f6e0000008152601d0190565b7f4943484920563120537472617465677920496d706c656d656e746174696f6e008152601f0190565b7f49434849205631204d696e744d617374657220496d706c656d656e746174696f8152603760f91b602082015260210190565b7449434849204f6e65546f6b656e20466163746f727960581b815260150190565b7124a1a424902b189021b7b73a3937b63632b960711b815260120190565b7f49434849205631204f6e65546f6b656e20496d706c656d656e746174696f6e008152601f0190565b6001600160a01b0391909116815260200190565b6001600160a01b0392831681529116602082015260400190565b6001600160a01b0393841681529183166020830152909116604082015260600190565b6001600160a01b039384168152919092166020820152901515604082015260600190565b6001600160a01b03948516815292841660208401529015156040830152909116606082015260800190565b6001600160a01b038681168252851660208201526000620028e2604083018662002721565b60a06060830152620028f860a0830185620026d3565b82810360808401526200290c8185620026d3565b98975050505050505050565b6001600160a01b038581168252841660208201526080604082018190526000906200294690830185620026d3565b82810360608401526200295a8185620026d3565b979650505050505050565b6001600160a01b038c811682528b8116602083015261016060408301819052600091620029958483018e620026d3565b91508382036060850152620029ab828d620026d3565b9a8116608085015298891660a0840152505094861660c086015292851660e0850152908416610100840152831661012083015290911661014090910152949350505050565b6001600160a01b0384811682528316602082015260606040820181905260009062002a1e90830184620026d3565b95945050505050565b901515815260200190565b9115158252602082015260400190565b90815260200190565b600060e0825262002a6060e083018a620026d3565b828103602084015262002a74818a620026d3565b6001600160a01b03988916604085015296881660608401525050928516608084015290841660a083015290921660c09092019190915292915050565b60006060825262002ac56060830186620026d3565b828103602084015262002ad98186620026d3565b91505062002aeb604083018462002721565b949350505050565b60208082526027908201527f4f6e65546f6b656e466163746f72793a20746f6b656e206e616d652069732072604082015266195c5d5a5c995960ca1b606082015260800190565b6020808252602b908201527f4f6e65546f6b656e466163746f72793a20636f6e74726f6c6c6572206973206e60408201526a1bdd08185c1c1c9bdd995960aa1b606082015260800190565b6020808252602f908201527f4f6e65546f6b656e466163746f72793a20676f7665726e616e6365206164647260408201526e195cdcc81a5cc81c995c5d5a5c9959608a1b606082015260800190565b60208082526024908201527f4f6e65546f6b656e466163746f72792c205365743a20756e6b6e6f776e206d6f60408201526364756c6560e01b606082015260800190565b6020808252602b908201527f4f6e65546f6b656e466163746f72792c205365743a20756e6b6e6f776e20666f60408201526a3932b4b3b7103a37b5b2b760a91b606082015260800190565b6020808252602f908201527f4f6e65546f6b656e466163746f72793a206f6e65546f6b656e4f7261636c652060408201526e1a5cc81b9bdd08185c1c1c9bdd9959608a1b606082015260800190565b6020808252602a908201527f4f6e65546f6b656e466163746f72793a206f7261636c65206973206e6f74207260408201526932b3b4b9ba32b932b21760b11b606082015260800190565b6020808252602e908201527f4f6e65546f6b656e466163746f72793a206d696e744d61737465722c2077726f60408201526d6e67204d4f44554c455f5459504560901b606082015260800190565b60208082526028908201527f4f6e65546f6b656e466163746f72793a2076657273696f6e206973206e6f7420604082015267185c1c1c9bdd995960c21b606082015260800190565b6020808252602e908201527f4f6e65546f6b656e466163746f72793a20636f6e74726f6c6c65722c2077726f60408201526d6e67204d4f44554c455f5459504560901b606082015260800190565b6020808252602b908201527f4f6e65546f6b656e466163746f72793a2076657273696f6e2c2077726f6e672060408201526a4d4f44554c455f5459504560a81b606082015260800190565b60208082526048908201527f4f6e65546f6b656e466163746f72793a20636f6c6c61746572616c207769746860408201527f202b313820646563696d616c7320707265636973696f6e206973206e6f7420736060820152671d5c1c1bdc9d195960c21b608082015260a00190565b6020808252602f908201527f4f6e65546f6b656e466163746f72793a20496e7465726e616c206572726f722060408201526e636865636b696e67206f7261636c6560881b606082015260800190565b60208082526026908201527f4f6e65546f6b656e466163746f72793a20756e6b6e6f776e20666f726569676e604082015265103a37b5b2b760d11b606082015260800190565b60208082526032908201527f4f6e65546f6b656e466163746f72793a206f6e65546f6b656e4f7261636c652c6040820152712077726f6e67204d4f44554c455f5459504560701b606082015260800190565b602080825260409082018190527f4f6e65546f6b656e466163746f72793a204f7261636c6520496e64657820546f908201527f6b656e206973206e6f74207265676973746572656420636f6c6c61746572616c606082015260800190565b60208082526023908201527f4f6e65546f6b656e466163746f72793a20756e6b6e6f776e20636f6c6c6174656040820152621c985b60ea1b606082015260800190565b60208082526024908201527f4f6e65546f6b656e466163746f72792c205365743a20756e6b6e6f776e206f7260408201526361636c6560e01b606082015260800190565b60208082526034908201527f4f6e65546f6b656e466163746f72793a20696e76616c69642066696e6765727060408201527372696e7420666f72206d6f64756c65207479706560601b606082015260800190565b60208082526035908201527f4f6e65546f6b656e466163746f72793a206d6f64756c65206973206e6f74206260408201527437bab732103a37903a3434b9903330b1ba37b93c9760591b606082015260800190565b60208082526025908201527f4f6e65546f6b656e466163746f72793a20756e6b6e6f776e206d656d626572206040820152643a37b5b2b760d91b606082015260800190565b6020808252602b908201527f4f6e65546f6b656e466163746f72793a206d696e744d6173746572206973206e60408201526a1bdd08185c1c1c9bdd995960aa1b606082015260800190565b60208082526029908201527f4f6e65546f6b656e666163746f72793a20746f6b656e2073796d626f6c206973604082015268081c995c5d5a5c995960ba1b606082015260800190565b602080825260409082018190527f4f6e65546f6b656e466163746f72793a2073706563696669656420746f6b656e908201527f206973206e6f74207265636f676e697a656420617320636f6c6c61746572616c606082015260800190565b6001600160a01b038116811462001a5b57600080fdfe608060405234801561001057600080fd5b50600061001b61006a565b600080546001600160a01b0319166001600160a01b0383169081178255604051929350917f8be0079c531659141344cd1fd0a4f28419497f9722a3daafe3b4186f6b6457e0908290a35061006e565b3390565b61087b8061007d6000396000f3fe60806040526004361061007b5760003560e01c80639623609d1161004e5780639623609d1461013657806399a88ec4146101f5578063f2fde38b14610230578063f3b7dead146102635761007b565b8063204e1c7a14610080578063715018a6146100cf5780637eff275e146100e65780638da5cb5b14610121575b600080fd5b34801561008c57600080fd5b506100b3600480360360208110156100a357600080fd5b50356001600160a01b0316610296565b604080516001600160a01b039092168252519081900360200190f35b3480156100db57600080fd5b506100e4610328565b005b3480156100f257600080fd5b506100e46004803603604081101561010957600080fd5b506001600160a01b03813581169160200135166103d4565b34801561012d57600080fd5b506100b36104a1565b6100e46004803603606081101561014c57600080fd5b6001600160a01b03823581169260208101359091169181019060608101604082013564010000000081111561018057600080fd5b82018360208201111561019257600080fd5b803590602001918460018302840111640100000000831117156101b457600080fd5b91908080601f0160208091040260200160405190810160405280939291908181526020018383808284376000920191909152509295506104b0945050505050565b34801561020157600080fd5b506100e46004803603604081101561021857600080fd5b506001600160a01b03813581169160200135166105e9565b34801561023c57600080fd5b506100e46004803603602081101561025357600080fd5b50356001600160a01b031661069a565b34801561026f57600080fd5b506100b36004803603602081101561028657600080fd5b50356001600160a01b031661079c565b6000806000836001600160a01b03166040518080635c60da1b60e01b8152506004019050600060405180830381855afa9150503d80600081146102f5576040519150601f19603f3d011682016040523d82523d6000602084013e6102fa565b606091505b50915091508161030957600080fd5b80806020019051602081101561031e57600080fd5b5051949350505050565b6103306107fb565b6001600160a01b03166103416104a1565b6001600160a01b03161461038a576040805162461bcd60e51b81526020600482018190526024820152600080516020610826833981519152604482015290519081900360640190fd5b600080546040516001600160a01b03909116907f8be0079c531659141344cd1fd0a4f28419497f9722a3daafe3b4186f6b6457e0908390a3600080546001600160a01b0319169055565b6103dc6107fb565b6001600160a01b03166103ed6104a1565b6001600160a01b031614610436576040805162461bcd60e51b81526020600482018190526024820152600080516020610826833981519152604482015290519081900360640190fd5b816001600160a01b0316638f283970826040518263ffffffff1660e01b815260040180826001600160a01b03168152602001915050600060405180830381600087803b15801561048557600080fd5b505af1158015610499573d6000803e3d6000fd5b505050505050565b6000546001600160a01b031690565b6104b86107fb565b6001600160a01b03166104c96104a1565b6001600160a01b031614610512576040805162461bcd60e51b81526020600482018190526024820152600080516020610826833981519152604482015290519081900360640190fd5b826001600160a01b0316634f1ef2863484846040518463ffffffff1660e01b815260040180836001600160a01b0316815260200180602001828103825283818151815260200191508051906020019080838360005b8381101561057f578181015183820152602001610567565b50505050905090810190601f1680156105ac5780820380516001836020036101000a031916815260200191505b5093505050506000604051808303818588803b1580156105cb57600080fd5b505af11580156105df573d6000803e3d6000fd5b5050505050505050565b6105f16107fb565b6001600160a01b03166106026104a1565b6001600160a01b03161461064b576040805162461bcd60e51b81526020600482018190526024820152600080516020610826833981519152604482015290519081900360640190fd5b816001600160a01b0316633659cfe6826040518263ffffffff1660e01b815260040180826001600160a01b03168152602001915050600060405180830381600087803b15801561048557600080fd5b6106a26107fb565b6001600160a01b03166106b36104a1565b6001600160a01b0316146106fc576040805162461bcd60e51b81526020600482018190526024820152600080516020610826833981519152604482015290519081900360640190fd5b6001600160a01b0381166107415760405162461bcd60e51b81526004018080602001828103825260268152602001806108006026913960400191505060405180910390fd5b600080546040516001600160a01b03808516939216917f8be0079c531659141344cd1fd0a4f28419497f9722a3daafe3b4186f6b6457e091a3600080546001600160a01b0319166001600160a01b0392909216919091179055565b6000806000836001600160a01b031660405180806303e1469160e61b8152506004019050600060405180830381855afa9150503d80600081146102f5576040519150601f19603f3d011682016040523d82523d6000602084013e6102fa565b339056fe4f776e61626c653a206e6577206f776e657220697320746865207a65726f20616464726573734f776e61626c653a2063616c6c6572206973206e6f7420746865206f776e6572a2646970667358221220481fbd84c0fd3a4c7b21a2b3694bb82f98535a637064ba5e11636d3f34e00bf964736f6c6343000706003360806040523480156200001157600080fd5b5060405162000c9038038062000c90833981810160405260608110156200003757600080fd5b815160208301516040808501805191519395929483019291846401000000008211156200006357600080fd5b9083019060208201858111156200007957600080fd5b82516401000000008111828201881017156200009457600080fd5b82525081516020918201929091019080838360005b83811015620000c3578181015183820152602001620000a9565b50505050905090810190601f168015620000f15780820380516001836020036101000a031916815260200191505b50604052508491508390508282816200010a826200014b565b8051156200012b57620001298282620001c260201b620003841760201c565b505b50620001349050565b6200013f82620001f1565b505050505050620003d2565b62000161816200021560201b620003b01760201c565b6200019e5760405162461bcd60e51b815260040180806020018281038252603681526020018062000c346036913960400191505060405180910390fd5b7f360894a13ba1a3210667c828492db98dca3e2076cc3735a920a3ca505d382bbc55565b6060620001ea838360405180606001604052806027815260200162000c0d602791396200021b565b9392505050565b7fb53127684a568b3173ae13b9f8a6016e243e63b6e8ee1178d6a717850b5d610355565b3b151590565b6060620002288462000215565b620002655760405162461bcd60e51b815260040180806020018281038252602681526020018062000c6a6026913960400191505060405180910390fd5b600080856001600160a01b0316856040518082805190602001908083835b60208310620002a45780518252601f19909201916020918201910162000283565b6001836020036101000a038019825116818451168082178552505050505050905001915050600060405180830381855af49150503d806000811462000306576040519150601f19603f3d011682016040523d82523d6000602084013e6200030b565b606091505b5090925090506200031e82828662000328565b9695505050505050565b6060831562000339575081620001ea565b8251156200034a5782518084602001fd5b8160405162461bcd60e51b81526004018080602001828103825283818151815260200191508051906020019080838360005b83811015620003965781810151838201526020016200037c565b50505050905090810190601f168015620003c45780820380516001836020036101000a031916815260200191505b509250505060405180910390fd5b61082b80620003e26000396000f3fe60806040526004361061004e5760003560e01c80633659cfe6146100655780634f1ef286146100985780635c60da1b146101185780638f28397014610149578063f851a4401461017c5761005d565b3661005d5761005b610191565b005b61005b610191565b34801561007157600080fd5b5061005b6004803603602081101561008857600080fd5b50356001600160a01b03166101ab565b61005b600480360360408110156100ae57600080fd5b6001600160a01b0382351691908101906040810160208201356401000000008111156100d957600080fd5b8201836020820111156100eb57600080fd5b8035906020019184600183028401116401000000008311171561010d57600080fd5b5090925090506101e5565b34801561012457600080fd5b5061012d610262565b604080516001600160a01b039092168252519081900360200190f35b34801561015557600080fd5b5061005b6004803603602081101561016c57600080fd5b50356001600160a01b031661029f565b34801561018857600080fd5b5061012d610359565b6101996103b6565b6101a96101a4610416565b61043b565b565b6101b361045f565b6001600160a01b0316336001600160a01b031614156101da576101d581610484565b6101e2565b6101e2610191565b50565b6101ed61045f565b6001600160a01b0316336001600160a01b031614156102555761020f83610484565b61024f8383838080601f01602080910402602001604051908101604052809392919081815260200183838082843760009201919091525061038492505050565b5061025d565b61025d610191565b505050565b600061026c61045f565b6001600160a01b0316336001600160a01b031614156102945761028d610416565b905061029c565b61029c610191565b90565b6102a761045f565b6001600160a01b0316336001600160a01b031614156101da576001600160a01b0381166103055760405162461bcd60e51b815260040180806020018281038252603a8152602001806106f7603a913960400191505060405180910390fd5b7f7e644d79422f17c01e4894b5f4f588d331ebfa28653d42ae832dc59e38c9798f61032e61045f565b604080516001600160a01b03928316815291841660208301528051918290030190a16101d5816104c4565b600061036361045f565b6001600160a01b0316336001600160a01b031614156102945761028d61045f565b60606103a98383604051806060016040528060278152602001610731602791396104e8565b9392505050565b3b151590565b6103be61045f565b6001600160a01b0316336001600160a01b0316141561040e5760405162461bcd60e51b81526004018080602001828103825260428152602001806107b46042913960600191505060405180910390fd5b6101a96101a9565b7f360894a13ba1a3210667c828492db98dca3e2076cc3735a920a3ca505d382bbc5490565b3660008037600080366000845af43d6000803e80801561045a573d6000f35b3d6000fd5b7fb53127684a568b3173ae13b9f8a6016e243e63b6e8ee1178d6a717850b5d61035490565b61048d816105ea565b6040516001600160a01b038216907fbc7cd75a20ee27fd9adebab32041f755214dbc6bffa90cc0225b39da2e5c2d3b90600090a250565b7fb53127684a568b3173ae13b9f8a6016e243e63b6e8ee1178d6a717850b5d610355565b60606104f3846103b0565b61052e5760405162461bcd60e51b815260040180806020018281038252602681526020018061078e6026913960400191505060405180910390fd5b600080856001600160a01b0316856040518082805190602001908083835b6020831061056b5780518252601f19909201916020918201910161054c565b6001836020036101000a038019825116818451168082178552505050505050905001915050600060405180830381855af49150503d80600081146105cb576040519150601f19603f3d011682016040523d82523d6000602084013e6105d0565b606091505b50915091506105e0828286610652565b9695505050505050565b6105f3816103b0565b61062e5760405162461bcd60e51b81526004018080602001828103825260368152602001806107586036913960400191505060405180910390fd5b7f360894a13ba1a3210667c828492db98dca3e2076cc3735a920a3ca505d382bbc55565b606083156106615750816103a9565b8251156106715782518084602001fd5b8160405162461bcd60e51b81526004018080602001828103825283818151815260200191508051906020019080838360005b838110156106bb5781810151838201526020016106a3565b50505050905090810190601f1680156106e85780820380516001836020036101000a031916815260200191505b509250505060405180910390fdfe5472616e73706172656e745570677261646561626c6550726f78793a206e65772061646d696e20697320746865207a65726f2061646472657373416464726573733a206c6f772d6c6576656c2064656c65676174652063616c6c206661696c65645570677261646561626c6550726f78793a206e657720696d706c656d656e746174696f6e206973206e6f74206120636f6e7472616374416464726573733a2064656c65676174652063616c6c20746f206e6f6e2d636f6e74726163745472616e73706172656e745570677261646561626c6550726f78793a2061646d696e2063616e6e6f742066616c6c6261636b20746f2070726f787920746172676574a2646970667358221220de61ee48ff564f693fd2436c54989563abbc842c57078b516d4ec2f4a06deabe64736f6c63430007060033416464726573733a206c6f772d6c6576656c2064656c65676174652063616c6c206661696c65645570677261646561626c6550726f78793a206e657720696d706c656d656e746174696f6e206973206e6f74206120636f6e7472616374416464726573733a2064656c65676174652063616c6c20746f206e6f6e2d636f6e74726163744f6e65546f6b656e466163746f72792c205365743a206d6f64756c6520697320616c72656164792061646d69747465642e4f6e65546f6b656e466163746f72792c205365743a20756e6b6e6f776e206d6f64756c654f6e65546f6b656e466163746f72792c205365743a20496e7465726e616c206572726f7220696e73657274696e67206f7261636c652e4f6e65546f6b656e466163746f72792c205365743a206f7261636c6520697320616c72656164792061737369676e656420746f20666f726569676e20746f6b656e2e494348494f776e61626c653a2063616c6c6572206973206e6f7420746865206f776e6572494348494f776e61626c653a206e6577206f776e657220697320746865207a65726f20616464726573734f6e65546f6b656e666163746f72792c205365743a20696e7465726e616c206572726f722072656d6f76696e6720666f726569676e20746f6b656e4f6e65546f6b656e466163746f72793a20666f726569676e20746f6b656e20697320616c72656164792061646d69747465644f6e65546f6b656e466163746f72792c205365743a206f7261636c65206973206e6f742061737369676e656420746f20666f726569676e20746f6b656e206f7220756e6b6e6f776e20666f726569676e20746f6b656e2e4f6e65546f6b656e466163746f72793a20496e7465726e616c206572726f72207265676973746572696e6720696e697469616c697a6564206f6e65546f6b656e2ea2646970667358221220b0cb270844f2d7c8366dd0bab932b13891d59f8e6897253c85d8c4406d35cb1964736f6c63430007060033494348494f776e61626c653a206e6577206f776e657220697320746865207a65726f2061646472657373",
  "devdoc": {
    "kind": "dev",
    "methods": {
      "admitForeignToken(address,bool,address)": {
        "params": {
          "collateral": "set true if the asset is considered a collateral token",
          "foreignToken": "ERC20 contract must not be registered",
          "oracle": "must be at least one USD oracle for every asset so supply the first one for the new asset"
        }
      },
      "admitModule(address,uint8,string,string)": {
        "params": {
          "module": "deployed module must not be registered and must emit the expected fingerprint",
          "moduleType": "the type number of the module type",
          "name": "descriptive module information has no bearing on logic",
          "url": "optionally point to human-readable operational description"
        }
      },
      "assignOracle(address,address)": {
        "details": "foreign tokens have 1-n registered oracle options which are selected by oneToken instance governance",
        "params": {
          "foreignToken": "ERC20 contract address must be registered already",
          "oracle": "USD oracle must be registered. Oracle must return quote in a registered collateral (USD) token."
        }
      },
      "deployOneTokenProxy(string,string,address,address,address,address,address,address,address)": {
        "details": "the new uninitialized instance has a finalized deployment address and is owned by the factory",
        "params": {
          "collateral": "deployed ERC20 contract must be registered with at least one associated oracle",
          "controller": "deployed controller must be registered",
          "governance": "address that will control admin functions in the oneToken instance",
          "memberToken": "deployed ERC20 contract must be registered with at least one associated oracle",
          "mintMaster": "deployed mintMaster must be registered",
          "name": "ERC20 token name",
          "oneTokenOracle": "deployed oracle must be registered and will be used to check the oneToken peg     ",
          "symbol": "ERC20 token symbol",
          "version": "address of a oneToken deployed implementation that emits the expected fingerprint"
        }
      },
      "foreignTokenAtIndex(uint256)": {
        "params": {
          "index": "row to inspect"
        }
      },
      "foreignTokenCount()": {
        "details": "includes memberTokens, otherTokens and collateral tokens but not oneTokens"
      },
      "foreignTokenInfo(address)": {
        "params": {
          "foreignToken": "token to inspect"
        }
      },
      "foreignTokenOracleAtIndex(address,uint256)": {
        "params": {
          "foreignToken": "token to inspect",
          "index": "oracle row to inspect     "
        }
      },
      "foreignTokenOracleCount(address)": {
        "params": {
          "foreignToken": "token to inspect"
        }
      },
      "isCollateral(address)": {
        "params": {
          "foreignToken": "token to inspect     "
        }
      },
      "isForeignToken(address)": {
        "params": {
          "foreignToken": "token to inspect     "
        }
      },
      "isModule(address)": {
        "params": {
          "module": "module to inspect     "
        }
      },
      "isOneToken(address)": {
        "params": {
          "oneToken": "oneToken to inspect"
        }
      },
      "isOracle(address,address)": {
        "params": {
          "foreignToken": "token to inspect",
          "oracle": "oracle to inspect"
        }
      },
      "isValidModuleType(address,uint8)": {
        "params": {
          "module": "module to inspect  ",
          "moduleType": "module type to confirm"
        }
      },
      "moduleAtIndex(uint256)": {
        "params": {
          "index": "row to inspect"
        }
      },
      "oneTokenAtIndex(uint256)": {
        "params": {
          "index": "row to inspect"
        }
      },
      "owner()": {
        "details": "Returns the address of the current owner."
      },
      "removeForeignToken(address)": {
        "details": "de-registering prevents future assignment but has no effect on existing oneToken instances that rely on the foreignToken",
        "params": {
          "foreignToken": "the ERC20 contract address to de-register"
        }
      },
      "removeModule(address)": {
        "details": "de-registering has no effect on oneTokens that use the module",
        "params": {
          "module": "deployed module must be registered"
        }
      },
      "removeOracle(address,address)": {
        "details": "unassociating the oracle with a given asset prevents assignment but does not affect oneToken instances that use it",
        "params": {
          "foreignToken": "the ERC20 contract to disassociate with the oracle",
          "oracle": "the oracle to remove from the foreignToken"
        }
      },
      "renounceOwnership()": {
        "details": "Leaves the contract without owner. It will not be possible to call `onlyOwner` functions anymore. Can only be called by the current owner. NOTE: Renouncing ownership will leave the contract without an owner, thereby removing any functionality that is only available to the owner."
      },
      "transferOwnership(address)": {
        "details": "Transfers ownership of the contract to a new account (`newOwner`). Can only be called by the current owner."
      },
      "updateForeignToken(address,bool)": {
        "details": "changes do not affect classification in existing oneToken instances",
        "params": {
          "collateral": "set to true to include in collateral",
          "foreignToken": "ERC20 address, asset to update"
        }
      },
      "updateModule(address,string,string)": {
        "params": {
          "module": "deployed module must be registered. moduleType cannot be changed",
          "name": "descriptive module information has no bearing on logic",
          "url": "optionally point to human-readable operational description"
        }
      }
    },
    "version": 1
  },
  "userdoc": {
    "events": {
      "OneTokenDeployed(address,address,string,string,address,address,address,address,address,address,address)": {
        "notice": "Events"
      }
    },
    "kind": "user",
    "methods": {
      "MODULE_TYPE()": {
        "notice": "View functions"
      },
      "admitForeignToken(address,bool,address)": {
        "notice": "factory governance can add a foreign token to the inventory"
      },
      "admitModule(address,uint8,string,string)": {
        "notice": "factory governance can register a module"
      },
      "assignOracle(address,address)": {
        "notice": "factory governance can assign an oracle to foreign token"
      },
      "deployOneTokenProxy(string,string,address,address,address,address,address,address,address)": {
        "notice": "factory governance can deploy a oneToken instance via new proxy using existing deployed implementation"
      },
      "foreignTokenAtIndex(uint256)": {
        "notice": "returns the address of the foreignToken at the index"
      },
      "foreignTokenCount()": {
        "notice": "returns count of foreignTokens registered with the factory"
      },
      "foreignTokenInfo(address)": {
        "notice": "returns foreignToken metadata for the given foreignToken"
      },
      "foreignTokenOracleAtIndex(address,uint256)": {
        "notice": "returns the foreignToken oracle address at the index"
      },
      "foreignTokenOracleCount(address)": {
        "notice": "returns the count of oracles registered for the given foreignToken"
      },
      "isCollateral(address)": {
        "notice": "returns true if the given foreignToken is marked collateral"
      },
      "isForeignToken(address)": {
        "notice": "returns true if the given foreignToken is registered in the factory"
      },
      "isModule(address)": {
        "notice": "returns true the given address is a registered module"
      },
      "isOneToken(address)": {
        "notice": "return true if given address is a deployed and initialized oneToken instance"
      },
      "isOracle(address,address)": {
        "notice": "returns true if the given oracle address is associated with the foreignToken"
      },
      "isValidModuleType(address,uint8)": {
        "notice": "returns true the address given is a registered module of the expected type"
      },
      "moduleAtIndex(uint256)": {
        "notice": "returns the address of the registered module at the index"
      },
      "moduleCount()": {
        "notice": "returns the count of the registered modules"
      },
      "oneTokenAtIndex(uint256)": {
        "notice": "returns the address of the deployed/initialized oneToken instance at the index"
      },
      "oneTokenCount()": {
        "notice": "returns the count of deployed and initialized oneToken instances"
      },
      "removeForeignToken(address)": {
        "notice": "factory governance can de-register a foreignToken"
      },
      "removeModule(address)": {
        "notice": "factory governance can de-register a module"
      },
      "removeOracle(address,address)": {
        "notice": "factory can decommission an oracle associated with a particular asset"
      },
      "updateForeignToken(address,bool)": {
        "notice": "factory governance can update asset metadata"
      },
      "updateModule(address,string,string)": {
        "notice": "factory governance can update module metadata"
      }
    },
    "version": 1
  },
  "storageLayout": {
    "storage": [
      {
        "astId": 9548,
        "contract": "contracts/OneTokenFactory.sol:OneTokenFactory",
        "label": "_owner",
        "offset": 0,
        "slot": "0",
        "type": "t_address"
      },
      {
        "astId": 9472,
        "contract": "contracts/OneTokenFactory.sol:OneTokenFactory",
        "label": "_initialized",
        "offset": 20,
        "slot": "0",
        "type": "t_bool"
      },
      {
        "astId": 9474,
        "contract": "contracts/OneTokenFactory.sol:OneTokenFactory",
        "label": "_initializing",
        "offset": 21,
        "slot": "0",
        "type": "t_bool"
      },
      {
        "astId": 31,
        "contract": "contracts/OneTokenFactory.sol:OneTokenFactory",
        "label": "oneTokenSet",
        "offset": 0,
        "slot": "1",
        "type": "t_struct(Set)6631_storage"
      },
      {
        "astId": 36,
        "contract": "contracts/OneTokenFactory.sol:OneTokenFactory",
        "label": "oneTokenProxyAdmins",
        "offset": 0,
        "slot": "3",
        "type": "t_mapping(t_address,t_address)"
      },
      {
        "astId": 45,
        "contract": "contracts/OneTokenFactory.sol:OneTokenFactory",
        "label": "moduleSet",
        "offset": 0,
        "slot": "4",
        "type": "t_struct(Set)6631_storage"
      },
      {
        "astId": 49,
        "contract": "contracts/OneTokenFactory.sol:OneTokenFactory",
        "label": "modules",
        "offset": 0,
        "slot": "6",
        "type": "t_mapping(t_address,t_struct(Module)43_storage)"
      },
      {
        "astId": 56,
        "contract": "contracts/OneTokenFactory.sol:OneTokenFactory",
        "label": "foreignTokenSet",
        "offset": 0,
        "slot": "7",
        "type": "t_struct(Set)6631_storage"
      },
      {
        "astId": 60,
        "contract": "contracts/OneTokenFactory.sol:OneTokenFactory",
        "label": "foreignTokens",
        "offset": 0,
        "slot": "9",
        "type": "t_mapping(t_address,t_struct(ForeignToken)54_storage)"
      }
    ],
    "types": {
      "t_address": {
        "encoding": "inplace",
        "label": "address",
        "numberOfBytes": "20"
      },
      "t_array(t_address)dyn_storage": {
        "base": "t_address",
        "encoding": "dynamic_array",
        "label": "address[]",
        "numberOfBytes": "32"
      },
      "t_bool": {
        "encoding": "inplace",
        "label": "bool",
        "numberOfBytes": "1"
      },
      "t_enum(ModuleType)6619": {
        "encoding": "inplace",
        "label": "enum InterfaceCommon.ModuleType",
        "numberOfBytes": "1"
      },
      "t_mapping(t_address,t_address)": {
        "encoding": "mapping",
        "key": "t_address",
        "label": "mapping(address => address)",
        "numberOfBytes": "32",
        "value": "t_address"
      },
      "t_mapping(t_address,t_struct(ForeignToken)54_storage)": {
        "encoding": "mapping",
        "key": "t_address",
        "label": "mapping(address => struct OneTokenFactory.ForeignToken)",
        "numberOfBytes": "32",
        "value": "t_struct(ForeignToken)54_storage"
      },
      "t_mapping(t_address,t_struct(Module)43_storage)": {
        "encoding": "mapping",
        "key": "t_address",
        "label": "mapping(address => struct OneTokenFactory.Module)",
        "numberOfBytes": "32",
        "value": "t_struct(Module)43_storage"
      },
      "t_mapping(t_address,t_uint256)": {
        "encoding": "mapping",
        "key": "t_address",
        "label": "mapping(address => uint256)",
        "numberOfBytes": "32",
        "value": "t_uint256"
      },
      "t_string_storage": {
        "encoding": "bytes",
        "label": "string",
        "numberOfBytes": "32"
      },
      "t_struct(ForeignToken)54_storage": {
        "encoding": "inplace",
        "label": "struct OneTokenFactory.ForeignToken",
        "members": [
          {
            "astId": 51,
            "contract": "contracts/OneTokenFactory.sol:OneTokenFactory",
            "label": "isCollateral",
            "offset": 0,
            "slot": "0",
            "type": "t_bool"
          },
          {
            "astId": 53,
            "contract": "contracts/OneTokenFactory.sol:OneTokenFactory",
            "label": "oracleSet",
            "offset": 0,
            "slot": "1",
            "type": "t_struct(Set)6631_storage"
          }
        ],
        "numberOfBytes": "96"
      },
      "t_struct(Module)43_storage": {
        "encoding": "inplace",
        "label": "struct OneTokenFactory.Module",
        "members": [
          {
            "astId": 38,
            "contract": "contracts/OneTokenFactory.sol:OneTokenFactory",
            "label": "name",
            "offset": 0,
            "slot": "0",
            "type": "t_string_storage"
          },
          {
            "astId": 40,
            "contract": "contracts/OneTokenFactory.sol:OneTokenFactory",
            "label": "url",
            "offset": 0,
            "slot": "1",
            "type": "t_string_storage"
          },
          {
            "astId": 42,
            "contract": "contracts/OneTokenFactory.sol:OneTokenFactory",
            "label": "moduleType",
            "offset": 0,
            "slot": "2",
            "type": "t_enum(ModuleType)6619"
          }
        ],
        "numberOfBytes": "96"
      },
      "t_struct(Set)6631_storage": {
        "encoding": "inplace",
        "label": "struct AddressSet.Set",
        "members": [
          {
            "astId": 6627,
            "contract": "contracts/OneTokenFactory.sol:OneTokenFactory",
            "label": "keyPointers",
            "offset": 0,
            "slot": "0",
            "type": "t_mapping(t_address,t_uint256)"
          },
          {
            "astId": 6630,
            "contract": "contracts/OneTokenFactory.sol:OneTokenFactory",
            "label": "keyList",
            "offset": 0,
            "slot": "1",
            "type": "t_array(t_address)dyn_storage"
          }
        ],
        "numberOfBytes": "64"
      },
      "t_uint256": {
        "encoding": "inplace",
        "label": "uint256",
        "numberOfBytes": "32"
      }
    }
  }
}