{
  "address": "0xcFAA88b33A4F0fc48A6Bb70cDE6852c58523a02A",
  "abi": [
    {
      "inputs": [
        {
          "internalType": "address",
          "name": "oneTokenFactory_",
          "type": "address"
        },
        {
          "internalType": "address",
          "name": "uniswapFactory_",
          "type": "address"
        },
        {
          "internalType": "address",
          "name": "indexToken_",
          "type": "address"
        },
        {
          "internalType": "uint256",
          "name": "period_1_",
          "type": "uint256"
        },
        {
          "internalType": "uint256",
          "name": "period_2_",
          "type": "uint256"
        }
      ],
      "stateMutability": "nonpayable",
      "type": "constructor"
    },
    {
      "anonymous": false,
      "inputs": [
        {
          "indexed": false,
          "internalType": "address",
          "name": "sender",
          "type": "address"
        },
        {
          "indexed": false,
          "internalType": "string",
          "name": "description",
          "type": "string"
        }
      ],
      "name": "DescriptionUpdated",
      "type": "event"
    },
    {
      "anonymous": false,
      "inputs": [
        {
          "indexed": false,
          "internalType": "address",
          "name": "sender",
          "type": "address"
        },
        {
          "indexed": false,
          "internalType": "enum InterfaceCommon.ModuleType",
          "name": "moduleType",
          "type": "uint8"
        },
        {
          "indexed": false,
          "internalType": "string",
          "name": "description",
          "type": "string"
        }
      ],
      "name": "ModuleDeployed",
      "type": "event"
    },
    {
      "anonymous": false,
      "inputs": [
        {
          "indexed": false,
          "internalType": "address",
          "name": "sender",
          "type": "address"
        },
        {
          "indexed": false,
          "internalType": "string",
          "name": "description",
          "type": "string"
        },
        {
          "indexed": false,
          "internalType": "address",
          "name": "indexToken",
          "type": "address"
        }
      ],
      "name": "OracleDeployed",
      "type": "event"
    },
    {
      "anonymous": false,
      "inputs": [
        {
          "indexed": false,
          "internalType": "address",
          "name": "sender",
          "type": "address"
        },
        {
          "indexed": false,
          "internalType": "address",
          "name": "baseToken",
          "type": "address"
        },
        {
          "indexed": false,
          "internalType": "address",
          "name": "indexToken",
          "type": "address"
        }
      ],
      "name": "OracleInitialized",
      "type": "event"
    },
    {
      "anonymous": false,
      "inputs": [
        {
          "indexed": true,
          "internalType": "address",
          "name": "previousOwner",
          "type": "address"
        },
        {
          "indexed": true,
          "internalType": "address",
          "name": "newOwner",
          "type": "address"
        }
      ],
      "name": "OwnershipTransferred",
      "type": "event"
    },
    {
      "inputs": [],
      "name": "MODULE_TYPE",
      "outputs": [
        {
          "internalType": "bytes32",
          "name": "",
          "type": "bytes32"
        }
      ],
      "stateMutability": "view",
      "type": "function"
    },
    {
      "inputs": [],
      "name": "PERIOD_1",
      "outputs": [
        {
          "internalType": "uint256",
          "name": "",
          "type": "uint256"
        }
      ],
      "stateMutability": "view",
      "type": "function"
    },
    {
      "inputs": [],
      "name": "PERIOD_2",
      "outputs": [
        {
          "internalType": "uint256",
          "name": "",
          "type": "uint256"
        }
      ],
      "stateMutability": "view",
      "type": "function"
    },
    {
      "inputs": [
        {
          "internalType": "address",
          "name": "token",
          "type": "address"
        },
        {
          "internalType": "uint256",
          "name": "amountUsd",
          "type": "uint256"
        }
      ],
      "name": "amountRequired",
      "outputs": [
        {
          "internalType": "uint256",
          "name": "amountTokens",
          "type": "uint256"
        },
        {
          "internalType": "uint256",
          "name": "volatility",
          "type": "uint256"
        }
      ],
      "stateMutability": "view",
      "type": "function"
    },
    {
      "inputs": [
        {
          "internalType": "address",
          "name": "token",
          "type": "address"
        },
        {
          "internalType": "uint256",
          "name": "amountTokens",
          "type": "uint256"
        }
      ],
      "name": "consult",
      "outputs": [
        {
          "internalType": "uint256",
          "name": "amountOut",
          "type": "uint256"
        }
      ],
      "stateMutability": "view",
      "type": "function"
    },
    {
      "inputs": [],
      "name": "indexToken",
      "outputs": [
        {
          "internalType": "address",
          "name": "",
          "type": "address"
        }
      ],
      "stateMutability": "view",
      "type": "function"
    },
    {
      "inputs": [
        {
          "internalType": "address",
          "name": "token",
          "type": "address"
        }
      ],
      "name": "init",
      "outputs": [],
      "stateMutability": "nonpayable",
      "type": "function"
    },
    {
      "inputs": [],
      "name": "moduleDescription",
      "outputs": [
        {
          "internalType": "string",
          "name": "",
          "type": "string"
        }
      ],
      "stateMutability": "view",
      "type": "function"
    },
    {
      "inputs": [],
      "name": "moduleType",
      "outputs": [
        {
          "internalType": "enum InterfaceCommon.ModuleType",
          "name": "",
          "type": "uint8"
        }
      ],
      "stateMutability": "view",
      "type": "function"
    },
    {
      "inputs": [
        {
          "internalType": "address",
          "name": "token",
          "type": "address"
        },
        {
          "internalType": "uint256",
          "name": "amountNormal",
          "type": "uint256"
        }
      ],
      "name": "normalizedToTokens",
      "outputs": [
        {
          "internalType": "uint256",
          "name": "amountTokens",
          "type": "uint256"
        }
      ],
      "stateMutability": "view",
      "type": "function"
    },
    {
      "inputs": [],
      "name": "oneTokenFactory",
      "outputs": [
        {
          "internalType": "address",
          "name": "",
          "type": "address"
        }
      ],
      "stateMutability": "view",
      "type": "function"
    },
    {
      "inputs": [],
      "name": "owner",
      "outputs": [
        {
          "internalType": "address",
          "name": "",
          "type": "address"
        }
      ],
      "stateMutability": "view",
      "type": "function"
    },
    {
      "inputs": [
        {
          "internalType": "address",
          "name": "token",
          "type": "address"
        }
      ],
      "name": "pair1Info",
      "outputs": [
        {
          "internalType": "address",
          "name": "token0",
          "type": "address"
        },
        {
          "internalType": "address",
          "name": "token1",
          "type": "address"
        },
        {
          "internalType": "uint256",
          "name": "price0CumulativeLast",
          "type": "uint256"
        },
        {
          "internalType": "uint256",
          "name": "price1CumulativeLast",
          "type": "uint256"
        },
        {
          "internalType": "uint256",
          "name": "price0Average",
          "type": "uint256"
        },
        {
          "internalType": "uint256",
          "name": "price1Average",
          "type": "uint256"
        },
        {
          "internalType": "uint32",
          "name": "blockTimestampLast",
          "type": "uint32"
        },
        {
          "internalType": "uint256",
          "name": "period",
          "type": "uint256"
        }
      ],
      "stateMutability": "view",
      "type": "function"
    },
    {
      "inputs": [
        {
          "internalType": "address",
          "name": "token",
          "type": "address"
        }
      ],
      "name": "pair2Info",
      "outputs": [
        {
          "internalType": "address",
          "name": "token0",
          "type": "address"
        },
        {
          "internalType": "address",
          "name": "token1",
          "type": "address"
        },
        {
          "internalType": "uint256",
          "name": "price0CumulativeLast",
          "type": "uint256"
        },
        {
          "internalType": "uint256",
          "name": "price1CumulativeLast",
          "type": "uint256"
        },
        {
          "internalType": "uint256",
          "name": "price0Average",
          "type": "uint256"
        },
        {
          "internalType": "uint256",
          "name": "price1Average",
          "type": "uint256"
        },
        {
          "internalType": "uint32",
          "name": "blockTimestampLast",
          "type": "uint32"
        },
        {
          "internalType": "uint256",
          "name": "period",
          "type": "uint256"
        }
      ],
      "stateMutability": "view",
      "type": "function"
    },
    {
      "inputs": [
        {
          "internalType": "address",
          "name": "token",
          "type": "address"
        },
        {
          "internalType": "uint256",
          "name": "amountTokens",
          "type": "uint256"
        }
      ],
      "name": "read",
      "outputs": [
        {
          "internalType": "uint256",
          "name": "amountUsd",
          "type": "uint256"
        },
        {
          "internalType": "uint256",
          "name": "volatility",
          "type": "uint256"
        }
      ],
      "stateMutability": "view",
      "type": "function"
    },
    {
      "inputs": [],
      "name": "renounceOwnership",
      "outputs": [],
      "stateMutability": "nonpayable",
      "type": "function"
    },
    {
      "inputs": [
        {
          "internalType": "address",
          "name": "token",
          "type": "address"
        },
        {
          "internalType": "uint256",
          "name": "amountTokens",
          "type": "uint256"
        }
      ],
      "name": "tokensToNormalized",
      "outputs": [
        {
          "internalType": "uint256",
          "name": "amountNormal",
          "type": "uint256"
        }
      ],
      "stateMutability": "view",
      "type": "function"
    },
    {
      "inputs": [
        {
          "internalType": "address",
          "name": "newOwner",
          "type": "address"
        }
      ],
      "name": "transferOwnership",
      "outputs": [],
      "stateMutability": "nonpayable",
      "type": "function"
    },
    {
      "inputs": [],
      "name": "uniswapFactory",
      "outputs": [
        {
          "internalType": "address",
          "name": "",
          "type": "address"
        }
      ],
      "stateMutability": "view",
      "type": "function"
    },
    {
      "inputs": [
        {
          "internalType": "address",
          "name": "token",
          "type": "address"
        }
      ],
      "name": "update",
      "outputs": [],
      "stateMutability": "nonpayable",
      "type": "function"
    },
    {
      "inputs": [
        {
          "internalType": "string",
          "name": "description",
          "type": "string"
        }
      ],
      "name": "updateDescription",
      "outputs": [],
      "stateMutability": "nonpayable",
      "type": "function"
    }
  ],
  "transactionHash": "0x7384007fb6e51bb8ae84e6cea5714ad75da9b34bc7757f1158a77a8f8b70c8e4",
  "args": [
    "0x6a47Dd32FC2737De5881d63FeC9f27670297fbE5",
    "0x5C69bEe701ef814a2B6a3EDD4B1652CB9cc5aA6f",
    "0xC02aaA39b223FE8D0A0e5C4F27eAD9083C756Cc2",
    3600,
    86400
  ],
  "solcInputHash": "a4b9e5bb6b6543093150ae2bf899395d",
  "bytecode": "0x6101206040523480156200001257600080fd5b506040516200352938038062003529833981810160405260a08110156200003857600080fd5b508051602080830151604080850151606086015160809096015182518084019093528483527f49434849205457415020436f6d7061726520556e6973776170204f7261636c6594830194909452939491939290859084826004836200009d336200046f565b6001600160a01b038316620000e45760405162461bcd60e51b8152600401808060200182810382526031815260200180620034cc6031913960400191505060405180910390fd5b6000815111620001265760405162461bcd60e51b815260040180806020018281038252602d81526020018062003415602d913960400191505060405180910390fd5b6001600160601b0319606084901b1660a0528160048111156200014557fe5b60808160048111156200015457fe5b60f81b90525080516200016f90600190602084019062000511565b507f2e09cb9dd254b20150f5e6b358e7aabf9802b241ddf84609686d8e4b0d2b96b833838360405180846001600160a01b03168152602001836004811115620001b457fe5b815260200180602001828103825283818151815260200191508051906020019080838360005b83811015620001f4578181015183820152602001620001da565b50505050905090810190601f168015620002225780820380516001836020036101000a031916815260200191505b5094505050505060405180910390a15050506001600160a01b0381166200027b5760405162461bcd60e51b8152600401808060200182810382526028815260200180620034a46028913960400191505060405180910390fd5b80600260006101000a8154816001600160a01b0302191690836001600160a01b031602179055507f5ca37c59f6b6cafb39fb44368a097af590e5e220c2a015addc4b11977c34766b33838360405180846001600160a01b0316815260200180602001836001600160a01b03168152602001828103825284818151815260200191508051906020019080838360005b838110156200032357818101518382015260200162000309565b50505050905090810190601f168015620003515780820380516001836020036101000a031916815260200191505b5094505050505060405180910390a15050506001600160a01b038416620003aa5760405162461bcd60e51b8152600401808060200182810382526038815260200180620034426038913960400191505060405180910390fd5b60008211620003eb5760405162461bcd60e51b815260040180806020018281038252602c815260200180620034fd602c913960400191505060405180910390fd5b600081116200042c5760405162461bcd60e51b815260040180806020018281038252602c815260200180620034fd602c913960400191505060405180910390fd5b60609390931b6001600160601b0319166101005260c05260e091909152600280546001600160a01b0319166001600160a01b0390921691909117905550620005bd565b6001600160a01b038116620004b65760405162461bcd60e51b815260040180806020018281038252602a8152602001806200347a602a913960400191505060405180910390fd5b600080546040516001600160a01b03808516939216917f8be0079c531659141344cd1fd0a4f28419497f9722a3daafe3b4186f6b6457e091a3600080546001600160a01b0319166001600160a01b0392909216919091179055565b828054600181600116156101000203166002900490600052602060002090601f01602090048101928262000549576000855562000594565b82601f106200056457805160ff191683800117855562000594565b8280016001018555821562000594579182015b828111156200059457825182559160200191906001019062000577565b50620005a2929150620005a6565b5090565b5b80821115620005a25760008155600101620005a7565b60805160f81c60a05160601c60c05160e0516101005160601c612dd3620006426000398061067b5280610c645280610edd52806110ff528061123b5280611405528061174a525080610ddb5280610fe852806115ec525080610cf95280611200528061172652508061054d52806105ce528061177d52508061165a5250612dd36000f3fe608060405234801561001057600080fd5b50600436106101375760003560e01c80636465e69f116100b8578063a2729c231161007c578063a2729c2314610379578063b5966db814610381578063b7b8bae4146103fe578063e735b48a1461042a578063e7d015f2146104d0578063f2fde38b146104d857610137565b80636465e69f14610314578063715018a61461033d578063757941bb146103455780638bdb2afa1461034d5780638da5cb5b1461037157610137565b8063374a96a0116100ff578063374a96a0146102865780633ddac953146102ac5780634d161865146102d8578063517f6870146103045780635775029f1461030c57610137565b8063014c2add1461013c57806319ab453c146101815780631c1b8772146101a957806327abe584146101cf57806327d3cb4114610248575b600080fd5b6101686004803603604081101561015257600080fd5b506001600160a01b0381351690602001356104fe565b6040805192835260208301919091528051918290030190f35b6101a76004803603602081101561019757600080fd5b50356001600160a01b031661052d565b005b6101a7600480360360208110156101bf57600080fd5b50356001600160a01b0316610c58565b6101f5600480360360208110156101e557600080fd5b50356001600160a01b0316610eca565b604080516001600160a01b03998a168152979098166020880152868801959095526060860193909352608085019190915260a084015263ffffffff1660c083015260e08201529051908190036101000190f35b6102746004803603604081101561025e57600080fd5b506001600160a01b038135169060200135611015565b60408051918252519081900360200190f35b6101f56004803603602081101561029c57600080fd5b50356001600160a01b03166110ec565b610274600480360360408110156102c257600080fd5b506001600160a01b03813516906020013561122d565b610168600480360360408110156102ee57600080fd5b506001600160a01b0381351690602001356113f5565b6102746115ea565b61027461160e565b61031c611658565b6040518082600481111561032c57fe5b815260200191505060405180910390f35b6101a761167c565b610274611724565b610355611748565b604080516001600160a01b039092168252519081900360200190f35b61035561176c565b61035561177b565b61038961179f565b6040805160208082528351818301528351919283929083019185019080838360005b838110156103c35781810151838201526020016103ab565b50505050905090810190601f1680156103f05780820380516001836020036101000a031916815260200191505b509250505060405180910390f35b6102746004803603604081101561041457600080fd5b506001600160a01b03813516906020013561182c565b6101a76004803603602081101561044057600080fd5b81019060208101813564010000000081111561045b57600080fd5b82018360208201111561046d57600080fd5b8035906020019184600183028401116401000000008311171561048f57600080fd5b91908080601f01602080910402602001604051908101604052809392919081815260200183838082843760009201919091525092955061190a945050505050565b610355611a69565b6101a7600480360360208110156104ee57600080fd5b50356001600160a01b0316611a78565b6002546000908190610522906001600160a01b031661051d868661122d565b611015565b946001945092505050565b604080516342f6e38960e01b815233600482015290516001600160a01b037f000000000000000000000000000000000000000000000000000000000000000016916342f6e389916024808301926020929190829003018186803b15801561059357600080fd5b505afa1580156105a7573d6000803e3d6000fd5b505050506040513d60208110156105bd57600080fd5b505161062a57336001600160a01b037f0000000000000000000000000000000000000000000000000000000000000000161461062a5760405162461bcd60e51b8152600401808060200182810382526052815260200180612ce66052913960600191505060405180910390fd5b6001600160a01b03811661066f5760405162461bcd60e51b815260040180806020018281038252602e815260200180612bbd602e913960400191505060405180910390fd5b6002546000906106ab907f00000000000000000000000000000000000000000000000000000000000000009084906001600160a01b0316611ae2565b90506001600160a01b0381166106f25760405162461bcd60e51b8152600401808060200182810382526026815260200180612b976026913960400191505060405180910390fd5b6001600160a01b038082166000908152600360209081526040808320600490925290912081549192909116158015610732575080546001600160a01b0316155b15610c5257826001600160a01b0316630dfe16816040518163ffffffff1660e01b815260040160206040518083038186803b15801561077057600080fd5b505afa158015610784573d6000803e3d6000fd5b505050506040513d602081101561079a57600080fd5b505182546001600160a01b0319166001600160a01b0391821617835560408051630dfe168160e01b8152905191851691630dfe168191600480820192602092909190829003018186803b1580156107f057600080fd5b505afa158015610804573d6000803e3d6000fd5b505050506040513d602081101561081a57600080fd5b505181546001600160a01b0319166001600160a01b039182161782556040805163d21220a760e01b815290519185169163d21220a791600480820192602092909190829003018186803b15801561087057600080fd5b505afa158015610884573d6000803e3d6000fd5b505050506040513d602081101561089a57600080fd5b50516001830180546001600160a01b0319166001600160a01b039283161790556040805163d21220a760e01b815290519185169163d21220a791600480820192602092909190829003018186803b1580156108f457600080fd5b505afa158015610908573d6000803e3d6000fd5b505050506040513d602081101561091e57600080fd5b50516001820180546001600160a01b0319166001600160a01b0392831617905560408051635909c0d560e01b8152905191851691635909c0d591600480820192602092909190829003018186803b15801561097857600080fd5b505afa15801561098c573d6000803e3d6000fd5b505050506040513d60208110156109a257600080fd5b5051600283015560408051635909c0d560e01b815290516001600160a01b03851691635909c0d5916004808301926020929190829003018186803b1580156109e957600080fd5b505afa1580156109fd573d6000803e3d6000fd5b505050506040513d6020811015610a1357600080fd5b5051600282015560408051635a3d549360e01b815290516001600160a01b03851691635a3d5493916004808301926020929190829003018186803b158015610a5a57600080fd5b505afa158015610a6e573d6000803e3d6000fd5b505050506040513d6020811015610a8457600080fd5b5051600383015560408051635a3d549360e01b815290516001600160a01b03851691635a3d5493916004808301926020929190829003018186803b158015610acb57600080fd5b505afa158015610adf573d6000803e3d6000fd5b505050506040513d6020811015610af557600080fd5b5051600382015560408051630240bc6b60e21b8152905160009182916001600160a01b03871691630902f1ac916004808301926060929190829003018186803b158015610b4157600080fd5b505afa158015610b55573d6000803e3d6000fd5b505050506040513d6060811015610b6b57600080fd5b50805160208201516040909201516004878101805463ffffffff1990811663ffffffff94851617918290559188018054919093169116179055925090506001600160701b03821615801590610bc857506001600160701b03811615155b610c035760405162461bcd60e51b8152600401808060200182810382526025815260200180612b456025913960400191505060405180910390fd5b600254604080513381526001600160a01b03808a16602083015290921682820152517f615e5388e077a0f73212d5edcf91ad20a6738753574b7a3749872baa98995be59181900360600190a150505b50505050565b600254600090610c94907f00000000000000000000000000000000000000000000000000000000000000009084906001600160a01b0316611ae2565b6001600160a01b03808216600090815260036020908152604080832060049092529091208154939450909290911615610c52576000806000610cd586611ba3565b60048089015490880154939650919450925063ffffffff90811683039181168303907f000000000000000000000000000000000000000000000000000000000000000090831610610dd95760405180602001604052808363ffffffff168960020154880381610d4057fe5b046001600160e01b0390811690915290516005890180546001600160e01b0319169190921617905560408051602081019091526003880154819063ffffffff851690870381610d8b57fe5b046001600160e01b0390811690915290516006890180546001600160e01b03191691909216179055600287018590556003870184905560048701805463ffffffff191663ffffffff85161790555b7f00000000000000000000000000000000000000000000000000000000000000008163ffffffff1610610ebf5760405180602001604052808263ffffffff168860020154880381610e2657fe5b046001600160e01b0390811690915290516005880180546001600160e01b0319169190921617905560408051602081019091526003870154819063ffffffff841690870381610e7157fe5b046001600160e01b0390811690915290516006880180546001600160e01b03191691909216179055600286018590556003860184905560048601805463ffffffff191663ffffffff85161790555b505050505050505050565b6000806000806000806000806000610f187f00000000000000000000000000000000000000000000000000000000000000008b600260009054906101000a90046001600160a01b0316611ae2565b6001600160a01b038082166000908152600460209081526040918290208054600182015460028301546003840154865195860190965260058401546001600160e01b0316855296975091959085169491909116929091610f8990610f8490670de0b6b3a7640000611d92565b611e26565b604080516020810190915260068701546001600160e01b03168152610fba90610f8490670de0b6b3a7640000611d92565b600490960154949e50929c50909a5098506001600160901b03908116975091909116945063ffffffff1692507f0000000000000000000000000000000000000000000000000000000000000000915050919395975091939597565b6000808390506000816001600160a01b031663313ce5676040518163ffffffff1660e01b815260040160206040518083038186803b15801561105657600080fd5b505afa15801561106a573d6000803e3d6000fd5b505050506040513d602081101561108057600080fd5b505160ff16905060128111156110c75760405162461bcd60e51b815260040180806020018281038252603b815260200180612c81603b913960400191505060405180910390fd5b60128114156110da5783925050506110e6565b601203600a0a83029150505b92915050565b600080600080600080600080600061113a7f00000000000000000000000000000000000000000000000000000000000000008b600260009054906101000a90046001600160a01b0316611ae2565b6001600160a01b0380821660009081526003602081815260409283902080546001820154600283015494830154865194850190965260058301546001600160e01b031684529697509095908516941692906111a190610f8490670de0b6b3a7640000611d92565b604080516020810190915260068701546001600160e01b031681526111d290610f8490670de0b6b3a7640000611d92565b600490960154949e50929c50909a5098506001600160901b03908116975091909116945063ffffffff1692507f0000000000000000000000000000000000000000000000000000000000000000915050919395975091939597565b600254600090819061126b907f00000000000000000000000000000000000000000000000000000000000000009086906001600160a01b0316611ae2565b6001600160a01b0380821660009081526003602090815260408083206004909252909120815493945090929091878116911614806112b8575060018201546001600160a01b038781169116145b6112f35760405162461bcd60e51b8152600401808060200182810382526027815260200180612c366027913960400191505060405180910390fd5b6000826002015411801561130b575060008160020154115b6113465760405162461bcd60e51b815260040180806020018281038252603c815260200180612d62603c913960400191505060405180910390fd5b815460009061139390610f849088906001600160a01b038b81169116146113705785600601611375565b856005015b604080516020810190915290546001600160e01b0316815290611d92565b82546001600160901b039190911691506000906113cb90610f849089906001600160a01b038c81169116146113705785600601611375565b6001600160901b03169050808211156113e6578095506113ea565b8195505b505050505092915050565b60025460009081908190611435907f00000000000000000000000000000000000000000000000000000000000000009087906001600160a01b0316611ae2565b6001600160a01b038082166000908152600360209081526040808320600490925290912081549394509092909188811691161480611482575060018201546001600160a01b038881169116145b6114bd5760405162461bcd60e51b8152600401808060200182810382526027815260200180612c366027913960400191505060405180910390fd5b600082600201541180156114d5575060008160020154115b6115105760405162461bcd60e51b815260040180806020018281038252603c815260200180612d62603c913960400191505060405180910390fd5b600254611526906001600160a01b03168761182c565b825490965060009061157f90610f84908990611579906001600160a01b038d8116911614611557578660060161155c565b866005015b604080516020810190915290546001600160e01b03168152611e2d565b90611d92565b82546001600160901b039190911691506000906115bb90610f84908a90611579906001600160a01b038e8116911614611557578660060161155c565b6001600160901b03169050808211156115d6578196506115da565b8096505b6001955050505050509250929050565b7f000000000000000000000000000000000000000000000000000000000000000081565b60405160200180807f49434849205631204f7261636c6520496d706c656d656e746174696f6e000000815250601d0190506040516020818303038152906040528051906020012081565b7f000000000000000000000000000000000000000000000000000000000000000081565b611684611f17565b6001600160a01b031661169561176c565b6001600160a01b0316146116da5760405162461bcd60e51b8152600401808060200182810382526024815260200180612c5d6024913960400191505060405180910390fd5b600080546040516001600160a01b03909116907f8be0079c531659141344cd1fd0a4f28419497f9722a3daafe3b4186f6b6457e0908390a3600080546001600160a01b0319169055565b7f000000000000000000000000000000000000000000000000000000000000000081565b7f000000000000000000000000000000000000000000000000000000000000000081565b6000546001600160a01b031690565b7f000000000000000000000000000000000000000000000000000000000000000081565b60018054604080516020600284861615610100026000190190941693909304601f810184900484028201840190925281815292918301828280156118245780601f106117f957610100808354040283529160200191611824565b820191906000526020600020905b81548152906001019060200180831161180757829003601f168201915b505050505081565b6000808390506000816001600160a01b031663313ce5676040518163ffffffff1660e01b815260040160206040518083038186803b15801561186d57600080fd5b505afa158015611881573d6000803e3d6000fd5b505050506040513d602081101561189757600080fd5b505160ff16905060128111156118de5760405162461bcd60e51b815260040180806020018281038252603b815260200180612c81603b913960400191505060405180910390fd5b60128114156118f15783925050506110e6565b80601203600a0a848161190057fe5b0495945050505050565b611912611f17565b6001600160a01b031661192361176c565b6001600160a01b0316146119685760405162461bcd60e51b8152600401808060200182810382526024815260200180612c5d6024913960400191505060405180910390fd5b60008151116119a85760405162461bcd60e51b815260040180806020018281038252602d815260200180612b6a602d913960400191505060405180910390fd5b80516119bb906001906020840190612404565b507f37cc8c6ced0cbc4d440fcfa810a2f09f40b8f0127c3656103edf26b3d93e0ec1338260405180836001600160a01b0316815260200180602001828103825283818151815260200191508051906020019080838360005b83811015611a2b578181015183820152602001611a13565b50505050905090810190601f168015611a585780820380516001836020036101000a031916815260200191505b50935050505060405180910390a150565b6002546001600160a01b031681565b611a80611f17565b6001600160a01b0316611a9161176c565b6001600160a01b031614611ad65760405162461bcd60e51b8152600401808060200182810382526024815260200180612c5d6024913960400191505060405180910390fd5b611adf81611f1b565b50565b6000806000611af18585611fbb565b9150915085828260405160200180836001600160a01b031660601b8152601401826001600160a01b031660601b81526014019250505060405160208183030381529060405280519060200120611b45612099565b60405160200180806001600160f81b0319815250600101846001600160a01b031660601b815260140183815260200182815260200193505050506040516020818303038152906040528051906020012060001c925050509392505050565b6000806000611bb0612136565b9050836001600160a01b0316635909c0d56040518163ffffffff1660e01b815260040160206040518083038186803b158015611beb57600080fd5b505afa158015611bff573d6000803e3d6000fd5b505050506040513d6020811015611c1557600080fd5b505160408051635a3d549360e01b815290519194506001600160a01b03861691635a3d549391600480820192602092909190829003018186803b158015611c5b57600080fd5b505afa158015611c6f573d6000803e3d6000fd5b505050506040513d6020811015611c8557600080fd5b505160408051630240bc6b60e21b81529051919350600091829182916001600160a01b03891691630902f1ac916004808301926060929190829003018186803b158015611cd157600080fd5b505afa158015611ce5573d6000803e3d6000fd5b505050506040513d6060811015611cfb57600080fd5b5080516020820151604090920151909450909250905063ffffffff80821690851614611d885780840363ffffffff8116611d416001600160701b03808616908716612140565b600001516001600160e01b031602870196508063ffffffff16611d76856001600160701b0316856001600160701b0316612140565b516001600160e01b0316029590950194505b5050509193909250565b611d9a612490565b6000821580611dc057505082516001600160e01b031682810290838281611dbd57fe5b04145b611e11576040805162461bcd60e51b815260206004820152601960248201527f4669786564506f696e743a3a6d756c3a206f766572666c6f7700000000000000604482015290519081900360640190fd5b60408051602081019091529081529392505050565b5160701c90565b611e356124a3565b81516001600160e01b0316611e7b5760405162461bcd60e51b815260040180806020018281038252602a815260200180612d38602a913960400191505060405180910390fd5b81600001516001600160e01b031660011415611ede576040805162461bcd60e51b815260206004820181905260248201527f4669786564506f696e743a3a7265636970726f63616c3a206f766572666c6f77604482015290519081900360640190fd5b604051806020016040528083600001516001600160e01b0316600160e01b81611f0357fe5b046001600160e01b03168152509050919050565b3390565b6001600160a01b038116611f605760405162461bcd60e51b815260040180806020018281038252602a815260200180612cbc602a913960400191505060405180910390fd5b600080546040516001600160a01b03808516939216917f8be0079c531659141344cd1fd0a4f28419497f9722a3daafe3b4186f6b6457e091a3600080546001600160a01b0319166001600160a01b0392909216919091179055565b600080826001600160a01b0316846001600160a01b0316141561200f5760405162461bcd60e51b8152600401808060200182810382526025815260200180612beb6025913960400191505060405180910390fd5b826001600160a01b0316846001600160a01b03161061202f578284612032565b83835b90925090506001600160a01b038216612092576040805162461bcd60e51b815260206004820152601e60248201527f556e697377617056324c6962726172793a205a45524f5f414444524553530000604482015290519081900360640190fd5b9250929050565b600080604051806020016120ac906124b5565b6020820181038252601f19601f820116604052509050806040516020018082805190602001908083835b602083106120f55780518252601f1990920191602091820191016120d6565b6001836020036101000a0380198251168184511680821785525050505050509050019150506040516020818303038152906040528051906020012091505090565b63ffffffff421690565b6121486124a3565b600082116121875760405162461bcd60e51b8152600401808060200182810382526026815260200180612c106026913960400191505060405180910390fd5b826121a157506040805160208101909152600081526110e6565b6001600160901b03831161223d57600082607085901b816121be57fe5b0490506001600160e01b0381111561221d576040805162461bcd60e51b815260206004820152601e60248201527f4669786564506f696e743a3a6672616374696f6e3a206f766572666c6f770000604482015290519081900360640190fd5b6040518060200160405280826001600160e01b03168152509150506110e6565b600061224e84600160701b856122ac565b90506001600160e01b0381111561221d576040805162461bcd60e51b815260206004820152601e60248201527f4669786564506f696e743a3a6672616374696f6e3a206f766572666c6f770000604482015290519081900360640190fd5b60008060006122bb8686612367565b91509150600084806122c957fe5b8688099050828111156122dd576001820391505b9182900391816122fb578483816122f057fe5b049350505050612360565b84821061234f576040805162461bcd60e51b815260206004820152601a60248201527f46756c6c4d6174683a2046554c4c4449565f4f564552464c4f57000000000000604482015290519081900360640190fd5b61235a838387612394565b93505050505b9392505050565b600080806000198486099050838502925082810391508281101561238c576001820391505b509250929050565b600081810382168083816123a457fe5b0492508085816123b057fe5b0494508081600003816123bf57fe5b60028581038087028203028087028203028087028203028087028203028087028203028087028203029586029003909402930460010193909302939093010292915050565b828054600181600116156101000203166002900490600052602060002090601f01602090048101928261243a5760008555612480565b82601f1061245357805160ff1916838001178555612480565b82800160010185558215612480579182015b82811115612480578251825591602001919060010190612465565b5061248c9291506124c2565b5090565b6040518060200160405280600081525090565b60408051602081019091526000815290565b61066d806124d883390190565b5b8082111561248c57600081556001016124c356fe608060405234801561001057600080fd5b50600080546001600160a01b0319163317905561063b806100326000396000f3fe608060405234801561001057600080fd5b50600436106100ea5760003560e01c80636f642e7f1161008c578063c45a015511610066578063c45a0155146101c5578063d21220a7146101cd578063e78f81ea146101d5578063fff6cae9146101dd576100ea565b80636f642e7f146101ad5780637464fc3d146101b5578063ba9a7a56146101bd576100ea565b8063496b35b9116100c8578063496b35b91461017b5780634ef4ebaf146101835780635909c0d51461018b5780635a3d5493146101a5576100ea565b80630902f1ac146100ef5780630dfe168114610127578063485cc9551461014b575b600080fd5b6100f76101e5565b604080516001600160701b03948516815292909316602083015263ffffffff168183015290519081900360600190f35b61012f61020f565b604080516001600160a01b039092168252519081900360200190f35b6101796004803603604081101561016157600080fd5b506001600160a01b038135811691602001351661021e565b005b61012f6102a2565b61012f6102b1565b6101936102c0565b60408051918252519081900360200190f35b6101936102c6565b6101936102cc565b6101936102d2565b6101936102d8565b61012f6102de565b61012f6102ed565b6101936102fc565b610179610302565b6003546001600160701b0380821692600160701b830490911691600160e01b900463ffffffff1690565b6001546001600160a01b031690565b6000546001600160a01b03163314610274576040805162461bcd60e51b81526020600482015260146024820152732ab734b9bbb0b82b191d102327a92124a22222a760611b604482015290519081900360640190fd5b600180546001600160a01b039384166001600160a01b03199182161790915560028054929093169116179055565b6002546001600160a01b031681565b6001546001600160a01b031681565b60045490565b60055490565b60055481565b60065481565b6103e881565b6000546001600160a01b031681565b6002546001600160a01b031690565b60045481565b600154604080516370a0823160e01b8152306004820152905161040d926001600160a01b0316916370a08231916024808301926020929190829003018186803b15801561034e57600080fd5b505afa158015610362573d6000803e3d6000fd5b505050506040513d602081101561037857600080fd5b5051600254604080516370a0823160e01b815230600482015290516001600160a01b03909216916370a0823191602480820192602092909190829003018186803b1580156103c557600080fd5b505afa1580156103d9573d6000803e3d6000fd5b505050506040513d60208110156103ef57600080fd5b50516003546001600160701b0380821691600160701b90041661040f565b565b6001600160701b03841180159061042d57506001600160701b038311155b610474576040805162461bcd60e51b8152602060048201526013602482015272556e697377617056323a204f564552464c4f5760681b604482015290519081900360640190fd5b60035463ffffffff42811691600160e01b900481168203908116158015906104a457506001600160701b03841615155b80156104b857506001600160701b03831615155b15610523578063ffffffff166104e0856104d1866105ce565b6001600160e01b0316906105e0565b600480546001600160e01b03929092169290920201905563ffffffff811661050b846104d1876105ce565b600580546001600160e01b0392909216929092020190555b600380546dffffffffffffffffffffffffffff19166001600160701b03888116919091176dffffffffffffffffffffffffffff60701b1916600160701b8883168102919091176001600160e01b0316600160e01b63ffffffff871602179283905560408051848416815291909304909116602082015281517f1c411e9a96e071241c2f21f7726b17ae89e3cab4c78be50e062b03a9fffbbad1929181900390910190a1505050505050565b6001600160701b0316600160701b0290565b60006001600160701b0382166001600160e01b038416816105fd57fe5b04939250505056fea2646970667358221220654806fce81e59e3f0a4c51ae1d84375012ac322213a2c3e9b81b72bddfdf39564736f6c63430007060033556e69737761704f7261636c6554574150436f6d706172653a204e4f5f5245534552564553494348494d6f64756c65436f6d6d6f6e3a206465736372697074696f6e2063616e6e6f7420626520656d707479556e69737761704f7261636c6554574150436f6d706172653a20756e6b6e6f776e2070616972556e69737761704f7261636c6554574150436f6d706172653a20746f6b656e2063616e6e6f74206265206e756c6c556e697377617056324c6962726172793a204944454e544943414c5f4144445245535345534669786564506f696e743a3a6672616374696f6e3a206469766973696f6e206279207a65726f556e69737761704f7261636c6554574150436f6d706172653a20494e56414c49445f544f4b454e494348494f776e61626c653a2063616c6c6572206973206e6f7420746865206f776e65724f7261636c65436f6d6d6f6e3a20756e737570706f7274656420746f6b656e20707265636973696f6e202867726561746572207468616e20313829494348494f776e61626c653a206e6577206f776e657220697320746865207a65726f2061646472657373494348494d6f64756c65436f6d6d6f6e3a206d73672e73656e646572206973206e6f74206d6f64756c65206f776e65722c20746f6b656e20666163746f7279206f72207265676973746564206d6f64756c654669786564506f696e743a3a7265636970726f63616c3a207265636970726f63616c206f66207a65726f556e69737761704f7261636c6554574150436f6d706172653a20476174686572696e6720686973746f72792e2054727920616761696e206c61746572a2646970667358221220ec4bb9be209b605ac602eb0b2085fea63a4f9a74947e6bf469b2fcba61fc474864736f6c63430007060033494348494d6f64756c65436f6d6d6f6e3a206465736372697074696f6e2063616e6e6f7420626520656d707479556e69737761704f7261636c6554574150436f6d706172653a20756e6973776170466163746f72792063616e6e6f7420626520656d707479494348494f776e61626c653a206e6577206f776e657220697320746865207a65726f20616464726573734f7261636c65436f6d6d6f6e3a20696e646578546f6b656e2063616e6e6f7420626520656d707479494348494d6f64756c65436f6d6d6f6e3a206f6e65546f6b656e466163746f72792063616e6e6f7420626520656d707479556e69737761704f7261636c6554574150436f6d706172653a20706572696f64206d757374206265203e2030",
  "devdoc": {
    "kind": "dev",
    "methods": {
      "amountRequired(address,uint256)": {
        "details": "index token is established at deployment time",
        "params": {
          "amountTokens": "quantity, token precision",
          "amountUsd": "US dollar equivalent, precision 18",
          "token": "ERC20 token",
          "volatility": "metric for future use-cases"
        }
      },
      "constructor": {
        "details": "deploy multiple instances to support different configurations",
        "params": {
          "indexToken_": "the index token to use for valuations. If not a usd collateral token then the Oracle should not be registered in the factory but it can be used by CompositeOracles.",
          "oneTokenFactory_": "oneToken factory to bind to",
          "period_1_": "the averaging period to use for price smoothing",
          "period_2_": "the averaging period to use for price smoothing",
          "uniswapFactory_": "external factory contract needed by the uniswap library"
        }
      },
      "consult(address,uint256)": {
        "details": "always returns 0 before update(token) has been called successfully for the first time.",
        "params": {
          "amountOut": "anount in tokens, reciprocal token",
          "amountTokens": "amount in token native precision",
          "token": "baseToken to update"
        }
      },
      "init(address)": {
        "details": "initializes the first time, then does no work. Initialized from the Factory when assigned to an asset.",
        "params": {
          "token": "the base token. index is established at deployment time and cannot be changed"
        }
      },
      "normalizedToTokens(address,uint256)": {
        "params": {
          "amountNormal": "quantity in precision-18",
          "amountTokens": "quantity scaled to token decimals()",
          "token": "ERC20 token contract"
        }
      },
      "owner()": {
        "details": "Returns the address of the current owner."
      },
      "pair1Info(address)": {
        "params": {
          "token": "baseToken to inspect"
        }
      },
      "pair2Info(address)": {
        "params": {
          "token": "baseToken to inspect"
        }
      },
      "read(address,uint256)": {
        "details": "index token is established at deployment time",
        "params": {
          "amountTokens": "quantity, token precision",
          "amountUsd": "US dollar equivalent, precision 18",
          "token": "ERC20 token",
          "volatility": "metric for future use-cases "
        }
      },
      "renounceOwnership()": {
        "details": "Leaves the contract without owner. It will not be possible to call `onlyOwner` functions anymore. Can only be called by the current owner. NOTE: Renouncing ownership will leave the contract without an owner, thereby removing any functionality that is only available to the owner."
      },
      "tokensToNormalized(address,uint256)": {
        "params": {
          "amountNormal": "quantity in precision-18",
          "amountTokens": "quantity scaled to token decimals",
          "token": "ERC20 token contract"
        }
      },
      "transferOwnership(address)": {
        "details": "Transfers ownership of the contract to a new account (`newOwner`). Can only be called by the current owner."
      },
      "update(address)": {
        "details": "it is permissible for anyone to supply gas and update the oracle's price history.",
        "params": {
          "token": "baseToken to update"
        }
      },
      "updateDescription(string)": {
        "params": {
          "description": "new module desciption"
        }
      }
    },
    "version": 1
  },
  "userdoc": {
    "kind": "user",
    "methods": {
      "amountRequired(address,uint256)": {
        "notice": "returns equivalent baseTokens for amountUsd, indexToken"
      },
      "constructor": {
        "notice": "the indexToken (index token), averaging period and uniswapfactory cannot be changed post-deployment"
      },
      "consult(address,uint256)": {
        "notice": "returns equivalent indexTokens for amountIn, token"
      },
      "init(address)": {
        "notice": "configures parameters for a pair, token versus indexToken"
      },
      "normalizedToTokens(address,uint256)": {
        "notice": "converts normalized precision 18 amounts to token native precision amounts, truncates low-order values"
      },
      "pair1Info(address)": {
        "notice": "discoverable internal state. Returns pair info for period 1"
      },
      "pair2Info(address)": {
        "notice": "discoverable internal state. Returns pair info for period 2"
      },
      "read(address,uint256)": {
        "notice": "returns equivalent indexTokens for amountIn, token"
      },
      "tokensToNormalized(address,uint256)": {
        "notice": "converts token native precision amounts to normalized precision 18 amounts"
      },
      "update(address)": {
        "notice": "updates price observation history, if necessary"
      },
      "updateDescription(string)": {
        "notice": "set a module description"
      }
    },
    "notice": "A oracle that uses 2 TWAP periods and uses the lower of the 2 values.   Note that the price average is only guaranteed to be over at least 1 period, but may be over a longer period, Periodicity is fixed at deployment time. Index (usually USD) token is fixed at deployment time. A single deployment can be shared by multiple oneToken clients and can observe multiple base tokens. Non-USD index tokens are possible. Such deployments can used as interim oracles in Composite Oracles. They should NOT be registered because they are not, by definition, valid sources of USD quotes.   Example calculation MPH/ETH -> ETH/USD 1hr and MPH/ETH -> ETH/USD 24hr take the lower value and return.  This is a safety net to help  prevent price manipulation.  This oracle combines 2 TWAPs to save on gas for keeping seperate oracles for these 2 PERIODS.",
    "version": 1
  },
  "storageLayout": {
    "storage": [
      {
        "astId": 10841,
        "contract": "contracts/oracle/uniswap/UniswapOracleTWAPCompare.sol:UniswapOracleTWAPCompare",
        "label": "_owner",
        "offset": 0,
        "slot": "0",
        "type": "t_address"
      },
      {
        "astId": 10765,
        "contract": "contracts/oracle/uniswap/UniswapOracleTWAPCompare.sol:UniswapOracleTWAPCompare",
        "label": "_initialized",
        "offset": 20,
        "slot": "0",
        "type": "t_bool"
      },
      {
        "astId": 10767,
        "contract": "contracts/oracle/uniswap/UniswapOracleTWAPCompare.sol:UniswapOracleTWAPCompare",
        "label": "_initializing",
        "offset": 21,
        "slot": "0",
        "type": "t_bool"
      },
      {
        "astId": 5634,
        "contract": "contracts/oracle/uniswap/UniswapOracleTWAPCompare.sol:UniswapOracleTWAPCompare",
        "label": "moduleDescription",
        "offset": 0,
        "slot": "1",
        "type": "t_string_storage"
      },
      {
        "astId": 7837,
        "contract": "contracts/oracle/uniswap/UniswapOracleTWAPCompare.sol:UniswapOracleTWAPCompare",
        "label": "indexToken",
        "offset": 0,
        "slot": "2",
        "type": "t_address"
      },
      {
        "astId": 9354,
        "contract": "contracts/oracle/uniswap/UniswapOracleTWAPCompare.sol:UniswapOracleTWAPCompare",
        "label": "period_1_pairs",
        "offset": 0,
        "slot": "3",
        "type": "t_mapping(t_address,t_struct(Pair)9350_storage)"
      },
      {
        "astId": 9358,
        "contract": "contracts/oracle/uniswap/UniswapOracleTWAPCompare.sol:UniswapOracleTWAPCompare",
        "label": "period_2_pairs",
        "offset": 0,
        "slot": "4",
        "type": "t_mapping(t_address,t_struct(Pair)9350_storage)"
      }
    ],
    "types": {
      "t_address": {
        "encoding": "inplace",
        "label": "address",
        "numberOfBytes": "20"
      },
      "t_bool": {
        "encoding": "inplace",
        "label": "bool",
        "numberOfBytes": "1"
      },
      "t_mapping(t_address,t_struct(Pair)9350_storage)": {
        "encoding": "mapping",
        "key": "t_address",
        "label": "mapping(address => struct UniswapOracleTWAPCompare.Pair)",
        "numberOfBytes": "32",
        "value": "t_struct(Pair)9350_storage"
      },
      "t_string_storage": {
        "encoding": "bytes",
        "label": "string",
        "numberOfBytes": "32"
      },
      "t_struct(Pair)9350_storage": {
        "encoding": "inplace",
        "label": "struct UniswapOracleTWAPCompare.Pair",
        "members": [
          {
            "astId": 9337,
            "contract": "contracts/oracle/uniswap/UniswapOracleTWAPCompare.sol:UniswapOracleTWAPCompare",
            "label": "token0",
            "offset": 0,
            "slot": "0",
            "type": "t_address"
          },
          {
            "astId": 9339,
            "contract": "contracts/oracle/uniswap/UniswapOracleTWAPCompare.sol:UniswapOracleTWAPCompare",
            "label": "token1",
            "offset": 0,
            "slot": "1",
            "type": "t_address"
          },
          {
            "astId": 9341,
            "contract": "contracts/oracle/uniswap/UniswapOracleTWAPCompare.sol:UniswapOracleTWAPCompare",
            "label": "price0CumulativeLast",
            "offset": 0,
            "slot": "2",
            "type": "t_uint256"
          },
          {
            "astId": 9343,
            "contract": "contracts/oracle/uniswap/UniswapOracleTWAPCompare.sol:UniswapOracleTWAPCompare",
            "label": "price1CumulativeLast",
            "offset": 0,
            "slot": "3",
            "type": "t_uint256"
          },
          {
            "astId": 9345,
            "contract": "contracts/oracle/uniswap/UniswapOracleTWAPCompare.sol:UniswapOracleTWAPCompare",
            "label": "blockTimestampLast",
            "offset": 0,
            "slot": "4",
            "type": "t_uint32"
          },
          {
            "astId": 9347,
            "contract": "contracts/oracle/uniswap/UniswapOracleTWAPCompare.sol:UniswapOracleTWAPCompare",
            "label": "price0Average",
            "offset": 0,
            "slot": "5",
            "type": "t_struct(uq112x112)3331_storage"
          },
          {
            "astId": 9349,
            "contract": "contracts/oracle/uniswap/UniswapOracleTWAPCompare.sol:UniswapOracleTWAPCompare",
            "label": "price1Average",
            "offset": 0,
            "slot": "6",
            "type": "t_struct(uq112x112)3331_storage"
          }
        ],
        "numberOfBytes": "224"
      },
      "t_struct(uq112x112)3331_storage": {
        "encoding": "inplace",
        "label": "struct FixedPoint.uq112x112",
        "members": [
          {
            "astId": 3330,
            "contract": "contracts/oracle/uniswap/UniswapOracleTWAPCompare.sol:UniswapOracleTWAPCompare",
            "label": "_x",
            "offset": 0,
            "slot": "0",
            "type": "t_uint224"
          }
        ],
        "numberOfBytes": "32"
      },
      "t_uint224": {
        "encoding": "inplace",
        "label": "uint224",
        "numberOfBytes": "28"
      },
      "t_uint256": {
        "encoding": "inplace",
        "label": "uint256",
        "numberOfBytes": "32"
      },
      "t_uint32": {
        "encoding": "inplace",
        "label": "uint32",
        "numberOfBytes": "4"
      }
    }
  }
}